{
  "_format": "hh-sol-artifact-1",
  "contractName": "SurveyStore",
  "sourceName": "contracts/survey-store.sol",
  "abi": [
    {
      "anonymous": false,
      "inputs": [
        {
          "indexed": true,
          "internalType": "address",
          "name": "owner",
          "type": "address"
        },
        {
          "indexed": false,
          "internalType": "string",
          "name": "surveyName",
          "type": "string"
        },
        {
          "indexed": false,
          "internalType": "string",
          "name": "ipfsCid",
          "type": "string"
        },
        {
          "indexed": false,
          "internalType": "string",
          "name": "didNil",
          "type": "string"
        },
        {
          "indexed": false,
          "internalType": "uint256",
          "name": "timestamp",
          "type": "uint256"
        }
      ],
      "name": "SurveyCreated",
      "type": "event"
    },
    {
      "inputs": [
        {
          "internalType": "string",
          "name": "surveyName",
          "type": "string"
        },
        {
          "internalType": "string",
          "name": "ipfsCid",
          "type": "string"
        },
        {
          "internalType": "string",
          "name": "didNil",
          "type": "string"
        }
      ],
      "name": "createSurvey",
      "outputs": [],
      "stateMutability": "nonpayable",
      "type": "function"
    },
    {
      "inputs": [
        {
          "internalType": "address",
          "name": "owner",
          "type": "address"
        },
        {
          "internalType": "string",
          "name": "surveyName",
          "type": "string"
        }
      ],
      "name": "getSurvey",
      "outputs": [
        {
          "internalType": "string",
          "name": "ipfsCid",
          "type": "string"
        },
        {
          "internalType": "string",
          "name": "didNil",
          "type": "string"
        },
        {
          "internalType": "address",
          "name": "surveyOwner",
          "type": "address"
        },
        {
          "internalType": "uint256",
          "name": "createdAt",
          "type": "uint256"
        }
      ],
      "stateMutability": "view",
      "type": "function"
    },
    {
      "inputs": [
        {
          "internalType": "address",
          "name": "owner",
          "type": "address"
        },
        {
          "internalType": "string",
          "name": "surveyName",
          "type": "string"
        }
      ],
      "name": "getSurveyCid",
      "outputs": [
        {
          "internalType": "string",
          "name": "",
          "type": "string"
        }
      ],
      "stateMutability": "view",
      "type": "function"
    },
    {
      "inputs": [
        {
          "internalType": "address",
          "name": "owner",
          "type": "address"
        },
        {
          "internalType": "string",
          "name": "surveyName",
          "type": "string"
        }
      ],
      "name": "getSurveyDidNil",
      "outputs": [
        {
          "internalType": "string",
          "name": "",
          "type": "string"
        }
      ],
      "stateMutability": "view",
      "type": "function"
    },
    {
      "inputs": [
        {
          "internalType": "address",
          "name": "authSigAddress",
          "type": "address"
        },
        {
          "internalType": "string",
          "name": "surveyName",
          "type": "string"
        }
      ],
      "name": "isOwner",
      "outputs": [
        {
          "internalType": "bool",
          "name": "",
          "type": "bool"
        }
      ],
      "stateMutability": "view",
      "type": "function"
    },
    {
      "inputs": [
        {
          "internalType": "address",
          "name": "owner",
          "type": "address"
        },
        {
          "internalType": "string",
          "name": "surveyName",
          "type": "string"
        }
      ],
      "name": "surveyExists",
      "outputs": [
        {
          "internalType": "bool",
          "name": "",
          "type": "bool"
        }
      ],
      "stateMutability": "view",
      "type": "function"
    }
  ],
  "bytecode": "0x6080806040523461001657610a70908161001c8239f35b600080fdfe6080604052600436101561001257600080fd5b60003560e01c80630da6428c1461005e5780634a8e756414610743578063afe2d16e146101ef578063c307ccf014610176578063c7ee0cb3146100635763cd3799641461005e57600080fd5b610879565b346101715761015561007436610836565b6100e260018060a01b0380931691826000526020928391600083526040600020916100c460ff60046040518781875198828901996100b381848d6108cf565b820190815203019020015416610917565b600052600083526040600020906040519485938492519283916108cf565b820190815203019020610162604051926100fb846107a1565b61010483610995565b845261011260018401610995565b9485828601526002840154169384604082015260ff60046003860154958660608501520154161515608082015251946040519687966080885260808801906108f2565b91868303908701526108f2565b91604084015260608301520390f35b600080fd5b34610171576101c76101d6600161018c36610836565b9390828060a01b031693846000526020948591600083526040600020916100c460ff60046040518781875198828901996100b381848d6108cf565b82019081520301902001610995565b906101eb6040519282849384528301906108f2565b0390f35b346101715760603660031901126101715760043567ffffffffffffffff8111610171576102209036906004016107df565b60243567ffffffffffffffff8111610171576102409036906004016107df565b60443567ffffffffffffffff8111610171576102609036906004016107df565b908251156106fe578051156106b95781511561067457336000526000602052604060002060ff6004604051602081885195828a01966102a081848a6108cf565b820190815203019020015416610637576102fb6020604051926102c2846107a1565b84845285828501523360408501524260608501526001608085015233600052600082526040600020604051809481938a519283916108cf565b820190815203019020815180519067ffffffffffffffff821161055a578190610324845461095b565b601f81116105e7575b50602090601f831160011461057b57600092610570575b50508160011b916000199060031b1c19161781555b602082015180519067ffffffffffffffff821161055a5761037d600184015461095b565b601f8111610513575b50602090601f831160011461047657600461044e948461045c98957f38d60978c6e1c77056d64bb66cf4ab44f8aa26482cd8a63bbdf3c2dcbf6ff2c39a989560809560009261046b575b50508160011b916000199060031b1c19161760018201555b6002810160018060a01b036040860151166bffffffffffffffffffffffff60a01b8254161790556060840151600382015501910151151560ff80198354169116179055610440604051966080885260808801906108f2565b9086820360208801526108f2565b9084820360408601526108f2565b914260608201528033930390a2005b015190508c806103d0565b90601f198316916001850160005260206000209260005b8181106104fb5750946001857f38d60978c6e1c77056d64bb66cf4ab44f8aa26482cd8a63bbdf3c2dcbf6ff2c39a989560809560049561045c9c9961044e9b106104e2575b505050811b0160018201556103e8565b015160001960f88460031b161c191690558c80806104d2565b9293602060018192878601518155019501930161048d565b600184016000526020600020601f840160051c810160208510610553575b601f830160051c82018110610547575050610386565b60008155600101610531565b5080610531565b634e487b7160e01b600052604160045260246000fd5b015190508780610344565b9250836000526020600020906000935b601f19841685106105cc576001945083601f198116106105b3575b505050811b018155610359565b015160001960f88460031b161c191690558780806105a6565b8181015183556020948501946001909301929091019061058b565b909150836000526020600020601f840160051c810160208510610630575b90849392915b601f830160051c8201811061062157505061032d565b6000815585945060010161060b565b5080610605565b60405162461bcd60e51b815260206004820152601560248201527453757276657920616c72656164792065786973747360581b6044820152606490fd5b60405162461bcd60e51b815260206004820152601760248201527f4449443a4e494c2063616e6e6f7420626520656d7074790000000000000000006044820152606490fd5b60405162461bcd60e51b815260206004820152601860248201527f49504653204349442063616e6e6f7420626520656d70747900000000000000006044820152606490fd5b60405162461bcd60e51b815260206004820152601b60248201527f537572766579206e616d652063616e6e6f7420626520656d70747900000000006044820152606490fd5b34610171576107936101d661075736610836565b929060018060a01b031692836000526020938491600083526040600020916100c460ff60046040518781875198828901996100b381848d6108cf565b820190815203019020610995565b60a0810190811067ffffffffffffffff82111761055a57604052565b90601f8019910116810190811067ffffffffffffffff82111761055a57604052565b81601f820112156101715780359067ffffffffffffffff821161055a5760405192610814601f8401601f1916602001856107bd565b8284526020838301011161017157816000926020809301838601378301015290565b906040600319830112610171576004356001600160a01b038116810361017157916024359067ffffffffffffffff821161017157610876916004016107df565b90565b3461017157602060ff60046108b98361089136610836565b9060018060a01b031660005260008252604060002082604051948386809551938492016108cf565b8201908152030190200154166040519015158152f35b60005b8381106108e25750506000910152565b81810151838201526020016108d2565b9060209161090b815180928185528580860191016108cf565b601f01601f1916010190565b1561091e57565b60405162461bcd60e51b815260206004820152601560248201527414dd5c9d995e48191bd95cc81b9bdd08195e1a5cdd605a1b6044820152606490fd5b90600182811c9216801561098b575b602083101461097557565b634e487b7160e01b600052602260045260246000fd5b91607f169161096a565b906040519182600082546109a88161095b565b90818452602094600191600181169081600014610a1857506001146109d9575b5050506109d7925003836107bd565b565b600090815285812095935091905b818310610a005750506109d793508201013880806109c8565b855488840185015294850194879450918301916109e7565b925050506109d794925060ff191682840152151560051b8201013880806109c856fea26469706673582212202203bc684f479cf9a8ef94c6bd97372bdd474606312688ee04caa195f003e25464736f6c63430008180033",
  "linkReferences": {},
  "deployedLinkReferences": {}
}