{
  "_format": "hh-sol-artifact-1",
  "contractName": "SurveyAdapter",
  "sourceName": "contracts/survey-adapter.sol",
  "abi": [
    {
      "inputs": [
        {
          "internalType": "address",
          "name": "surveyStoreAddress",
          "type": "address"
        }
      ],
      "stateMutability": "nonpayable",
      "type": "constructor"
    },
    {
      "inputs": [
        {
          "internalType": "address",
          "name": "user",
          "type": "address"
        },
        {
          "internalType": "string",
          "name": "surveyId",
          "type": "string"
        }
      ],
      "name": "balanceOf",
      "outputs": [
        {
          "internalType": "uint256",
          "name": "",
          "type": "uint256"
        }
      ],
      "stateMutability": "view",
      "type": "function"
    },
    {
      "inputs": [],
      "name": "surveyStore",
      "outputs": [
        {
          "internalType": "contract SurveyStore",
          "name": "",
          "type": "address"
        }
      ],
      "stateMutability": "view",
      "type": "function"
    }
  ],
  "bytecode": "0x60803461007457601f6102d938819003918201601f19168301916001600160401b038311848410176100795780849260209460405283398101031261007457516001600160a01b0381169081900361007457600080546001600160a01b03191691909117905560405161024990816100908239f35b600080fd5b634e487b7160e01b600052604160045260246000fdfe60806040818152600436101561001457600080fd5b600091823560e01c9081635410cb33146101b7575063b9b092c81461003857600080fd5b3461016e578060031936011261016e576001600160a01b03916004358381169081900361016e5760243567ffffffffffffffff8082116101b357366023830112156101b357816004013590811161019f57602095601f19918651936100a48985601f85011601866101db565b818552366024838301011161019b57888281969795949360248a9401838a01378701015285541690865194859363334de65960e21b8552600485015287602485015280519081604486015285885b83811061018357505050838092601f838a6064809686010152011681010301915afa90811561017957829161013f575b5015610136575060ff6001915b5191168152f35b60ff909161012f565b90508381813d8311610172575b61015681836101db565b8101031261016e5751801515810361016e5738610122565b5080fd5b503d61014c565b83513d84823e3d90fd5b828101820151898201606401528896508791016100f2565b8680fd5b634e487b7160e01b84526041600452602484fd5b8380fd5b83903461016e578160031936011261016e5790546001600160a01b03168152602090f35b90601f8019910116810190811067ffffffffffffffff8211176101fd57604052565b634e487b7160e01b600052604160045260246000fdfea2646970667358221220065c96e258d648d20a9073ecfd725c40d5943ed3f5054f25018ef1fd0908645d64736f6c63430008180033",
  "linkReferences": {},
  "deployedLinkReferences": {}
}