{"contracts/survey-store.sol":{"S3ntimentSurveyStore":{"abi":[{"inputs":[],"name":"InvalidSignature","type":"error"},{"inputs":[],"name":"NullifierAlreadyUsed","type":"error"},{"inputs":[],"name":"SignerNotSurveyOwner","type":"error"},{"inputs":[],"name":"SurveyAlreadyExists","type":"error"},{"inputs":[],"name":"SurveyNotFound","type":"error"},{"anonymous":false,"inputs":[{"indexed":true,"internalType":"string","name":"surveyId","type":"string"},{"indexed":true,"internalType":"string","name":"batchId","type":"string"},{"indexed":false,"internalType":"string","name":"nullifier","type":"string"},{"indexed":false,"internalType":"uint256","name":"newCount","type":"uint256"}],"name":"CardValidated","type":"event"},{"anonymous":false,"inputs":[{"indexed":true,"internalType":"address","name":"signer","type":"address"},{"indexed":false,"internalType":"bytes32","name":"messageHash","type":"bytes32"}],"name":"SignatureValidated","type":"event"},{"anonymous":false,"inputs":[{"indexed":true,"internalType":"address","name":"owner","type":"address"},{"indexed":false,"internalType":"string","name":"surveyId","type":"string"},{"indexed":false,"internalType":"string","name":"ipfsCid","type":"string"},{"indexed":false,"internalType":"uint256","name":"timestamp","type":"uint256"}],"name":"SurveyCreated","type":"event"},{"inputs":[{"internalType":"string","name":"","type":"string"},{"internalType":"string","name":"","type":"string"}],"name":"batchCardCount","outputs":[{"internalType":"uint256","name":"","type":"uint256"}],"stateMutability":"view","type":"function"},{"inputs":[{"internalType":"string","name":"surveyId","type":"string"},{"internalType":"string","name":"ipfsCid","type":"string"}],"name":"createSurvey","outputs":[],"stateMutability":"nonpayable","type":"function"},{"inputs":[{"internalType":"string","name":"surveyId","type":"string"},{"internalType":"string","name":"batchId","type":"string"}],"name":"getBatchCount","outputs":[{"internalType":"uint256","name":"","type":"uint256"}],"stateMutability":"view","type":"function"},{"inputs":[{"internalType":"address","name":"owner","type":"address"}],"name":"getOwnerSurveyCount","outputs":[{"internalType":"uint256","name":"","type":"uint256"}],"stateMutability":"view","type":"function"},{"inputs":[{"internalType":"address","name":"owner","type":"address"}],"name":"getOwnerSurveys","outputs":[{"internalType":"string[]","name":"","type":"string[]"}],"stateMutability":"view","type":"function"},{"inputs":[{"internalType":"string","name":"surveyId","type":"string"}],"name":"getSurvey","outputs":[{"internalType":"string","name":"ipfsCid","type":"string"},{"internalType":"address","name":"owner","type":"address"},{"internalType":"uint256","name":"createdAt","type":"uint256"}],"stateMutability":"view","type":"function"},{"inputs":[{"internalType":"string","name":"nullifier","type":"string"},{"internalType":"string","name":"batchId","type":"string"}],"name":"isNullifierUsed","outputs":[{"internalType":"bool","name":"","type":"bool"}],"stateMutability":"view","type":"function"},{"inputs":[{"internalType":"address","name":"authSigAddress","type":"address"},{"internalType":"string","name":"surveyId","type":"string"}],"name":"isOwner","outputs":[{"internalType":"bool","name":"","type":"bool"}],"stateMutability":"view","type":"function"},{"inputs":[{"internalType":"string","name":"surveyId","type":"string"}],"name":"surveyExists","outputs":[{"internalType":"bool","name":"","type":"bool"}],"stateMutability":"view","type":"function"},{"inputs":[{"internalType":"bytes32","name":"","type":"bytes32"}],"name":"usedNullifiers","outputs":[{"internalType":"bool","name":"","type":"bool"}],"stateMutability":"view","type":"function"},{"inputs":[{"internalType":"string","name":"nullifier","type":"string"},{"internalType":"bytes","name":"signature","type":"bytes"},{"internalType":"string","name":"batchId","type":"string"},{"internalType":"string","name":"surveyId","type":"string"}],"name":"validateCard","outputs":[{"internalType":"bool","name":"","type":"bool"}],"stateMutability":"nonpayable","type":"function"}],"evm":{"bytecode":{"linkReferences":{},"object":"6080806040523461001657610f4c908161001c8239f35b600080fdfe6080604052600436101561001257600080fd5b60003560e01c8063206137aa146100c25780633cfebb6e146100bd57806342abbabd146100b857806394b2c95c146100b35780639ee8481214610095578063be7d3568146100ae578063c15d3593146100a9578063c5b88066146100a4578063c6576e471461009f578063cd3799641461009a5763ce2680701461009557600080fd5b610432565b6106b5565b610622565b6105e8565b61053c565b61045e565b6103ba565b610347565b6101ba565b346100f35760203660031901126100f3576004356000526003602052602060ff604060002054166040519015158152f35b600080fd5b600435906001600160a01b03821682036100f357565b60005b8381106101215750506000910152565b8181015183820152602001610111565b9060209161014a8151809281855285808601910161010e565b601f01601f1916010190565b6020808201906020835283518092526040830192602060408460051b8301019501936000915b84831061018c5750505050505090565b90919293949584806101aa600193603f198682030187528a51610131565b980193019301919493929061017c565b346100f3576020806003193601126100f3576001600160a01b036101dc6100f8565b1660005260019060018152604060002080549067ffffffffffffffff82116102545760405192610211818460051b0185610286565b82845260009182528082208185015b84841061023957604051806102358882610156565b0390f35b86838192610246856107d5565b815201920193019290610220565b634e487b7160e01b600052604160045260246000fd5b6060810190811067ffffffffffffffff82111761025457604052565b90601f8019910116810190811067ffffffffffffffff82111761025457604052565b604051906102b58261026a565b565b92919267ffffffffffffffff821161025457604051916102e1601f8201601f191660200184610286565b8294818452818301116100f3578281602093846000960137010152565b9080601f830112156100f357816020610319933591016102b7565b90565b60206003198201126100f3576004359067ffffffffffffffff82116100f357610319916004016102fe565b346100f35760206001600160a01b0360016103696103643661031c565b610729565b0154161515604051908152f35b9060406003198301126100f35767ffffffffffffffff6004358181116100f357836103a3916004016102fe565b926024359182116100f357610319916004016102fe565b346100f3576103c836610376565b90604051610415602182602095866103e9818401978881519384920161010e565b8201601f60fa1b88820152610406825180938a878501910161010e565b01036001810184520182610286565b5190206000526003815260ff604060002054166040519015158152f35b346100f357602061045561044f61044836610376565b919061074f565b90610775565b54604051908152f35b346100f35761046c36610376565b9061047981511515610878565b610485825115156108c4565b6001600160a01b036104a9600161049b84610729565b01546001600160a01b031690565b1661052a576105257fdb3a8af2f37abe346b31fdd308fc1e8bcdfe1512f0e0a9790d5677cb5e3ba2c6916104fb6104de6102a8565b8581523360208201524260408201526104f683610729565b610a3c565b336000908152600160205260409020610515908290610a7b565b6040519182913395429184610ac5565b0390a2005b604051630b6ed0e760e21b8152600490fd5b346100f35760803660031901126100f35767ffffffffffffffff6004358181116100f35761056e9036906004016102fe565b906024358181116100f357366023820112156100f3576105989036906024816004013591016102b7565b916044358281116100f3576105b19036906004016102fe565b6064359283116100f357610235936105d06105d69436906004016102fe565b92610b8c565b60405190151581529081906020820190565b346100f35760203660031901126100f3576001600160a01b036106096100f8565b1660005260016020526020604060002054604051908152f35b346100f3576106336103643661031c565b604051906106408261026a565b610649816107d5565b825260018101546001600160a01b0390811660208401818152600290930154604085019081529190156106a35761069493519251169051604051938493606085526060850190610131565b91602084015260408301520390f35b604051637e3336d960e01b8152600490fd5b346100f35760403660031901126100f3576106ce6100f8565b6024359067ffffffffffffffff82116100f3576020916001600160a01b03908190600190610704906103649036906004016102fe565b015416906040519216148152f35b906107256020928281519485920161010e565b0190565b602061074291816040519382858094519384920161010e565b8101600081520301902090565b602061076891816040519382858094519384920161010e565b8101600281520301902090565b60209061078f92826040519483868095519384920161010e565b82019081520301902090565b90600182811c921680156107cb575b60208310146107b557565b634e487b7160e01b600052602260045260246000fd5b91607f16916107aa565b906040519182600082546107e88161079b565b908184526020946001916001811690816000146108565750600114610817575b5050506102b592500383610286565b600090815285812095935091905b81831061083e5750506102b59350820101388080610808565b85548884018501529485019487945091830191610825565b925050506102b594925060ff191682840152151560051b820101388080610808565b1561087f57565b60405162461bcd60e51b815260206004820152601960248201527f5375727665792049442063616e6e6f7420626520656d707479000000000000006044820152606490fd5b156108cb57565b60405162461bcd60e51b815260206004820152601860248201527f49504653204349442063616e6e6f7420626520656d70747900000000000000006044820152606490fd5b90601f811161091e57505050565b6000916000526020600020906020601f850160051c8301941061095c575b601f0160051c01915b82811061095157505050565b818155600101610945565b909250829061093c565b919091825167ffffffffffffffff81116102545761098e81610988845461079b565b84610910565b602080601f83116001146109d1575081906109c29394956000926109c6575b50508160011b916000199060031b1c19161790565b9055565b0151905038806109ad565b90601f198316956109e785600052602060002090565b926000905b888210610a2457505083600195969710610a0b575b505050811b019055565b015160001960f88460031b161c19169055388080610a01565b806001859682949686015181550195019301906109ec565b906040600291610a4d815185610966565b6001840160018060a01b036020830151166bffffffffffffffffffffffff60a01b8254161790550151910155565b908154680100000000000000008110156102545760018101808455811015610aaf576102b592600052602060002001610966565b634e487b7160e01b600052603260045260246000fd5b939291610aee90610ae0604093606088526060880190610131565b908682036020880152610131565b930152565b90604051610b008161026a565b604060028294610b0f816107d5565b845260018101546001600160a01b031660208501520154910152565b634e487b7160e01b600052601160045260246000fd5b6000198114610b505760010190565b610b2b565b610b6d9060206040519282848094519384920161010e565b810103902090565b929190610aee602091604086526040860190610131565b929091926020610ba3610b9e84610729565b610af3565b01805190946001600160a01b039390918416156106a357604093845190610c97610c8b610c7d84610bf0610bea610bdd602084018c610712565b601f60fa1b815260010190565b89610712565b0394610c04601f1996878101835282610286565b8951610c2481610c18602082018095610712565b03888101835282610286565b519020948951610c73602082019282610c678a86603c917f19457468657265756d205369676e6564204d6573736167653a0a3332000000008252601c8201520190565b03908101835282610286565b519020998a610e26565b99516001600160a01b031690565b6001600160a01b031690565b9716968703610dac57610cbe610cb7826000526003602052604060002090565b5460ff1690565b610d9b57917f120be7a779fd31251124a6f0146622671a554fe5d1f554dc51006fc59b6dc1fe7fe6d0ab9c1bd0870c933bbb7d65e7a1ea1258be080d623c1ea46dce5cca03c55f969492610d30610d23610d9398966000526003602052604060002090565b805460ff19166001179055565b610d42610d3c8261074f565b84610775565b610d4c8154610b41565b9055610d73610d6d610d66610d608461074f565b86610775565b5492610b55565b93610b55565b93610d82865192839283610b75565b0390a3519081529081906020820190565b0390a2600190565b8451636569570160e11b8152600490fd5b8451635a1f7bdd60e01b8152600490fd5b60ff601b9116019060ff8211610b5057565b15610dd657565b606460405162461bcd60e51b815260206004820152602060248201527f496e76616c6964207369676e6174757265207265636f766572792076616c75656044820152fd5b6040513d6000823e3d90fd5b6041825103610ed1576020916000918291848101519260606040830151920151901a92601b8410610eba575b90610e9691610e7060ff8616601b8114908115610eaf575b50610dcf565b604051948594859094939260ff6060936080840197845216602083015260408201520152565b838052039060015afa15610eaa5760005190565b610e1a565b601c91501438610e6a565b9290610ec8610e9692610dbd565b93909150610e52565b60405162461bcd60e51b815260206004820152601860248201527f496e76616c6964207369676e6174757265206c656e67746800000000000000006044820152606490fdfea2646970667358221220bdeb20675e2af9508c3c890927123f1e554a89800e92564cf1f412a248fb679164736f6c63430008180033","opcodes":"PUSH1 0x80 DUP1 PUSH1 0x40 MSTORE CALLVALUE PUSH2 0x16 JUMPI PUSH2 0xF4C SWAP1 DUP2 PUSH2 0x1C DUP3 CODECOPY RETURN JUMPDEST PUSH1 0x0 DUP1 REVERT INVALID PUSH1 0x80 PUSH1 0x40 MSTORE PUSH1 0x4 CALLDATASIZE LT ISZERO PUSH2 0x12 JUMPI PUSH1 0x0 DUP1 REVERT JUMPDEST PUSH1 0x0 CALLDATALOAD PUSH1 0xE0 SHR DUP1 PUSH4 0x206137AA EQ PUSH2 0xC2 JUMPI DUP1 PUSH4 0x3CFEBB6E EQ PUSH2 0xBD JUMPI DUP1 PUSH4 0x42ABBABD EQ PUSH2 0xB8 JUMPI DUP1 PUSH4 0x94B2C95C EQ PUSH2 0xB3 JUMPI DUP1 PUSH4 0x9EE84812 EQ PUSH2 0x95 JUMPI DUP1 PUSH4 0xBE7D3568 EQ PUSH2 0xAE JUMPI DUP1 PUSH4 0xC15D3593 EQ PUSH2 0xA9 JUMPI DUP1 PUSH4 0xC5B88066 EQ PUSH2 0xA4 JUMPI DUP1 PUSH4 0xC6576E47 EQ PUSH2 0x9F JUMPI DUP1 PUSH4 0xCD379964 EQ PUSH2 0x9A JUMPI PUSH4 0xCE268070 EQ PUSH2 0x95 JUMPI PUSH1 0x0 DUP1 REVERT JUMPDEST PUSH2 0x432 JUMP JUMPDEST PUSH2 0x6B5 JUMP JUMPDEST PUSH2 0x622 JUMP JUMPDEST PUSH2 0x5E8 JUMP JUMPDEST PUSH2 0x53C JUMP JUMPDEST PUSH2 0x45E JUMP JUMPDEST PUSH2 0x3BA JUMP JUMPDEST PUSH2 0x347 JUMP JUMPDEST PUSH2 0x1BA JUMP JUMPDEST CALLVALUE PUSH2 0xF3 JUMPI PUSH1 0x20 CALLDATASIZE PUSH1 0x3 NOT ADD SLT PUSH2 0xF3 JUMPI PUSH1 0x4 CALLDATALOAD PUSH1 0x0 MSTORE PUSH1 0x3 PUSH1 0x20 MSTORE PUSH1 0x20 PUSH1 0xFF PUSH1 0x40 PUSH1 0x0 KECCAK256 SLOAD AND PUSH1 0x40 MLOAD SWAP1 ISZERO ISZERO DUP2 MSTORE RETURN JUMPDEST PUSH1 0x0 DUP1 REVERT JUMPDEST PUSH1 0x4 CALLDATALOAD SWAP1 PUSH1 0x1 PUSH1 0x1 PUSH1 0xA0 SHL SUB DUP3 AND DUP3 SUB PUSH2 0xF3 JUMPI JUMP JUMPDEST PUSH1 0x0 JUMPDEST DUP4 DUP2 LT PUSH2 0x121 JUMPI POP POP PUSH1 0x0 SWAP2 ADD MSTORE JUMP JUMPDEST DUP2 DUP2 ADD MLOAD DUP4 DUP3 ADD MSTORE PUSH1 0x20 ADD PUSH2 0x111 JUMP JUMPDEST SWAP1 PUSH1 0x20 SWAP2 PUSH2 0x14A DUP2 MLOAD DUP1 SWAP3 DUP2 DUP6 MSTORE DUP6 DUP1 DUP7 ADD SWAP2 ADD PUSH2 0x10E JUMP JUMPDEST PUSH1 0x1F ADD PUSH1 0x1F NOT AND ADD ADD SWAP1 JUMP JUMPDEST PUSH1 0x20 DUP1 DUP3 ADD SWAP1 PUSH1 0x20 DUP4 MSTORE DUP4 MLOAD DUP1 SWAP3 MSTORE PUSH1 0x40 DUP4 ADD SWAP3 PUSH1 0x20 PUSH1 0x40 DUP5 PUSH1 0x5 SHL DUP4 ADD ADD SWAP6 ADD SWAP4 PUSH1 0x0 SWAP2 JUMPDEST DUP5 DUP4 LT PUSH2 0x18C JUMPI POP POP POP POP POP POP SWAP1 JUMP JUMPDEST SWAP1 SWAP2 SWAP3 SWAP4 SWAP5 SWAP6 DUP5 DUP1 PUSH2 0x1AA PUSH1 0x1 SWAP4 PUSH1 0x3F NOT DUP7 DUP3 SUB ADD DUP8 MSTORE DUP11 MLOAD PUSH2 0x131 JUMP JUMPDEST SWAP9 ADD SWAP4 ADD SWAP4 ADD SWAP2 SWAP5 SWAP4 SWAP3 SWAP1 PUSH2 0x17C JUMP JUMPDEST CALLVALUE PUSH2 0xF3 JUMPI PUSH1 0x20 DUP1 PUSH1 0x3 NOT CALLDATASIZE ADD SLT PUSH2 0xF3 JUMPI PUSH1 0x1 PUSH1 0x1 PUSH1 0xA0 SHL SUB PUSH2 0x1DC PUSH2 0xF8 JUMP JUMPDEST AND PUSH1 0x0 MSTORE PUSH1 0x1 SWAP1 PUSH1 0x1 DUP2 MSTORE PUSH1 0x40 PUSH1 0x0 KECCAK256 DUP1 SLOAD SWAP1 PUSH8 0xFFFFFFFFFFFFFFFF DUP3 GT PUSH2 0x254 JUMPI PUSH1 0x40 MLOAD SWAP3 PUSH2 0x211 DUP2 DUP5 PUSH1 0x5 SHL ADD DUP6 PUSH2 0x286 JUMP JUMPDEST DUP3 DUP5 MSTORE PUSH1 0x0 SWAP2 DUP3 MSTORE DUP1 DUP3 KECCAK256 DUP2 DUP6 ADD JUMPDEST DUP5 DUP5 LT PUSH2 0x239 JUMPI PUSH1 0x40 MLOAD DUP1 PUSH2 0x235 DUP9 DUP3 PUSH2 0x156 JUMP JUMPDEST SUB SWAP1 RETURN JUMPDEST DUP7 DUP4 DUP2 SWAP3 PUSH2 0x246 DUP6 PUSH2 0x7D5 JUMP JUMPDEST DUP2 MSTORE ADD SWAP3 ADD SWAP4 ADD SWAP3 SWAP1 PUSH2 0x220 JUMP JUMPDEST PUSH4 0x4E487B71 PUSH1 0xE0 SHL PUSH1 0x0 MSTORE PUSH1 0x41 PUSH1 0x4 MSTORE PUSH1 0x24 PUSH1 0x0 REVERT JUMPDEST PUSH1 0x60 DUP2 ADD SWAP1 DUP2 LT PUSH8 0xFFFFFFFFFFFFFFFF DUP3 GT OR PUSH2 0x254 JUMPI PUSH1 0x40 MSTORE JUMP JUMPDEST SWAP1 PUSH1 0x1F DUP1 NOT SWAP2 ADD AND DUP2 ADD SWAP1 DUP2 LT PUSH8 0xFFFFFFFFFFFFFFFF DUP3 GT OR PUSH2 0x254 JUMPI PUSH1 0x40 MSTORE JUMP JUMPDEST PUSH1 0x40 MLOAD SWAP1 PUSH2 0x2B5 DUP3 PUSH2 0x26A JUMP JUMPDEST JUMP JUMPDEST SWAP3 SWAP2 SWAP3 PUSH8 0xFFFFFFFFFFFFFFFF DUP3 GT PUSH2 0x254 JUMPI PUSH1 0x40 MLOAD SWAP2 PUSH2 0x2E1 PUSH1 0x1F DUP3 ADD PUSH1 0x1F NOT AND PUSH1 0x20 ADD DUP5 PUSH2 0x286 JUMP JUMPDEST DUP3 SWAP5 DUP2 DUP5 MSTORE DUP2 DUP4 ADD GT PUSH2 0xF3 JUMPI DUP3 DUP2 PUSH1 0x20 SWAP4 DUP5 PUSH1 0x0 SWAP7 ADD CALLDATACOPY ADD ADD MSTORE JUMP JUMPDEST SWAP1 DUP1 PUSH1 0x1F DUP4 ADD SLT ISZERO PUSH2 0xF3 JUMPI DUP2 PUSH1 0x20 PUSH2 0x319 SWAP4 CALLDATALOAD SWAP2 ADD PUSH2 0x2B7 JUMP JUMPDEST SWAP1 JUMP JUMPDEST PUSH1 0x20 PUSH1 0x3 NOT DUP3 ADD SLT PUSH2 0xF3 JUMPI PUSH1 0x4 CALLDATALOAD SWAP1 PUSH8 0xFFFFFFFFFFFFFFFF DUP3 GT PUSH2 0xF3 JUMPI PUSH2 0x319 SWAP2 PUSH1 0x4 ADD PUSH2 0x2FE JUMP JUMPDEST CALLVALUE PUSH2 0xF3 JUMPI PUSH1 0x20 PUSH1 0x1 PUSH1 0x1 PUSH1 0xA0 SHL SUB PUSH1 0x1 PUSH2 0x369 PUSH2 0x364 CALLDATASIZE PUSH2 0x31C JUMP JUMPDEST PUSH2 0x729 JUMP JUMPDEST ADD SLOAD AND ISZERO ISZERO PUSH1 0x40 MLOAD SWAP1 DUP2 MSTORE RETURN JUMPDEST SWAP1 PUSH1 0x40 PUSH1 0x3 NOT DUP4 ADD SLT PUSH2 0xF3 JUMPI PUSH8 0xFFFFFFFFFFFFFFFF PUSH1 0x4 CALLDATALOAD DUP2 DUP2 GT PUSH2 0xF3 JUMPI DUP4 PUSH2 0x3A3 SWAP2 PUSH1 0x4 ADD PUSH2 0x2FE JUMP JUMPDEST SWAP3 PUSH1 0x24 CALLDATALOAD SWAP2 DUP3 GT PUSH2 0xF3 JUMPI PUSH2 0x319 SWAP2 PUSH1 0x4 ADD PUSH2 0x2FE JUMP JUMPDEST CALLVALUE PUSH2 0xF3 JUMPI PUSH2 0x3C8 CALLDATASIZE PUSH2 0x376 JUMP JUMPDEST SWAP1 PUSH1 0x40 MLOAD PUSH2 0x415 PUSH1 0x21 DUP3 PUSH1 0x20 SWAP6 DUP7 PUSH2 0x3E9 DUP2 DUP5 ADD SWAP8 DUP9 DUP2 MLOAD SWAP4 DUP5 SWAP3 ADD PUSH2 0x10E JUMP JUMPDEST DUP3 ADD PUSH1 0x1F PUSH1 0xFA SHL DUP9 DUP3 ADD MSTORE PUSH2 0x406 DUP3 MLOAD DUP1 SWAP4 DUP11 DUP8 DUP6 ADD SWAP2 ADD PUSH2 0x10E JUMP JUMPDEST ADD SUB PUSH1 0x1 DUP2 ADD DUP5 MSTORE ADD DUP3 PUSH2 0x286 JUMP JUMPDEST MLOAD SWAP1 KECCAK256 PUSH1 0x0 MSTORE PUSH1 0x3 DUP2 MSTORE PUSH1 0xFF PUSH1 0x40 PUSH1 0x0 KECCAK256 SLOAD AND PUSH1 0x40 MLOAD SWAP1 ISZERO ISZERO DUP2 MSTORE RETURN JUMPDEST CALLVALUE PUSH2 0xF3 JUMPI PUSH1 0x20 PUSH2 0x455 PUSH2 0x44F PUSH2 0x448 CALLDATASIZE PUSH2 0x376 JUMP JUMPDEST SWAP2 SWAP1 PUSH2 0x74F JUMP JUMPDEST SWAP1 PUSH2 0x775 JUMP JUMPDEST SLOAD PUSH1 0x40 MLOAD SWAP1 DUP2 MSTORE RETURN JUMPDEST CALLVALUE PUSH2 0xF3 JUMPI PUSH2 0x46C CALLDATASIZE PUSH2 0x376 JUMP JUMPDEST SWAP1 PUSH2 0x479 DUP2 MLOAD ISZERO ISZERO PUSH2 0x878 JUMP JUMPDEST PUSH2 0x485 DUP3 MLOAD ISZERO ISZERO PUSH2 0x8C4 JUMP JUMPDEST PUSH1 0x1 PUSH1 0x1 PUSH1 0xA0 SHL SUB PUSH2 0x4A9 PUSH1 0x1 PUSH2 0x49B DUP5 PUSH2 0x729 JUMP JUMPDEST ADD SLOAD PUSH1 0x1 PUSH1 0x1 PUSH1 0xA0 SHL SUB AND SWAP1 JUMP JUMPDEST AND PUSH2 0x52A JUMPI PUSH2 0x525 PUSH32 0xDB3A8AF2F37ABE346B31FDD308FC1E8BCDFE1512F0E0A9790D5677CB5E3BA2C6 SWAP2 PUSH2 0x4FB PUSH2 0x4DE PUSH2 0x2A8 JUMP JUMPDEST DUP6 DUP2 MSTORE CALLER PUSH1 0x20 DUP3 ADD MSTORE TIMESTAMP PUSH1 0x40 DUP3 ADD MSTORE PUSH2 0x4F6 DUP4 PUSH2 0x729 JUMP JUMPDEST PUSH2 0xA3C JUMP JUMPDEST CALLER PUSH1 0x0 SWAP1 DUP2 MSTORE PUSH1 0x1 PUSH1 0x20 MSTORE PUSH1 0x40 SWAP1 KECCAK256 PUSH2 0x515 SWAP1 DUP3 SWAP1 PUSH2 0xA7B JUMP JUMPDEST PUSH1 0x40 MLOAD SWAP2 DUP3 SWAP2 CALLER SWAP6 TIMESTAMP SWAP2 DUP5 PUSH2 0xAC5 JUMP JUMPDEST SUB SWAP1 LOG2 STOP JUMPDEST PUSH1 0x40 MLOAD PUSH4 0xB6ED0E7 PUSH1 0xE2 SHL DUP2 MSTORE PUSH1 0x4 SWAP1 REVERT JUMPDEST CALLVALUE PUSH2 0xF3 JUMPI PUSH1 0x80 CALLDATASIZE PUSH1 0x3 NOT ADD SLT PUSH2 0xF3 JUMPI PUSH8 0xFFFFFFFFFFFFFFFF PUSH1 0x4 CALLDATALOAD DUP2 DUP2 GT PUSH2 0xF3 JUMPI PUSH2 0x56E SWAP1 CALLDATASIZE SWAP1 PUSH1 0x4 ADD PUSH2 0x2FE JUMP JUMPDEST SWAP1 PUSH1 0x24 CALLDATALOAD DUP2 DUP2 GT PUSH2 0xF3 JUMPI CALLDATASIZE PUSH1 0x23 DUP3 ADD SLT ISZERO PUSH2 0xF3 JUMPI PUSH2 0x598 SWAP1 CALLDATASIZE SWAP1 PUSH1 0x24 DUP2 PUSH1 0x4 ADD CALLDATALOAD SWAP2 ADD PUSH2 0x2B7 JUMP JUMPDEST SWAP2 PUSH1 0x44 CALLDATALOAD DUP3 DUP2 GT PUSH2 0xF3 JUMPI PUSH2 0x5B1 SWAP1 CALLDATASIZE SWAP1 PUSH1 0x4 ADD PUSH2 0x2FE JUMP JUMPDEST PUSH1 0x64 CALLDATALOAD SWAP3 DUP4 GT PUSH2 0xF3 JUMPI PUSH2 0x235 SWAP4 PUSH2 0x5D0 PUSH2 0x5D6 SWAP5 CALLDATASIZE SWAP1 PUSH1 0x4 ADD PUSH2 0x2FE JUMP JUMPDEST SWAP3 PUSH2 0xB8C JUMP JUMPDEST PUSH1 0x40 MLOAD SWAP1 ISZERO ISZERO DUP2 MSTORE SWAP1 DUP2 SWAP1 PUSH1 0x20 DUP3 ADD SWAP1 JUMP JUMPDEST CALLVALUE PUSH2 0xF3 JUMPI PUSH1 0x20 CALLDATASIZE PUSH1 0x3 NOT ADD SLT PUSH2 0xF3 JUMPI PUSH1 0x1 PUSH1 0x1 PUSH1 0xA0 SHL SUB PUSH2 0x609 PUSH2 0xF8 JUMP JUMPDEST AND PUSH1 0x0 MSTORE PUSH1 0x1 PUSH1 0x20 MSTORE PUSH1 0x20 PUSH1 0x40 PUSH1 0x0 KECCAK256 SLOAD PUSH1 0x40 MLOAD SWAP1 DUP2 MSTORE RETURN JUMPDEST CALLVALUE PUSH2 0xF3 JUMPI PUSH2 0x633 PUSH2 0x364 CALLDATASIZE PUSH2 0x31C JUMP JUMPDEST PUSH1 0x40 MLOAD SWAP1 PUSH2 0x640 DUP3 PUSH2 0x26A JUMP JUMPDEST PUSH2 0x649 DUP2 PUSH2 0x7D5 JUMP JUMPDEST DUP3 MSTORE PUSH1 0x1 DUP2 ADD SLOAD PUSH1 0x1 PUSH1 0x1 PUSH1 0xA0 SHL SUB SWAP1 DUP2 AND PUSH1 0x20 DUP5 ADD DUP2 DUP2 MSTORE PUSH1 0x2 SWAP1 SWAP4 ADD SLOAD PUSH1 0x40 DUP6 ADD SWAP1 DUP2 MSTORE SWAP2 SWAP1 ISZERO PUSH2 0x6A3 JUMPI PUSH2 0x694 SWAP4 MLOAD SWAP3 MLOAD AND SWAP1 MLOAD PUSH1 0x40 MLOAD SWAP4 DUP5 SWAP4 PUSH1 0x60 DUP6 MSTORE PUSH1 0x60 DUP6 ADD SWAP1 PUSH2 0x131 JUMP JUMPDEST SWAP2 PUSH1 0x20 DUP5 ADD MSTORE PUSH1 0x40 DUP4 ADD MSTORE SUB SWAP1 RETURN JUMPDEST PUSH1 0x40 MLOAD PUSH4 0x7E3336D9 PUSH1 0xE0 SHL DUP2 MSTORE PUSH1 0x4 SWAP1 REVERT JUMPDEST CALLVALUE PUSH2 0xF3 JUMPI PUSH1 0x40 CALLDATASIZE PUSH1 0x3 NOT ADD SLT PUSH2 0xF3 JUMPI PUSH2 0x6CE PUSH2 0xF8 JUMP JUMPDEST PUSH1 0x24 CALLDATALOAD SWAP1 PUSH8 0xFFFFFFFFFFFFFFFF DUP3 GT PUSH2 0xF3 JUMPI PUSH1 0x20 SWAP2 PUSH1 0x1 PUSH1 0x1 PUSH1 0xA0 SHL SUB SWAP1 DUP2 SWAP1 PUSH1 0x1 SWAP1 PUSH2 0x704 SWAP1 PUSH2 0x364 SWAP1 CALLDATASIZE SWAP1 PUSH1 0x4 ADD PUSH2 0x2FE JUMP JUMPDEST ADD SLOAD AND SWAP1 PUSH1 0x40 MLOAD SWAP3 AND EQ DUP2 MSTORE RETURN JUMPDEST SWAP1 PUSH2 0x725 PUSH1 0x20 SWAP3 DUP3 DUP2 MLOAD SWAP5 DUP6 SWAP3 ADD PUSH2 0x10E JUMP JUMPDEST ADD SWAP1 JUMP JUMPDEST PUSH1 0x20 PUSH2 0x742 SWAP2 DUP2 PUSH1 0x40 MLOAD SWAP4 DUP3 DUP6 DUP1 SWAP5 MLOAD SWAP4 DUP5 SWAP3 ADD PUSH2 0x10E JUMP JUMPDEST DUP2 ADD PUSH1 0x0 DUP2 MSTORE SUB ADD SWAP1 KECCAK256 SWAP1 JUMP JUMPDEST PUSH1 0x20 PUSH2 0x768 SWAP2 DUP2 PUSH1 0x40 MLOAD SWAP4 DUP3 DUP6 DUP1 SWAP5 MLOAD SWAP4 DUP5 SWAP3 ADD PUSH2 0x10E JUMP JUMPDEST DUP2 ADD PUSH1 0x2 DUP2 MSTORE SUB ADD SWAP1 KECCAK256 SWAP1 JUMP JUMPDEST PUSH1 0x20 SWAP1 PUSH2 0x78F SWAP3 DUP3 PUSH1 0x40 MLOAD SWAP5 DUP4 DUP7 DUP1 SWAP6 MLOAD SWAP4 DUP5 SWAP3 ADD PUSH2 0x10E JUMP JUMPDEST DUP3 ADD SWAP1 DUP2 MSTORE SUB ADD SWAP1 KECCAK256 SWAP1 JUMP JUMPDEST SWAP1 PUSH1 0x1 DUP3 DUP2 SHR SWAP3 AND DUP1 ISZERO PUSH2 0x7CB JUMPI JUMPDEST PUSH1 0x20 DUP4 LT EQ PUSH2 0x7B5 JUMPI JUMP JUMPDEST PUSH4 0x4E487B71 PUSH1 0xE0 SHL PUSH1 0x0 MSTORE PUSH1 0x22 PUSH1 0x4 MSTORE PUSH1 0x24 PUSH1 0x0 REVERT JUMPDEST SWAP2 PUSH1 0x7F AND SWAP2 PUSH2 0x7AA JUMP JUMPDEST SWAP1 PUSH1 0x40 MLOAD SWAP2 DUP3 PUSH1 0x0 DUP3 SLOAD PUSH2 0x7E8 DUP2 PUSH2 0x79B JUMP JUMPDEST SWAP1 DUP2 DUP5 MSTORE PUSH1 0x20 SWAP5 PUSH1 0x1 SWAP2 PUSH1 0x1 DUP2 AND SWAP1 DUP2 PUSH1 0x0 EQ PUSH2 0x856 JUMPI POP PUSH1 0x1 EQ PUSH2 0x817 JUMPI JUMPDEST POP POP POP PUSH2 0x2B5 SWAP3 POP SUB DUP4 PUSH2 0x286 JUMP JUMPDEST PUSH1 0x0 SWAP1 DUP2 MSTORE DUP6 DUP2 KECCAK256 SWAP6 SWAP4 POP SWAP2 SWAP1 JUMPDEST DUP2 DUP4 LT PUSH2 0x83E JUMPI POP POP PUSH2 0x2B5 SWAP4 POP DUP3 ADD ADD CODESIZE DUP1 DUP1 PUSH2 0x808 JUMP JUMPDEST DUP6 SLOAD DUP9 DUP5 ADD DUP6 ADD MSTORE SWAP5 DUP6 ADD SWAP5 DUP8 SWAP5 POP SWAP2 DUP4 ADD SWAP2 PUSH2 0x825 JUMP JUMPDEST SWAP3 POP POP POP PUSH2 0x2B5 SWAP5 SWAP3 POP PUSH1 0xFF NOT AND DUP3 DUP5 ADD MSTORE ISZERO ISZERO PUSH1 0x5 SHL DUP3 ADD ADD CODESIZE DUP1 DUP1 PUSH2 0x808 JUMP JUMPDEST ISZERO PUSH2 0x87F JUMPI JUMP JUMPDEST PUSH1 0x40 MLOAD PUSH3 0x461BCD PUSH1 0xE5 SHL DUP2 MSTORE PUSH1 0x20 PUSH1 0x4 DUP3 ADD MSTORE PUSH1 0x19 PUSH1 0x24 DUP3 ADD MSTORE PUSH32 0x5375727665792049442063616E6E6F7420626520656D70747900000000000000 PUSH1 0x44 DUP3 ADD MSTORE PUSH1 0x64 SWAP1 REVERT JUMPDEST ISZERO PUSH2 0x8CB JUMPI JUMP JUMPDEST PUSH1 0x40 MLOAD PUSH3 0x461BCD PUSH1 0xE5 SHL DUP2 MSTORE PUSH1 0x20 PUSH1 0x4 DUP3 ADD MSTORE PUSH1 0x18 PUSH1 0x24 DUP3 ADD MSTORE PUSH32 0x49504653204349442063616E6E6F7420626520656D7074790000000000000000 PUSH1 0x44 DUP3 ADD MSTORE PUSH1 0x64 SWAP1 REVERT JUMPDEST SWAP1 PUSH1 0x1F DUP2 GT PUSH2 0x91E JUMPI POP POP POP JUMP JUMPDEST PUSH1 0x0 SWAP2 PUSH1 0x0 MSTORE PUSH1 0x20 PUSH1 0x0 KECCAK256 SWAP1 PUSH1 0x20 PUSH1 0x1F DUP6 ADD PUSH1 0x5 SHR DUP4 ADD SWAP5 LT PUSH2 0x95C JUMPI JUMPDEST PUSH1 0x1F ADD PUSH1 0x5 SHR ADD SWAP2 JUMPDEST DUP3 DUP2 LT PUSH2 0x951 JUMPI POP POP POP JUMP JUMPDEST DUP2 DUP2 SSTORE PUSH1 0x1 ADD PUSH2 0x945 JUMP JUMPDEST SWAP1 SWAP3 POP DUP3 SWAP1 PUSH2 0x93C JUMP JUMPDEST SWAP2 SWAP1 SWAP2 DUP3 MLOAD PUSH8 0xFFFFFFFFFFFFFFFF DUP2 GT PUSH2 0x254 JUMPI PUSH2 0x98E DUP2 PUSH2 0x988 DUP5 SLOAD PUSH2 0x79B JUMP JUMPDEST DUP5 PUSH2 0x910 JUMP JUMPDEST PUSH1 0x20 DUP1 PUSH1 0x1F DUP4 GT PUSH1 0x1 EQ PUSH2 0x9D1 JUMPI POP DUP2 SWAP1 PUSH2 0x9C2 SWAP4 SWAP5 SWAP6 PUSH1 0x0 SWAP3 PUSH2 0x9C6 JUMPI JUMPDEST POP POP DUP2 PUSH1 0x1 SHL SWAP2 PUSH1 0x0 NOT SWAP1 PUSH1 0x3 SHL SHR NOT AND OR SWAP1 JUMP JUMPDEST SWAP1 SSTORE JUMP JUMPDEST ADD MLOAD SWAP1 POP CODESIZE DUP1 PUSH2 0x9AD JUMP JUMPDEST SWAP1 PUSH1 0x1F NOT DUP4 AND SWAP6 PUSH2 0x9E7 DUP6 PUSH1 0x0 MSTORE PUSH1 0x20 PUSH1 0x0 KECCAK256 SWAP1 JUMP JUMPDEST SWAP3 PUSH1 0x0 SWAP1 JUMPDEST DUP9 DUP3 LT PUSH2 0xA24 JUMPI POP POP DUP4 PUSH1 0x1 SWAP6 SWAP7 SWAP8 LT PUSH2 0xA0B JUMPI JUMPDEST POP POP POP DUP2 SHL ADD SWAP1 SSTORE JUMP JUMPDEST ADD MLOAD PUSH1 0x0 NOT PUSH1 0xF8 DUP5 PUSH1 0x3 SHL AND SHR NOT AND SWAP1 SSTORE CODESIZE DUP1 DUP1 PUSH2 0xA01 JUMP JUMPDEST DUP1 PUSH1 0x1 DUP6 SWAP7 DUP3 SWAP5 SWAP7 DUP7 ADD MLOAD DUP2 SSTORE ADD SWAP6 ADD SWAP4 ADD SWAP1 PUSH2 0x9EC JUMP JUMPDEST SWAP1 PUSH1 0x40 PUSH1 0x2 SWAP2 PUSH2 0xA4D DUP2 MLOAD DUP6 PUSH2 0x966 JUMP JUMPDEST PUSH1 0x1 DUP5 ADD PUSH1 0x1 DUP1 PUSH1 0xA0 SHL SUB PUSH1 0x20 DUP4 ADD MLOAD AND PUSH12 0xFFFFFFFFFFFFFFFFFFFFFFFF PUSH1 0xA0 SHL DUP3 SLOAD AND OR SWAP1 SSTORE ADD MLOAD SWAP2 ADD SSTORE JUMP JUMPDEST SWAP1 DUP2 SLOAD PUSH9 0x10000000000000000 DUP2 LT ISZERO PUSH2 0x254 JUMPI PUSH1 0x1 DUP2 ADD DUP1 DUP5 SSTORE DUP2 LT ISZERO PUSH2 0xAAF JUMPI PUSH2 0x2B5 SWAP3 PUSH1 0x0 MSTORE PUSH1 0x20 PUSH1 0x0 KECCAK256 ADD PUSH2 0x966 JUMP JUMPDEST PUSH4 0x4E487B71 PUSH1 0xE0 SHL PUSH1 0x0 MSTORE PUSH1 0x32 PUSH1 0x4 MSTORE PUSH1 0x24 PUSH1 0x0 REVERT JUMPDEST SWAP4 SWAP3 SWAP2 PUSH2 0xAEE SWAP1 PUSH2 0xAE0 PUSH1 0x40 SWAP4 PUSH1 0x60 DUP9 MSTORE PUSH1 0x60 DUP9 ADD SWAP1 PUSH2 0x131 JUMP JUMPDEST SWAP1 DUP7 DUP3 SUB PUSH1 0x20 DUP9 ADD MSTORE PUSH2 0x131 JUMP JUMPDEST SWAP4 ADD MSTORE JUMP JUMPDEST SWAP1 PUSH1 0x40 MLOAD PUSH2 0xB00 DUP2 PUSH2 0x26A JUMP JUMPDEST PUSH1 0x40 PUSH1 0x2 DUP3 SWAP5 PUSH2 0xB0F DUP2 PUSH2 0x7D5 JUMP JUMPDEST DUP5 MSTORE PUSH1 0x1 DUP2 ADD SLOAD PUSH1 0x1 PUSH1 0x1 PUSH1 0xA0 SHL SUB AND PUSH1 0x20 DUP6 ADD MSTORE ADD SLOAD SWAP2 ADD MSTORE JUMP JUMPDEST PUSH4 0x4E487B71 PUSH1 0xE0 SHL PUSH1 0x0 MSTORE PUSH1 0x11 PUSH1 0x4 MSTORE PUSH1 0x24 PUSH1 0x0 REVERT JUMPDEST PUSH1 0x0 NOT DUP2 EQ PUSH2 0xB50 JUMPI PUSH1 0x1 ADD SWAP1 JUMP JUMPDEST PUSH2 0xB2B JUMP JUMPDEST PUSH2 0xB6D SWAP1 PUSH1 0x20 PUSH1 0x40 MLOAD SWAP3 DUP3 DUP5 DUP1 SWAP5 MLOAD SWAP4 DUP5 SWAP3 ADD PUSH2 0x10E JUMP JUMPDEST DUP2 ADD SUB SWAP1 KECCAK256 SWAP1 JUMP JUMPDEST SWAP3 SWAP2 SWAP1 PUSH2 0xAEE PUSH1 0x20 SWAP2 PUSH1 0x40 DUP7 MSTORE PUSH1 0x40 DUP7 ADD SWAP1 PUSH2 0x131 JUMP JUMPDEST SWAP3 SWAP1 SWAP2 SWAP3 PUSH1 0x20 PUSH2 0xBA3 PUSH2 0xB9E DUP5 PUSH2 0x729 JUMP JUMPDEST PUSH2 0xAF3 JUMP JUMPDEST ADD DUP1 MLOAD SWAP1 SWAP5 PUSH1 0x1 PUSH1 0x1 PUSH1 0xA0 SHL SUB SWAP4 SWAP1 SWAP2 DUP5 AND ISZERO PUSH2 0x6A3 JUMPI PUSH1 0x40 SWAP4 DUP5 MLOAD SWAP1 PUSH2 0xC97 PUSH2 0xC8B PUSH2 0xC7D DUP5 PUSH2 0xBF0 PUSH2 0xBEA PUSH2 0xBDD PUSH1 0x20 DUP5 ADD DUP13 PUSH2 0x712 JUMP JUMPDEST PUSH1 0x1F PUSH1 0xFA SHL DUP2 MSTORE PUSH1 0x1 ADD SWAP1 JUMP JUMPDEST DUP10 PUSH2 0x712 JUMP JUMPDEST SUB SWAP5 PUSH2 0xC04 PUSH1 0x1F NOT SWAP7 DUP8 DUP2 ADD DUP4 MSTORE DUP3 PUSH2 0x286 JUMP JUMPDEST DUP10 MLOAD PUSH2 0xC24 DUP2 PUSH2 0xC18 PUSH1 0x20 DUP3 ADD DUP1 SWAP6 PUSH2 0x712 JUMP JUMPDEST SUB DUP9 DUP2 ADD DUP4 MSTORE DUP3 PUSH2 0x286 JUMP JUMPDEST MLOAD SWAP1 KECCAK256 SWAP5 DUP10 MLOAD PUSH2 0xC73 PUSH1 0x20 DUP3 ADD SWAP3 DUP3 PUSH2 0xC67 DUP11 DUP7 PUSH1 0x3C SWAP2 PUSH32 0x19457468657265756D205369676E6564204D6573736167653A0A333200000000 DUP3 MSTORE PUSH1 0x1C DUP3 ADD MSTORE ADD SWAP1 JUMP JUMPDEST SUB SWAP1 DUP2 ADD DUP4 MSTORE DUP3 PUSH2 0x286 JUMP JUMPDEST MLOAD SWAP1 KECCAK256 SWAP10 DUP11 PUSH2 0xE26 JUMP JUMPDEST SWAP10 MLOAD PUSH1 0x1 PUSH1 0x1 PUSH1 0xA0 SHL SUB AND SWAP1 JUMP JUMPDEST PUSH1 0x1 PUSH1 0x1 PUSH1 0xA0 SHL SUB AND SWAP1 JUMP JUMPDEST SWAP8 AND SWAP7 DUP8 SUB PUSH2 0xDAC JUMPI PUSH2 0xCBE PUSH2 0xCB7 DUP3 PUSH1 0x0 MSTORE PUSH1 0x3 PUSH1 0x20 MSTORE PUSH1 0x40 PUSH1 0x0 KECCAK256 SWAP1 JUMP JUMPDEST SLOAD PUSH1 0xFF AND SWAP1 JUMP JUMPDEST PUSH2 0xD9B JUMPI SWAP2 PUSH32 0x120BE7A779FD31251124A6F0146622671A554FE5D1F554DC51006FC59B6DC1FE PUSH32 0xE6D0AB9C1BD0870C933BBB7D65E7A1EA1258BE080D623C1EA46DCE5CCA03C55F SWAP7 SWAP5 SWAP3 PUSH2 0xD30 PUSH2 0xD23 PUSH2 0xD93 SWAP9 SWAP7 PUSH1 0x0 MSTORE PUSH1 0x3 PUSH1 0x20 MSTORE PUSH1 0x40 PUSH1 0x0 KECCAK256 SWAP1 JUMP JUMPDEST DUP1 SLOAD PUSH1 0xFF NOT AND PUSH1 0x1 OR SWAP1 SSTORE JUMP JUMPDEST PUSH2 0xD42 PUSH2 0xD3C DUP3 PUSH2 0x74F JUMP JUMPDEST DUP5 PUSH2 0x775 JUMP JUMPDEST PUSH2 0xD4C DUP2 SLOAD PUSH2 0xB41 JUMP JUMPDEST SWAP1 SSTORE PUSH2 0xD73 PUSH2 0xD6D PUSH2 0xD66 PUSH2 0xD60 DUP5 PUSH2 0x74F JUMP JUMPDEST DUP7 PUSH2 0x775 JUMP JUMPDEST SLOAD SWAP3 PUSH2 0xB55 JUMP JUMPDEST SWAP4 PUSH2 0xB55 JUMP JUMPDEST SWAP4 PUSH2 0xD82 DUP7 MLOAD SWAP3 DUP4 SWAP3 DUP4 PUSH2 0xB75 JUMP JUMPDEST SUB SWAP1 LOG3 MLOAD SWAP1 DUP2 MSTORE SWAP1 DUP2 SWAP1 PUSH1 0x20 DUP3 ADD SWAP1 JUMP JUMPDEST SUB SWAP1 LOG2 PUSH1 0x1 SWAP1 JUMP JUMPDEST DUP5 MLOAD PUSH4 0x65695701 PUSH1 0xE1 SHL DUP2 MSTORE PUSH1 0x4 SWAP1 REVERT JUMPDEST DUP5 MLOAD PUSH4 0x5A1F7BDD PUSH1 0xE0 SHL DUP2 MSTORE PUSH1 0x4 SWAP1 REVERT JUMPDEST PUSH1 0xFF PUSH1 0x1B SWAP2 AND ADD SWAP1 PUSH1 0xFF DUP3 GT PUSH2 0xB50 JUMPI JUMP JUMPDEST ISZERO PUSH2 0xDD6 JUMPI JUMP JUMPDEST PUSH1 0x64 PUSH1 0x40 MLOAD PUSH3 0x461BCD PUSH1 0xE5 SHL DUP2 MSTORE PUSH1 0x20 PUSH1 0x4 DUP3 ADD MSTORE PUSH1 0x20 PUSH1 0x24 DUP3 ADD MSTORE PUSH32 0x496E76616C6964207369676E6174757265207265636F766572792076616C7565 PUSH1 0x44 DUP3 ADD MSTORE REVERT JUMPDEST PUSH1 0x40 MLOAD RETURNDATASIZE PUSH1 0x0 DUP3 RETURNDATACOPY RETURNDATASIZE SWAP1 REVERT JUMPDEST PUSH1 0x41 DUP3 MLOAD SUB PUSH2 0xED1 JUMPI PUSH1 0x20 SWAP2 PUSH1 0x0 SWAP2 DUP3 SWAP2 DUP5 DUP2 ADD MLOAD SWAP3 PUSH1 0x60 PUSH1 0x40 DUP4 ADD MLOAD SWAP3 ADD MLOAD SWAP1 BYTE SWAP3 PUSH1 0x1B DUP5 LT PUSH2 0xEBA JUMPI JUMPDEST SWAP1 PUSH2 0xE96 SWAP2 PUSH2 0xE70 PUSH1 0xFF DUP7 AND PUSH1 0x1B DUP2 EQ SWAP1 DUP2 ISZERO PUSH2 0xEAF JUMPI JUMPDEST POP PUSH2 0xDCF JUMP JUMPDEST PUSH1 0x40 MLOAD SWAP5 DUP6 SWAP5 DUP6 SWAP1 SWAP5 SWAP4 SWAP3 PUSH1 0xFF PUSH1 0x60 SWAP4 PUSH1 0x80 DUP5 ADD SWAP8 DUP5 MSTORE AND PUSH1 0x20 DUP4 ADD MSTORE PUSH1 0x40 DUP3 ADD MSTORE ADD MSTORE JUMP JUMPDEST DUP4 DUP1 MSTORE SUB SWAP1 PUSH1 0x1 GAS STATICCALL ISZERO PUSH2 0xEAA JUMPI PUSH1 0x0 MLOAD SWAP1 JUMP JUMPDEST PUSH2 0xE1A JUMP JUMPDEST PUSH1 0x1C SWAP2 POP EQ CODESIZE PUSH2 0xE6A JUMP JUMPDEST SWAP3 SWAP1 PUSH2 0xEC8 PUSH2 0xE96 SWAP3 PUSH2 0xDBD JUMP JUMPDEST SWAP4 SWAP1 SWAP2 POP PUSH2 0xE52 JUMP JUMPDEST PUSH1 0x40 MLOAD PUSH3 0x461BCD PUSH1 0xE5 SHL DUP2 MSTORE PUSH1 0x20 PUSH1 0x4 DUP3 ADD MSTORE PUSH1 0x18 PUSH1 0x24 DUP3 ADD MSTORE PUSH32 0x496E76616C6964207369676E6174757265206C656E6774680000000000000000 PUSH1 0x44 DUP3 ADD MSTORE PUSH1 0x64 SWAP1 REVERT INVALID LOG2 PUSH5 0x6970667358 0x22 SLT KECCAK256 0xBD 0xEB KECCAK256 PUSH8 0x5E2AF9508C3C8909 0x27 SLT EXTCODEHASH 0x1E SSTORE BLOBBASEFEE DUP10 DUP1 0xE SWAP3 JUMP 0x4C CALL DELEGATECALL SLT LOG2 BASEFEE 0xFB PUSH8 0x9164736F6C634300 ADDMOD XOR STOP CALLER "},"methodIdentifiers":{"batchCardCount(string,string)":"ce268070","createSurvey(string,string)":"be7d3568","getBatchCount(string,string)":"9ee84812","getOwnerSurveyCount(address)":"c5b88066","getOwnerSurveys(address)":"3cfebb6e","getSurvey(string)":"c6576e47","isNullifierUsed(string,string)":"94b2c95c","isOwner(address,string)":"cd379964","surveyExists(string)":"42abbabd","usedNullifiers(bytes32)":"206137aa","validateCard(string,bytes,string,string)":"c15d3593"}}}}}