{"contracts/survey-store.sol":{"S3ntimentSurveyStore":{"abi":[{"inputs":[],"name":"InvalidSignature","type":"error"},{"inputs":[],"name":"NullifierAlreadyUsed","type":"error"},{"inputs":[],"name":"SignerNotSurveyOwner","type":"error"},{"inputs":[],"name":"SurveyAlreadyExists","type":"error"},{"inputs":[],"name":"SurveyNotFound","type":"error"},{"anonymous":false,"inputs":[{"indexed":true,"internalType":"string","name":"surveyId","type":"string"},{"indexed":true,"internalType":"string","name":"batchId","type":"string"},{"indexed":false,"internalType":"string","name":"nullifier","type":"string"},{"indexed":false,"internalType":"uint256","name":"newCount","type":"uint256"}],"name":"CardValidated","type":"event"},{"anonymous":false,"inputs":[{"indexed":true,"internalType":"address","name":"signer","type":"address"},{"indexed":false,"internalType":"bytes32","name":"messageHash","type":"bytes32"}],"name":"SignatureValidated","type":"event"},{"anonymous":false,"inputs":[{"indexed":true,"internalType":"address","name":"owner","type":"address"},{"indexed":false,"internalType":"string","name":"surveyId","type":"string"},{"indexed":false,"internalType":"string","name":"ipfsCid","type":"string"},{"indexed":false,"internalType":"uint256","name":"timestamp","type":"uint256"}],"name":"SurveyCreated","type":"event"},{"anonymous":false,"inputs":[{"indexed":false,"internalType":"string","name":"surveyId","type":"string"},{"indexed":false,"internalType":"string","name":"newIpfsCid","type":"string"}],"name":"SurveyUpdated","type":"event"},{"inputs":[{"internalType":"string","name":"","type":"string"},{"internalType":"string","name":"","type":"string"}],"name":"batchCardCount","outputs":[{"internalType":"uint256","name":"","type":"uint256"}],"stateMutability":"view","type":"function"},{"inputs":[{"internalType":"string","name":"surveyId","type":"string"},{"internalType":"string","name":"ipfsCid","type":"string"}],"name":"createSurvey","outputs":[],"stateMutability":"nonpayable","type":"function"},{"inputs":[{"internalType":"string","name":"surveyId","type":"string"},{"internalType":"string","name":"batchId","type":"string"}],"name":"getBatchCount","outputs":[{"internalType":"uint256","name":"","type":"uint256"}],"stateMutability":"view","type":"function"},{"inputs":[{"internalType":"address","name":"owner","type":"address"}],"name":"getOwnerSurveyCount","outputs":[{"internalType":"uint256","name":"","type":"uint256"}],"stateMutability":"view","type":"function"},{"inputs":[{"internalType":"address","name":"owner","type":"address"}],"name":"getOwnerSurveys","outputs":[{"internalType":"string[]","name":"","type":"string[]"}],"stateMutability":"view","type":"function"},{"inputs":[{"internalType":"string","name":"surveyId","type":"string"}],"name":"getSurvey","outputs":[{"internalType":"string","name":"ipfsCid","type":"string"},{"internalType":"address","name":"owner","type":"address"},{"internalType":"uint256","name":"createdAt","type":"uint256"}],"stateMutability":"view","type":"function"},{"inputs":[{"internalType":"string","name":"nullifier","type":"string"},{"internalType":"string","name":"batchId","type":"string"}],"name":"isNullifierUsed","outputs":[{"internalType":"bool","name":"","type":"bool"}],"stateMutability":"view","type":"function"},{"inputs":[{"internalType":"address","name":"authSigAddress","type":"address"},{"internalType":"string","name":"surveyId","type":"string"}],"name":"isOwner","outputs":[{"internalType":"bool","name":"","type":"bool"}],"stateMutability":"view","type":"function"},{"inputs":[{"internalType":"string","name":"surveyId","type":"string"}],"name":"surveyExists","outputs":[{"internalType":"bool","name":"","type":"bool"}],"stateMutability":"view","type":"function"},{"inputs":[{"internalType":"string","name":"surveyId","type":"string"},{"internalType":"string","name":"newIpfsCid","type":"string"}],"name":"updateSurveyCid","outputs":[],"stateMutability":"nonpayable","type":"function"},{"inputs":[{"internalType":"bytes32","name":"","type":"bytes32"}],"name":"usedNullifiers","outputs":[{"internalType":"bool","name":"","type":"bool"}],"stateMutability":"view","type":"function"},{"inputs":[{"internalType":"string","name":"nullifier","type":"string"},{"internalType":"bytes","name":"signature","type":"bytes"},{"internalType":"string","name":"batchId","type":"string"},{"internalType":"string","name":"surveyId","type":"string"}],"name":"validateCard","outputs":[{"internalType":"bool","name":"","type":"bool"}],"stateMutability":"nonpayable","type":"function"}],"evm":{"bytecode":{"linkReferences":{},"object":"6080806040523461001657611014908161001c8239f35b600080fdfe6080604052600436101561001257600080fd5b60003560e01c8063206137aa146100d25780633cfebb6e146100cd57806342abbabd146100c8578063632d7822146100c357806394b2c95c146100be5780639ee84812146100a0578063be7d3568146100b9578063c15d3593146100b4578063c5b88066146100af578063c6576e47146100aa578063cd379964146100a55763ce268070146100a057600080fd5b6104fa565b61077d565b6106ea565b6106b0565b610604565b610526565b610482565b6103ca565b610357565b6101ca565b34610103576020366003190112610103576004356000526003602052602060ff604060002054166040519015158152f35b600080fd5b600435906001600160a01b038216820361010357565b60005b8381106101315750506000910152565b8181015183820152602001610121565b9060209161015a8151809281855285808601910161011e565b601f01601f1916010190565b6020808201906020835283518092526040830192602060408460051b8301019501936000915b84831061019c5750505050505090565b90919293949584806101ba600193603f198682030187528a51610141565b980193019301919493929061018c565b3461010357602080600319360112610103576001600160a01b036101ec610108565b1660005260019060018152604060002080549067ffffffffffffffff82116102645760405192610221818460051b0185610296565b82845260009182528082208185015b84841061024957604051806102458882610166565b0390f35b868381926102568561089d565b815201920193019290610230565b634e487b7160e01b600052604160045260246000fd5b6060810190811067ffffffffffffffff82111761026457604052565b90601f8019910116810190811067ffffffffffffffff82111761026457604052565b604051906102c58261027a565b565b92919267ffffffffffffffff821161026457604051916102f1601f8201601f191660200184610296565b829481845281830111610103578281602093846000960137010152565b9080601f8301121561010357816020610329933591016102c7565b90565b6020600319820112610103576004359067ffffffffffffffff8211610103576103299160040161030e565b346101035760206001600160a01b0360016103796103743661032c565b6107f1565b0154161515604051908152f35b9060406003198301126101035767ffffffffffffffff60043581811161010357836103b39160040161030e565b92602435918211610103576103299160040161030e565b34610103576103d836610386565b6103e1826107f1565b60018101549092906001600160a01b031633036104515761044c8261042a61043e947f09e712397bdfeb330419324b95d1d1e2a91a8b47587998d6d408c6958740e56d96610996565b604051938493604085526040850190610141565b908382036020850152610141565b0390a1005b60405162461bcd60e51b81526020600482015260096024820152682737ba1037bbb732b960b91b6044820152606490fd5b346101035761049036610386565b906040516104dd602182602095866104b1818401978881519384920161011e565b8201601f60fa1b888201526104ce825180938a878501910161011e565b01036001810184520182610296565b5190206000526003815260ff604060002054166040519015158152f35b3461010357602061051d61051761051036610386565b9190610817565b9061083d565b54604051908152f35b346101035761053436610386565b9061054181511515610a6c565b61054d82511515610ab8565b6001600160a01b036105716001610563846107f1565b01546001600160a01b031690565b166105f2576105ed7fdb3a8af2f37abe346b31fdd308fc1e8bcdfe1512f0e0a9790d5677cb5e3ba2c6916105c36105a66102b8565b8581523360208201524260408201526105be836107f1565b610b04565b3360009081526001602052604090206105dd908290610b43565b6040519182913395429184610b8d565b0390a2005b604051630b6ed0e760e21b8152600490fd5b346101035760803660031901126101035767ffffffffffffffff6004358181116101035761063690369060040161030e565b906024358181116101035736602382011215610103576106609036906024816004013591016102c7565b916044358281116101035761067990369060040161030e565b606435928311610103576102459361069861069e94369060040161030e565b92610c54565b60405190151581529081906020820190565b34610103576020366003190112610103576001600160a01b036106d1610108565b1660005260016020526020604060002054604051908152f35b34610103576106fb6103743661032c565b604051906107088261027a565b6107118161089d565b825260018101546001600160a01b03908116602084018181526002909301546040850190815291901561076b5761075c93519251169051604051938493606085526060850190610141565b91602084015260408301520390f35b604051637e3336d960e01b8152600490fd5b3461010357604036600319011261010357610796610108565b6024359067ffffffffffffffff8211610103576020916001600160a01b039081906001906107cc9061037490369060040161030e565b015416906040519216148152f35b906107ed6020928281519485920161011e565b0190565b602061080a91816040519382858094519384920161011e565b8101600081520301902090565b602061083091816040519382858094519384920161011e565b8101600281520301902090565b60209061085792826040519483868095519384920161011e565b82019081520301902090565b90600182811c92168015610893575b602083101461087d57565b634e487b7160e01b600052602260045260246000fd5b91607f1691610872565b906040519182600082546108b081610863565b9081845260209460019160018116908160001461091e57506001146108df575b5050506102c592500383610296565b600090815285812095935091905b8183106109065750506102c593508201013880806108d0565b855488840185015294850194879450918301916108ed565b925050506102c594925060ff191682840152151560051b8201013880806108d0565b90601f811161094e57505050565b6000916000526020600020906020601f850160051c8301941061098c575b601f0160051c01915b82811061098157505050565b818155600101610975565b909250829061096c565b919091825167ffffffffffffffff8111610264576109be816109b88454610863565b84610940565b602080601f8311600114610a01575081906109f29394956000926109f6575b50508160011b916000199060031b1c19161790565b9055565b0151905038806109dd565b90601f19831695610a1785600052602060002090565b926000905b888210610a5457505083600195969710610a3b575b505050811b019055565b015160001960f88460031b161c19169055388080610a31565b80600185968294968601518155019501930190610a1c565b15610a7357565b60405162461bcd60e51b815260206004820152601960248201527f5375727665792049442063616e6e6f7420626520656d707479000000000000006044820152606490fd5b15610abf57565b60405162461bcd60e51b815260206004820152601860248201527f49504653204349442063616e6e6f7420626520656d70747900000000000000006044820152606490fd5b906040600291610b15815185610996565b6001840160018060a01b036020830151166bffffffffffffffffffffffff60a01b8254161790550151910155565b908154680100000000000000008110156102645760018101808455811015610b77576102c592600052602060002001610996565b634e487b7160e01b600052603260045260246000fd5b939291610bb690610ba8604093606088526060880190610141565b908682036020880152610141565b930152565b90604051610bc88161027a565b604060028294610bd78161089d565b845260018101546001600160a01b031660208501520154910152565b634e487b7160e01b600052601160045260246000fd5b6000198114610c185760010190565b610bf3565b610c359060206040519282848094519384920161011e565b810103902090565b929190610bb6602091604086526040860190610141565b929091926020610c6b610c66846107f1565b610bbb565b01805190946001600160a01b0393909184161561076b57604093845190610d5f610d53610d4584610cb8610cb2610ca5602084018c6107da565b601f60fa1b815260010190565b896107da565b0394610ccc601f1996878101835282610296565b8951610cec81610ce06020820180956107da565b03888101835282610296565b519020948951610d3b602082019282610d2f8a86603c917f19457468657265756d205369676e6564204d6573736167653a0a3332000000008252601c8201520190565b03908101835282610296565b519020998a610eee565b99516001600160a01b031690565b6001600160a01b031690565b9716968703610e7457610d86610d7f826000526003602052604060002090565b5460ff1690565b610e6357917f120be7a779fd31251124a6f0146622671a554fe5d1f554dc51006fc59b6dc1fe7fe6d0ab9c1bd0870c933bbb7d65e7a1ea1258be080d623c1ea46dce5cca03c55f969492610df8610deb610e5b98966000526003602052604060002090565b805460ff19166001179055565b610e0a610e0482610817565b8461083d565b610e148154610c09565b9055610e3b610e35610e2e610e2884610817565b8661083d565b5492610c1d565b93610c1d565b93610e4a865192839283610c3d565b0390a3519081529081906020820190565b0390a2600190565b8451636569570160e11b8152600490fd5b8451635a1f7bdd60e01b8152600490fd5b60ff601b9116019060ff8211610c1857565b15610e9e57565b606460405162461bcd60e51b815260206004820152602060248201527f496e76616c6964207369676e6174757265207265636f766572792076616c75656044820152fd5b6040513d6000823e3d90fd5b6041825103610f99576020916000918291848101519260606040830151920151901a92601b8410610f82575b90610f5e91610f3860ff8616601b8114908115610f77575b50610e97565b604051948594859094939260ff6060936080840197845216602083015260408201520152565b838052039060015afa15610f725760005190565b610ee2565b601c91501438610f32565b9290610f90610f5e92610e85565b93909150610f1a565b60405162461bcd60e51b815260206004820152601860248201527f496e76616c6964207369676e6174757265206c656e67746800000000000000006044820152606490fdfea264697066735822122075f28d192c21da6670e3bdc86ec31feb1dd5faed610c64e8f03c7229a10286e564736f6c63430008180033","opcodes":"PUSH1 0x80 DUP1 PUSH1 0x40 MSTORE CALLVALUE PUSH2 0x16 JUMPI PUSH2 0x1014 SWAP1 DUP2 PUSH2 0x1C DUP3 CODECOPY RETURN JUMPDEST PUSH1 0x0 DUP1 REVERT INVALID PUSH1 0x80 PUSH1 0x40 MSTORE PUSH1 0x4 CALLDATASIZE LT ISZERO PUSH2 0x12 JUMPI PUSH1 0x0 DUP1 REVERT JUMPDEST PUSH1 0x0 CALLDATALOAD PUSH1 0xE0 SHR DUP1 PUSH4 0x206137AA EQ PUSH2 0xD2 JUMPI DUP1 PUSH4 0x3CFEBB6E EQ PUSH2 0xCD JUMPI DUP1 PUSH4 0x42ABBABD EQ PUSH2 0xC8 JUMPI DUP1 PUSH4 0x632D7822 EQ PUSH2 0xC3 JUMPI DUP1 PUSH4 0x94B2C95C EQ PUSH2 0xBE JUMPI DUP1 PUSH4 0x9EE84812 EQ PUSH2 0xA0 JUMPI DUP1 PUSH4 0xBE7D3568 EQ PUSH2 0xB9 JUMPI DUP1 PUSH4 0xC15D3593 EQ PUSH2 0xB4 JUMPI DUP1 PUSH4 0xC5B88066 EQ PUSH2 0xAF JUMPI DUP1 PUSH4 0xC6576E47 EQ PUSH2 0xAA JUMPI DUP1 PUSH4 0xCD379964 EQ PUSH2 0xA5 JUMPI PUSH4 0xCE268070 EQ PUSH2 0xA0 JUMPI PUSH1 0x0 DUP1 REVERT JUMPDEST PUSH2 0x4FA JUMP JUMPDEST PUSH2 0x77D JUMP JUMPDEST PUSH2 0x6EA JUMP JUMPDEST PUSH2 0x6B0 JUMP JUMPDEST PUSH2 0x604 JUMP JUMPDEST PUSH2 0x526 JUMP JUMPDEST PUSH2 0x482 JUMP JUMPDEST PUSH2 0x3CA JUMP JUMPDEST PUSH2 0x357 JUMP JUMPDEST PUSH2 0x1CA JUMP JUMPDEST CALLVALUE PUSH2 0x103 JUMPI PUSH1 0x20 CALLDATASIZE PUSH1 0x3 NOT ADD SLT PUSH2 0x103 JUMPI PUSH1 0x4 CALLDATALOAD PUSH1 0x0 MSTORE PUSH1 0x3 PUSH1 0x20 MSTORE PUSH1 0x20 PUSH1 0xFF PUSH1 0x40 PUSH1 0x0 KECCAK256 SLOAD AND PUSH1 0x40 MLOAD SWAP1 ISZERO ISZERO DUP2 MSTORE RETURN JUMPDEST PUSH1 0x0 DUP1 REVERT JUMPDEST PUSH1 0x4 CALLDATALOAD SWAP1 PUSH1 0x1 PUSH1 0x1 PUSH1 0xA0 SHL SUB DUP3 AND DUP3 SUB PUSH2 0x103 JUMPI JUMP JUMPDEST PUSH1 0x0 JUMPDEST DUP4 DUP2 LT PUSH2 0x131 JUMPI POP POP PUSH1 0x0 SWAP2 ADD MSTORE JUMP JUMPDEST DUP2 DUP2 ADD MLOAD DUP4 DUP3 ADD MSTORE PUSH1 0x20 ADD PUSH2 0x121 JUMP JUMPDEST SWAP1 PUSH1 0x20 SWAP2 PUSH2 0x15A DUP2 MLOAD DUP1 SWAP3 DUP2 DUP6 MSTORE DUP6 DUP1 DUP7 ADD SWAP2 ADD PUSH2 0x11E JUMP JUMPDEST PUSH1 0x1F ADD PUSH1 0x1F NOT AND ADD ADD SWAP1 JUMP JUMPDEST PUSH1 0x20 DUP1 DUP3 ADD SWAP1 PUSH1 0x20 DUP4 MSTORE DUP4 MLOAD DUP1 SWAP3 MSTORE PUSH1 0x40 DUP4 ADD SWAP3 PUSH1 0x20 PUSH1 0x40 DUP5 PUSH1 0x5 SHL DUP4 ADD ADD SWAP6 ADD SWAP4 PUSH1 0x0 SWAP2 JUMPDEST DUP5 DUP4 LT PUSH2 0x19C JUMPI POP POP POP POP POP POP SWAP1 JUMP JUMPDEST SWAP1 SWAP2 SWAP3 SWAP4 SWAP5 SWAP6 DUP5 DUP1 PUSH2 0x1BA PUSH1 0x1 SWAP4 PUSH1 0x3F NOT DUP7 DUP3 SUB ADD DUP8 MSTORE DUP11 MLOAD PUSH2 0x141 JUMP JUMPDEST SWAP9 ADD SWAP4 ADD SWAP4 ADD SWAP2 SWAP5 SWAP4 SWAP3 SWAP1 PUSH2 0x18C JUMP JUMPDEST CALLVALUE PUSH2 0x103 JUMPI PUSH1 0x20 DUP1 PUSH1 0x3 NOT CALLDATASIZE ADD SLT PUSH2 0x103 JUMPI PUSH1 0x1 PUSH1 0x1 PUSH1 0xA0 SHL SUB PUSH2 0x1EC PUSH2 0x108 JUMP JUMPDEST AND PUSH1 0x0 MSTORE PUSH1 0x1 SWAP1 PUSH1 0x1 DUP2 MSTORE PUSH1 0x40 PUSH1 0x0 KECCAK256 DUP1 SLOAD SWAP1 PUSH8 0xFFFFFFFFFFFFFFFF DUP3 GT PUSH2 0x264 JUMPI PUSH1 0x40 MLOAD SWAP3 PUSH2 0x221 DUP2 DUP5 PUSH1 0x5 SHL ADD DUP6 PUSH2 0x296 JUMP JUMPDEST DUP3 DUP5 MSTORE PUSH1 0x0 SWAP2 DUP3 MSTORE DUP1 DUP3 KECCAK256 DUP2 DUP6 ADD JUMPDEST DUP5 DUP5 LT PUSH2 0x249 JUMPI PUSH1 0x40 MLOAD DUP1 PUSH2 0x245 DUP9 DUP3 PUSH2 0x166 JUMP JUMPDEST SUB SWAP1 RETURN JUMPDEST DUP7 DUP4 DUP2 SWAP3 PUSH2 0x256 DUP6 PUSH2 0x89D JUMP JUMPDEST DUP2 MSTORE ADD SWAP3 ADD SWAP4 ADD SWAP3 SWAP1 PUSH2 0x230 JUMP JUMPDEST PUSH4 0x4E487B71 PUSH1 0xE0 SHL PUSH1 0x0 MSTORE PUSH1 0x41 PUSH1 0x4 MSTORE PUSH1 0x24 PUSH1 0x0 REVERT JUMPDEST PUSH1 0x60 DUP2 ADD SWAP1 DUP2 LT PUSH8 0xFFFFFFFFFFFFFFFF DUP3 GT OR PUSH2 0x264 JUMPI PUSH1 0x40 MSTORE JUMP JUMPDEST SWAP1 PUSH1 0x1F DUP1 NOT SWAP2 ADD AND DUP2 ADD SWAP1 DUP2 LT PUSH8 0xFFFFFFFFFFFFFFFF DUP3 GT OR PUSH2 0x264 JUMPI PUSH1 0x40 MSTORE JUMP JUMPDEST PUSH1 0x40 MLOAD SWAP1 PUSH2 0x2C5 DUP3 PUSH2 0x27A JUMP JUMPDEST JUMP JUMPDEST SWAP3 SWAP2 SWAP3 PUSH8 0xFFFFFFFFFFFFFFFF DUP3 GT PUSH2 0x264 JUMPI PUSH1 0x40 MLOAD SWAP2 PUSH2 0x2F1 PUSH1 0x1F DUP3 ADD PUSH1 0x1F NOT AND PUSH1 0x20 ADD DUP5 PUSH2 0x296 JUMP JUMPDEST DUP3 SWAP5 DUP2 DUP5 MSTORE DUP2 DUP4 ADD GT PUSH2 0x103 JUMPI DUP3 DUP2 PUSH1 0x20 SWAP4 DUP5 PUSH1 0x0 SWAP7 ADD CALLDATACOPY ADD ADD MSTORE JUMP JUMPDEST SWAP1 DUP1 PUSH1 0x1F DUP4 ADD SLT ISZERO PUSH2 0x103 JUMPI DUP2 PUSH1 0x20 PUSH2 0x329 SWAP4 CALLDATALOAD SWAP2 ADD PUSH2 0x2C7 JUMP JUMPDEST SWAP1 JUMP JUMPDEST PUSH1 0x20 PUSH1 0x3 NOT DUP3 ADD SLT PUSH2 0x103 JUMPI PUSH1 0x4 CALLDATALOAD SWAP1 PUSH8 0xFFFFFFFFFFFFFFFF DUP3 GT PUSH2 0x103 JUMPI PUSH2 0x329 SWAP2 PUSH1 0x4 ADD PUSH2 0x30E JUMP JUMPDEST CALLVALUE PUSH2 0x103 JUMPI PUSH1 0x20 PUSH1 0x1 PUSH1 0x1 PUSH1 0xA0 SHL SUB PUSH1 0x1 PUSH2 0x379 PUSH2 0x374 CALLDATASIZE PUSH2 0x32C JUMP JUMPDEST PUSH2 0x7F1 JUMP JUMPDEST ADD SLOAD AND ISZERO ISZERO PUSH1 0x40 MLOAD SWAP1 DUP2 MSTORE RETURN JUMPDEST SWAP1 PUSH1 0x40 PUSH1 0x3 NOT DUP4 ADD SLT PUSH2 0x103 JUMPI PUSH8 0xFFFFFFFFFFFFFFFF PUSH1 0x4 CALLDATALOAD DUP2 DUP2 GT PUSH2 0x103 JUMPI DUP4 PUSH2 0x3B3 SWAP2 PUSH1 0x4 ADD PUSH2 0x30E JUMP JUMPDEST SWAP3 PUSH1 0x24 CALLDATALOAD SWAP2 DUP3 GT PUSH2 0x103 JUMPI PUSH2 0x329 SWAP2 PUSH1 0x4 ADD PUSH2 0x30E JUMP JUMPDEST CALLVALUE PUSH2 0x103 JUMPI PUSH2 0x3D8 CALLDATASIZE PUSH2 0x386 JUMP JUMPDEST PUSH2 0x3E1 DUP3 PUSH2 0x7F1 JUMP JUMPDEST PUSH1 0x1 DUP2 ADD SLOAD SWAP1 SWAP3 SWAP1 PUSH1 0x1 PUSH1 0x1 PUSH1 0xA0 SHL SUB AND CALLER SUB PUSH2 0x451 JUMPI PUSH2 0x44C DUP3 PUSH2 0x42A PUSH2 0x43E SWAP5 PUSH32 0x9E712397BDFEB330419324B95D1D1E2A91A8B47587998D6D408C6958740E56D SWAP7 PUSH2 0x996 JUMP JUMPDEST PUSH1 0x40 MLOAD SWAP4 DUP5 SWAP4 PUSH1 0x40 DUP6 MSTORE PUSH1 0x40 DUP6 ADD SWAP1 PUSH2 0x141 JUMP JUMPDEST SWAP1 DUP4 DUP3 SUB PUSH1 0x20 DUP6 ADD MSTORE PUSH2 0x141 JUMP JUMPDEST SUB SWAP1 LOG1 STOP JUMPDEST PUSH1 0x40 MLOAD PUSH3 0x461BCD PUSH1 0xE5 SHL DUP2 MSTORE PUSH1 0x20 PUSH1 0x4 DUP3 ADD MSTORE PUSH1 0x9 PUSH1 0x24 DUP3 ADD MSTORE PUSH9 0x2737BA1037BBB732B9 PUSH1 0xB9 SHL PUSH1 0x44 DUP3 ADD MSTORE PUSH1 0x64 SWAP1 REVERT JUMPDEST CALLVALUE PUSH2 0x103 JUMPI PUSH2 0x490 CALLDATASIZE PUSH2 0x386 JUMP JUMPDEST SWAP1 PUSH1 0x40 MLOAD PUSH2 0x4DD PUSH1 0x21 DUP3 PUSH1 0x20 SWAP6 DUP7 PUSH2 0x4B1 DUP2 DUP5 ADD SWAP8 DUP9 DUP2 MLOAD SWAP4 DUP5 SWAP3 ADD PUSH2 0x11E JUMP JUMPDEST DUP3 ADD PUSH1 0x1F PUSH1 0xFA SHL DUP9 DUP3 ADD MSTORE PUSH2 0x4CE DUP3 MLOAD DUP1 SWAP4 DUP11 DUP8 DUP6 ADD SWAP2 ADD PUSH2 0x11E JUMP JUMPDEST ADD SUB PUSH1 0x1 DUP2 ADD DUP5 MSTORE ADD DUP3 PUSH2 0x296 JUMP JUMPDEST MLOAD SWAP1 KECCAK256 PUSH1 0x0 MSTORE PUSH1 0x3 DUP2 MSTORE PUSH1 0xFF PUSH1 0x40 PUSH1 0x0 KECCAK256 SLOAD AND PUSH1 0x40 MLOAD SWAP1 ISZERO ISZERO DUP2 MSTORE RETURN JUMPDEST CALLVALUE PUSH2 0x103 JUMPI PUSH1 0x20 PUSH2 0x51D PUSH2 0x517 PUSH2 0x510 CALLDATASIZE PUSH2 0x386 JUMP JUMPDEST SWAP2 SWAP1 PUSH2 0x817 JUMP JUMPDEST SWAP1 PUSH2 0x83D JUMP JUMPDEST SLOAD PUSH1 0x40 MLOAD SWAP1 DUP2 MSTORE RETURN JUMPDEST CALLVALUE PUSH2 0x103 JUMPI PUSH2 0x534 CALLDATASIZE PUSH2 0x386 JUMP JUMPDEST SWAP1 PUSH2 0x541 DUP2 MLOAD ISZERO ISZERO PUSH2 0xA6C JUMP JUMPDEST PUSH2 0x54D DUP3 MLOAD ISZERO ISZERO PUSH2 0xAB8 JUMP JUMPDEST PUSH1 0x1 PUSH1 0x1 PUSH1 0xA0 SHL SUB PUSH2 0x571 PUSH1 0x1 PUSH2 0x563 DUP5 PUSH2 0x7F1 JUMP JUMPDEST ADD SLOAD PUSH1 0x1 PUSH1 0x1 PUSH1 0xA0 SHL SUB AND SWAP1 JUMP JUMPDEST AND PUSH2 0x5F2 JUMPI PUSH2 0x5ED PUSH32 0xDB3A8AF2F37ABE346B31FDD308FC1E8BCDFE1512F0E0A9790D5677CB5E3BA2C6 SWAP2 PUSH2 0x5C3 PUSH2 0x5A6 PUSH2 0x2B8 JUMP JUMPDEST DUP6 DUP2 MSTORE CALLER PUSH1 0x20 DUP3 ADD MSTORE TIMESTAMP PUSH1 0x40 DUP3 ADD MSTORE PUSH2 0x5BE DUP4 PUSH2 0x7F1 JUMP JUMPDEST PUSH2 0xB04 JUMP JUMPDEST CALLER PUSH1 0x0 SWAP1 DUP2 MSTORE PUSH1 0x1 PUSH1 0x20 MSTORE PUSH1 0x40 SWAP1 KECCAK256 PUSH2 0x5DD SWAP1 DUP3 SWAP1 PUSH2 0xB43 JUMP JUMPDEST PUSH1 0x40 MLOAD SWAP2 DUP3 SWAP2 CALLER SWAP6 TIMESTAMP SWAP2 DUP5 PUSH2 0xB8D JUMP JUMPDEST SUB SWAP1 LOG2 STOP JUMPDEST PUSH1 0x40 MLOAD PUSH4 0xB6ED0E7 PUSH1 0xE2 SHL DUP2 MSTORE PUSH1 0x4 SWAP1 REVERT JUMPDEST CALLVALUE PUSH2 0x103 JUMPI PUSH1 0x80 CALLDATASIZE PUSH1 0x3 NOT ADD SLT PUSH2 0x103 JUMPI PUSH8 0xFFFFFFFFFFFFFFFF PUSH1 0x4 CALLDATALOAD DUP2 DUP2 GT PUSH2 0x103 JUMPI PUSH2 0x636 SWAP1 CALLDATASIZE SWAP1 PUSH1 0x4 ADD PUSH2 0x30E JUMP JUMPDEST SWAP1 PUSH1 0x24 CALLDATALOAD DUP2 DUP2 GT PUSH2 0x103 JUMPI CALLDATASIZE PUSH1 0x23 DUP3 ADD SLT ISZERO PUSH2 0x103 JUMPI PUSH2 0x660 SWAP1 CALLDATASIZE SWAP1 PUSH1 0x24 DUP2 PUSH1 0x4 ADD CALLDATALOAD SWAP2 ADD PUSH2 0x2C7 JUMP JUMPDEST SWAP2 PUSH1 0x44 CALLDATALOAD DUP3 DUP2 GT PUSH2 0x103 JUMPI PUSH2 0x679 SWAP1 CALLDATASIZE SWAP1 PUSH1 0x4 ADD PUSH2 0x30E JUMP JUMPDEST PUSH1 0x64 CALLDATALOAD SWAP3 DUP4 GT PUSH2 0x103 JUMPI PUSH2 0x245 SWAP4 PUSH2 0x698 PUSH2 0x69E SWAP5 CALLDATASIZE SWAP1 PUSH1 0x4 ADD PUSH2 0x30E JUMP JUMPDEST SWAP3 PUSH2 0xC54 JUMP JUMPDEST PUSH1 0x40 MLOAD SWAP1 ISZERO ISZERO DUP2 MSTORE SWAP1 DUP2 SWAP1 PUSH1 0x20 DUP3 ADD SWAP1 JUMP JUMPDEST CALLVALUE PUSH2 0x103 JUMPI PUSH1 0x20 CALLDATASIZE PUSH1 0x3 NOT ADD SLT PUSH2 0x103 JUMPI PUSH1 0x1 PUSH1 0x1 PUSH1 0xA0 SHL SUB PUSH2 0x6D1 PUSH2 0x108 JUMP JUMPDEST AND PUSH1 0x0 MSTORE PUSH1 0x1 PUSH1 0x20 MSTORE PUSH1 0x20 PUSH1 0x40 PUSH1 0x0 KECCAK256 SLOAD PUSH1 0x40 MLOAD SWAP1 DUP2 MSTORE RETURN JUMPDEST CALLVALUE PUSH2 0x103 JUMPI PUSH2 0x6FB PUSH2 0x374 CALLDATASIZE PUSH2 0x32C JUMP JUMPDEST PUSH1 0x40 MLOAD SWAP1 PUSH2 0x708 DUP3 PUSH2 0x27A JUMP JUMPDEST PUSH2 0x711 DUP2 PUSH2 0x89D JUMP JUMPDEST DUP3 MSTORE PUSH1 0x1 DUP2 ADD SLOAD PUSH1 0x1 PUSH1 0x1 PUSH1 0xA0 SHL SUB SWAP1 DUP2 AND PUSH1 0x20 DUP5 ADD DUP2 DUP2 MSTORE PUSH1 0x2 SWAP1 SWAP4 ADD SLOAD PUSH1 0x40 DUP6 ADD SWAP1 DUP2 MSTORE SWAP2 SWAP1 ISZERO PUSH2 0x76B JUMPI PUSH2 0x75C SWAP4 MLOAD SWAP3 MLOAD AND SWAP1 MLOAD PUSH1 0x40 MLOAD SWAP4 DUP5 SWAP4 PUSH1 0x60 DUP6 MSTORE PUSH1 0x60 DUP6 ADD SWAP1 PUSH2 0x141 JUMP JUMPDEST SWAP2 PUSH1 0x20 DUP5 ADD MSTORE PUSH1 0x40 DUP4 ADD MSTORE SUB SWAP1 RETURN JUMPDEST PUSH1 0x40 MLOAD PUSH4 0x7E3336D9 PUSH1 0xE0 SHL DUP2 MSTORE PUSH1 0x4 SWAP1 REVERT JUMPDEST CALLVALUE PUSH2 0x103 JUMPI PUSH1 0x40 CALLDATASIZE PUSH1 0x3 NOT ADD SLT PUSH2 0x103 JUMPI PUSH2 0x796 PUSH2 0x108 JUMP JUMPDEST PUSH1 0x24 CALLDATALOAD SWAP1 PUSH8 0xFFFFFFFFFFFFFFFF DUP3 GT PUSH2 0x103 JUMPI PUSH1 0x20 SWAP2 PUSH1 0x1 PUSH1 0x1 PUSH1 0xA0 SHL SUB SWAP1 DUP2 SWAP1 PUSH1 0x1 SWAP1 PUSH2 0x7CC SWAP1 PUSH2 0x374 SWAP1 CALLDATASIZE SWAP1 PUSH1 0x4 ADD PUSH2 0x30E JUMP JUMPDEST ADD SLOAD AND SWAP1 PUSH1 0x40 MLOAD SWAP3 AND EQ DUP2 MSTORE RETURN JUMPDEST SWAP1 PUSH2 0x7ED PUSH1 0x20 SWAP3 DUP3 DUP2 MLOAD SWAP5 DUP6 SWAP3 ADD PUSH2 0x11E JUMP JUMPDEST ADD SWAP1 JUMP JUMPDEST PUSH1 0x20 PUSH2 0x80A SWAP2 DUP2 PUSH1 0x40 MLOAD SWAP4 DUP3 DUP6 DUP1 SWAP5 MLOAD SWAP4 DUP5 SWAP3 ADD PUSH2 0x11E JUMP JUMPDEST DUP2 ADD PUSH1 0x0 DUP2 MSTORE SUB ADD SWAP1 KECCAK256 SWAP1 JUMP JUMPDEST PUSH1 0x20 PUSH2 0x830 SWAP2 DUP2 PUSH1 0x40 MLOAD SWAP4 DUP3 DUP6 DUP1 SWAP5 MLOAD SWAP4 DUP5 SWAP3 ADD PUSH2 0x11E JUMP JUMPDEST DUP2 ADD PUSH1 0x2 DUP2 MSTORE SUB ADD SWAP1 KECCAK256 SWAP1 JUMP JUMPDEST PUSH1 0x20 SWAP1 PUSH2 0x857 SWAP3 DUP3 PUSH1 0x40 MLOAD SWAP5 DUP4 DUP7 DUP1 SWAP6 MLOAD SWAP4 DUP5 SWAP3 ADD PUSH2 0x11E JUMP JUMPDEST DUP3 ADD SWAP1 DUP2 MSTORE SUB ADD SWAP1 KECCAK256 SWAP1 JUMP JUMPDEST SWAP1 PUSH1 0x1 DUP3 DUP2 SHR SWAP3 AND DUP1 ISZERO PUSH2 0x893 JUMPI JUMPDEST PUSH1 0x20 DUP4 LT EQ PUSH2 0x87D JUMPI JUMP JUMPDEST PUSH4 0x4E487B71 PUSH1 0xE0 SHL PUSH1 0x0 MSTORE PUSH1 0x22 PUSH1 0x4 MSTORE PUSH1 0x24 PUSH1 0x0 REVERT JUMPDEST SWAP2 PUSH1 0x7F AND SWAP2 PUSH2 0x872 JUMP JUMPDEST SWAP1 PUSH1 0x40 MLOAD SWAP2 DUP3 PUSH1 0x0 DUP3 SLOAD PUSH2 0x8B0 DUP2 PUSH2 0x863 JUMP JUMPDEST SWAP1 DUP2 DUP5 MSTORE PUSH1 0x20 SWAP5 PUSH1 0x1 SWAP2 PUSH1 0x1 DUP2 AND SWAP1 DUP2 PUSH1 0x0 EQ PUSH2 0x91E JUMPI POP PUSH1 0x1 EQ PUSH2 0x8DF JUMPI JUMPDEST POP POP POP PUSH2 0x2C5 SWAP3 POP SUB DUP4 PUSH2 0x296 JUMP JUMPDEST PUSH1 0x0 SWAP1 DUP2 MSTORE DUP6 DUP2 KECCAK256 SWAP6 SWAP4 POP SWAP2 SWAP1 JUMPDEST DUP2 DUP4 LT PUSH2 0x906 JUMPI POP POP PUSH2 0x2C5 SWAP4 POP DUP3 ADD ADD CODESIZE DUP1 DUP1 PUSH2 0x8D0 JUMP JUMPDEST DUP6 SLOAD DUP9 DUP5 ADD DUP6 ADD MSTORE SWAP5 DUP6 ADD SWAP5 DUP8 SWAP5 POP SWAP2 DUP4 ADD SWAP2 PUSH2 0x8ED JUMP JUMPDEST SWAP3 POP POP POP PUSH2 0x2C5 SWAP5 SWAP3 POP PUSH1 0xFF NOT AND DUP3 DUP5 ADD MSTORE ISZERO ISZERO PUSH1 0x5 SHL DUP3 ADD ADD CODESIZE DUP1 DUP1 PUSH2 0x8D0 JUMP JUMPDEST SWAP1 PUSH1 0x1F DUP2 GT PUSH2 0x94E JUMPI POP POP POP JUMP JUMPDEST PUSH1 0x0 SWAP2 PUSH1 0x0 MSTORE PUSH1 0x20 PUSH1 0x0 KECCAK256 SWAP1 PUSH1 0x20 PUSH1 0x1F DUP6 ADD PUSH1 0x5 SHR DUP4 ADD SWAP5 LT PUSH2 0x98C JUMPI JUMPDEST PUSH1 0x1F ADD PUSH1 0x5 SHR ADD SWAP2 JUMPDEST DUP3 DUP2 LT PUSH2 0x981 JUMPI POP POP POP JUMP JUMPDEST DUP2 DUP2 SSTORE PUSH1 0x1 ADD PUSH2 0x975 JUMP JUMPDEST SWAP1 SWAP3 POP DUP3 SWAP1 PUSH2 0x96C JUMP JUMPDEST SWAP2 SWAP1 SWAP2 DUP3 MLOAD PUSH8 0xFFFFFFFFFFFFFFFF DUP2 GT PUSH2 0x264 JUMPI PUSH2 0x9BE DUP2 PUSH2 0x9B8 DUP5 SLOAD PUSH2 0x863 JUMP JUMPDEST DUP5 PUSH2 0x940 JUMP JUMPDEST PUSH1 0x20 DUP1 PUSH1 0x1F DUP4 GT PUSH1 0x1 EQ PUSH2 0xA01 JUMPI POP DUP2 SWAP1 PUSH2 0x9F2 SWAP4 SWAP5 SWAP6 PUSH1 0x0 SWAP3 PUSH2 0x9F6 JUMPI JUMPDEST POP POP DUP2 PUSH1 0x1 SHL SWAP2 PUSH1 0x0 NOT SWAP1 PUSH1 0x3 SHL SHR NOT AND OR SWAP1 JUMP JUMPDEST SWAP1 SSTORE JUMP JUMPDEST ADD MLOAD SWAP1 POP CODESIZE DUP1 PUSH2 0x9DD JUMP JUMPDEST SWAP1 PUSH1 0x1F NOT DUP4 AND SWAP6 PUSH2 0xA17 DUP6 PUSH1 0x0 MSTORE PUSH1 0x20 PUSH1 0x0 KECCAK256 SWAP1 JUMP JUMPDEST SWAP3 PUSH1 0x0 SWAP1 JUMPDEST DUP9 DUP3 LT PUSH2 0xA54 JUMPI POP POP DUP4 PUSH1 0x1 SWAP6 SWAP7 SWAP8 LT PUSH2 0xA3B JUMPI JUMPDEST POP POP POP DUP2 SHL ADD SWAP1 SSTORE JUMP JUMPDEST ADD MLOAD PUSH1 0x0 NOT PUSH1 0xF8 DUP5 PUSH1 0x3 SHL AND SHR NOT AND SWAP1 SSTORE CODESIZE DUP1 DUP1 PUSH2 0xA31 JUMP JUMPDEST DUP1 PUSH1 0x1 DUP6 SWAP7 DUP3 SWAP5 SWAP7 DUP7 ADD MLOAD DUP2 SSTORE ADD SWAP6 ADD SWAP4 ADD SWAP1 PUSH2 0xA1C JUMP JUMPDEST ISZERO PUSH2 0xA73 JUMPI JUMP JUMPDEST PUSH1 0x40 MLOAD PUSH3 0x461BCD PUSH1 0xE5 SHL DUP2 MSTORE PUSH1 0x20 PUSH1 0x4 DUP3 ADD MSTORE PUSH1 0x19 PUSH1 0x24 DUP3 ADD MSTORE PUSH32 0x5375727665792049442063616E6E6F7420626520656D70747900000000000000 PUSH1 0x44 DUP3 ADD MSTORE PUSH1 0x64 SWAP1 REVERT JUMPDEST ISZERO PUSH2 0xABF JUMPI JUMP JUMPDEST PUSH1 0x40 MLOAD PUSH3 0x461BCD PUSH1 0xE5 SHL DUP2 MSTORE PUSH1 0x20 PUSH1 0x4 DUP3 ADD MSTORE PUSH1 0x18 PUSH1 0x24 DUP3 ADD MSTORE PUSH32 0x49504653204349442063616E6E6F7420626520656D7074790000000000000000 PUSH1 0x44 DUP3 ADD MSTORE PUSH1 0x64 SWAP1 REVERT JUMPDEST SWAP1 PUSH1 0x40 PUSH1 0x2 SWAP2 PUSH2 0xB15 DUP2 MLOAD DUP6 PUSH2 0x996 JUMP JUMPDEST PUSH1 0x1 DUP5 ADD PUSH1 0x1 DUP1 PUSH1 0xA0 SHL SUB PUSH1 0x20 DUP4 ADD MLOAD AND PUSH12 0xFFFFFFFFFFFFFFFFFFFFFFFF PUSH1 0xA0 SHL DUP3 SLOAD AND OR SWAP1 SSTORE ADD MLOAD SWAP2 ADD SSTORE JUMP JUMPDEST SWAP1 DUP2 SLOAD PUSH9 0x10000000000000000 DUP2 LT ISZERO PUSH2 0x264 JUMPI PUSH1 0x1 DUP2 ADD DUP1 DUP5 SSTORE DUP2 LT ISZERO PUSH2 0xB77 JUMPI PUSH2 0x2C5 SWAP3 PUSH1 0x0 MSTORE PUSH1 0x20 PUSH1 0x0 KECCAK256 ADD PUSH2 0x996 JUMP JUMPDEST PUSH4 0x4E487B71 PUSH1 0xE0 SHL PUSH1 0x0 MSTORE PUSH1 0x32 PUSH1 0x4 MSTORE PUSH1 0x24 PUSH1 0x0 REVERT JUMPDEST SWAP4 SWAP3 SWAP2 PUSH2 0xBB6 SWAP1 PUSH2 0xBA8 PUSH1 0x40 SWAP4 PUSH1 0x60 DUP9 MSTORE PUSH1 0x60 DUP9 ADD SWAP1 PUSH2 0x141 JUMP JUMPDEST SWAP1 DUP7 DUP3 SUB PUSH1 0x20 DUP9 ADD MSTORE PUSH2 0x141 JUMP JUMPDEST SWAP4 ADD MSTORE JUMP JUMPDEST SWAP1 PUSH1 0x40 MLOAD PUSH2 0xBC8 DUP2 PUSH2 0x27A JUMP JUMPDEST PUSH1 0x40 PUSH1 0x2 DUP3 SWAP5 PUSH2 0xBD7 DUP2 PUSH2 0x89D JUMP JUMPDEST DUP5 MSTORE PUSH1 0x1 DUP2 ADD SLOAD PUSH1 0x1 PUSH1 0x1 PUSH1 0xA0 SHL SUB AND PUSH1 0x20 DUP6 ADD MSTORE ADD SLOAD SWAP2 ADD MSTORE JUMP JUMPDEST PUSH4 0x4E487B71 PUSH1 0xE0 SHL PUSH1 0x0 MSTORE PUSH1 0x11 PUSH1 0x4 MSTORE PUSH1 0x24 PUSH1 0x0 REVERT JUMPDEST PUSH1 0x0 NOT DUP2 EQ PUSH2 0xC18 JUMPI PUSH1 0x1 ADD SWAP1 JUMP JUMPDEST PUSH2 0xBF3 JUMP JUMPDEST PUSH2 0xC35 SWAP1 PUSH1 0x20 PUSH1 0x40 MLOAD SWAP3 DUP3 DUP5 DUP1 SWAP5 MLOAD SWAP4 DUP5 SWAP3 ADD PUSH2 0x11E JUMP JUMPDEST DUP2 ADD SUB SWAP1 KECCAK256 SWAP1 JUMP JUMPDEST SWAP3 SWAP2 SWAP1 PUSH2 0xBB6 PUSH1 0x20 SWAP2 PUSH1 0x40 DUP7 MSTORE PUSH1 0x40 DUP7 ADD SWAP1 PUSH2 0x141 JUMP JUMPDEST SWAP3 SWAP1 SWAP2 SWAP3 PUSH1 0x20 PUSH2 0xC6B PUSH2 0xC66 DUP5 PUSH2 0x7F1 JUMP JUMPDEST PUSH2 0xBBB JUMP JUMPDEST ADD DUP1 MLOAD SWAP1 SWAP5 PUSH1 0x1 PUSH1 0x1 PUSH1 0xA0 SHL SUB SWAP4 SWAP1 SWAP2 DUP5 AND ISZERO PUSH2 0x76B JUMPI PUSH1 0x40 SWAP4 DUP5 MLOAD SWAP1 PUSH2 0xD5F PUSH2 0xD53 PUSH2 0xD45 DUP5 PUSH2 0xCB8 PUSH2 0xCB2 PUSH2 0xCA5 PUSH1 0x20 DUP5 ADD DUP13 PUSH2 0x7DA JUMP JUMPDEST PUSH1 0x1F PUSH1 0xFA SHL DUP2 MSTORE PUSH1 0x1 ADD SWAP1 JUMP JUMPDEST DUP10 PUSH2 0x7DA JUMP JUMPDEST SUB SWAP5 PUSH2 0xCCC PUSH1 0x1F NOT SWAP7 DUP8 DUP2 ADD DUP4 MSTORE DUP3 PUSH2 0x296 JUMP JUMPDEST DUP10 MLOAD PUSH2 0xCEC DUP2 PUSH2 0xCE0 PUSH1 0x20 DUP3 ADD DUP1 SWAP6 PUSH2 0x7DA JUMP JUMPDEST SUB DUP9 DUP2 ADD DUP4 MSTORE DUP3 PUSH2 0x296 JUMP JUMPDEST MLOAD SWAP1 KECCAK256 SWAP5 DUP10 MLOAD PUSH2 0xD3B PUSH1 0x20 DUP3 ADD SWAP3 DUP3 PUSH2 0xD2F DUP11 DUP7 PUSH1 0x3C SWAP2 PUSH32 0x19457468657265756D205369676E6564204D6573736167653A0A333200000000 DUP3 MSTORE PUSH1 0x1C DUP3 ADD MSTORE ADD SWAP1 JUMP JUMPDEST SUB SWAP1 DUP2 ADD DUP4 MSTORE DUP3 PUSH2 0x296 JUMP JUMPDEST MLOAD SWAP1 KECCAK256 SWAP10 DUP11 PUSH2 0xEEE JUMP JUMPDEST SWAP10 MLOAD PUSH1 0x1 PUSH1 0x1 PUSH1 0xA0 SHL SUB AND SWAP1 JUMP JUMPDEST PUSH1 0x1 PUSH1 0x1 PUSH1 0xA0 SHL SUB AND SWAP1 JUMP JUMPDEST SWAP8 AND SWAP7 DUP8 SUB PUSH2 0xE74 JUMPI PUSH2 0xD86 PUSH2 0xD7F DUP3 PUSH1 0x0 MSTORE PUSH1 0x3 PUSH1 0x20 MSTORE PUSH1 0x40 PUSH1 0x0 KECCAK256 SWAP1 JUMP JUMPDEST SLOAD PUSH1 0xFF AND SWAP1 JUMP JUMPDEST PUSH2 0xE63 JUMPI SWAP2 PUSH32 0x120BE7A779FD31251124A6F0146622671A554FE5D1F554DC51006FC59B6DC1FE PUSH32 0xE6D0AB9C1BD0870C933BBB7D65E7A1EA1258BE080D623C1EA46DCE5CCA03C55F SWAP7 SWAP5 SWAP3 PUSH2 0xDF8 PUSH2 0xDEB PUSH2 0xE5B SWAP9 SWAP7 PUSH1 0x0 MSTORE PUSH1 0x3 PUSH1 0x20 MSTORE PUSH1 0x40 PUSH1 0x0 KECCAK256 SWAP1 JUMP JUMPDEST DUP1 SLOAD PUSH1 0xFF NOT AND PUSH1 0x1 OR SWAP1 SSTORE JUMP JUMPDEST PUSH2 0xE0A PUSH2 0xE04 DUP3 PUSH2 0x817 JUMP JUMPDEST DUP5 PUSH2 0x83D JUMP JUMPDEST PUSH2 0xE14 DUP2 SLOAD PUSH2 0xC09 JUMP JUMPDEST SWAP1 SSTORE PUSH2 0xE3B PUSH2 0xE35 PUSH2 0xE2E PUSH2 0xE28 DUP5 PUSH2 0x817 JUMP JUMPDEST DUP7 PUSH2 0x83D JUMP JUMPDEST SLOAD SWAP3 PUSH2 0xC1D JUMP JUMPDEST SWAP4 PUSH2 0xC1D JUMP JUMPDEST SWAP4 PUSH2 0xE4A DUP7 MLOAD SWAP3 DUP4 SWAP3 DUP4 PUSH2 0xC3D JUMP JUMPDEST SUB SWAP1 LOG3 MLOAD SWAP1 DUP2 MSTORE SWAP1 DUP2 SWAP1 PUSH1 0x20 DUP3 ADD SWAP1 JUMP JUMPDEST SUB SWAP1 LOG2 PUSH1 0x1 SWAP1 JUMP JUMPDEST DUP5 MLOAD PUSH4 0x65695701 PUSH1 0xE1 SHL DUP2 MSTORE PUSH1 0x4 SWAP1 REVERT JUMPDEST DUP5 MLOAD PUSH4 0x5A1F7BDD PUSH1 0xE0 SHL DUP2 MSTORE PUSH1 0x4 SWAP1 REVERT JUMPDEST PUSH1 0xFF PUSH1 0x1B SWAP2 AND ADD SWAP1 PUSH1 0xFF DUP3 GT PUSH2 0xC18 JUMPI JUMP JUMPDEST ISZERO PUSH2 0xE9E JUMPI JUMP JUMPDEST PUSH1 0x64 PUSH1 0x40 MLOAD PUSH3 0x461BCD PUSH1 0xE5 SHL DUP2 MSTORE PUSH1 0x20 PUSH1 0x4 DUP3 ADD MSTORE PUSH1 0x20 PUSH1 0x24 DUP3 ADD MSTORE PUSH32 0x496E76616C6964207369676E6174757265207265636F766572792076616C7565 PUSH1 0x44 DUP3 ADD MSTORE REVERT JUMPDEST PUSH1 0x40 MLOAD RETURNDATASIZE PUSH1 0x0 DUP3 RETURNDATACOPY RETURNDATASIZE SWAP1 REVERT JUMPDEST PUSH1 0x41 DUP3 MLOAD SUB PUSH2 0xF99 JUMPI PUSH1 0x20 SWAP2 PUSH1 0x0 SWAP2 DUP3 SWAP2 DUP5 DUP2 ADD MLOAD SWAP3 PUSH1 0x60 PUSH1 0x40 DUP4 ADD MLOAD SWAP3 ADD MLOAD SWAP1 BYTE SWAP3 PUSH1 0x1B DUP5 LT PUSH2 0xF82 JUMPI JUMPDEST SWAP1 PUSH2 0xF5E SWAP2 PUSH2 0xF38 PUSH1 0xFF DUP7 AND PUSH1 0x1B DUP2 EQ SWAP1 DUP2 ISZERO PUSH2 0xF77 JUMPI JUMPDEST POP PUSH2 0xE97 JUMP JUMPDEST PUSH1 0x40 MLOAD SWAP5 DUP6 SWAP5 DUP6 SWAP1 SWAP5 SWAP4 SWAP3 PUSH1 0xFF PUSH1 0x60 SWAP4 PUSH1 0x80 DUP5 ADD SWAP8 DUP5 MSTORE AND PUSH1 0x20 DUP4 ADD MSTORE PUSH1 0x40 DUP3 ADD MSTORE ADD MSTORE JUMP JUMPDEST DUP4 DUP1 MSTORE SUB SWAP1 PUSH1 0x1 GAS STATICCALL ISZERO PUSH2 0xF72 JUMPI PUSH1 0x0 MLOAD SWAP1 JUMP JUMPDEST PUSH2 0xEE2 JUMP JUMPDEST PUSH1 0x1C SWAP2 POP EQ CODESIZE PUSH2 0xF32 JUMP JUMPDEST SWAP3 SWAP1 PUSH2 0xF90 PUSH2 0xF5E SWAP3 PUSH2 0xE85 JUMP JUMPDEST SWAP4 SWAP1 SWAP2 POP PUSH2 0xF1A JUMP JUMPDEST PUSH1 0x40 MLOAD PUSH3 0x461BCD PUSH1 0xE5 SHL DUP2 MSTORE PUSH1 0x20 PUSH1 0x4 DUP3 ADD MSTORE PUSH1 0x18 PUSH1 0x24 DUP3 ADD MSTORE PUSH32 0x496E76616C6964207369676E6174757265206C656E6774680000000000000000 PUSH1 0x44 DUP3 ADD MSTORE PUSH1 0x64 SWAP1 REVERT INVALID LOG2 PUSH5 0x6970667358 0x22 SLT KECCAK256 PUSH22 0xF28D192C21DA6670E3BDC86EC31FEB1DD5FAED610C64 0xE8 CREATE EXTCODECOPY PUSH19 0x29A10286E564736F6C63430008180033000000 "},"methodIdentifiers":{"batchCardCount(string,string)":"ce268070","createSurvey(string,string)":"be7d3568","getBatchCount(string,string)":"9ee84812","getOwnerSurveyCount(address)":"c5b88066","getOwnerSurveys(address)":"3cfebb6e","getSurvey(string)":"c6576e47","isNullifierUsed(string,string)":"94b2c95c","isOwner(address,string)":"cd379964","surveyExists(string)":"42abbabd","updateSurveyCid(string,string)":"632d7822","usedNullifiers(bytes32)":"206137aa","validateCard(string,bytes,string,string)":"c15d3593"}}}}}