{"contracts/survey-store.sol":{"SurveyStore":{"abi":[{"anonymous":false,"inputs":[{"indexed":true,"internalType":"address","name":"owner","type":"address"},{"indexed":false,"internalType":"string","name":"surveyName","type":"string"},{"indexed":false,"internalType":"string","name":"ipfsCid","type":"string"},{"indexed":false,"internalType":"string","name":"didNil","type":"string"},{"indexed":false,"internalType":"uint256","name":"timestamp","type":"uint256"}],"name":"SurveyCreated","type":"event"},{"inputs":[{"internalType":"string","name":"surveyName","type":"string"},{"internalType":"string","name":"ipfsCid","type":"string"},{"internalType":"string","name":"didNil","type":"string"}],"name":"createSurvey","outputs":[],"stateMutability":"nonpayable","type":"function"},{"inputs":[{"internalType":"address","name":"owner","type":"address"},{"internalType":"string","name":"surveyName","type":"string"}],"name":"getSurvey","outputs":[{"internalType":"string","name":"ipfsCid","type":"string"},{"internalType":"string","name":"didNil","type":"string"},{"internalType":"address","name":"surveyOwner","type":"address"},{"internalType":"uint256","name":"createdAt","type":"uint256"}],"stateMutability":"view","type":"function"},{"inputs":[{"internalType":"address","name":"owner","type":"address"},{"internalType":"string","name":"surveyName","type":"string"}],"name":"getSurveyCid","outputs":[{"internalType":"string","name":"","type":"string"}],"stateMutability":"view","type":"function"},{"inputs":[{"internalType":"address","name":"owner","type":"address"},{"internalType":"string","name":"surveyName","type":"string"}],"name":"getSurveyDidNil","outputs":[{"internalType":"string","name":"","type":"string"}],"stateMutability":"view","type":"function"},{"inputs":[{"internalType":"address","name":"authSigAddress","type":"address"},{"internalType":"string","name":"surveyName","type":"string"}],"name":"isOwner","outputs":[{"internalType":"bool","name":"","type":"bool"}],"stateMutability":"view","type":"function"},{"inputs":[{"internalType":"address","name":"owner","type":"address"},{"internalType":"string","name":"surveyName","type":"string"}],"name":"surveyExists","outputs":[{"internalType":"bool","name":"","type":"bool"}],"stateMutability":"view","type":"function"}],"evm":{"bytecode":{"linkReferences":{},"object":"6080806040523461001657610a70908161001c8239f35b600080fdfe6080604052600436101561001257600080fd5b60003560e01c80630da6428c1461005e5780634a8e756414610743578063afe2d16e146101ef578063c307ccf014610176578063c7ee0cb3146100635763cd3799641461005e57600080fd5b610879565b346101715761015561007436610836565b6100e260018060a01b0380931691826000526020928391600083526040600020916100c460ff60046040518781875198828901996100b381848d6108cf565b820190815203019020015416610917565b600052600083526040600020906040519485938492519283916108cf565b820190815203019020610162604051926100fb846107a1565b61010483610995565b845261011260018401610995565b9485828601526002840154169384604082015260ff60046003860154958660608501520154161515608082015251946040519687966080885260808801906108f2565b91868303908701526108f2565b91604084015260608301520390f35b600080fd5b34610171576101c76101d6600161018c36610836565b9390828060a01b031693846000526020948591600083526040600020916100c460ff60046040518781875198828901996100b381848d6108cf565b82019081520301902001610995565b906101eb6040519282849384528301906108f2565b0390f35b346101715760603660031901126101715760043567ffffffffffffffff8111610171576102209036906004016107df565b60243567ffffffffffffffff8111610171576102409036906004016107df565b60443567ffffffffffffffff8111610171576102609036906004016107df565b908251156106fe578051156106b95781511561067457336000526000602052604060002060ff6004604051602081885195828a01966102a081848a6108cf565b820190815203019020015416610637576102fb6020604051926102c2846107a1565b84845285828501523360408501524260608501526001608085015233600052600082526040600020604051809481938a519283916108cf565b820190815203019020815180519067ffffffffffffffff821161055a578190610324845461095b565b601f81116105e7575b50602090601f831160011461057b57600092610570575b50508160011b916000199060031b1c19161781555b602082015180519067ffffffffffffffff821161055a5761037d600184015461095b565b601f8111610513575b50602090601f831160011461047657600461044e948461045c98957f38d60978c6e1c77056d64bb66cf4ab44f8aa26482cd8a63bbdf3c2dcbf6ff2c39a989560809560009261046b575b50508160011b916000199060031b1c19161760018201555b6002810160018060a01b036040860151166bffffffffffffffffffffffff60a01b8254161790556060840151600382015501910151151560ff80198354169116179055610440604051966080885260808801906108f2565b9086820360208801526108f2565b9084820360408601526108f2565b914260608201528033930390a2005b015190508c806103d0565b90601f198316916001850160005260206000209260005b8181106104fb5750946001857f38d60978c6e1c77056d64bb66cf4ab44f8aa26482cd8a63bbdf3c2dcbf6ff2c39a989560809560049561045c9c9961044e9b106104e2575b505050811b0160018201556103e8565b015160001960f88460031b161c191690558c80806104d2565b9293602060018192878601518155019501930161048d565b600184016000526020600020601f840160051c810160208510610553575b601f830160051c82018110610547575050610386565b60008155600101610531565b5080610531565b634e487b7160e01b600052604160045260246000fd5b015190508780610344565b9250836000526020600020906000935b601f19841685106105cc576001945083601f198116106105b3575b505050811b018155610359565b015160001960f88460031b161c191690558780806105a6565b8181015183556020948501946001909301929091019061058b565b909150836000526020600020601f840160051c810160208510610630575b90849392915b601f830160051c8201811061062157505061032d565b6000815585945060010161060b565b5080610605565b60405162461bcd60e51b815260206004820152601560248201527453757276657920616c72656164792065786973747360581b6044820152606490fd5b60405162461bcd60e51b815260206004820152601760248201527f4449443a4e494c2063616e6e6f7420626520656d7074790000000000000000006044820152606490fd5b60405162461bcd60e51b815260206004820152601860248201527f49504653204349442063616e6e6f7420626520656d70747900000000000000006044820152606490fd5b60405162461bcd60e51b815260206004820152601b60248201527f537572766579206e616d652063616e6e6f7420626520656d70747900000000006044820152606490fd5b34610171576107936101d661075736610836565b929060018060a01b031692836000526020938491600083526040600020916100c460ff60046040518781875198828901996100b381848d6108cf565b820190815203019020610995565b60a0810190811067ffffffffffffffff82111761055a57604052565b90601f8019910116810190811067ffffffffffffffff82111761055a57604052565b81601f820112156101715780359067ffffffffffffffff821161055a5760405192610814601f8401601f1916602001856107bd565b8284526020838301011161017157816000926020809301838601378301015290565b906040600319830112610171576004356001600160a01b038116810361017157916024359067ffffffffffffffff821161017157610876916004016107df565b90565b3461017157602060ff60046108b98361089136610836565b9060018060a01b031660005260008252604060002082604051948386809551938492016108cf565b8201908152030190200154166040519015158152f35b60005b8381106108e25750506000910152565b81810151838201526020016108d2565b9060209161090b815180928185528580860191016108cf565b601f01601f1916010190565b1561091e57565b60405162461bcd60e51b815260206004820152601560248201527414dd5c9d995e48191bd95cc81b9bdd08195e1a5cdd605a1b6044820152606490fd5b90600182811c9216801561098b575b602083101461097557565b634e487b7160e01b600052602260045260246000fd5b91607f169161096a565b906040519182600082546109a88161095b565b90818452602094600191600181169081600014610a1857506001146109d9575b5050506109d7925003836107bd565b565b600090815285812095935091905b818310610a005750506109d793508201013880806109c8565b855488840185015294850194879450918301916109e7565b925050506109d794925060ff191682840152151560051b8201013880806109c856fea26469706673582212202203bc684f479cf9a8ef94c6bd97372bdd474606312688ee04caa195f003e25464736f6c63430008180033","opcodes":"PUSH1 0x80 DUP1 PUSH1 0x40 MSTORE CALLVALUE PUSH2 0x16 JUMPI PUSH2 0xA70 SWAP1 DUP2 PUSH2 0x1C DUP3 CODECOPY RETURN JUMPDEST PUSH1 0x0 DUP1 REVERT INVALID PUSH1 0x80 PUSH1 0x40 MSTORE PUSH1 0x4 CALLDATASIZE LT ISZERO PUSH2 0x12 JUMPI PUSH1 0x0 DUP1 REVERT JUMPDEST PUSH1 0x0 CALLDATALOAD PUSH1 0xE0 SHR DUP1 PUSH4 0xDA6428C EQ PUSH2 0x5E JUMPI DUP1 PUSH4 0x4A8E7564 EQ PUSH2 0x743 JUMPI DUP1 PUSH4 0xAFE2D16E EQ PUSH2 0x1EF JUMPI DUP1 PUSH4 0xC307CCF0 EQ PUSH2 0x176 JUMPI DUP1 PUSH4 0xC7EE0CB3 EQ PUSH2 0x63 JUMPI PUSH4 0xCD379964 EQ PUSH2 0x5E JUMPI PUSH1 0x0 DUP1 REVERT JUMPDEST PUSH2 0x879 JUMP JUMPDEST CALLVALUE PUSH2 0x171 JUMPI PUSH2 0x155 PUSH2 0x74 CALLDATASIZE PUSH2 0x836 JUMP JUMPDEST PUSH2 0xE2 PUSH1 0x1 DUP1 PUSH1 0xA0 SHL SUB DUP1 SWAP4 AND SWAP2 DUP3 PUSH1 0x0 MSTORE PUSH1 0x20 SWAP3 DUP4 SWAP2 PUSH1 0x0 DUP4 MSTORE PUSH1 0x40 PUSH1 0x0 KECCAK256 SWAP2 PUSH2 0xC4 PUSH1 0xFF PUSH1 0x4 PUSH1 0x40 MLOAD DUP8 DUP2 DUP8 MLOAD SWAP9 DUP3 DUP10 ADD SWAP10 PUSH2 0xB3 DUP2 DUP5 DUP14 PUSH2 0x8CF JUMP JUMPDEST DUP3 ADD SWAP1 DUP2 MSTORE SUB ADD SWAP1 KECCAK256 ADD SLOAD AND PUSH2 0x917 JUMP JUMPDEST PUSH1 0x0 MSTORE PUSH1 0x0 DUP4 MSTORE PUSH1 0x40 PUSH1 0x0 KECCAK256 SWAP1 PUSH1 0x40 MLOAD SWAP5 DUP6 SWAP4 DUP5 SWAP3 MLOAD SWAP3 DUP4 SWAP2 PUSH2 0x8CF JUMP JUMPDEST DUP3 ADD SWAP1 DUP2 MSTORE SUB ADD SWAP1 KECCAK256 PUSH2 0x162 PUSH1 0x40 MLOAD SWAP3 PUSH2 0xFB DUP5 PUSH2 0x7A1 JUMP JUMPDEST PUSH2 0x104 DUP4 PUSH2 0x995 JUMP JUMPDEST DUP5 MSTORE PUSH2 0x112 PUSH1 0x1 DUP5 ADD PUSH2 0x995 JUMP JUMPDEST SWAP5 DUP6 DUP3 DUP7 ADD MSTORE PUSH1 0x2 DUP5 ADD SLOAD AND SWAP4 DUP5 PUSH1 0x40 DUP3 ADD MSTORE PUSH1 0xFF PUSH1 0x4 PUSH1 0x3 DUP7 ADD SLOAD SWAP6 DUP7 PUSH1 0x60 DUP6 ADD MSTORE ADD SLOAD AND ISZERO ISZERO PUSH1 0x80 DUP3 ADD MSTORE MLOAD SWAP5 PUSH1 0x40 MLOAD SWAP7 DUP8 SWAP7 PUSH1 0x80 DUP9 MSTORE PUSH1 0x80 DUP9 ADD SWAP1 PUSH2 0x8F2 JUMP JUMPDEST SWAP2 DUP7 DUP4 SUB SWAP1 DUP8 ADD MSTORE PUSH2 0x8F2 JUMP JUMPDEST SWAP2 PUSH1 0x40 DUP5 ADD MSTORE PUSH1 0x60 DUP4 ADD MSTORE SUB SWAP1 RETURN JUMPDEST PUSH1 0x0 DUP1 REVERT JUMPDEST CALLVALUE PUSH2 0x171 JUMPI PUSH2 0x1C7 PUSH2 0x1D6 PUSH1 0x1 PUSH2 0x18C CALLDATASIZE PUSH2 0x836 JUMP JUMPDEST SWAP4 SWAP1 DUP3 DUP1 PUSH1 0xA0 SHL SUB AND SWAP4 DUP5 PUSH1 0x0 MSTORE PUSH1 0x20 SWAP5 DUP6 SWAP2 PUSH1 0x0 DUP4 MSTORE PUSH1 0x40 PUSH1 0x0 KECCAK256 SWAP2 PUSH2 0xC4 PUSH1 0xFF PUSH1 0x4 PUSH1 0x40 MLOAD DUP8 DUP2 DUP8 MLOAD SWAP9 DUP3 DUP10 ADD SWAP10 PUSH2 0xB3 DUP2 DUP5 DUP14 PUSH2 0x8CF JUMP JUMPDEST DUP3 ADD SWAP1 DUP2 MSTORE SUB ADD SWAP1 KECCAK256 ADD PUSH2 0x995 JUMP JUMPDEST SWAP1 PUSH2 0x1EB PUSH1 0x40 MLOAD SWAP3 DUP3 DUP5 SWAP4 DUP5 MSTORE DUP4 ADD SWAP1 PUSH2 0x8F2 JUMP JUMPDEST SUB SWAP1 RETURN JUMPDEST CALLVALUE PUSH2 0x171 JUMPI PUSH1 0x60 CALLDATASIZE PUSH1 0x3 NOT ADD SLT PUSH2 0x171 JUMPI PUSH1 0x4 CALLDATALOAD PUSH8 0xFFFFFFFFFFFFFFFF DUP2 GT PUSH2 0x171 JUMPI PUSH2 0x220 SWAP1 CALLDATASIZE SWAP1 PUSH1 0x4 ADD PUSH2 0x7DF JUMP JUMPDEST PUSH1 0x24 CALLDATALOAD PUSH8 0xFFFFFFFFFFFFFFFF DUP2 GT PUSH2 0x171 JUMPI PUSH2 0x240 SWAP1 CALLDATASIZE SWAP1 PUSH1 0x4 ADD PUSH2 0x7DF JUMP JUMPDEST PUSH1 0x44 CALLDATALOAD PUSH8 0xFFFFFFFFFFFFFFFF DUP2 GT PUSH2 0x171 JUMPI PUSH2 0x260 SWAP1 CALLDATASIZE SWAP1 PUSH1 0x4 ADD PUSH2 0x7DF JUMP JUMPDEST SWAP1 DUP3 MLOAD ISZERO PUSH2 0x6FE JUMPI DUP1 MLOAD ISZERO PUSH2 0x6B9 JUMPI DUP2 MLOAD ISZERO PUSH2 0x674 JUMPI CALLER PUSH1 0x0 MSTORE PUSH1 0x0 PUSH1 0x20 MSTORE PUSH1 0x40 PUSH1 0x0 KECCAK256 PUSH1 0xFF PUSH1 0x4 PUSH1 0x40 MLOAD PUSH1 0x20 DUP2 DUP9 MLOAD SWAP6 DUP3 DUP11 ADD SWAP7 PUSH2 0x2A0 DUP2 DUP5 DUP11 PUSH2 0x8CF JUMP JUMPDEST DUP3 ADD SWAP1 DUP2 MSTORE SUB ADD SWAP1 KECCAK256 ADD SLOAD AND PUSH2 0x637 JUMPI PUSH2 0x2FB PUSH1 0x20 PUSH1 0x40 MLOAD SWAP3 PUSH2 0x2C2 DUP5 PUSH2 0x7A1 JUMP JUMPDEST DUP5 DUP5 MSTORE DUP6 DUP3 DUP6 ADD MSTORE CALLER PUSH1 0x40 DUP6 ADD MSTORE TIMESTAMP PUSH1 0x60 DUP6 ADD MSTORE PUSH1 0x1 PUSH1 0x80 DUP6 ADD MSTORE CALLER PUSH1 0x0 MSTORE PUSH1 0x0 DUP3 MSTORE PUSH1 0x40 PUSH1 0x0 KECCAK256 PUSH1 0x40 MLOAD DUP1 SWAP5 DUP2 SWAP4 DUP11 MLOAD SWAP3 DUP4 SWAP2 PUSH2 0x8CF JUMP JUMPDEST DUP3 ADD SWAP1 DUP2 MSTORE SUB ADD SWAP1 KECCAK256 DUP2 MLOAD DUP1 MLOAD SWAP1 PUSH8 0xFFFFFFFFFFFFFFFF DUP3 GT PUSH2 0x55A JUMPI DUP2 SWAP1 PUSH2 0x324 DUP5 SLOAD PUSH2 0x95B JUMP JUMPDEST PUSH1 0x1F DUP2 GT PUSH2 0x5E7 JUMPI JUMPDEST POP PUSH1 0x20 SWAP1 PUSH1 0x1F DUP4 GT PUSH1 0x1 EQ PUSH2 0x57B JUMPI PUSH1 0x0 SWAP3 PUSH2 0x570 JUMPI JUMPDEST POP POP DUP2 PUSH1 0x1 SHL SWAP2 PUSH1 0x0 NOT SWAP1 PUSH1 0x3 SHL SHR NOT AND OR DUP2 SSTORE JUMPDEST PUSH1 0x20 DUP3 ADD MLOAD DUP1 MLOAD SWAP1 PUSH8 0xFFFFFFFFFFFFFFFF DUP3 GT PUSH2 0x55A JUMPI PUSH2 0x37D PUSH1 0x1 DUP5 ADD SLOAD PUSH2 0x95B JUMP JUMPDEST PUSH1 0x1F DUP2 GT PUSH2 0x513 JUMPI JUMPDEST POP PUSH1 0x20 SWAP1 PUSH1 0x1F DUP4 GT PUSH1 0x1 EQ PUSH2 0x476 JUMPI PUSH1 0x4 PUSH2 0x44E SWAP5 DUP5 PUSH2 0x45C SWAP9 SWAP6 PUSH32 0x38D60978C6E1C77056D64BB66CF4AB44F8AA26482CD8A63BBDF3C2DCBF6FF2C3 SWAP11 SWAP9 SWAP6 PUSH1 0x80 SWAP6 PUSH1 0x0 SWAP3 PUSH2 0x46B JUMPI JUMPDEST POP POP DUP2 PUSH1 0x1 SHL SWAP2 PUSH1 0x0 NOT SWAP1 PUSH1 0x3 SHL SHR NOT AND OR PUSH1 0x1 DUP3 ADD SSTORE JUMPDEST PUSH1 0x2 DUP2 ADD PUSH1 0x1 DUP1 PUSH1 0xA0 SHL SUB PUSH1 0x40 DUP7 ADD MLOAD AND PUSH12 0xFFFFFFFFFFFFFFFFFFFFFFFF PUSH1 0xA0 SHL DUP3 SLOAD AND OR SWAP1 SSTORE PUSH1 0x60 DUP5 ADD MLOAD PUSH1 0x3 DUP3 ADD SSTORE ADD SWAP2 ADD MLOAD ISZERO ISZERO PUSH1 0xFF DUP1 NOT DUP4 SLOAD AND SWAP2 AND OR SWAP1 SSTORE PUSH2 0x440 PUSH1 0x40 MLOAD SWAP7 PUSH1 0x80 DUP9 MSTORE PUSH1 0x80 DUP9 ADD SWAP1 PUSH2 0x8F2 JUMP JUMPDEST SWAP1 DUP7 DUP3 SUB PUSH1 0x20 DUP9 ADD MSTORE PUSH2 0x8F2 JUMP JUMPDEST SWAP1 DUP5 DUP3 SUB PUSH1 0x40 DUP7 ADD MSTORE PUSH2 0x8F2 JUMP JUMPDEST SWAP2 TIMESTAMP PUSH1 0x60 DUP3 ADD MSTORE DUP1 CALLER SWAP4 SUB SWAP1 LOG2 STOP JUMPDEST ADD MLOAD SWAP1 POP DUP13 DUP1 PUSH2 0x3D0 JUMP JUMPDEST SWAP1 PUSH1 0x1F NOT DUP4 AND SWAP2 PUSH1 0x1 DUP6 ADD PUSH1 0x0 MSTORE PUSH1 0x20 PUSH1 0x0 KECCAK256 SWAP3 PUSH1 0x0 JUMPDEST DUP2 DUP2 LT PUSH2 0x4FB JUMPI POP SWAP5 PUSH1 0x1 DUP6 PUSH32 0x38D60978C6E1C77056D64BB66CF4AB44F8AA26482CD8A63BBDF3C2DCBF6FF2C3 SWAP11 SWAP9 SWAP6 PUSH1 0x80 SWAP6 PUSH1 0x4 SWAP6 PUSH2 0x45C SWAP13 SWAP10 PUSH2 0x44E SWAP12 LT PUSH2 0x4E2 JUMPI JUMPDEST POP POP POP DUP2 SHL ADD PUSH1 0x1 DUP3 ADD SSTORE PUSH2 0x3E8 JUMP JUMPDEST ADD MLOAD PUSH1 0x0 NOT PUSH1 0xF8 DUP5 PUSH1 0x3 SHL AND SHR NOT AND SWAP1 SSTORE DUP13 DUP1 DUP1 PUSH2 0x4D2 JUMP JUMPDEST SWAP3 SWAP4 PUSH1 0x20 PUSH1 0x1 DUP2 SWAP3 DUP8 DUP7 ADD MLOAD DUP2 SSTORE ADD SWAP6 ADD SWAP4 ADD PUSH2 0x48D JUMP JUMPDEST PUSH1 0x1 DUP5 ADD PUSH1 0x0 MSTORE PUSH1 0x20 PUSH1 0x0 KECCAK256 PUSH1 0x1F DUP5 ADD PUSH1 0x5 SHR DUP2 ADD PUSH1 0x20 DUP6 LT PUSH2 0x553 JUMPI JUMPDEST PUSH1 0x1F DUP4 ADD PUSH1 0x5 SHR DUP3 ADD DUP2 LT PUSH2 0x547 JUMPI POP POP PUSH2 0x386 JUMP JUMPDEST PUSH1 0x0 DUP2 SSTORE PUSH1 0x1 ADD PUSH2 0x531 JUMP JUMPDEST POP DUP1 PUSH2 0x531 JUMP JUMPDEST PUSH4 0x4E487B71 PUSH1 0xE0 SHL PUSH1 0x0 MSTORE PUSH1 0x41 PUSH1 0x4 MSTORE PUSH1 0x24 PUSH1 0x0 REVERT JUMPDEST ADD MLOAD SWAP1 POP DUP8 DUP1 PUSH2 0x344 JUMP JUMPDEST SWAP3 POP DUP4 PUSH1 0x0 MSTORE PUSH1 0x20 PUSH1 0x0 KECCAK256 SWAP1 PUSH1 0x0 SWAP4 JUMPDEST PUSH1 0x1F NOT DUP5 AND DUP6 LT PUSH2 0x5CC JUMPI PUSH1 0x1 SWAP5 POP DUP4 PUSH1 0x1F NOT DUP2 AND LT PUSH2 0x5B3 JUMPI JUMPDEST POP POP POP DUP2 SHL ADD DUP2 SSTORE PUSH2 0x359 JUMP JUMPDEST ADD MLOAD PUSH1 0x0 NOT PUSH1 0xF8 DUP5 PUSH1 0x3 SHL AND SHR NOT AND SWAP1 SSTORE DUP8 DUP1 DUP1 PUSH2 0x5A6 JUMP JUMPDEST DUP2 DUP2 ADD MLOAD DUP4 SSTORE PUSH1 0x20 SWAP5 DUP6 ADD SWAP5 PUSH1 0x1 SWAP1 SWAP4 ADD SWAP3 SWAP1 SWAP2 ADD SWAP1 PUSH2 0x58B JUMP JUMPDEST SWAP1 SWAP2 POP DUP4 PUSH1 0x0 MSTORE PUSH1 0x20 PUSH1 0x0 KECCAK256 PUSH1 0x1F DUP5 ADD PUSH1 0x5 SHR DUP2 ADD PUSH1 0x20 DUP6 LT PUSH2 0x630 JUMPI JUMPDEST SWAP1 DUP5 SWAP4 SWAP3 SWAP2 JUMPDEST PUSH1 0x1F DUP4 ADD PUSH1 0x5 SHR DUP3 ADD DUP2 LT PUSH2 0x621 JUMPI POP POP PUSH2 0x32D JUMP JUMPDEST PUSH1 0x0 DUP2 SSTORE DUP6 SWAP5 POP PUSH1 0x1 ADD PUSH2 0x60B JUMP JUMPDEST POP DUP1 PUSH2 0x605 JUMP JUMPDEST PUSH1 0x40 MLOAD PUSH3 0x461BCD PUSH1 0xE5 SHL DUP2 MSTORE PUSH1 0x20 PUSH1 0x4 DUP3 ADD MSTORE PUSH1 0x15 PUSH1 0x24 DUP3 ADD MSTORE PUSH21 0x53757276657920616C726561647920657869737473 PUSH1 0x58 SHL PUSH1 0x44 DUP3 ADD MSTORE PUSH1 0x64 SWAP1 REVERT JUMPDEST PUSH1 0x40 MLOAD PUSH3 0x461BCD PUSH1 0xE5 SHL DUP2 MSTORE PUSH1 0x20 PUSH1 0x4 DUP3 ADD MSTORE PUSH1 0x17 PUSH1 0x24 DUP3 ADD MSTORE PUSH32 0x4449443A4E494C2063616E6E6F7420626520656D707479000000000000000000 PUSH1 0x44 DUP3 ADD MSTORE PUSH1 0x64 SWAP1 REVERT JUMPDEST PUSH1 0x40 MLOAD PUSH3 0x461BCD PUSH1 0xE5 SHL DUP2 MSTORE PUSH1 0x20 PUSH1 0x4 DUP3 ADD MSTORE PUSH1 0x18 PUSH1 0x24 DUP3 ADD MSTORE PUSH32 0x49504653204349442063616E6E6F7420626520656D7074790000000000000000 PUSH1 0x44 DUP3 ADD MSTORE PUSH1 0x64 SWAP1 REVERT JUMPDEST PUSH1 0x40 MLOAD PUSH3 0x461BCD PUSH1 0xE5 SHL DUP2 MSTORE PUSH1 0x20 PUSH1 0x4 DUP3 ADD MSTORE PUSH1 0x1B PUSH1 0x24 DUP3 ADD MSTORE PUSH32 0x537572766579206E616D652063616E6E6F7420626520656D7074790000000000 PUSH1 0x44 DUP3 ADD MSTORE PUSH1 0x64 SWAP1 REVERT JUMPDEST CALLVALUE PUSH2 0x171 JUMPI PUSH2 0x793 PUSH2 0x1D6 PUSH2 0x757 CALLDATASIZE PUSH2 0x836 JUMP JUMPDEST SWAP3 SWAP1 PUSH1 0x1 DUP1 PUSH1 0xA0 SHL SUB AND SWAP3 DUP4 PUSH1 0x0 MSTORE PUSH1 0x20 SWAP4 DUP5 SWAP2 PUSH1 0x0 DUP4 MSTORE PUSH1 0x40 PUSH1 0x0 KECCAK256 SWAP2 PUSH2 0xC4 PUSH1 0xFF PUSH1 0x4 PUSH1 0x40 MLOAD DUP8 DUP2 DUP8 MLOAD SWAP9 DUP3 DUP10 ADD SWAP10 PUSH2 0xB3 DUP2 DUP5 DUP14 PUSH2 0x8CF JUMP JUMPDEST DUP3 ADD SWAP1 DUP2 MSTORE SUB ADD SWAP1 KECCAK256 PUSH2 0x995 JUMP JUMPDEST PUSH1 0xA0 DUP2 ADD SWAP1 DUP2 LT PUSH8 0xFFFFFFFFFFFFFFFF DUP3 GT OR PUSH2 0x55A JUMPI PUSH1 0x40 MSTORE JUMP JUMPDEST SWAP1 PUSH1 0x1F DUP1 NOT SWAP2 ADD AND DUP2 ADD SWAP1 DUP2 LT PUSH8 0xFFFFFFFFFFFFFFFF DUP3 GT OR PUSH2 0x55A JUMPI PUSH1 0x40 MSTORE JUMP JUMPDEST DUP2 PUSH1 0x1F DUP3 ADD SLT ISZERO PUSH2 0x171 JUMPI DUP1 CALLDATALOAD SWAP1 PUSH8 0xFFFFFFFFFFFFFFFF DUP3 GT PUSH2 0x55A JUMPI PUSH1 0x40 MLOAD SWAP3 PUSH2 0x814 PUSH1 0x1F DUP5 ADD PUSH1 0x1F NOT AND PUSH1 0x20 ADD DUP6 PUSH2 0x7BD JUMP JUMPDEST DUP3 DUP5 MSTORE PUSH1 0x20 DUP4 DUP4 ADD ADD GT PUSH2 0x171 JUMPI DUP2 PUSH1 0x0 SWAP3 PUSH1 0x20 DUP1 SWAP4 ADD DUP4 DUP7 ADD CALLDATACOPY DUP4 ADD ADD MSTORE SWAP1 JUMP JUMPDEST SWAP1 PUSH1 0x40 PUSH1 0x3 NOT DUP4 ADD SLT PUSH2 0x171 JUMPI PUSH1 0x4 CALLDATALOAD PUSH1 0x1 PUSH1 0x1 PUSH1 0xA0 SHL SUB DUP2 AND DUP2 SUB PUSH2 0x171 JUMPI SWAP2 PUSH1 0x24 CALLDATALOAD SWAP1 PUSH8 0xFFFFFFFFFFFFFFFF DUP3 GT PUSH2 0x171 JUMPI PUSH2 0x876 SWAP2 PUSH1 0x4 ADD PUSH2 0x7DF JUMP JUMPDEST SWAP1 JUMP JUMPDEST CALLVALUE PUSH2 0x171 JUMPI PUSH1 0x20 PUSH1 0xFF PUSH1 0x4 PUSH2 0x8B9 DUP4 PUSH2 0x891 CALLDATASIZE PUSH2 0x836 JUMP JUMPDEST SWAP1 PUSH1 0x1 DUP1 PUSH1 0xA0 SHL SUB AND PUSH1 0x0 MSTORE PUSH1 0x0 DUP3 MSTORE PUSH1 0x40 PUSH1 0x0 KECCAK256 DUP3 PUSH1 0x40 MLOAD SWAP5 DUP4 DUP7 DUP1 SWAP6 MLOAD SWAP4 DUP5 SWAP3 ADD PUSH2 0x8CF JUMP JUMPDEST DUP3 ADD SWAP1 DUP2 MSTORE SUB ADD SWAP1 KECCAK256 ADD SLOAD AND PUSH1 0x40 MLOAD SWAP1 ISZERO ISZERO DUP2 MSTORE RETURN JUMPDEST PUSH1 0x0 JUMPDEST DUP4 DUP2 LT PUSH2 0x8E2 JUMPI POP POP PUSH1 0x0 SWAP2 ADD MSTORE JUMP JUMPDEST DUP2 DUP2 ADD MLOAD DUP4 DUP3 ADD MSTORE PUSH1 0x20 ADD PUSH2 0x8D2 JUMP JUMPDEST SWAP1 PUSH1 0x20 SWAP2 PUSH2 0x90B DUP2 MLOAD DUP1 SWAP3 DUP2 DUP6 MSTORE DUP6 DUP1 DUP7 ADD SWAP2 ADD PUSH2 0x8CF JUMP JUMPDEST PUSH1 0x1F ADD PUSH1 0x1F NOT AND ADD ADD SWAP1 JUMP JUMPDEST ISZERO PUSH2 0x91E JUMPI JUMP JUMPDEST PUSH1 0x40 MLOAD PUSH3 0x461BCD PUSH1 0xE5 SHL DUP2 MSTORE PUSH1 0x20 PUSH1 0x4 DUP3 ADD MSTORE PUSH1 0x15 PUSH1 0x24 DUP3 ADD MSTORE PUSH21 0x14DD5C9D995E48191BD95CC81B9BDD08195E1A5CDD PUSH1 0x5A SHL PUSH1 0x44 DUP3 ADD MSTORE PUSH1 0x64 SWAP1 REVERT JUMPDEST SWAP1 PUSH1 0x1 DUP3 DUP2 SHR SWAP3 AND DUP1 ISZERO PUSH2 0x98B JUMPI JUMPDEST PUSH1 0x20 DUP4 LT EQ PUSH2 0x975 JUMPI JUMP JUMPDEST PUSH4 0x4E487B71 PUSH1 0xE0 SHL PUSH1 0x0 MSTORE PUSH1 0x22 PUSH1 0x4 MSTORE PUSH1 0x24 PUSH1 0x0 REVERT JUMPDEST SWAP2 PUSH1 0x7F AND SWAP2 PUSH2 0x96A JUMP JUMPDEST SWAP1 PUSH1 0x40 MLOAD SWAP2 DUP3 PUSH1 0x0 DUP3 SLOAD PUSH2 0x9A8 DUP2 PUSH2 0x95B JUMP JUMPDEST SWAP1 DUP2 DUP5 MSTORE PUSH1 0x20 SWAP5 PUSH1 0x1 SWAP2 PUSH1 0x1 DUP2 AND SWAP1 DUP2 PUSH1 0x0 EQ PUSH2 0xA18 JUMPI POP PUSH1 0x1 EQ PUSH2 0x9D9 JUMPI JUMPDEST POP POP POP PUSH2 0x9D7 SWAP3 POP SUB DUP4 PUSH2 0x7BD JUMP JUMPDEST JUMP JUMPDEST PUSH1 0x0 SWAP1 DUP2 MSTORE DUP6 DUP2 KECCAK256 SWAP6 SWAP4 POP SWAP2 SWAP1 JUMPDEST DUP2 DUP4 LT PUSH2 0xA00 JUMPI POP POP PUSH2 0x9D7 SWAP4 POP DUP3 ADD ADD CODESIZE DUP1 DUP1 PUSH2 0x9C8 JUMP JUMPDEST DUP6 SLOAD DUP9 DUP5 ADD DUP6 ADD MSTORE SWAP5 DUP6 ADD SWAP5 DUP8 SWAP5 POP SWAP2 DUP4 ADD SWAP2 PUSH2 0x9E7 JUMP JUMPDEST SWAP3 POP POP POP PUSH2 0x9D7 SWAP5 SWAP3 POP PUSH1 0xFF NOT AND DUP3 DUP5 ADD MSTORE ISZERO ISZERO PUSH1 0x5 SHL DUP3 ADD ADD CODESIZE DUP1 DUP1 PUSH2 0x9C8 JUMP INVALID LOG2 PUSH5 0x6970667358 0x22 SLT KECCAK256 0x22 SUB 0xBC PUSH9 0x4F479CF9A8EF94C6BD SWAP8 CALLDATACOPY 0x2B 0xDD SELFBALANCE CHAINID MOD BALANCE 0x26 DUP9 0xEE DIV 0xCA LOG1 SWAP6 CREATE SUB 0xE2 SLOAD PUSH5 0x736F6C6343 STOP ADDMOD XOR STOP CALLER "},"methodIdentifiers":{"createSurvey(string,string,string)":"afe2d16e","getSurvey(address,string)":"c7ee0cb3","getSurveyCid(address,string)":"4a8e7564","getSurveyDidNil(address,string)":"c307ccf0","isOwner(address,string)":"cd379964","surveyExists(address,string)":"0da6428c"}}}}}