{"contracts/survey-store.sol":{"SurveyStore":{"abi":[{"anonymous":false,"inputs":[{"indexed":true,"internalType":"address","name":"owner","type":"address"},{"indexed":false,"internalType":"string","name":"surveyId","type":"string"},{"indexed":false,"internalType":"string","name":"ipfsCid","type":"string"},{"indexed":false,"internalType":"string","name":"didNil","type":"string"},{"indexed":false,"internalType":"string","name":"encryptedNilKey","type":"string"},{"indexed":false,"internalType":"uint256","name":"timestamp","type":"uint256"}],"name":"SurveyCreated","type":"event"},{"inputs":[{"internalType":"string","name":"surveyId","type":"string"},{"internalType":"string","name":"ipfsCid","type":"string"},{"internalType":"string","name":"didNil","type":"string"},{"internalType":"string","name":"encryptedNilKey","type":"string"}],"name":"createSurvey","outputs":[],"stateMutability":"nonpayable","type":"function"},{"inputs":[{"internalType":"address","name":"owner","type":"address"},{"internalType":"string","name":"surveyId","type":"string"}],"name":"getSurvey","outputs":[{"internalType":"string","name":"ipfsCid","type":"string"},{"internalType":"string","name":"didNil","type":"string"},{"internalType":"string","name":"encryptedNilKey","type":"string"},{"internalType":"address","name":"surveyOwner","type":"address"},{"internalType":"uint256","name":"createdAt","type":"uint256"}],"stateMutability":"view","type":"function"},{"inputs":[{"internalType":"address","name":"authSigAddress","type":"address"},{"internalType":"string","name":"surveyId","type":"string"}],"name":"isOwner","outputs":[{"internalType":"bool","name":"","type":"bool"}],"stateMutability":"view","type":"function"},{"inputs":[{"internalType":"address","name":"owner","type":"address"},{"internalType":"string","name":"surveyId","type":"string"}],"name":"surveyExists","outputs":[{"internalType":"bool","name":"","type":"bool"}],"stateMutability":"view","type":"function"}],"evm":{"bytecode":{"linkReferences":{},"object":"6080806040523461001657610b60908161001c8239f35b600080fdfe6080604052600436101561001257600080fd5b60003560e01c80630da6428c146100485780639144812b146101c4578063c7ee0cb31461004d5763cd3799641461004857600080fd5b6109ad565b346101bf5761005b3661096a565b9060018060a01b03809116908160005260209283926000845260ff6005604060002060405197888092875161009481858b019d8e610a03565b8201908152030190200154161561018257610158946100cd92859260005260008352604060002090604051948593849251928391610a03565b820190815203019020610173604051926100e6846108d5565b6100ef83610a85565b845261016561010060018501610a85565b9580860196875261011360028601610a85565b928360408801526003860154169586606082015260ff6005600488015497886080850152015416151560a082015251965160405198899860a08a5260a08a0190610a26565b9188830390890152610a26565b908582036040870152610a26565b91606084015260808301520390f35b60405162461bcd60e51b815260048101859052601560248201527414dd5c9d995e48191bd95cc81b9bdd08195e1a5cdd605a1b6044820152606490fd5b600080fd5b346101bf5760803660031901126101bf5760043567ffffffffffffffff81116101bf576101f5903690600401610913565b60243567ffffffffffffffff81116101bf57610215903690600401610913565b604490813567ffffffffffffffff81116101bf57610237903690600401610913565b90606492833567ffffffffffffffff81116101bf5761025a903690600401610913565b93855115610893578251156108515783511561080f578451156107be5733600052600060205260406000209160ff60056040516020818b5197828d01986102a281848c610a03565b8201908152030190200154166107855750506103056020604051926102c6846108d5565b8484528582850152866040850152336060850152426080850152600160a085015233600052600082526040600020604051809481938b51928391610a03565b820190815203019020815180519067ffffffffffffffff82116105d857819061032e8454610a4b565b601f8111610735575b50602090601f83116001146106c9576000926106be575b50508160011b916000199060031b1c19161781555b602082015180519067ffffffffffffffff82116105d85781906103896001850154610a4b565b601f811161066b575b50602090601f83116001146105f9576000926105ee575b50508160011b916000199060031b1c19161760018201555b604082015180519067ffffffffffffffff82116105d8576103e56002840154610a4b565b601f8111610591575b50602090601f83116001146104ee579360a060056104d49895856104b8967fe7407d52fa4ad665e246bf942758076a2ec4cac9b30d958d60dc339becdd72e29c9a966104c69a6000926104e3575b50508160011b916000199060031b1c19161760028201555b60038101600180851b036060860151166bffffffffffffffffffffffff851b8254161790556080840151600482015501910151151560ff801983541691161790556104aa6040519860a08a5260a08a0190610a26565b9088820360208a0152610a26565b908682036040880152610a26565b908482036060860152610a26565b914260808201528033930390a2005b015190508e8061043c565b906002840160005260206000209160005b601f1985168110610579575060056104d498956001867fe7407d52fa4ad665e246bf942758076a2ec4cac9b30d958d60dc339becdd72e29c9a966104c69a9660a0966104b89a601f19811610610560575b505050811b016002820155610454565b015160001960f88460031b161c191690558e8080610550565b919260206001819286850151815501940192016104ff565b600284016000526020600020601f840160051c8101602085106105d1575b601f830160051c820181106105c55750506103ee565b600081556001016105af565b50806105af565b634e487b7160e01b600052604160045260246000fd5b0151905088806103a9565b9250600184016000526020600020906000935b601f1984168510610650576001945083601f19811610610637575b505050811b0160018201556103c1565b015160001960f88460031b161c19169055888080610627565b8181015183556020948501946001909301929091019061060c565b909150600184016000526020600020601f840160051c8101602085106106b7575b90849392915b601f830160051c820181106106a8575050610392565b60008155859450600101610692565b508061068c565b01519050888061034e565b9250836000526020600020906000935b601f198416851061071a576001945083601f19811610610701575b505050811b018155610363565b015160001960f88460031b161c191690558880806106f4565b818101518355602094850194600190930192909101906106d9565b909150836000526020600020601f840160051c81016020851061077e575b90849392915b601f830160051c8201811061076f575050610337565b60008155859450600101610759565b5080610753565b7453757276657920616c72656164792065786973747360581b6040519162461bcd60e51b83526020600484015260156024840152820152fd5b9064656d70747960d81b6084927f456e63727970746564204e696c6c696f6e206b65792063616e6e6f74206265206040519362461bcd60e51b85526020600486015260256024860152840152820152fd5b907f4449443a4e494c2063616e6e6f7420626520656d7074790000000000000000006040519162461bcd60e51b83526020600484015260176024840152820152fd5b907f49504653204349442063616e6e6f7420626520656d70747900000000000000006040519162461bcd60e51b83526020600484015260186024840152820152fd5b907f5375727665792049442063616e6e6f7420626520656d707479000000000000006040519162461bcd60e51b83526020600484015260196024840152820152fd5b60c0810190811067ffffffffffffffff8211176105d857604052565b90601f8019910116810190811067ffffffffffffffff8211176105d857604052565b81601f820112156101bf5780359067ffffffffffffffff82116105d85760405192610948601f8401601f1916602001856108f1565b828452602083830101116101bf57816000926020809301838601378301015290565b9060406003198301126101bf576004356001600160a01b03811681036101bf57916024359067ffffffffffffffff82116101bf576109aa91600401610913565b90565b346101bf57602060ff60056109ed836109c53661096a565b9060018060a01b03166000526000825260406000208260405194838680955193849201610a03565b8201908152030190200154166040519015158152f35b60005b838110610a165750506000910152565b8181015183820152602001610a06565b90602091610a3f81518092818552858086019101610a03565b601f01601f1916010190565b90600182811c92168015610a7b575b6020831014610a6557565b634e487b7160e01b600052602260045260246000fd5b91607f1691610a5a565b90604051918260008254610a9881610a4b565b90818452602094600191600181169081600014610b085750600114610ac9575b505050610ac7925003836108f1565b565b600090815285812095935091905b818310610af0575050610ac79350820101388080610ab8565b85548884018501529485019487945091830191610ad7565b92505050610ac794925060ff191682840152151560051b820101388080610ab856fea2646970667358221220bcf394a329c3ff21ef9f5df248a3e20dd2aaa6c89b6b4e5947345573c5c8798064736f6c63430008180033","opcodes":"PUSH1 0x80 DUP1 PUSH1 0x40 MSTORE CALLVALUE PUSH2 0x16 JUMPI PUSH2 0xB60 SWAP1 DUP2 PUSH2 0x1C DUP3 CODECOPY RETURN JUMPDEST PUSH1 0x0 DUP1 REVERT INVALID PUSH1 0x80 PUSH1 0x40 MSTORE PUSH1 0x4 CALLDATASIZE LT ISZERO PUSH2 0x12 JUMPI PUSH1 0x0 DUP1 REVERT JUMPDEST PUSH1 0x0 CALLDATALOAD PUSH1 0xE0 SHR DUP1 PUSH4 0xDA6428C EQ PUSH2 0x48 JUMPI DUP1 PUSH4 0x9144812B EQ PUSH2 0x1C4 JUMPI DUP1 PUSH4 0xC7EE0CB3 EQ PUSH2 0x4D JUMPI PUSH4 0xCD379964 EQ PUSH2 0x48 JUMPI PUSH1 0x0 DUP1 REVERT JUMPDEST PUSH2 0x9AD JUMP JUMPDEST CALLVALUE PUSH2 0x1BF JUMPI PUSH2 0x5B CALLDATASIZE PUSH2 0x96A JUMP JUMPDEST SWAP1 PUSH1 0x1 DUP1 PUSH1 0xA0 SHL SUB DUP1 SWAP2 AND SWAP1 DUP2 PUSH1 0x0 MSTORE PUSH1 0x20 SWAP3 DUP4 SWAP3 PUSH1 0x0 DUP5 MSTORE PUSH1 0xFF PUSH1 0x5 PUSH1 0x40 PUSH1 0x0 KECCAK256 PUSH1 0x40 MLOAD SWAP8 DUP9 DUP1 SWAP3 DUP8 MLOAD PUSH2 0x94 DUP2 DUP6 DUP12 ADD SWAP14 DUP15 PUSH2 0xA03 JUMP JUMPDEST DUP3 ADD SWAP1 DUP2 MSTORE SUB ADD SWAP1 KECCAK256 ADD SLOAD AND ISZERO PUSH2 0x182 JUMPI PUSH2 0x158 SWAP5 PUSH2 0xCD SWAP3 DUP6 SWAP3 PUSH1 0x0 MSTORE PUSH1 0x0 DUP4 MSTORE PUSH1 0x40 PUSH1 0x0 KECCAK256 SWAP1 PUSH1 0x40 MLOAD SWAP5 DUP6 SWAP4 DUP5 SWAP3 MLOAD SWAP3 DUP4 SWAP2 PUSH2 0xA03 JUMP JUMPDEST DUP3 ADD SWAP1 DUP2 MSTORE SUB ADD SWAP1 KECCAK256 PUSH2 0x173 PUSH1 0x40 MLOAD SWAP3 PUSH2 0xE6 DUP5 PUSH2 0x8D5 JUMP JUMPDEST PUSH2 0xEF DUP4 PUSH2 0xA85 JUMP JUMPDEST DUP5 MSTORE PUSH2 0x165 PUSH2 0x100 PUSH1 0x1 DUP6 ADD PUSH2 0xA85 JUMP JUMPDEST SWAP6 DUP1 DUP7 ADD SWAP7 DUP8 MSTORE PUSH2 0x113 PUSH1 0x2 DUP7 ADD PUSH2 0xA85 JUMP JUMPDEST SWAP3 DUP4 PUSH1 0x40 DUP9 ADD MSTORE PUSH1 0x3 DUP7 ADD SLOAD AND SWAP6 DUP7 PUSH1 0x60 DUP3 ADD MSTORE PUSH1 0xFF PUSH1 0x5 PUSH1 0x4 DUP9 ADD SLOAD SWAP8 DUP9 PUSH1 0x80 DUP6 ADD MSTORE ADD SLOAD AND ISZERO ISZERO PUSH1 0xA0 DUP3 ADD MSTORE MLOAD SWAP7 MLOAD PUSH1 0x40 MLOAD SWAP9 DUP10 SWAP9 PUSH1 0xA0 DUP11 MSTORE PUSH1 0xA0 DUP11 ADD SWAP1 PUSH2 0xA26 JUMP JUMPDEST SWAP2 DUP9 DUP4 SUB SWAP1 DUP10 ADD MSTORE PUSH2 0xA26 JUMP JUMPDEST SWAP1 DUP6 DUP3 SUB PUSH1 0x40 DUP8 ADD MSTORE PUSH2 0xA26 JUMP JUMPDEST SWAP2 PUSH1 0x60 DUP5 ADD MSTORE PUSH1 0x80 DUP4 ADD MSTORE SUB SWAP1 RETURN JUMPDEST PUSH1 0x40 MLOAD PUSH3 0x461BCD PUSH1 0xE5 SHL DUP2 MSTORE PUSH1 0x4 DUP2 ADD DUP6 SWAP1 MSTORE PUSH1 0x15 PUSH1 0x24 DUP3 ADD MSTORE PUSH21 0x14DD5C9D995E48191BD95CC81B9BDD08195E1A5CDD PUSH1 0x5A SHL PUSH1 0x44 DUP3 ADD MSTORE PUSH1 0x64 SWAP1 REVERT JUMPDEST PUSH1 0x0 DUP1 REVERT JUMPDEST CALLVALUE PUSH2 0x1BF JUMPI PUSH1 0x80 CALLDATASIZE PUSH1 0x3 NOT ADD SLT PUSH2 0x1BF JUMPI PUSH1 0x4 CALLDATALOAD PUSH8 0xFFFFFFFFFFFFFFFF DUP2 GT PUSH2 0x1BF JUMPI PUSH2 0x1F5 SWAP1 CALLDATASIZE SWAP1 PUSH1 0x4 ADD PUSH2 0x913 JUMP JUMPDEST PUSH1 0x24 CALLDATALOAD PUSH8 0xFFFFFFFFFFFFFFFF DUP2 GT PUSH2 0x1BF JUMPI PUSH2 0x215 SWAP1 CALLDATASIZE SWAP1 PUSH1 0x4 ADD PUSH2 0x913 JUMP JUMPDEST PUSH1 0x44 SWAP1 DUP2 CALLDATALOAD PUSH8 0xFFFFFFFFFFFFFFFF DUP2 GT PUSH2 0x1BF JUMPI PUSH2 0x237 SWAP1 CALLDATASIZE SWAP1 PUSH1 0x4 ADD PUSH2 0x913 JUMP JUMPDEST SWAP1 PUSH1 0x64 SWAP3 DUP4 CALLDATALOAD PUSH8 0xFFFFFFFFFFFFFFFF DUP2 GT PUSH2 0x1BF JUMPI PUSH2 0x25A SWAP1 CALLDATASIZE SWAP1 PUSH1 0x4 ADD PUSH2 0x913 JUMP JUMPDEST SWAP4 DUP6 MLOAD ISZERO PUSH2 0x893 JUMPI DUP3 MLOAD ISZERO PUSH2 0x851 JUMPI DUP4 MLOAD ISZERO PUSH2 0x80F JUMPI DUP5 MLOAD ISZERO PUSH2 0x7BE JUMPI CALLER PUSH1 0x0 MSTORE PUSH1 0x0 PUSH1 0x20 MSTORE PUSH1 0x40 PUSH1 0x0 KECCAK256 SWAP2 PUSH1 0xFF PUSH1 0x5 PUSH1 0x40 MLOAD PUSH1 0x20 DUP2 DUP12 MLOAD SWAP8 DUP3 DUP14 ADD SWAP9 PUSH2 0x2A2 DUP2 DUP5 DUP13 PUSH2 0xA03 JUMP JUMPDEST DUP3 ADD SWAP1 DUP2 MSTORE SUB ADD SWAP1 KECCAK256 ADD SLOAD AND PUSH2 0x785 JUMPI POP POP PUSH2 0x305 PUSH1 0x20 PUSH1 0x40 MLOAD SWAP3 PUSH2 0x2C6 DUP5 PUSH2 0x8D5 JUMP JUMPDEST DUP5 DUP5 MSTORE DUP6 DUP3 DUP6 ADD MSTORE DUP7 PUSH1 0x40 DUP6 ADD MSTORE CALLER PUSH1 0x60 DUP6 ADD MSTORE TIMESTAMP PUSH1 0x80 DUP6 ADD MSTORE PUSH1 0x1 PUSH1 0xA0 DUP6 ADD MSTORE CALLER PUSH1 0x0 MSTORE PUSH1 0x0 DUP3 MSTORE PUSH1 0x40 PUSH1 0x0 KECCAK256 PUSH1 0x40 MLOAD DUP1 SWAP5 DUP2 SWAP4 DUP12 MLOAD SWAP3 DUP4 SWAP2 PUSH2 0xA03 JUMP JUMPDEST DUP3 ADD SWAP1 DUP2 MSTORE SUB ADD SWAP1 KECCAK256 DUP2 MLOAD DUP1 MLOAD SWAP1 PUSH8 0xFFFFFFFFFFFFFFFF DUP3 GT PUSH2 0x5D8 JUMPI DUP2 SWAP1 PUSH2 0x32E DUP5 SLOAD PUSH2 0xA4B JUMP JUMPDEST PUSH1 0x1F DUP2 GT PUSH2 0x735 JUMPI JUMPDEST POP PUSH1 0x20 SWAP1 PUSH1 0x1F DUP4 GT PUSH1 0x1 EQ PUSH2 0x6C9 JUMPI PUSH1 0x0 SWAP3 PUSH2 0x6BE JUMPI JUMPDEST POP POP DUP2 PUSH1 0x1 SHL SWAP2 PUSH1 0x0 NOT SWAP1 PUSH1 0x3 SHL SHR NOT AND OR DUP2 SSTORE JUMPDEST PUSH1 0x20 DUP3 ADD MLOAD DUP1 MLOAD SWAP1 PUSH8 0xFFFFFFFFFFFFFFFF DUP3 GT PUSH2 0x5D8 JUMPI DUP2 SWAP1 PUSH2 0x389 PUSH1 0x1 DUP6 ADD SLOAD PUSH2 0xA4B JUMP JUMPDEST PUSH1 0x1F DUP2 GT PUSH2 0x66B JUMPI JUMPDEST POP PUSH1 0x20 SWAP1 PUSH1 0x1F DUP4 GT PUSH1 0x1 EQ PUSH2 0x5F9 JUMPI PUSH1 0x0 SWAP3 PUSH2 0x5EE JUMPI JUMPDEST POP POP DUP2 PUSH1 0x1 SHL SWAP2 PUSH1 0x0 NOT SWAP1 PUSH1 0x3 SHL SHR NOT AND OR PUSH1 0x1 DUP3 ADD SSTORE JUMPDEST PUSH1 0x40 DUP3 ADD MLOAD DUP1 MLOAD SWAP1 PUSH8 0xFFFFFFFFFFFFFFFF DUP3 GT PUSH2 0x5D8 JUMPI PUSH2 0x3E5 PUSH1 0x2 DUP5 ADD SLOAD PUSH2 0xA4B JUMP JUMPDEST PUSH1 0x1F DUP2 GT PUSH2 0x591 JUMPI JUMPDEST POP PUSH1 0x20 SWAP1 PUSH1 0x1F DUP4 GT PUSH1 0x1 EQ PUSH2 0x4EE JUMPI SWAP4 PUSH1 0xA0 PUSH1 0x5 PUSH2 0x4D4 SWAP9 SWAP6 DUP6 PUSH2 0x4B8 SWAP7 PUSH32 0xE7407D52FA4AD665E246BF942758076A2EC4CAC9B30D958D60DC339BECDD72E2 SWAP13 SWAP11 SWAP7 PUSH2 0x4C6 SWAP11 PUSH1 0x0 SWAP3 PUSH2 0x4E3 JUMPI JUMPDEST POP POP DUP2 PUSH1 0x1 SHL SWAP2 PUSH1 0x0 NOT SWAP1 PUSH1 0x3 SHL SHR NOT AND OR PUSH1 0x2 DUP3 ADD SSTORE JUMPDEST PUSH1 0x3 DUP2 ADD PUSH1 0x1 DUP1 DUP6 SHL SUB PUSH1 0x60 DUP7 ADD MLOAD AND PUSH12 0xFFFFFFFFFFFFFFFFFFFFFFFF DUP6 SHL DUP3 SLOAD AND OR SWAP1 SSTORE PUSH1 0x80 DUP5 ADD MLOAD PUSH1 0x4 DUP3 ADD SSTORE ADD SWAP2 ADD MLOAD ISZERO ISZERO PUSH1 0xFF DUP1 NOT DUP4 SLOAD AND SWAP2 AND OR SWAP1 SSTORE PUSH2 0x4AA PUSH1 0x40 MLOAD SWAP9 PUSH1 0xA0 DUP11 MSTORE PUSH1 0xA0 DUP11 ADD SWAP1 PUSH2 0xA26 JUMP JUMPDEST SWAP1 DUP9 DUP3 SUB PUSH1 0x20 DUP11 ADD MSTORE PUSH2 0xA26 JUMP JUMPDEST SWAP1 DUP7 DUP3 SUB PUSH1 0x40 DUP9 ADD MSTORE PUSH2 0xA26 JUMP JUMPDEST SWAP1 DUP5 DUP3 SUB PUSH1 0x60 DUP7 ADD MSTORE PUSH2 0xA26 JUMP JUMPDEST SWAP2 TIMESTAMP PUSH1 0x80 DUP3 ADD MSTORE DUP1 CALLER SWAP4 SUB SWAP1 LOG2 STOP JUMPDEST ADD MLOAD SWAP1 POP DUP15 DUP1 PUSH2 0x43C JUMP JUMPDEST SWAP1 PUSH1 0x2 DUP5 ADD PUSH1 0x0 MSTORE PUSH1 0x20 PUSH1 0x0 KECCAK256 SWAP2 PUSH1 0x0 JUMPDEST PUSH1 0x1F NOT DUP6 AND DUP2 LT PUSH2 0x579 JUMPI POP PUSH1 0x5 PUSH2 0x4D4 SWAP9 SWAP6 PUSH1 0x1 DUP7 PUSH32 0xE7407D52FA4AD665E246BF942758076A2EC4CAC9B30D958D60DC339BECDD72E2 SWAP13 SWAP11 SWAP7 PUSH2 0x4C6 SWAP11 SWAP7 PUSH1 0xA0 SWAP7 PUSH2 0x4B8 SWAP11 PUSH1 0x1F NOT DUP2 AND LT PUSH2 0x560 JUMPI JUMPDEST POP POP POP DUP2 SHL ADD PUSH1 0x2 DUP3 ADD SSTORE PUSH2 0x454 JUMP JUMPDEST ADD MLOAD PUSH1 0x0 NOT PUSH1 0xF8 DUP5 PUSH1 0x3 SHL AND SHR NOT AND SWAP1 SSTORE DUP15 DUP1 DUP1 PUSH2 0x550 JUMP JUMPDEST SWAP2 SWAP3 PUSH1 0x20 PUSH1 0x1 DUP2 SWAP3 DUP7 DUP6 ADD MLOAD DUP2 SSTORE ADD SWAP5 ADD SWAP3 ADD PUSH2 0x4FF JUMP JUMPDEST PUSH1 0x2 DUP5 ADD PUSH1 0x0 MSTORE PUSH1 0x20 PUSH1 0x0 KECCAK256 PUSH1 0x1F DUP5 ADD PUSH1 0x5 SHR DUP2 ADD PUSH1 0x20 DUP6 LT PUSH2 0x5D1 JUMPI JUMPDEST PUSH1 0x1F DUP4 ADD PUSH1 0x5 SHR DUP3 ADD DUP2 LT PUSH2 0x5C5 JUMPI POP POP PUSH2 0x3EE JUMP JUMPDEST PUSH1 0x0 DUP2 SSTORE PUSH1 0x1 ADD PUSH2 0x5AF JUMP JUMPDEST POP DUP1 PUSH2 0x5AF JUMP JUMPDEST PUSH4 0x4E487B71 PUSH1 0xE0 SHL PUSH1 0x0 MSTORE PUSH1 0x41 PUSH1 0x4 MSTORE PUSH1 0x24 PUSH1 0x0 REVERT JUMPDEST ADD MLOAD SWAP1 POP DUP9 DUP1 PUSH2 0x3A9 JUMP JUMPDEST SWAP3 POP PUSH1 0x1 DUP5 ADD PUSH1 0x0 MSTORE PUSH1 0x20 PUSH1 0x0 KECCAK256 SWAP1 PUSH1 0x0 SWAP4 JUMPDEST PUSH1 0x1F NOT DUP5 AND DUP6 LT PUSH2 0x650 JUMPI PUSH1 0x1 SWAP5 POP DUP4 PUSH1 0x1F NOT DUP2 AND LT PUSH2 0x637 JUMPI JUMPDEST POP POP POP DUP2 SHL ADD PUSH1 0x1 DUP3 ADD SSTORE PUSH2 0x3C1 JUMP JUMPDEST ADD MLOAD PUSH1 0x0 NOT PUSH1 0xF8 DUP5 PUSH1 0x3 SHL AND SHR NOT AND SWAP1 SSTORE DUP9 DUP1 DUP1 PUSH2 0x627 JUMP JUMPDEST DUP2 DUP2 ADD MLOAD DUP4 SSTORE PUSH1 0x20 SWAP5 DUP6 ADD SWAP5 PUSH1 0x1 SWAP1 SWAP4 ADD SWAP3 SWAP1 SWAP2 ADD SWAP1 PUSH2 0x60C JUMP JUMPDEST SWAP1 SWAP2 POP PUSH1 0x1 DUP5 ADD PUSH1 0x0 MSTORE PUSH1 0x20 PUSH1 0x0 KECCAK256 PUSH1 0x1F DUP5 ADD PUSH1 0x5 SHR DUP2 ADD PUSH1 0x20 DUP6 LT PUSH2 0x6B7 JUMPI JUMPDEST SWAP1 DUP5 SWAP4 SWAP3 SWAP2 JUMPDEST PUSH1 0x1F DUP4 ADD PUSH1 0x5 SHR DUP3 ADD DUP2 LT PUSH2 0x6A8 JUMPI POP POP PUSH2 0x392 JUMP JUMPDEST PUSH1 0x0 DUP2 SSTORE DUP6 SWAP5 POP PUSH1 0x1 ADD PUSH2 0x692 JUMP JUMPDEST POP DUP1 PUSH2 0x68C JUMP JUMPDEST ADD MLOAD SWAP1 POP DUP9 DUP1 PUSH2 0x34E JUMP JUMPDEST SWAP3 POP DUP4 PUSH1 0x0 MSTORE PUSH1 0x20 PUSH1 0x0 KECCAK256 SWAP1 PUSH1 0x0 SWAP4 JUMPDEST PUSH1 0x1F NOT DUP5 AND DUP6 LT PUSH2 0x71A JUMPI PUSH1 0x1 SWAP5 POP DUP4 PUSH1 0x1F NOT DUP2 AND LT PUSH2 0x701 JUMPI JUMPDEST POP POP POP DUP2 SHL ADD DUP2 SSTORE PUSH2 0x363 JUMP JUMPDEST ADD MLOAD PUSH1 0x0 NOT PUSH1 0xF8 DUP5 PUSH1 0x3 SHL AND SHR NOT AND SWAP1 SSTORE DUP9 DUP1 DUP1 PUSH2 0x6F4 JUMP JUMPDEST DUP2 DUP2 ADD MLOAD DUP4 SSTORE PUSH1 0x20 SWAP5 DUP6 ADD SWAP5 PUSH1 0x1 SWAP1 SWAP4 ADD SWAP3 SWAP1 SWAP2 ADD SWAP1 PUSH2 0x6D9 JUMP JUMPDEST SWAP1 SWAP2 POP DUP4 PUSH1 0x0 MSTORE PUSH1 0x20 PUSH1 0x0 KECCAK256 PUSH1 0x1F DUP5 ADD PUSH1 0x5 SHR DUP2 ADD PUSH1 0x20 DUP6 LT PUSH2 0x77E JUMPI JUMPDEST SWAP1 DUP5 SWAP4 SWAP3 SWAP2 JUMPDEST PUSH1 0x1F DUP4 ADD PUSH1 0x5 SHR DUP3 ADD DUP2 LT PUSH2 0x76F JUMPI POP POP PUSH2 0x337 JUMP JUMPDEST PUSH1 0x0 DUP2 SSTORE DUP6 SWAP5 POP PUSH1 0x1 ADD PUSH2 0x759 JUMP JUMPDEST POP DUP1 PUSH2 0x753 JUMP JUMPDEST PUSH21 0x53757276657920616C726561647920657869737473 PUSH1 0x58 SHL PUSH1 0x40 MLOAD SWAP2 PUSH3 0x461BCD PUSH1 0xE5 SHL DUP4 MSTORE PUSH1 0x20 PUSH1 0x4 DUP5 ADD MSTORE PUSH1 0x15 PUSH1 0x24 DUP5 ADD MSTORE DUP3 ADD MSTORE REVERT JUMPDEST SWAP1 PUSH5 0x656D707479 PUSH1 0xD8 SHL PUSH1 0x84 SWAP3 PUSH32 0x456E63727970746564204E696C6C696F6E206B65792063616E6E6F7420626520 PUSH1 0x40 MLOAD SWAP4 PUSH3 0x461BCD PUSH1 0xE5 SHL DUP6 MSTORE PUSH1 0x20 PUSH1 0x4 DUP7 ADD MSTORE PUSH1 0x25 PUSH1 0x24 DUP7 ADD MSTORE DUP5 ADD MSTORE DUP3 ADD MSTORE REVERT JUMPDEST SWAP1 PUSH32 0x4449443A4E494C2063616E6E6F7420626520656D707479000000000000000000 PUSH1 0x40 MLOAD SWAP2 PUSH3 0x461BCD PUSH1 0xE5 SHL DUP4 MSTORE PUSH1 0x20 PUSH1 0x4 DUP5 ADD MSTORE PUSH1 0x17 PUSH1 0x24 DUP5 ADD MSTORE DUP3 ADD MSTORE REVERT JUMPDEST SWAP1 PUSH32 0x49504653204349442063616E6E6F7420626520656D7074790000000000000000 PUSH1 0x40 MLOAD SWAP2 PUSH3 0x461BCD PUSH1 0xE5 SHL DUP4 MSTORE PUSH1 0x20 PUSH1 0x4 DUP5 ADD MSTORE PUSH1 0x18 PUSH1 0x24 DUP5 ADD MSTORE DUP3 ADD MSTORE REVERT JUMPDEST SWAP1 PUSH32 0x5375727665792049442063616E6E6F7420626520656D70747900000000000000 PUSH1 0x40 MLOAD SWAP2 PUSH3 0x461BCD PUSH1 0xE5 SHL DUP4 MSTORE PUSH1 0x20 PUSH1 0x4 DUP5 ADD MSTORE PUSH1 0x19 PUSH1 0x24 DUP5 ADD MSTORE DUP3 ADD MSTORE REVERT JUMPDEST PUSH1 0xC0 DUP2 ADD SWAP1 DUP2 LT PUSH8 0xFFFFFFFFFFFFFFFF DUP3 GT OR PUSH2 0x5D8 JUMPI PUSH1 0x40 MSTORE JUMP JUMPDEST SWAP1 PUSH1 0x1F DUP1 NOT SWAP2 ADD AND DUP2 ADD SWAP1 DUP2 LT PUSH8 0xFFFFFFFFFFFFFFFF DUP3 GT OR PUSH2 0x5D8 JUMPI PUSH1 0x40 MSTORE JUMP JUMPDEST DUP2 PUSH1 0x1F DUP3 ADD SLT ISZERO PUSH2 0x1BF JUMPI DUP1 CALLDATALOAD SWAP1 PUSH8 0xFFFFFFFFFFFFFFFF DUP3 GT PUSH2 0x5D8 JUMPI PUSH1 0x40 MLOAD SWAP3 PUSH2 0x948 PUSH1 0x1F DUP5 ADD PUSH1 0x1F NOT AND PUSH1 0x20 ADD DUP6 PUSH2 0x8F1 JUMP JUMPDEST DUP3 DUP5 MSTORE PUSH1 0x20 DUP4 DUP4 ADD ADD GT PUSH2 0x1BF JUMPI DUP2 PUSH1 0x0 SWAP3 PUSH1 0x20 DUP1 SWAP4 ADD DUP4 DUP7 ADD CALLDATACOPY DUP4 ADD ADD MSTORE SWAP1 JUMP JUMPDEST SWAP1 PUSH1 0x40 PUSH1 0x3 NOT DUP4 ADD SLT PUSH2 0x1BF JUMPI PUSH1 0x4 CALLDATALOAD PUSH1 0x1 PUSH1 0x1 PUSH1 0xA0 SHL SUB DUP2 AND DUP2 SUB PUSH2 0x1BF JUMPI SWAP2 PUSH1 0x24 CALLDATALOAD SWAP1 PUSH8 0xFFFFFFFFFFFFFFFF DUP3 GT PUSH2 0x1BF JUMPI PUSH2 0x9AA SWAP2 PUSH1 0x4 ADD PUSH2 0x913 JUMP JUMPDEST SWAP1 JUMP JUMPDEST CALLVALUE PUSH2 0x1BF JUMPI PUSH1 0x20 PUSH1 0xFF PUSH1 0x5 PUSH2 0x9ED DUP4 PUSH2 0x9C5 CALLDATASIZE PUSH2 0x96A JUMP JUMPDEST SWAP1 PUSH1 0x1 DUP1 PUSH1 0xA0 SHL SUB AND PUSH1 0x0 MSTORE PUSH1 0x0 DUP3 MSTORE PUSH1 0x40 PUSH1 0x0 KECCAK256 DUP3 PUSH1 0x40 MLOAD SWAP5 DUP4 DUP7 DUP1 SWAP6 MLOAD SWAP4 DUP5 SWAP3 ADD PUSH2 0xA03 JUMP JUMPDEST DUP3 ADD SWAP1 DUP2 MSTORE SUB ADD SWAP1 KECCAK256 ADD SLOAD AND PUSH1 0x40 MLOAD SWAP1 ISZERO ISZERO DUP2 MSTORE RETURN JUMPDEST PUSH1 0x0 JUMPDEST DUP4 DUP2 LT PUSH2 0xA16 JUMPI POP POP PUSH1 0x0 SWAP2 ADD MSTORE JUMP JUMPDEST DUP2 DUP2 ADD MLOAD DUP4 DUP3 ADD MSTORE PUSH1 0x20 ADD PUSH2 0xA06 JUMP JUMPDEST SWAP1 PUSH1 0x20 SWAP2 PUSH2 0xA3F DUP2 MLOAD DUP1 SWAP3 DUP2 DUP6 MSTORE DUP6 DUP1 DUP7 ADD SWAP2 ADD PUSH2 0xA03 JUMP JUMPDEST PUSH1 0x1F ADD PUSH1 0x1F NOT AND ADD ADD SWAP1 JUMP JUMPDEST SWAP1 PUSH1 0x1 DUP3 DUP2 SHR SWAP3 AND DUP1 ISZERO PUSH2 0xA7B JUMPI JUMPDEST PUSH1 0x20 DUP4 LT EQ PUSH2 0xA65 JUMPI JUMP JUMPDEST PUSH4 0x4E487B71 PUSH1 0xE0 SHL PUSH1 0x0 MSTORE PUSH1 0x22 PUSH1 0x4 MSTORE PUSH1 0x24 PUSH1 0x0 REVERT JUMPDEST SWAP2 PUSH1 0x7F AND SWAP2 PUSH2 0xA5A JUMP JUMPDEST SWAP1 PUSH1 0x40 MLOAD SWAP2 DUP3 PUSH1 0x0 DUP3 SLOAD PUSH2 0xA98 DUP2 PUSH2 0xA4B JUMP JUMPDEST SWAP1 DUP2 DUP5 MSTORE PUSH1 0x20 SWAP5 PUSH1 0x1 SWAP2 PUSH1 0x1 DUP2 AND SWAP1 DUP2 PUSH1 0x0 EQ PUSH2 0xB08 JUMPI POP PUSH1 0x1 EQ PUSH2 0xAC9 JUMPI JUMPDEST POP POP POP PUSH2 0xAC7 SWAP3 POP SUB DUP4 PUSH2 0x8F1 JUMP JUMPDEST JUMP JUMPDEST PUSH1 0x0 SWAP1 DUP2 MSTORE DUP6 DUP2 KECCAK256 SWAP6 SWAP4 POP SWAP2 SWAP1 JUMPDEST DUP2 DUP4 LT PUSH2 0xAF0 JUMPI POP POP PUSH2 0xAC7 SWAP4 POP DUP3 ADD ADD CODESIZE DUP1 DUP1 PUSH2 0xAB8 JUMP JUMPDEST DUP6 SLOAD DUP9 DUP5 ADD DUP6 ADD MSTORE SWAP5 DUP6 ADD SWAP5 DUP8 SWAP5 POP SWAP2 DUP4 ADD SWAP2 PUSH2 0xAD7 JUMP JUMPDEST SWAP3 POP POP POP PUSH2 0xAC7 SWAP5 SWAP3 POP PUSH1 0xFF NOT AND DUP3 DUP5 ADD MSTORE ISZERO ISZERO PUSH1 0x5 SHL DUP3 ADD ADD CODESIZE DUP1 DUP1 PUSH2 0xAB8 JUMP INVALID LOG2 PUSH5 0x6970667358 0x22 SLT KECCAK256 0xBC RETURN SWAP5 LOG3 0x29 0xC3 SELFDESTRUCT 0x21 0xEF SWAP16 TSTORE CALLCODE BASEFEE LOG3 0xE2 0xD 0xD2 0xAA 0xA6 0xC8 SWAP12 PUSH12 0x4E5947345573C5C879806473 PUSH16 0x6C634300081800330000000000000000 "},"methodIdentifiers":{"createSurvey(string,string,string,string)":"9144812b","getSurvey(address,string)":"c7ee0cb3","isOwner(address,string)":"cd379964","surveyExists(address,string)":"0da6428c"}}}}}