{"contracts/survey-adapter.sol":{"SurveyAdapter":{"abi":[{"inputs":[{"internalType":"address","name":"surveyStoreAddress","type":"address"}],"stateMutability":"nonpayable","type":"constructor"},{"inputs":[{"internalType":"address","name":"user","type":"address"},{"internalType":"string","name":"surveyId","type":"string"}],"name":"balanceOf","outputs":[{"internalType":"uint256","name":"","type":"uint256"}],"stateMutability":"view","type":"function"},{"inputs":[],"name":"surveyStore","outputs":[{"internalType":"contract SurveyStore","name":"","type":"address"}],"stateMutability":"view","type":"function"}],"evm":{"bytecode":{"linkReferences":{},"object":"60803461007457601f6102d938819003918201601f19168301916001600160401b038311848410176100795780849260209460405283398101031261007457516001600160a01b0381169081900361007457600080546001600160a01b03191691909117905560405161024990816100908239f35b600080fd5b634e487b7160e01b600052604160045260246000fdfe60806040818152600436101561001457600080fd5b600091823560e01c9081635410cb33146101b7575063b9b092c81461003857600080fd5b3461016e578060031936011261016e576001600160a01b03916004358381169081900361016e5760243567ffffffffffffffff8082116101b357366023830112156101b357816004013590811161019f57602095601f19918651936100a48985601f85011601866101db565b818552366024838301011161019b57888281969795949360248a9401838a01378701015285541690865194859363334de65960e21b8552600485015287602485015280519081604486015285885b83811061018357505050838092601f838a6064809686010152011681010301915afa90811561017957829161013f575b5015610136575060ff6001915b5191168152f35b60ff909161012f565b90508381813d8311610172575b61015681836101db565b8101031261016e5751801515810361016e5738610122565b5080fd5b503d61014c565b83513d84823e3d90fd5b828101820151898201606401528896508791016100f2565b8680fd5b634e487b7160e01b84526041600452602484fd5b8380fd5b83903461016e578160031936011261016e5790546001600160a01b03168152602090f35b90601f8019910116810190811067ffffffffffffffff8211176101fd57604052565b634e487b7160e01b600052604160045260246000fdfea2646970667358221220065c96e258d648d20a9073ecfd725c40d5943ed3f5054f25018ef1fd0908645d64736f6c63430008180033","opcodes":"PUSH1 0x80 CALLVALUE PUSH2 0x74 JUMPI PUSH1 0x1F PUSH2 0x2D9 CODESIZE DUP2 SWAP1 SUB SWAP2 DUP3 ADD PUSH1 0x1F NOT AND DUP4 ADD SWAP2 PUSH1 0x1 PUSH1 0x1 PUSH1 0x40 SHL SUB DUP4 GT DUP5 DUP5 LT OR PUSH2 0x79 JUMPI DUP1 DUP5 SWAP3 PUSH1 0x20 SWAP5 PUSH1 0x40 MSTORE DUP4 CODECOPY DUP2 ADD SUB SLT PUSH2 0x74 JUMPI MLOAD PUSH1 0x1 PUSH1 0x1 PUSH1 0xA0 SHL SUB DUP2 AND SWAP1 DUP2 SWAP1 SUB PUSH2 0x74 JUMPI PUSH1 0x0 DUP1 SLOAD PUSH1 0x1 PUSH1 0x1 PUSH1 0xA0 SHL SUB NOT AND SWAP2 SWAP1 SWAP2 OR SWAP1 SSTORE PUSH1 0x40 MLOAD PUSH2 0x249 SWAP1 DUP2 PUSH2 0x90 DUP3 CODECOPY RETURN JUMPDEST PUSH1 0x0 DUP1 REVERT JUMPDEST PUSH4 0x4E487B71 PUSH1 0xE0 SHL PUSH1 0x0 MSTORE PUSH1 0x41 PUSH1 0x4 MSTORE PUSH1 0x24 PUSH1 0x0 REVERT INVALID PUSH1 0x80 PUSH1 0x40 DUP2 DUP2 MSTORE PUSH1 0x4 CALLDATASIZE LT ISZERO PUSH2 0x14 JUMPI PUSH1 0x0 DUP1 REVERT JUMPDEST PUSH1 0x0 SWAP2 DUP3 CALLDATALOAD PUSH1 0xE0 SHR SWAP1 DUP2 PUSH4 0x5410CB33 EQ PUSH2 0x1B7 JUMPI POP PUSH4 0xB9B092C8 EQ PUSH2 0x38 JUMPI PUSH1 0x0 DUP1 REVERT JUMPDEST CALLVALUE PUSH2 0x16E JUMPI DUP1 PUSH1 0x3 NOT CALLDATASIZE ADD SLT PUSH2 0x16E JUMPI PUSH1 0x1 PUSH1 0x1 PUSH1 0xA0 SHL SUB SWAP2 PUSH1 0x4 CALLDATALOAD DUP4 DUP2 AND SWAP1 DUP2 SWAP1 SUB PUSH2 0x16E JUMPI PUSH1 0x24 CALLDATALOAD PUSH8 0xFFFFFFFFFFFFFFFF DUP1 DUP3 GT PUSH2 0x1B3 JUMPI CALLDATASIZE PUSH1 0x23 DUP4 ADD SLT ISZERO PUSH2 0x1B3 JUMPI DUP2 PUSH1 0x4 ADD CALLDATALOAD SWAP1 DUP2 GT PUSH2 0x19F JUMPI PUSH1 0x20 SWAP6 PUSH1 0x1F NOT SWAP2 DUP7 MLOAD SWAP4 PUSH2 0xA4 DUP10 DUP6 PUSH1 0x1F DUP6 ADD AND ADD DUP7 PUSH2 0x1DB JUMP JUMPDEST DUP2 DUP6 MSTORE CALLDATASIZE PUSH1 0x24 DUP4 DUP4 ADD ADD GT PUSH2 0x19B JUMPI DUP9 DUP3 DUP2 SWAP7 SWAP8 SWAP6 SWAP5 SWAP4 PUSH1 0x24 DUP11 SWAP5 ADD DUP4 DUP11 ADD CALLDATACOPY DUP8 ADD ADD MSTORE DUP6 SLOAD AND SWAP1 DUP7 MLOAD SWAP5 DUP6 SWAP4 PUSH4 0x334DE659 PUSH1 0xE2 SHL DUP6 MSTORE PUSH1 0x4 DUP6 ADD MSTORE DUP8 PUSH1 0x24 DUP6 ADD MSTORE DUP1 MLOAD SWAP1 DUP2 PUSH1 0x44 DUP7 ADD MSTORE DUP6 DUP9 JUMPDEST DUP4 DUP2 LT PUSH2 0x183 JUMPI POP POP POP DUP4 DUP1 SWAP3 PUSH1 0x1F DUP4 DUP11 PUSH1 0x64 DUP1 SWAP7 DUP7 ADD ADD MSTORE ADD AND DUP2 ADD SUB ADD SWAP2 GAS STATICCALL SWAP1 DUP2 ISZERO PUSH2 0x179 JUMPI DUP3 SWAP2 PUSH2 0x13F JUMPI JUMPDEST POP ISZERO PUSH2 0x136 JUMPI POP PUSH1 0xFF PUSH1 0x1 SWAP2 JUMPDEST MLOAD SWAP2 AND DUP2 MSTORE RETURN JUMPDEST PUSH1 0xFF SWAP1 SWAP2 PUSH2 0x12F JUMP JUMPDEST SWAP1 POP DUP4 DUP2 DUP2 RETURNDATASIZE DUP4 GT PUSH2 0x172 JUMPI JUMPDEST PUSH2 0x156 DUP2 DUP4 PUSH2 0x1DB JUMP JUMPDEST DUP2 ADD SUB SLT PUSH2 0x16E JUMPI MLOAD DUP1 ISZERO ISZERO DUP2 SUB PUSH2 0x16E JUMPI CODESIZE PUSH2 0x122 JUMP JUMPDEST POP DUP1 REVERT JUMPDEST POP RETURNDATASIZE PUSH2 0x14C JUMP JUMPDEST DUP4 MLOAD RETURNDATASIZE DUP5 DUP3 RETURNDATACOPY RETURNDATASIZE SWAP1 REVERT JUMPDEST DUP3 DUP2 ADD DUP3 ADD MLOAD DUP10 DUP3 ADD PUSH1 0x64 ADD MSTORE DUP9 SWAP7 POP DUP8 SWAP2 ADD PUSH2 0xF2 JUMP JUMPDEST DUP7 DUP1 REVERT JUMPDEST PUSH4 0x4E487B71 PUSH1 0xE0 SHL DUP5 MSTORE PUSH1 0x41 PUSH1 0x4 MSTORE PUSH1 0x24 DUP5 REVERT JUMPDEST DUP4 DUP1 REVERT JUMPDEST DUP4 SWAP1 CALLVALUE PUSH2 0x16E JUMPI DUP2 PUSH1 0x3 NOT CALLDATASIZE ADD SLT PUSH2 0x16E JUMPI SWAP1 SLOAD PUSH1 0x1 PUSH1 0x1 PUSH1 0xA0 SHL SUB AND DUP2 MSTORE PUSH1 0x20 SWAP1 RETURN JUMPDEST SWAP1 PUSH1 0x1F DUP1 NOT SWAP2 ADD AND DUP2 ADD SWAP1 DUP2 LT PUSH8 0xFFFFFFFFFFFFFFFF DUP3 GT OR PUSH2 0x1FD JUMPI PUSH1 0x40 MSTORE JUMP JUMPDEST PUSH4 0x4E487B71 PUSH1 0xE0 SHL PUSH1 0x0 MSTORE PUSH1 0x41 PUSH1 0x4 MSTORE PUSH1 0x24 PUSH1 0x0 REVERT INVALID LOG2 PUSH5 0x6970667358 0x22 SLT KECCAK256 MOD TLOAD SWAP7 0xE2 PC 0xD6 BASEFEE 0xD2 EXP SWAP1 PUSH20 0xECFD725C40D5943ED3F5054F25018EF1FD090864 TSTORE PUSH5 0x736F6C6343 STOP ADDMOD XOR STOP CALLER "},"methodIdentifiers":{"balanceOf(address,string)":"b9b092c8","surveyStore()":"5410cb33"}}}}}