{"contracts/survey-store.sol":{"SurveyStore":{"abi":[{"anonymous":false,"inputs":[{"indexed":true,"internalType":"address","name":"owner","type":"address"},{"indexed":false,"internalType":"string","name":"surveyId","type":"string"},{"indexed":false,"internalType":"string","name":"ipfsCid","type":"string"},{"indexed":false,"internalType":"uint256","name":"timestamp","type":"uint256"}],"name":"SurveyCreated","type":"event"},{"inputs":[{"internalType":"string","name":"surveyId","type":"string"},{"internalType":"string","name":"ipfsCid","type":"string"}],"name":"createSurvey","outputs":[],"stateMutability":"nonpayable","type":"function"},{"inputs":[{"internalType":"address","name":"owner","type":"address"},{"internalType":"string","name":"surveyId","type":"string"}],"name":"getSurvey","outputs":[{"internalType":"string","name":"ipfsCid","type":"string"},{"internalType":"address","name":"surveyOwner","type":"address"},{"internalType":"uint256","name":"createdAt","type":"uint256"}],"stateMutability":"view","type":"function"},{"inputs":[{"internalType":"address","name":"authSigAddress","type":"address"},{"internalType":"string","name":"surveyId","type":"string"}],"name":"isOwner","outputs":[{"internalType":"bool","name":"","type":"bool"}],"stateMutability":"view","type":"function"},{"inputs":[{"internalType":"address","name":"owner","type":"address"},{"internalType":"string","name":"surveyId","type":"string"}],"name":"surveyExists","outputs":[{"internalType":"bool","name":"","type":"bool"}],"stateMutability":"view","type":"function"}],"evm":{"bytecode":{"linkReferences":{},"object":"608080604052346100165761075b908161001c8239f35b600080fdfe60406080815260048036101561001457600080fd5b6000803560e01c9283630da6428c1461004f578363be7d3568146101eb578363c7ee0cb3146100545750505063cd3799641461004f57600080fd5b61064c565b346101e75761006236610609565b91909360018060a01b0380951690818552602093858552838620928451928860018451958986019661009581838a6106a3565b81019788528981839903019020015416156101ac57509185916100cb9388528783528588209086519485938492519283916106a3565b820190815203019020948251916100e183610559565b83519580918854916100f2836106eb565b808a52926001811690811561018b5750600114610156575b50505091600261014b9792610122888796038961058b565b8783526001840154169283878401520154938491015281519586956060875260608701906106c6565b938501528301520390f35b92508883528683205b828410610178575050508501840160028261012261010a565b805489850189015292870192810161015f565b60ff1916898b0152505050151560051b86018501905060028261012261010a565b855162461bcd60e51b8152908101879052601560248201527414dd5c9d995e48191bd95cc81b9bdd08195e1a5cdd605a1b6044820152606490fd5b5080fd5b823461055557816003193601126105555767ffffffffffffffff81358181116105515761021b90369084016105ad565b9160243582811161054d5761023390369083016105ad565b9083511561050a578151156104c7573386526020928684528587208651865192868801936102628184876106a3565b820192835291819003860190206001908101546001600160a01b039290831661048c57908993929189519561029687610559565b8787526102c589808901963388528d8d81808d019b428d523381528086522091519485938492519283916106a3565b820190815203019020965190815192831161047957506102e587546106eb565b601f8111610431575b5088908c601f84116001146103a45792806002969361038a9b9996937fdb3a8af2f37abe346b31fdd308fc1e8bcdfe1512f0e0a9790d5677cb5e3ba2c69e9d9b999692610399575b5050600019600383901b1c191690821b1786555b85019151166bffffffffffffffffffffffff60a01b8254161790555191015561037d8651946060865260608601906106c6565b91848303908501526106c6565b9242908201528033930390a280f35b015190508f80610336565b9190601f1984168984528b8420935b81811061041c57509360029693869361038a9c9a97937fdb3a8af2f37abe346b31fdd308fc1e8bcdfe1512f0e0a9790d5677cb5e3ba2c69f9e9c9a978411610403575b505050811b01865561034a565b015160001960f88460031b161c191690558f80806103f6565b82840151855593860193928c01928c016103b3565b878d52898d20601f840160051c8101918b851061046f575b601f0160051c019084908e5b838210610464575050506102ee565b81550184908e610455565b9091508190610449565b634e487b7160e01b8d526041905260248cfd5b885162461bcd60e51b8152808601889052601560248201527453757276657920616c72656164792065786973747360581b6044820152606490fd5b606490602086519162461bcd60e51b8352820152601860248201527f49504653204349442063616e6e6f7420626520656d70747900000000000000006044820152fd5b606490602086519162461bcd60e51b8352820152601960248201527f5375727665792049442063616e6e6f7420626520656d707479000000000000006044820152fd5b8580fd5b8480fd5b8280fd5b6060810190811067ffffffffffffffff82111761057557604052565b634e487b7160e01b600052604160045260246000fd5b90601f8019910116810190811067ffffffffffffffff82111761057557604052565b81601f820112156106045780359067ffffffffffffffff821161057557604051926105e2601f8401601f19166020018561058b565b8284526020838301011161060457816000926020809301838601378301015290565b600080fd5b906040600319830112610604576004356001600160a01b038116810361060457916024359067ffffffffffffffff821161060457610649916004016105ad565b90565b3461060457602080600161068d61066236610609565b838060a09693961b0380951660005260008252604060002082604051948386809551938492016106a3565b8201908152030190200154161515604051908152f35b60005b8381106106b65750506000910152565b81810151838201526020016106a6565b906020916106df815180928185528580860191016106a3565b601f01601f1916010190565b90600182811c9216801561071b575b602083101461070557565b634e487b7160e01b600052602260045260246000fd5b91607f16916106fa56fea26469706673582212208222393a1ad7a32df2b3cf7221175b81c7f6fada3b7f95638c2669cf66b5847264736f6c63430008180033","opcodes":"PUSH1 0x80 DUP1 PUSH1 0x40 MSTORE CALLVALUE PUSH2 0x16 JUMPI PUSH2 0x75B SWAP1 DUP2 PUSH2 0x1C DUP3 CODECOPY RETURN JUMPDEST PUSH1 0x0 DUP1 REVERT INVALID PUSH1 0x40 PUSH1 0x80 DUP2 MSTORE PUSH1 0x4 DUP1 CALLDATASIZE LT ISZERO PUSH2 0x14 JUMPI PUSH1 0x0 DUP1 REVERT JUMPDEST PUSH1 0x0 DUP1 CALLDATALOAD PUSH1 0xE0 SHR SWAP3 DUP4 PUSH4 0xDA6428C EQ PUSH2 0x4F JUMPI DUP4 PUSH4 0xBE7D3568 EQ PUSH2 0x1EB JUMPI DUP4 PUSH4 0xC7EE0CB3 EQ PUSH2 0x54 JUMPI POP POP POP PUSH4 0xCD379964 EQ PUSH2 0x4F JUMPI PUSH1 0x0 DUP1 REVERT JUMPDEST PUSH2 0x64C JUMP JUMPDEST CALLVALUE PUSH2 0x1E7 JUMPI PUSH2 0x62 CALLDATASIZE PUSH2 0x609 JUMP JUMPDEST SWAP2 SWAP1 SWAP4 PUSH1 0x1 DUP1 PUSH1 0xA0 SHL SUB DUP1 SWAP6 AND SWAP1 DUP2 DUP6 MSTORE PUSH1 0x20 SWAP4 DUP6 DUP6 MSTORE DUP4 DUP7 KECCAK256 SWAP3 DUP5 MLOAD SWAP3 DUP9 PUSH1 0x1 DUP5 MLOAD SWAP6 DUP10 DUP7 ADD SWAP7 PUSH2 0x95 DUP2 DUP4 DUP11 PUSH2 0x6A3 JUMP JUMPDEST DUP2 ADD SWAP8 DUP9 MSTORE DUP10 DUP2 DUP4 SWAP10 SUB ADD SWAP1 KECCAK256 ADD SLOAD AND ISZERO PUSH2 0x1AC JUMPI POP SWAP2 DUP6 SWAP2 PUSH2 0xCB SWAP4 DUP9 MSTORE DUP8 DUP4 MSTORE DUP6 DUP9 KECCAK256 SWAP1 DUP7 MLOAD SWAP5 DUP6 SWAP4 DUP5 SWAP3 MLOAD SWAP3 DUP4 SWAP2 PUSH2 0x6A3 JUMP JUMPDEST DUP3 ADD SWAP1 DUP2 MSTORE SUB ADD SWAP1 KECCAK256 SWAP5 DUP3 MLOAD SWAP2 PUSH2 0xE1 DUP4 PUSH2 0x559 JUMP JUMPDEST DUP4 MLOAD SWAP6 DUP1 SWAP2 DUP9 SLOAD SWAP2 PUSH2 0xF2 DUP4 PUSH2 0x6EB JUMP JUMPDEST DUP1 DUP11 MSTORE SWAP3 PUSH1 0x1 DUP2 AND SWAP1 DUP2 ISZERO PUSH2 0x18B JUMPI POP PUSH1 0x1 EQ PUSH2 0x156 JUMPI JUMPDEST POP POP POP SWAP2 PUSH1 0x2 PUSH2 0x14B SWAP8 SWAP3 PUSH2 0x122 DUP9 DUP8 SWAP7 SUB DUP10 PUSH2 0x58B JUMP JUMPDEST DUP8 DUP4 MSTORE PUSH1 0x1 DUP5 ADD SLOAD AND SWAP3 DUP4 DUP8 DUP5 ADD MSTORE ADD SLOAD SWAP4 DUP5 SWAP2 ADD MSTORE DUP2 MLOAD SWAP6 DUP7 SWAP6 PUSH1 0x60 DUP8 MSTORE PUSH1 0x60 DUP8 ADD SWAP1 PUSH2 0x6C6 JUMP JUMPDEST SWAP4 DUP6 ADD MSTORE DUP4 ADD MSTORE SUB SWAP1 RETURN JUMPDEST SWAP3 POP DUP9 DUP4 MSTORE DUP7 DUP4 KECCAK256 JUMPDEST DUP3 DUP5 LT PUSH2 0x178 JUMPI POP POP POP DUP6 ADD DUP5 ADD PUSH1 0x2 DUP3 PUSH2 0x122 PUSH2 0x10A JUMP JUMPDEST DUP1 SLOAD DUP10 DUP6 ADD DUP10 ADD MSTORE SWAP3 DUP8 ADD SWAP3 DUP2 ADD PUSH2 0x15F JUMP JUMPDEST PUSH1 0xFF NOT AND DUP10 DUP12 ADD MSTORE POP POP POP ISZERO ISZERO PUSH1 0x5 SHL DUP7 ADD DUP6 ADD SWAP1 POP PUSH1 0x2 DUP3 PUSH2 0x122 PUSH2 0x10A JUMP JUMPDEST DUP6 MLOAD PUSH3 0x461BCD PUSH1 0xE5 SHL DUP2 MSTORE SWAP1 DUP2 ADD DUP8 SWAP1 MSTORE PUSH1 0x15 PUSH1 0x24 DUP3 ADD MSTORE PUSH21 0x14DD5C9D995E48191BD95CC81B9BDD08195E1A5CDD PUSH1 0x5A SHL PUSH1 0x44 DUP3 ADD MSTORE PUSH1 0x64 SWAP1 REVERT JUMPDEST POP DUP1 REVERT JUMPDEST DUP3 CALLVALUE PUSH2 0x555 JUMPI DUP2 PUSH1 0x3 NOT CALLDATASIZE ADD SLT PUSH2 0x555 JUMPI PUSH8 0xFFFFFFFFFFFFFFFF DUP2 CALLDATALOAD DUP2 DUP2 GT PUSH2 0x551 JUMPI PUSH2 0x21B SWAP1 CALLDATASIZE SWAP1 DUP5 ADD PUSH2 0x5AD JUMP JUMPDEST SWAP2 PUSH1 0x24 CALLDATALOAD DUP3 DUP2 GT PUSH2 0x54D JUMPI PUSH2 0x233 SWAP1 CALLDATASIZE SWAP1 DUP4 ADD PUSH2 0x5AD JUMP JUMPDEST SWAP1 DUP4 MLOAD ISZERO PUSH2 0x50A JUMPI DUP2 MLOAD ISZERO PUSH2 0x4C7 JUMPI CALLER DUP7 MSTORE PUSH1 0x20 SWAP3 DUP7 DUP5 MSTORE DUP6 DUP8 KECCAK256 DUP7 MLOAD DUP7 MLOAD SWAP3 DUP7 DUP9 ADD SWAP4 PUSH2 0x262 DUP2 DUP5 DUP8 PUSH2 0x6A3 JUMP JUMPDEST DUP3 ADD SWAP3 DUP4 MSTORE SWAP2 DUP2 SWAP1 SUB DUP7 ADD SWAP1 KECCAK256 PUSH1 0x1 SWAP1 DUP2 ADD SLOAD PUSH1 0x1 PUSH1 0x1 PUSH1 0xA0 SHL SUB SWAP3 SWAP1 DUP4 AND PUSH2 0x48C JUMPI SWAP1 DUP10 SWAP4 SWAP3 SWAP2 DUP10 MLOAD SWAP6 PUSH2 0x296 DUP8 PUSH2 0x559 JUMP JUMPDEST DUP8 DUP8 MSTORE PUSH2 0x2C5 DUP10 DUP1 DUP10 ADD SWAP7 CALLER DUP9 MSTORE DUP14 DUP14 DUP2 DUP1 DUP14 ADD SWAP12 TIMESTAMP DUP14 MSTORE CALLER DUP2 MSTORE DUP1 DUP7 MSTORE KECCAK256 SWAP2 MLOAD SWAP5 DUP6 SWAP4 DUP5 SWAP3 MLOAD SWAP3 DUP4 SWAP2 PUSH2 0x6A3 JUMP JUMPDEST DUP3 ADD SWAP1 DUP2 MSTORE SUB ADD SWAP1 KECCAK256 SWAP7 MLOAD SWAP1 DUP2 MLOAD SWAP3 DUP4 GT PUSH2 0x479 JUMPI POP PUSH2 0x2E5 DUP8 SLOAD PUSH2 0x6EB JUMP JUMPDEST PUSH1 0x1F DUP2 GT PUSH2 0x431 JUMPI JUMPDEST POP DUP9 SWAP1 DUP13 PUSH1 0x1F DUP5 GT PUSH1 0x1 EQ PUSH2 0x3A4 JUMPI SWAP3 DUP1 PUSH1 0x2 SWAP7 SWAP4 PUSH2 0x38A SWAP12 SWAP10 SWAP7 SWAP4 PUSH32 0xDB3A8AF2F37ABE346B31FDD308FC1E8BCDFE1512F0E0A9790D5677CB5E3BA2C6 SWAP15 SWAP14 SWAP12 SWAP10 SWAP7 SWAP3 PUSH2 0x399 JUMPI JUMPDEST POP POP PUSH1 0x0 NOT PUSH1 0x3 DUP4 SWAP1 SHL SHR NOT AND SWAP1 DUP3 SHL OR DUP7 SSTORE JUMPDEST DUP6 ADD SWAP2 MLOAD AND PUSH12 0xFFFFFFFFFFFFFFFFFFFFFFFF PUSH1 0xA0 SHL DUP3 SLOAD AND OR SWAP1 SSTORE MLOAD SWAP2 ADD SSTORE PUSH2 0x37D DUP7 MLOAD SWAP5 PUSH1 0x60 DUP7 MSTORE PUSH1 0x60 DUP7 ADD SWAP1 PUSH2 0x6C6 JUMP JUMPDEST SWAP2 DUP5 DUP4 SUB SWAP1 DUP6 ADD MSTORE PUSH2 0x6C6 JUMP JUMPDEST SWAP3 TIMESTAMP SWAP1 DUP3 ADD MSTORE DUP1 CALLER SWAP4 SUB SWAP1 LOG2 DUP1 RETURN JUMPDEST ADD MLOAD SWAP1 POP DUP16 DUP1 PUSH2 0x336 JUMP JUMPDEST SWAP2 SWAP1 PUSH1 0x1F NOT DUP5 AND DUP10 DUP5 MSTORE DUP12 DUP5 KECCAK256 SWAP4 JUMPDEST DUP2 DUP2 LT PUSH2 0x41C JUMPI POP SWAP4 PUSH1 0x2 SWAP7 SWAP4 DUP7 SWAP4 PUSH2 0x38A SWAP13 SWAP11 SWAP8 SWAP4 PUSH32 0xDB3A8AF2F37ABE346B31FDD308FC1E8BCDFE1512F0E0A9790D5677CB5E3BA2C6 SWAP16 SWAP15 SWAP13 SWAP11 SWAP8 DUP5 GT PUSH2 0x403 JUMPI JUMPDEST POP POP POP DUP2 SHL ADD DUP7 SSTORE PUSH2 0x34A JUMP JUMPDEST ADD MLOAD PUSH1 0x0 NOT PUSH1 0xF8 DUP5 PUSH1 0x3 SHL AND SHR NOT AND SWAP1 SSTORE DUP16 DUP1 DUP1 PUSH2 0x3F6 JUMP JUMPDEST DUP3 DUP5 ADD MLOAD DUP6 SSTORE SWAP4 DUP7 ADD SWAP4 SWAP3 DUP13 ADD SWAP3 DUP13 ADD PUSH2 0x3B3 JUMP JUMPDEST DUP8 DUP14 MSTORE DUP10 DUP14 KECCAK256 PUSH1 0x1F DUP5 ADD PUSH1 0x5 SHR DUP2 ADD SWAP2 DUP12 DUP6 LT PUSH2 0x46F JUMPI JUMPDEST PUSH1 0x1F ADD PUSH1 0x5 SHR ADD SWAP1 DUP5 SWAP1 DUP15 JUMPDEST DUP4 DUP3 LT PUSH2 0x464 JUMPI POP POP POP PUSH2 0x2EE JUMP JUMPDEST DUP2 SSTORE ADD DUP5 SWAP1 DUP15 PUSH2 0x455 JUMP JUMPDEST SWAP1 SWAP2 POP DUP2 SWAP1 PUSH2 0x449 JUMP JUMPDEST PUSH4 0x4E487B71 PUSH1 0xE0 SHL DUP14 MSTORE PUSH1 0x41 SWAP1 MSTORE PUSH1 0x24 DUP13 REVERT JUMPDEST DUP9 MLOAD PUSH3 0x461BCD PUSH1 0xE5 SHL DUP2 MSTORE DUP1 DUP7 ADD DUP9 SWAP1 MSTORE PUSH1 0x15 PUSH1 0x24 DUP3 ADD MSTORE PUSH21 0x53757276657920616C726561647920657869737473 PUSH1 0x58 SHL PUSH1 0x44 DUP3 ADD MSTORE PUSH1 0x64 SWAP1 REVERT JUMPDEST PUSH1 0x64 SWAP1 PUSH1 0x20 DUP7 MLOAD SWAP2 PUSH3 0x461BCD PUSH1 0xE5 SHL DUP4 MSTORE DUP3 ADD MSTORE PUSH1 0x18 PUSH1 0x24 DUP3 ADD MSTORE PUSH32 0x49504653204349442063616E6E6F7420626520656D7074790000000000000000 PUSH1 0x44 DUP3 ADD MSTORE REVERT JUMPDEST PUSH1 0x64 SWAP1 PUSH1 0x20 DUP7 MLOAD SWAP2 PUSH3 0x461BCD PUSH1 0xE5 SHL DUP4 MSTORE DUP3 ADD MSTORE PUSH1 0x19 PUSH1 0x24 DUP3 ADD MSTORE PUSH32 0x5375727665792049442063616E6E6F7420626520656D70747900000000000000 PUSH1 0x44 DUP3 ADD MSTORE REVERT JUMPDEST DUP6 DUP1 REVERT JUMPDEST DUP5 DUP1 REVERT JUMPDEST DUP3 DUP1 REVERT JUMPDEST PUSH1 0x60 DUP2 ADD SWAP1 DUP2 LT PUSH8 0xFFFFFFFFFFFFFFFF DUP3 GT OR PUSH2 0x575 JUMPI PUSH1 0x40 MSTORE JUMP JUMPDEST PUSH4 0x4E487B71 PUSH1 0xE0 SHL PUSH1 0x0 MSTORE PUSH1 0x41 PUSH1 0x4 MSTORE PUSH1 0x24 PUSH1 0x0 REVERT JUMPDEST SWAP1 PUSH1 0x1F DUP1 NOT SWAP2 ADD AND DUP2 ADD SWAP1 DUP2 LT PUSH8 0xFFFFFFFFFFFFFFFF DUP3 GT OR PUSH2 0x575 JUMPI PUSH1 0x40 MSTORE JUMP JUMPDEST DUP2 PUSH1 0x1F DUP3 ADD SLT ISZERO PUSH2 0x604 JUMPI DUP1 CALLDATALOAD SWAP1 PUSH8 0xFFFFFFFFFFFFFFFF DUP3 GT PUSH2 0x575 JUMPI PUSH1 0x40 MLOAD SWAP3 PUSH2 0x5E2 PUSH1 0x1F DUP5 ADD PUSH1 0x1F NOT AND PUSH1 0x20 ADD DUP6 PUSH2 0x58B JUMP JUMPDEST DUP3 DUP5 MSTORE PUSH1 0x20 DUP4 DUP4 ADD ADD GT PUSH2 0x604 JUMPI DUP2 PUSH1 0x0 SWAP3 PUSH1 0x20 DUP1 SWAP4 ADD DUP4 DUP7 ADD CALLDATACOPY DUP4 ADD ADD MSTORE SWAP1 JUMP JUMPDEST PUSH1 0x0 DUP1 REVERT JUMPDEST SWAP1 PUSH1 0x40 PUSH1 0x3 NOT DUP4 ADD SLT PUSH2 0x604 JUMPI PUSH1 0x4 CALLDATALOAD PUSH1 0x1 PUSH1 0x1 PUSH1 0xA0 SHL SUB DUP2 AND DUP2 SUB PUSH2 0x604 JUMPI SWAP2 PUSH1 0x24 CALLDATALOAD SWAP1 PUSH8 0xFFFFFFFFFFFFFFFF DUP3 GT PUSH2 0x604 JUMPI PUSH2 0x649 SWAP2 PUSH1 0x4 ADD PUSH2 0x5AD JUMP JUMPDEST SWAP1 JUMP JUMPDEST CALLVALUE PUSH2 0x604 JUMPI PUSH1 0x20 DUP1 PUSH1 0x1 PUSH2 0x68D PUSH2 0x662 CALLDATASIZE PUSH2 0x609 JUMP JUMPDEST DUP4 DUP1 PUSH1 0xA0 SWAP7 SWAP4 SWAP7 SHL SUB DUP1 SWAP6 AND PUSH1 0x0 MSTORE PUSH1 0x0 DUP3 MSTORE PUSH1 0x40 PUSH1 0x0 KECCAK256 DUP3 PUSH1 0x40 MLOAD SWAP5 DUP4 DUP7 DUP1 SWAP6 MLOAD SWAP4 DUP5 SWAP3 ADD PUSH2 0x6A3 JUMP JUMPDEST DUP3 ADD SWAP1 DUP2 MSTORE SUB ADD SWAP1 KECCAK256 ADD SLOAD AND ISZERO ISZERO PUSH1 0x40 MLOAD SWAP1 DUP2 MSTORE RETURN JUMPDEST PUSH1 0x0 JUMPDEST DUP4 DUP2 LT PUSH2 0x6B6 JUMPI POP POP PUSH1 0x0 SWAP2 ADD MSTORE JUMP JUMPDEST DUP2 DUP2 ADD MLOAD DUP4 DUP3 ADD MSTORE PUSH1 0x20 ADD PUSH2 0x6A6 JUMP JUMPDEST SWAP1 PUSH1 0x20 SWAP2 PUSH2 0x6DF DUP2 MLOAD DUP1 SWAP3 DUP2 DUP6 MSTORE DUP6 DUP1 DUP7 ADD SWAP2 ADD PUSH2 0x6A3 JUMP JUMPDEST PUSH1 0x1F ADD PUSH1 0x1F NOT AND ADD ADD SWAP1 JUMP JUMPDEST SWAP1 PUSH1 0x1 DUP3 DUP2 SHR SWAP3 AND DUP1 ISZERO PUSH2 0x71B JUMPI JUMPDEST PUSH1 0x20 DUP4 LT EQ PUSH2 0x705 JUMPI JUMP JUMPDEST PUSH4 0x4E487B71 PUSH1 0xE0 SHL PUSH1 0x0 MSTORE PUSH1 0x22 PUSH1 0x4 MSTORE PUSH1 0x24 PUSH1 0x0 REVERT JUMPDEST SWAP2 PUSH1 0x7F AND SWAP2 PUSH2 0x6FA JUMP INVALID LOG2 PUSH5 0x6970667358 0x22 SLT KECCAK256 DUP3 0x22 CODECOPY GASPRICE BYTE 0xD7 LOG3 0x2D CALLCODE 0xB3 0xCF PUSH19 0x21175B81C7F6FADA3B7F95638C2669CF66B584 PUSH19 0x64736F6C634300081800330000000000000000 "},"methodIdentifiers":{"createSurvey(string,string)":"be7d3568","getSurvey(address,string)":"c7ee0cb3","isOwner(address,string)":"cd379964","surveyExists(address,string)":"0da6428c"}}}}}