{"contracts/card-validator.sol":{"CardValidator":{"abi":[{"inputs":[{"internalType":"address","name":"_initialPublicKey","type":"address"}],"stateMutability":"nonpayable","type":"constructor"},{"inputs":[],"name":"InvalidPublicKey","type":"error"},{"inputs":[],"name":"InvalidSignature","type":"error"},{"inputs":[],"name":"NullifierAlreadyUsed","type":"error"},{"anonymous":false,"inputs":[{"indexed":true,"internalType":"string","name":"batchId","type":"string"},{"indexed":false,"internalType":"string","name":"nullifier","type":"string"},{"indexed":false,"internalType":"uint256","name":"newCount","type":"uint256"}],"name":"CardValidated","type":"event"},{"anonymous":false,"inputs":[{"indexed":true,"internalType":"address","name":"newPublicKey","type":"address"}],"name":"PublicKeySet","type":"event"},{"anonymous":false,"inputs":[{"indexed":true,"internalType":"address","name":"signer","type":"address"},{"indexed":false,"internalType":"bytes32","name":"messageHash","type":"bytes32"}],"name":"SignatureValidated","type":"event"},{"inputs":[{"internalType":"string","name":"","type":"string"}],"name":"batchCardCount","outputs":[{"internalType":"uint256","name":"","type":"uint256"}],"stateMutability":"view","type":"function"},{"inputs":[{"internalType":"string","name":"batchId","type":"string"}],"name":"getBatchCount","outputs":[{"internalType":"uint256","name":"","type":"uint256"}],"stateMutability":"view","type":"function"},{"inputs":[],"name":"getPublicKey","outputs":[{"internalType":"address","name":"","type":"address"}],"stateMutability":"view","type":"function"},{"inputs":[{"internalType":"string","name":"nullifier","type":"string"},{"internalType":"string","name":"batchId","type":"string"}],"name":"isNullifierUsed","outputs":[{"internalType":"bool","name":"","type":"bool"}],"stateMutability":"view","type":"function"},{"inputs":[{"internalType":"bytes32","name":"messageHash","type":"bytes32"},{"internalType":"bytes","name":"signature","type":"bytes"}],"name":"isValidSignature","outputs":[{"internalType":"bool","name":"","type":"bool"}],"stateMutability":"view","type":"function"},{"inputs":[],"name":"owner","outputs":[{"internalType":"address","name":"","type":"address"}],"stateMutability":"view","type":"function"},{"inputs":[],"name":"publicKey","outputs":[{"internalType":"address","name":"","type":"address"}],"stateMutability":"view","type":"function"},{"inputs":[{"internalType":"address","name":"_publicKey","type":"address"}],"name":"setPublicKey","outputs":[],"stateMutability":"nonpayable","type":"function"},{"inputs":[{"internalType":"address","name":"newOwner","type":"address"}],"name":"transferOwnership","outputs":[],"stateMutability":"nonpayable","type":"function"},{"inputs":[{"internalType":"bytes32","name":"","type":"bytes32"}],"name":"usedNullifiers","outputs":[{"internalType":"bool","name":"","type":"bool"}],"stateMutability":"view","type":"function"},{"inputs":[{"internalType":"string","name":"nullifier","type":"string"},{"internalType":"bytes","name":"signature","type":"bytes"},{"internalType":"string","name":"batchId","type":"string"}],"name":"validateCard","outputs":[{"internalType":"bool","name":"","type":"bool"}],"stateMutability":"nonpayable","type":"function"}],"evm":{"bytecode":{"linkReferences":{},"object":"6080346100a157601f610a5638819003918201601f19168301916001600160401b038311848410176100a6578084926020946040528339810103126100a157516001600160a01b038116908190036100a1578060018060a01b0319338160015416176001556000541617600055604051907fef2f6b1229802d1d85222a60bd02e639097b2e5ab4279b3212482810d8bd7d4e600080a261099990816100bd8239f35b600080fd5b634e487b7160e01b600052604160045260246000fdfe6080604052600436101561001257600080fd5b60003560e01c8063097eb759146100bd5780631626ba7e146100b8578063206137aa146100b35780632e334452146100ae57806363ffab31146100ae5780638da5cb5b146100a957806394b2c95c146100a45780639b498a401461009a578063d61d6b631461009f578063d8e5f46e1461009a5763f2fde38b1461009557600080fd5b6106b3565b610438565b61047c565b610310565b6102e7565b6102be565b61028d565b610235565b6100e9565b60209060031901126100e4576004356001600160a01b03811681036100e45790565b600080fd5b346100e4576100f7366100c2565b6001546001600160a01b0391906101119083163314610737565b16801561015257600080546001600160a01b03191682178155907fef2f6b1229802d1d85222a60bd02e639097b2e5ab4279b3212482810d8bd7d4e8280a280f35b60405162461bcd60e51b815260206004820152602160248201527f5075626c6963206b65792063616e6e6f74206265207a65726f206164647265736044820152607360f81b6064820152608490fd5b634e487b7160e01b600052604160045260246000fd5b90601f8019910116810190811067ffffffffffffffff8211176101d957604052565b6101a1565b81601f820112156100e45780359067ffffffffffffffff82116101d95760405192610213601f8401601f1916602001856101b7565b828452602083830101116100e457816000926020809301838601378301015290565b346100e45760403660031901126100e45760243567ffffffffffffffff81116100e45761027361026b60209236906004016101de565b600435610873565b6000546040516001600160a01b0392831691909216148152f35b346100e45760203660031901126100e4576004356000526003602052602060ff604060002054166040519015158152f35b346100e45760003660031901126100e4576000546040516001600160a01b039091168152602090f35b346100e45760003660031901126100e4576001546040516001600160a01b039091168152602090f35b346100e45760403660031901126100e45767ffffffffffffffff6004358181116100e4576103429036906004016101de565b906024359081116100e45761035b9036906004016101de565b6103a860216040518093602061037a81840197888151938492016103d8565b8201601f60fa1b602082015261039982518093602087850191016103d8565b010360018101845201826101b7565b51902060005260036020526103d460ff6040600020541660405191829182919091602081019215159052565b0390f35b60005b8381106103eb5750506000910152565b81810151838201526020016103db565b9061040e602092828151948592016103d8565b0190565b602061042b9181604051938285809451938492016103d8565b8101600281520301902090565b346100e45760203660031901126100e45760043567ffffffffffffffff81116100e45761047361046e60209236906004016101de565b610412565b54604051908152f35b346100e45760603660031901126100e45767ffffffffffffffff600480358281116100e4576104ae90369083016101de565b916024358181116100e4576104c690369084016101de565b906044359081116100e4576104de90369084016101de565b92604093845161059b8161050e6105086104fb60208401886103fb565b601f60fa1b815260010190565b856103fb565b0391610522601f19938481018352826101b7565b8751610542816105366020820180956103fb565b038581018352826101b7565b5190209187516105916020820192826105858786603c917f19457468657265756d205369676e6564204d6573736167653a0a3332000000008252601c8201520190565b039081018352826101b7565b5190209485610873565b6000546001600160a01b0391821696911686036106a5576105d06105c9836000526003602052604060002090565b5460ff1690565b6106975750917fa15daa3e39295cf76ba66d1940141e4e02402bdcd9bcfcd8cd3eaccf7756e33c7fe6d0ab9c1bd0870c933bbb7d65e7a1ea1258be080d623c1ea46dce5cca03c55f949261064161063461068a966000526003602052604060002090565b805460ff19166001179055565b61064a81610412565b61065481546107a3565b905561066961066282610412565b54916107b7565b926106788951928392836107d7565b0390a284519081529081906020820190565b0390a25160018152602090f35b8651636569570160e11b8152fd5b8651638baa579f60e01b8152fd5b346100e4576106c1366100c2565b600154906001600160a01b03906106db3383851614610737565b169081156106f3576001600160a01b03191617600155005b606460405162461bcd60e51b815260206004820152602060248201527f4e6577206f776e65722063616e6e6f74206265207a65726f20616464726573736044820152fd5b1561073e57565b60405162461bcd60e51b815260206004820152602160248201527f4f6e6c79206f776e65722063616e2063616c6c20746869732066756e6374696f6044820152603760f91b6064820152608490fd5b634e487b7160e01b600052601160045260246000fd5b60001981146107b25760010190565b61078d565b6107cf906020604051928284809451938492016103d8565b810103902090565b9291906060602091604086526107fb815180928160408a015285858a0191016103d8565b601f8019910116850101930152565b60ff601b9116019060ff82116107b257565b1561082357565b606460405162461bcd60e51b815260206004820152602060248201527f496e76616c6964207369676e6174757265207265636f766572792076616c75656044820152fd5b6040513d6000823e3d90fd5b604182510361091e576020916000918291848101519260606040830151920151901a92601b8410610907575b906108e3916108bd60ff8616601b81149081156108fc575b5061081c565b604051948594859094939260ff6060936080840197845216602083015260408201520152565b838052039060015afa156108f75760005190565b610867565b601c915014386108b7565b92906109156108e39261080a565b9390915061089f565b60405162461bcd60e51b815260206004820152601860248201527f496e76616c6964207369676e6174757265206c656e67746800000000000000006044820152606490fdfea2646970667358221220a1e71bd71f8be0b435787892ba1bab982842b2066c5cb7ec999e790d2f9ec44d64736f6c63430008180033","opcodes":"PUSH1 0x80 CALLVALUE PUSH2 0xA1 JUMPI PUSH1 0x1F PUSH2 0xA56 CODESIZE DUP2 SWAP1 SUB SWAP2 DUP3 ADD PUSH1 0x1F NOT AND DUP4 ADD SWAP2 PUSH1 0x1 PUSH1 0x1 PUSH1 0x40 SHL SUB DUP4 GT DUP5 DUP5 LT OR PUSH2 0xA6 JUMPI DUP1 DUP5 SWAP3 PUSH1 0x20 SWAP5 PUSH1 0x40 MSTORE DUP4 CODECOPY DUP2 ADD SUB SLT PUSH2 0xA1 JUMPI MLOAD PUSH1 0x1 PUSH1 0x1 PUSH1 0xA0 SHL SUB DUP2 AND SWAP1 DUP2 SWAP1 SUB PUSH2 0xA1 JUMPI DUP1 PUSH1 0x1 DUP1 PUSH1 0xA0 SHL SUB NOT CALLER DUP2 PUSH1 0x1 SLOAD AND OR PUSH1 0x1 SSTORE PUSH1 0x0 SLOAD AND OR PUSH1 0x0 SSTORE PUSH1 0x40 MLOAD SWAP1 PUSH32 0xEF2F6B1229802D1D85222A60BD02E639097B2E5AB4279B3212482810D8BD7D4E PUSH1 0x0 DUP1 LOG2 PUSH2 0x999 SWAP1 DUP2 PUSH2 0xBD DUP3 CODECOPY RETURN JUMPDEST PUSH1 0x0 DUP1 REVERT JUMPDEST PUSH4 0x4E487B71 PUSH1 0xE0 SHL PUSH1 0x0 MSTORE PUSH1 0x41 PUSH1 0x4 MSTORE PUSH1 0x24 PUSH1 0x0 REVERT INVALID PUSH1 0x80 PUSH1 0x40 MSTORE PUSH1 0x4 CALLDATASIZE LT ISZERO PUSH2 0x12 JUMPI PUSH1 0x0 DUP1 REVERT JUMPDEST PUSH1 0x0 CALLDATALOAD PUSH1 0xE0 SHR DUP1 PUSH4 0x97EB759 EQ PUSH2 0xBD JUMPI DUP1 PUSH4 0x1626BA7E EQ PUSH2 0xB8 JUMPI DUP1 PUSH4 0x206137AA EQ PUSH2 0xB3 JUMPI DUP1 PUSH4 0x2E334452 EQ PUSH2 0xAE JUMPI DUP1 PUSH4 0x63FFAB31 EQ PUSH2 0xAE JUMPI DUP1 PUSH4 0x8DA5CB5B EQ PUSH2 0xA9 JUMPI DUP1 PUSH4 0x94B2C95C EQ PUSH2 0xA4 JUMPI DUP1 PUSH4 0x9B498A40 EQ PUSH2 0x9A JUMPI DUP1 PUSH4 0xD61D6B63 EQ PUSH2 0x9F JUMPI DUP1 PUSH4 0xD8E5F46E EQ PUSH2 0x9A JUMPI PUSH4 0xF2FDE38B EQ PUSH2 0x95 JUMPI PUSH1 0x0 DUP1 REVERT JUMPDEST PUSH2 0x6B3 JUMP JUMPDEST PUSH2 0x438 JUMP JUMPDEST PUSH2 0x47C JUMP JUMPDEST PUSH2 0x310 JUMP JUMPDEST PUSH2 0x2E7 JUMP JUMPDEST PUSH2 0x2BE JUMP JUMPDEST PUSH2 0x28D JUMP JUMPDEST PUSH2 0x235 JUMP JUMPDEST PUSH2 0xE9 JUMP JUMPDEST PUSH1 0x20 SWAP1 PUSH1 0x3 NOT ADD SLT PUSH2 0xE4 JUMPI PUSH1 0x4 CALLDATALOAD PUSH1 0x1 PUSH1 0x1 PUSH1 0xA0 SHL SUB DUP2 AND DUP2 SUB PUSH2 0xE4 JUMPI SWAP1 JUMP JUMPDEST PUSH1 0x0 DUP1 REVERT JUMPDEST CALLVALUE PUSH2 0xE4 JUMPI PUSH2 0xF7 CALLDATASIZE PUSH2 0xC2 JUMP JUMPDEST PUSH1 0x1 SLOAD PUSH1 0x1 PUSH1 0x1 PUSH1 0xA0 SHL SUB SWAP2 SWAP1 PUSH2 0x111 SWAP1 DUP4 AND CALLER EQ PUSH2 0x737 JUMP JUMPDEST AND DUP1 ISZERO PUSH2 0x152 JUMPI PUSH1 0x0 DUP1 SLOAD PUSH1 0x1 PUSH1 0x1 PUSH1 0xA0 SHL SUB NOT AND DUP3 OR DUP2 SSTORE SWAP1 PUSH32 0xEF2F6B1229802D1D85222A60BD02E639097B2E5AB4279B3212482810D8BD7D4E DUP3 DUP1 LOG2 DUP1 RETURN JUMPDEST PUSH1 0x40 MLOAD PUSH3 0x461BCD PUSH1 0xE5 SHL DUP2 MSTORE PUSH1 0x20 PUSH1 0x4 DUP3 ADD MSTORE PUSH1 0x21 PUSH1 0x24 DUP3 ADD MSTORE PUSH32 0x5075626C6963206B65792063616E6E6F74206265207A65726F20616464726573 PUSH1 0x44 DUP3 ADD MSTORE PUSH1 0x73 PUSH1 0xF8 SHL PUSH1 0x64 DUP3 ADD MSTORE PUSH1 0x84 SWAP1 REVERT JUMPDEST PUSH4 0x4E487B71 PUSH1 0xE0 SHL PUSH1 0x0 MSTORE PUSH1 0x41 PUSH1 0x4 MSTORE PUSH1 0x24 PUSH1 0x0 REVERT JUMPDEST SWAP1 PUSH1 0x1F DUP1 NOT SWAP2 ADD AND DUP2 ADD SWAP1 DUP2 LT PUSH8 0xFFFFFFFFFFFFFFFF DUP3 GT OR PUSH2 0x1D9 JUMPI PUSH1 0x40 MSTORE JUMP JUMPDEST PUSH2 0x1A1 JUMP JUMPDEST DUP2 PUSH1 0x1F DUP3 ADD SLT ISZERO PUSH2 0xE4 JUMPI DUP1 CALLDATALOAD SWAP1 PUSH8 0xFFFFFFFFFFFFFFFF DUP3 GT PUSH2 0x1D9 JUMPI PUSH1 0x40 MLOAD SWAP3 PUSH2 0x213 PUSH1 0x1F DUP5 ADD PUSH1 0x1F NOT AND PUSH1 0x20 ADD DUP6 PUSH2 0x1B7 JUMP JUMPDEST DUP3 DUP5 MSTORE PUSH1 0x20 DUP4 DUP4 ADD ADD GT PUSH2 0xE4 JUMPI DUP2 PUSH1 0x0 SWAP3 PUSH1 0x20 DUP1 SWAP4 ADD DUP4 DUP7 ADD CALLDATACOPY DUP4 ADD ADD MSTORE SWAP1 JUMP JUMPDEST CALLVALUE PUSH2 0xE4 JUMPI PUSH1 0x40 CALLDATASIZE PUSH1 0x3 NOT ADD SLT PUSH2 0xE4 JUMPI PUSH1 0x24 CALLDATALOAD PUSH8 0xFFFFFFFFFFFFFFFF DUP2 GT PUSH2 0xE4 JUMPI PUSH2 0x273 PUSH2 0x26B PUSH1 0x20 SWAP3 CALLDATASIZE SWAP1 PUSH1 0x4 ADD PUSH2 0x1DE JUMP JUMPDEST PUSH1 0x4 CALLDATALOAD PUSH2 0x873 JUMP JUMPDEST PUSH1 0x0 SLOAD PUSH1 0x40 MLOAD PUSH1 0x1 PUSH1 0x1 PUSH1 0xA0 SHL SUB SWAP3 DUP4 AND SWAP2 SWAP1 SWAP3 AND EQ DUP2 MSTORE RETURN JUMPDEST CALLVALUE PUSH2 0xE4 JUMPI PUSH1 0x20 CALLDATASIZE PUSH1 0x3 NOT ADD SLT PUSH2 0xE4 JUMPI PUSH1 0x4 CALLDATALOAD PUSH1 0x0 MSTORE PUSH1 0x3 PUSH1 0x20 MSTORE PUSH1 0x20 PUSH1 0xFF PUSH1 0x40 PUSH1 0x0 KECCAK256 SLOAD AND PUSH1 0x40 MLOAD SWAP1 ISZERO ISZERO DUP2 MSTORE RETURN JUMPDEST CALLVALUE PUSH2 0xE4 JUMPI PUSH1 0x0 CALLDATASIZE PUSH1 0x3 NOT ADD SLT PUSH2 0xE4 JUMPI PUSH1 0x0 SLOAD PUSH1 0x40 MLOAD PUSH1 0x1 PUSH1 0x1 PUSH1 0xA0 SHL SUB SWAP1 SWAP2 AND DUP2 MSTORE PUSH1 0x20 SWAP1 RETURN JUMPDEST CALLVALUE PUSH2 0xE4 JUMPI PUSH1 0x0 CALLDATASIZE PUSH1 0x3 NOT ADD SLT PUSH2 0xE4 JUMPI PUSH1 0x1 SLOAD PUSH1 0x40 MLOAD PUSH1 0x1 PUSH1 0x1 PUSH1 0xA0 SHL SUB SWAP1 SWAP2 AND DUP2 MSTORE PUSH1 0x20 SWAP1 RETURN JUMPDEST CALLVALUE PUSH2 0xE4 JUMPI PUSH1 0x40 CALLDATASIZE PUSH1 0x3 NOT ADD SLT PUSH2 0xE4 JUMPI PUSH8 0xFFFFFFFFFFFFFFFF PUSH1 0x4 CALLDATALOAD DUP2 DUP2 GT PUSH2 0xE4 JUMPI PUSH2 0x342 SWAP1 CALLDATASIZE SWAP1 PUSH1 0x4 ADD PUSH2 0x1DE JUMP JUMPDEST SWAP1 PUSH1 0x24 CALLDATALOAD SWAP1 DUP2 GT PUSH2 0xE4 JUMPI PUSH2 0x35B SWAP1 CALLDATASIZE SWAP1 PUSH1 0x4 ADD PUSH2 0x1DE JUMP JUMPDEST PUSH2 0x3A8 PUSH1 0x21 PUSH1 0x40 MLOAD DUP1 SWAP4 PUSH1 0x20 PUSH2 0x37A DUP2 DUP5 ADD SWAP8 DUP9 DUP2 MLOAD SWAP4 DUP5 SWAP3 ADD PUSH2 0x3D8 JUMP JUMPDEST DUP3 ADD PUSH1 0x1F PUSH1 0xFA SHL PUSH1 0x20 DUP3 ADD MSTORE PUSH2 0x399 DUP3 MLOAD DUP1 SWAP4 PUSH1 0x20 DUP8 DUP6 ADD SWAP2 ADD PUSH2 0x3D8 JUMP JUMPDEST ADD SUB PUSH1 0x1 DUP2 ADD DUP5 MSTORE ADD DUP3 PUSH2 0x1B7 JUMP JUMPDEST MLOAD SWAP1 KECCAK256 PUSH1 0x0 MSTORE PUSH1 0x3 PUSH1 0x20 MSTORE PUSH2 0x3D4 PUSH1 0xFF PUSH1 0x40 PUSH1 0x0 KECCAK256 SLOAD AND PUSH1 0x40 MLOAD SWAP2 DUP3 SWAP2 DUP3 SWAP2 SWAP1 SWAP2 PUSH1 0x20 DUP2 ADD SWAP3 ISZERO ISZERO SWAP1 MSTORE JUMP JUMPDEST SUB SWAP1 RETURN JUMPDEST PUSH1 0x0 JUMPDEST DUP4 DUP2 LT PUSH2 0x3EB JUMPI POP POP PUSH1 0x0 SWAP2 ADD MSTORE JUMP JUMPDEST DUP2 DUP2 ADD MLOAD DUP4 DUP3 ADD MSTORE PUSH1 0x20 ADD PUSH2 0x3DB JUMP JUMPDEST SWAP1 PUSH2 0x40E PUSH1 0x20 SWAP3 DUP3 DUP2 MLOAD SWAP5 DUP6 SWAP3 ADD PUSH2 0x3D8 JUMP JUMPDEST ADD SWAP1 JUMP JUMPDEST PUSH1 0x20 PUSH2 0x42B SWAP2 DUP2 PUSH1 0x40 MLOAD SWAP4 DUP3 DUP6 DUP1 SWAP5 MLOAD SWAP4 DUP5 SWAP3 ADD PUSH2 0x3D8 JUMP JUMPDEST DUP2 ADD PUSH1 0x2 DUP2 MSTORE SUB ADD SWAP1 KECCAK256 SWAP1 JUMP JUMPDEST CALLVALUE PUSH2 0xE4 JUMPI PUSH1 0x20 CALLDATASIZE PUSH1 0x3 NOT ADD SLT PUSH2 0xE4 JUMPI PUSH1 0x4 CALLDATALOAD PUSH8 0xFFFFFFFFFFFFFFFF DUP2 GT PUSH2 0xE4 JUMPI PUSH2 0x473 PUSH2 0x46E PUSH1 0x20 SWAP3 CALLDATASIZE SWAP1 PUSH1 0x4 ADD PUSH2 0x1DE JUMP JUMPDEST PUSH2 0x412 JUMP JUMPDEST SLOAD PUSH1 0x40 MLOAD SWAP1 DUP2 MSTORE RETURN JUMPDEST CALLVALUE PUSH2 0xE4 JUMPI PUSH1 0x60 CALLDATASIZE PUSH1 0x3 NOT ADD SLT PUSH2 0xE4 JUMPI PUSH8 0xFFFFFFFFFFFFFFFF PUSH1 0x4 DUP1 CALLDATALOAD DUP3 DUP2 GT PUSH2 0xE4 JUMPI PUSH2 0x4AE SWAP1 CALLDATASIZE SWAP1 DUP4 ADD PUSH2 0x1DE JUMP JUMPDEST SWAP2 PUSH1 0x24 CALLDATALOAD DUP2 DUP2 GT PUSH2 0xE4 JUMPI PUSH2 0x4C6 SWAP1 CALLDATASIZE SWAP1 DUP5 ADD PUSH2 0x1DE JUMP JUMPDEST SWAP1 PUSH1 0x44 CALLDATALOAD SWAP1 DUP2 GT PUSH2 0xE4 JUMPI PUSH2 0x4DE SWAP1 CALLDATASIZE SWAP1 DUP5 ADD PUSH2 0x1DE JUMP JUMPDEST SWAP3 PUSH1 0x40 SWAP4 DUP5 MLOAD PUSH2 0x59B DUP2 PUSH2 0x50E PUSH2 0x508 PUSH2 0x4FB PUSH1 0x20 DUP5 ADD DUP9 PUSH2 0x3FB JUMP JUMPDEST PUSH1 0x1F PUSH1 0xFA SHL DUP2 MSTORE PUSH1 0x1 ADD SWAP1 JUMP JUMPDEST DUP6 PUSH2 0x3FB JUMP JUMPDEST SUB SWAP2 PUSH2 0x522 PUSH1 0x1F NOT SWAP4 DUP5 DUP2 ADD DUP4 MSTORE DUP3 PUSH2 0x1B7 JUMP JUMPDEST DUP8 MLOAD PUSH2 0x542 DUP2 PUSH2 0x536 PUSH1 0x20 DUP3 ADD DUP1 SWAP6 PUSH2 0x3FB JUMP JUMPDEST SUB DUP6 DUP2 ADD DUP4 MSTORE DUP3 PUSH2 0x1B7 JUMP JUMPDEST MLOAD SWAP1 KECCAK256 SWAP2 DUP8 MLOAD PUSH2 0x591 PUSH1 0x20 DUP3 ADD SWAP3 DUP3 PUSH2 0x585 DUP8 DUP7 PUSH1 0x3C SWAP2 PUSH32 0x19457468657265756D205369676E6564204D6573736167653A0A333200000000 DUP3 MSTORE PUSH1 0x1C DUP3 ADD MSTORE ADD SWAP1 JUMP JUMPDEST SUB SWAP1 DUP2 ADD DUP4 MSTORE DUP3 PUSH2 0x1B7 JUMP JUMPDEST MLOAD SWAP1 KECCAK256 SWAP5 DUP6 PUSH2 0x873 JUMP JUMPDEST PUSH1 0x0 SLOAD PUSH1 0x1 PUSH1 0x1 PUSH1 0xA0 SHL SUB SWAP2 DUP3 AND SWAP7 SWAP2 AND DUP7 SUB PUSH2 0x6A5 JUMPI PUSH2 0x5D0 PUSH2 0x5C9 DUP4 PUSH1 0x0 MSTORE PUSH1 0x3 PUSH1 0x20 MSTORE PUSH1 0x40 PUSH1 0x0 KECCAK256 SWAP1 JUMP JUMPDEST SLOAD PUSH1 0xFF AND SWAP1 JUMP JUMPDEST PUSH2 0x697 JUMPI POP SWAP2 PUSH32 0xA15DAA3E39295CF76BA66D1940141E4E02402BDCD9BCFCD8CD3EACCF7756E33C PUSH32 0xE6D0AB9C1BD0870C933BBB7D65E7A1EA1258BE080D623C1EA46DCE5CCA03C55F SWAP5 SWAP3 PUSH2 0x641 PUSH2 0x634 PUSH2 0x68A SWAP7 PUSH1 0x0 MSTORE PUSH1 0x3 PUSH1 0x20 MSTORE PUSH1 0x40 PUSH1 0x0 KECCAK256 SWAP1 JUMP JUMPDEST DUP1 SLOAD PUSH1 0xFF NOT AND PUSH1 0x1 OR SWAP1 SSTORE JUMP JUMPDEST PUSH2 0x64A DUP2 PUSH2 0x412 JUMP JUMPDEST PUSH2 0x654 DUP2 SLOAD PUSH2 0x7A3 JUMP JUMPDEST SWAP1 SSTORE PUSH2 0x669 PUSH2 0x662 DUP3 PUSH2 0x412 JUMP JUMPDEST SLOAD SWAP2 PUSH2 0x7B7 JUMP JUMPDEST SWAP3 PUSH2 0x678 DUP10 MLOAD SWAP3 DUP4 SWAP3 DUP4 PUSH2 0x7D7 JUMP JUMPDEST SUB SWAP1 LOG2 DUP5 MLOAD SWAP1 DUP2 MSTORE SWAP1 DUP2 SWAP1 PUSH1 0x20 DUP3 ADD SWAP1 JUMP JUMPDEST SUB SWAP1 LOG2 MLOAD PUSH1 0x1 DUP2 MSTORE PUSH1 0x20 SWAP1 RETURN JUMPDEST DUP7 MLOAD PUSH4 0x65695701 PUSH1 0xE1 SHL DUP2 MSTORE REVERT JUMPDEST DUP7 MLOAD PUSH4 0x8BAA579F PUSH1 0xE0 SHL DUP2 MSTORE REVERT JUMPDEST CALLVALUE PUSH2 0xE4 JUMPI PUSH2 0x6C1 CALLDATASIZE PUSH2 0xC2 JUMP JUMPDEST PUSH1 0x1 SLOAD SWAP1 PUSH1 0x1 PUSH1 0x1 PUSH1 0xA0 SHL SUB SWAP1 PUSH2 0x6DB CALLER DUP4 DUP6 AND EQ PUSH2 0x737 JUMP JUMPDEST AND SWAP1 DUP2 ISZERO PUSH2 0x6F3 JUMPI PUSH1 0x1 PUSH1 0x1 PUSH1 0xA0 SHL SUB NOT AND OR PUSH1 0x1 SSTORE STOP JUMPDEST PUSH1 0x64 PUSH1 0x40 MLOAD PUSH3 0x461BCD PUSH1 0xE5 SHL DUP2 MSTORE PUSH1 0x20 PUSH1 0x4 DUP3 ADD MSTORE PUSH1 0x20 PUSH1 0x24 DUP3 ADD MSTORE PUSH32 0x4E6577206F776E65722063616E6E6F74206265207A65726F2061646472657373 PUSH1 0x44 DUP3 ADD MSTORE REVERT JUMPDEST ISZERO PUSH2 0x73E JUMPI JUMP JUMPDEST PUSH1 0x40 MLOAD PUSH3 0x461BCD PUSH1 0xE5 SHL DUP2 MSTORE PUSH1 0x20 PUSH1 0x4 DUP3 ADD MSTORE PUSH1 0x21 PUSH1 0x24 DUP3 ADD MSTORE PUSH32 0x4F6E6C79206F776E65722063616E2063616C6C20746869732066756E6374696F PUSH1 0x44 DUP3 ADD MSTORE PUSH1 0x37 PUSH1 0xF9 SHL PUSH1 0x64 DUP3 ADD MSTORE PUSH1 0x84 SWAP1 REVERT JUMPDEST PUSH4 0x4E487B71 PUSH1 0xE0 SHL PUSH1 0x0 MSTORE PUSH1 0x11 PUSH1 0x4 MSTORE PUSH1 0x24 PUSH1 0x0 REVERT JUMPDEST PUSH1 0x0 NOT DUP2 EQ PUSH2 0x7B2 JUMPI PUSH1 0x1 ADD SWAP1 JUMP JUMPDEST PUSH2 0x78D JUMP JUMPDEST PUSH2 0x7CF SWAP1 PUSH1 0x20 PUSH1 0x40 MLOAD SWAP3 DUP3 DUP5 DUP1 SWAP5 MLOAD SWAP4 DUP5 SWAP3 ADD PUSH2 0x3D8 JUMP JUMPDEST DUP2 ADD SUB SWAP1 KECCAK256 SWAP1 JUMP JUMPDEST SWAP3 SWAP2 SWAP1 PUSH1 0x60 PUSH1 0x20 SWAP2 PUSH1 0x40 DUP7 MSTORE PUSH2 0x7FB DUP2 MLOAD DUP1 SWAP3 DUP2 PUSH1 0x40 DUP11 ADD MSTORE DUP6 DUP6 DUP11 ADD SWAP2 ADD PUSH2 0x3D8 JUMP JUMPDEST PUSH1 0x1F DUP1 NOT SWAP2 ADD AND DUP6 ADD ADD SWAP4 ADD MSTORE JUMP JUMPDEST PUSH1 0xFF PUSH1 0x1B SWAP2 AND ADD SWAP1 PUSH1 0xFF DUP3 GT PUSH2 0x7B2 JUMPI JUMP JUMPDEST ISZERO PUSH2 0x823 JUMPI JUMP JUMPDEST PUSH1 0x64 PUSH1 0x40 MLOAD PUSH3 0x461BCD PUSH1 0xE5 SHL DUP2 MSTORE PUSH1 0x20 PUSH1 0x4 DUP3 ADD MSTORE PUSH1 0x20 PUSH1 0x24 DUP3 ADD MSTORE PUSH32 0x496E76616C6964207369676E6174757265207265636F766572792076616C7565 PUSH1 0x44 DUP3 ADD MSTORE REVERT JUMPDEST PUSH1 0x40 MLOAD RETURNDATASIZE PUSH1 0x0 DUP3 RETURNDATACOPY RETURNDATASIZE SWAP1 REVERT JUMPDEST PUSH1 0x41 DUP3 MLOAD SUB PUSH2 0x91E JUMPI PUSH1 0x20 SWAP2 PUSH1 0x0 SWAP2 DUP3 SWAP2 DUP5 DUP2 ADD MLOAD SWAP3 PUSH1 0x60 PUSH1 0x40 DUP4 ADD MLOAD SWAP3 ADD MLOAD SWAP1 BYTE SWAP3 PUSH1 0x1B DUP5 LT PUSH2 0x907 JUMPI JUMPDEST SWAP1 PUSH2 0x8E3 SWAP2 PUSH2 0x8BD PUSH1 0xFF DUP7 AND PUSH1 0x1B DUP2 EQ SWAP1 DUP2 ISZERO PUSH2 0x8FC JUMPI JUMPDEST POP PUSH2 0x81C JUMP JUMPDEST PUSH1 0x40 MLOAD SWAP5 DUP6 SWAP5 DUP6 SWAP1 SWAP5 SWAP4 SWAP3 PUSH1 0xFF PUSH1 0x60 SWAP4 PUSH1 0x80 DUP5 ADD SWAP8 DUP5 MSTORE AND PUSH1 0x20 DUP4 ADD MSTORE PUSH1 0x40 DUP3 ADD MSTORE ADD MSTORE JUMP JUMPDEST DUP4 DUP1 MSTORE SUB SWAP1 PUSH1 0x1 GAS STATICCALL ISZERO PUSH2 0x8F7 JUMPI PUSH1 0x0 MLOAD SWAP1 JUMP JUMPDEST PUSH2 0x867 JUMP JUMPDEST PUSH1 0x1C SWAP2 POP EQ CODESIZE PUSH2 0x8B7 JUMP JUMPDEST SWAP3 SWAP1 PUSH2 0x915 PUSH2 0x8E3 SWAP3 PUSH2 0x80A JUMP JUMPDEST SWAP4 SWAP1 SWAP2 POP PUSH2 0x89F JUMP JUMPDEST PUSH1 0x40 MLOAD PUSH3 0x461BCD PUSH1 0xE5 SHL DUP2 MSTORE PUSH1 0x20 PUSH1 0x4 DUP3 ADD MSTORE PUSH1 0x18 PUSH1 0x24 DUP3 ADD MSTORE PUSH32 0x496E76616C6964207369676E6174757265206C656E6774680000000000000000 PUSH1 0x44 DUP3 ADD MSTORE PUSH1 0x64 SWAP1 REVERT INVALID LOG2 PUSH5 0x6970667358 0x22 SLT KECCAK256 LOG1 0xE7 SHL 0xD7 0x1F DUP12 0xE0 0xB4 CALLDATALOAD PUSH25 0x7892BA1BAB982842B2066C5CB7EC999E790D2F9EC44D64736F PUSH13 0x63430008180033000000000000 "},"methodIdentifiers":{"batchCardCount(string)":"9b498a40","getBatchCount(string)":"d8e5f46e","getPublicKey()":"2e334452","isNullifierUsed(string,string)":"94b2c95c","isValidSignature(bytes32,bytes)":"1626ba7e","owner()":"8da5cb5b","publicKey()":"63ffab31","setPublicKey(address)":"097eb759","transferOwnership(address)":"f2fde38b","usedNullifiers(bytes32)":"206137aa","validateCard(string,bytes,string)":"d61d6b63"}}}}}