{
  "_format": "hh-sol-artifact-1",
  "contractName": "SurveyStore",
  "sourceName": "contracts/survey-store.sol",
  "abi": [
    {
      "anonymous": false,
      "inputs": [
        {
          "indexed": true,
          "internalType": "address",
          "name": "owner",
          "type": "address"
        },
        {
          "indexed": false,
          "internalType": "string",
          "name": "surveyId",
          "type": "string"
        },
        {
          "indexed": false,
          "internalType": "string",
          "name": "ipfsCid",
          "type": "string"
        },
        {
          "indexed": false,
          "internalType": "string",
          "name": "didNil",
          "type": "string"
        },
        {
          "indexed": false,
          "internalType": "string",
          "name": "encryptedNilKey",
          "type": "string"
        },
        {
          "indexed": false,
          "internalType": "uint256",
          "name": "timestamp",
          "type": "uint256"
        }
      ],
      "name": "SurveyCreated",
      "type": "event"
    },
    {
      "inputs": [
        {
          "internalType": "string",
          "name": "surveyId",
          "type": "string"
        },
        {
          "internalType": "string",
          "name": "ipfsCid",
          "type": "string"
        },
        {
          "internalType": "string",
          "name": "didNil",
          "type": "string"
        },
        {
          "internalType": "string",
          "name": "encryptedNilKey",
          "type": "string"
        }
      ],
      "name": "createSurvey",
      "outputs": [],
      "stateMutability": "nonpayable",
      "type": "function"
    },
    {
      "inputs": [
        {
          "internalType": "address",
          "name": "owner",
          "type": "address"
        },
        {
          "internalType": "string",
          "name": "surveyId",
          "type": "string"
        }
      ],
      "name": "getSurvey",
      "outputs": [
        {
          "internalType": "string",
          "name": "ipfsCid",
          "type": "string"
        },
        {
          "internalType": "string",
          "name": "didNil",
          "type": "string"
        },
        {
          "internalType": "string",
          "name": "encryptedNilKey",
          "type": "string"
        },
        {
          "internalType": "address",
          "name": "surveyOwner",
          "type": "address"
        },
        {
          "internalType": "uint256",
          "name": "createdAt",
          "type": "uint256"
        }
      ],
      "stateMutability": "view",
      "type": "function"
    },
    {
      "inputs": [
        {
          "internalType": "address",
          "name": "authSigAddress",
          "type": "address"
        },
        {
          "internalType": "string",
          "name": "surveyId",
          "type": "string"
        }
      ],
      "name": "isOwner",
      "outputs": [
        {
          "internalType": "bool",
          "name": "",
          "type": "bool"
        }
      ],
      "stateMutability": "view",
      "type": "function"
    },
    {
      "inputs": [
        {
          "internalType": "address",
          "name": "owner",
          "type": "address"
        },
        {
          "internalType": "string",
          "name": "surveyId",
          "type": "string"
        }
      ],
      "name": "surveyExists",
      "outputs": [
        {
          "internalType": "bool",
          "name": "",
          "type": "bool"
        }
      ],
      "stateMutability": "view",
      "type": "function"
    }
  ],
  "bytecode": "0x6080806040523461001657610b60908161001c8239f35b600080fdfe6080604052600436101561001257600080fd5b60003560e01c80630da6428c146100485780639144812b146101c4578063c7ee0cb31461004d5763cd3799641461004857600080fd5b6109ad565b346101bf5761005b3661096a565b9060018060a01b03809116908160005260209283926000845260ff6005604060002060405197888092875161009481858b019d8e610a03565b8201908152030190200154161561018257610158946100cd92859260005260008352604060002090604051948593849251928391610a03565b820190815203019020610173604051926100e6846108d5565b6100ef83610a85565b845261016561010060018501610a85565b9580860196875261011360028601610a85565b928360408801526003860154169586606082015260ff6005600488015497886080850152015416151560a082015251965160405198899860a08a5260a08a0190610a26565b9188830390890152610a26565b908582036040870152610a26565b91606084015260808301520390f35b60405162461bcd60e51b815260048101859052601560248201527414dd5c9d995e48191bd95cc81b9bdd08195e1a5cdd605a1b6044820152606490fd5b600080fd5b346101bf5760803660031901126101bf5760043567ffffffffffffffff81116101bf576101f5903690600401610913565b60243567ffffffffffffffff81116101bf57610215903690600401610913565b604490813567ffffffffffffffff81116101bf57610237903690600401610913565b90606492833567ffffffffffffffff81116101bf5761025a903690600401610913565b93855115610893578251156108515783511561080f578451156107be5733600052600060205260406000209160ff60056040516020818b5197828d01986102a281848c610a03565b8201908152030190200154166107855750506103056020604051926102c6846108d5565b8484528582850152866040850152336060850152426080850152600160a085015233600052600082526040600020604051809481938b51928391610a03565b820190815203019020815180519067ffffffffffffffff82116105d857819061032e8454610a4b565b601f8111610735575b50602090601f83116001146106c9576000926106be575b50508160011b916000199060031b1c19161781555b602082015180519067ffffffffffffffff82116105d85781906103896001850154610a4b565b601f811161066b575b50602090601f83116001146105f9576000926105ee575b50508160011b916000199060031b1c19161760018201555b604082015180519067ffffffffffffffff82116105d8576103e56002840154610a4b565b601f8111610591575b50602090601f83116001146104ee579360a060056104d49895856104b8967fe7407d52fa4ad665e246bf942758076a2ec4cac9b30d958d60dc339becdd72e29c9a966104c69a6000926104e3575b50508160011b916000199060031b1c19161760028201555b60038101600180851b036060860151166bffffffffffffffffffffffff851b8254161790556080840151600482015501910151151560ff801983541691161790556104aa6040519860a08a5260a08a0190610a26565b9088820360208a0152610a26565b908682036040880152610a26565b908482036060860152610a26565b914260808201528033930390a2005b015190508e8061043c565b906002840160005260206000209160005b601f1985168110610579575060056104d498956001867fe7407d52fa4ad665e246bf942758076a2ec4cac9b30d958d60dc339becdd72e29c9a966104c69a9660a0966104b89a601f19811610610560575b505050811b016002820155610454565b015160001960f88460031b161c191690558e8080610550565b919260206001819286850151815501940192016104ff565b600284016000526020600020601f840160051c8101602085106105d1575b601f830160051c820181106105c55750506103ee565b600081556001016105af565b50806105af565b634e487b7160e01b600052604160045260246000fd5b0151905088806103a9565b9250600184016000526020600020906000935b601f1984168510610650576001945083601f19811610610637575b505050811b0160018201556103c1565b015160001960f88460031b161c19169055888080610627565b8181015183556020948501946001909301929091019061060c565b909150600184016000526020600020601f840160051c8101602085106106b7575b90849392915b601f830160051c820181106106a8575050610392565b60008155859450600101610692565b508061068c565b01519050888061034e565b9250836000526020600020906000935b601f198416851061071a576001945083601f19811610610701575b505050811b018155610363565b015160001960f88460031b161c191690558880806106f4565b818101518355602094850194600190930192909101906106d9565b909150836000526020600020601f840160051c81016020851061077e575b90849392915b601f830160051c8201811061076f575050610337565b60008155859450600101610759565b5080610753565b7453757276657920616c72656164792065786973747360581b6040519162461bcd60e51b83526020600484015260156024840152820152fd5b9064656d70747960d81b6084927f456e63727970746564204e696c6c696f6e206b65792063616e6e6f74206265206040519362461bcd60e51b85526020600486015260256024860152840152820152fd5b907f4449443a4e494c2063616e6e6f7420626520656d7074790000000000000000006040519162461bcd60e51b83526020600484015260176024840152820152fd5b907f49504653204349442063616e6e6f7420626520656d70747900000000000000006040519162461bcd60e51b83526020600484015260186024840152820152fd5b907f5375727665792049442063616e6e6f7420626520656d707479000000000000006040519162461bcd60e51b83526020600484015260196024840152820152fd5b60c0810190811067ffffffffffffffff8211176105d857604052565b90601f8019910116810190811067ffffffffffffffff8211176105d857604052565b81601f820112156101bf5780359067ffffffffffffffff82116105d85760405192610948601f8401601f1916602001856108f1565b828452602083830101116101bf57816000926020809301838601378301015290565b9060406003198301126101bf576004356001600160a01b03811681036101bf57916024359067ffffffffffffffff82116101bf576109aa91600401610913565b90565b346101bf57602060ff60056109ed836109c53661096a565b9060018060a01b03166000526000825260406000208260405194838680955193849201610a03565b8201908152030190200154166040519015158152f35b60005b838110610a165750506000910152565b8181015183820152602001610a06565b90602091610a3f81518092818552858086019101610a03565b601f01601f1916010190565b90600182811c92168015610a7b575b6020831014610a6557565b634e487b7160e01b600052602260045260246000fd5b91607f1691610a5a565b90604051918260008254610a9881610a4b565b90818452602094600191600181169081600014610b085750600114610ac9575b505050610ac7925003836108f1565b565b600090815285812095935091905b818310610af0575050610ac79350820101388080610ab8565b85548884018501529485019487945091830191610ad7565b92505050610ac794925060ff191682840152151560051b820101388080610ab856fea2646970667358221220bcf394a329c3ff21ef9f5df248a3e20dd2aaa6c89b6b4e5947345573c5c8798064736f6c63430008180033",
  "linkReferences": {},
  "deployedLinkReferences": {}
}