{
  "_format": "hh-sol-artifact-1",
  "contractName": "SurveyStore",
  "sourceName": "contracts/survey-store.sol",
  "abi": [
    {
      "anonymous": false,
      "inputs": [
        {
          "indexed": true,
          "internalType": "address",
          "name": "owner",
          "type": "address"
        },
        {
          "indexed": false,
          "internalType": "string",
          "name": "surveyId",
          "type": "string"
        },
        {
          "indexed": false,
          "internalType": "string",
          "name": "ipfsCid",
          "type": "string"
        },
        {
          "indexed": false,
          "internalType": "uint256",
          "name": "timestamp",
          "type": "uint256"
        }
      ],
      "name": "SurveyCreated",
      "type": "event"
    },
    {
      "inputs": [
        {
          "internalType": "string",
          "name": "surveyId",
          "type": "string"
        },
        {
          "internalType": "string",
          "name": "ipfsCid",
          "type": "string"
        }
      ],
      "name": "createSurvey",
      "outputs": [],
      "stateMutability": "nonpayable",
      "type": "function"
    },
    {
      "inputs": [
        {
          "internalType": "address",
          "name": "owner",
          "type": "address"
        },
        {
          "internalType": "string",
          "name": "surveyId",
          "type": "string"
        }
      ],
      "name": "getSurvey",
      "outputs": [
        {
          "internalType": "string",
          "name": "ipfsCid",
          "type": "string"
        },
        {
          "internalType": "address",
          "name": "surveyOwner",
          "type": "address"
        },
        {
          "internalType": "uint256",
          "name": "createdAt",
          "type": "uint256"
        }
      ],
      "stateMutability": "view",
      "type": "function"
    },
    {
      "inputs": [
        {
          "internalType": "address",
          "name": "authSigAddress",
          "type": "address"
        },
        {
          "internalType": "string",
          "name": "surveyId",
          "type": "string"
        }
      ],
      "name": "isOwner",
      "outputs": [
        {
          "internalType": "bool",
          "name": "",
          "type": "bool"
        }
      ],
      "stateMutability": "view",
      "type": "function"
    },
    {
      "inputs": [
        {
          "internalType": "address",
          "name": "owner",
          "type": "address"
        },
        {
          "internalType": "string",
          "name": "surveyId",
          "type": "string"
        }
      ],
      "name": "surveyExists",
      "outputs": [
        {
          "internalType": "bool",
          "name": "",
          "type": "bool"
        }
      ],
      "stateMutability": "view",
      "type": "function"
    }
  ],
  "bytecode": "0x608080604052346100165761075b908161001c8239f35b600080fdfe60406080815260048036101561001457600080fd5b6000803560e01c9283630da6428c1461004f578363be7d3568146101eb578363c7ee0cb3146100545750505063cd3799641461004f57600080fd5b61064c565b346101e75761006236610609565b91909360018060a01b0380951690818552602093858552838620928451928860018451958986019661009581838a6106a3565b81019788528981839903019020015416156101ac57509185916100cb9388528783528588209086519485938492519283916106a3565b820190815203019020948251916100e183610559565b83519580918854916100f2836106eb565b808a52926001811690811561018b5750600114610156575b50505091600261014b9792610122888796038961058b565b8783526001840154169283878401520154938491015281519586956060875260608701906106c6565b938501528301520390f35b92508883528683205b828410610178575050508501840160028261012261010a565b805489850189015292870192810161015f565b60ff1916898b0152505050151560051b86018501905060028261012261010a565b855162461bcd60e51b8152908101879052601560248201527414dd5c9d995e48191bd95cc81b9bdd08195e1a5cdd605a1b6044820152606490fd5b5080fd5b823461055557816003193601126105555767ffffffffffffffff81358181116105515761021b90369084016105ad565b9160243582811161054d5761023390369083016105ad565b9083511561050a578151156104c7573386526020928684528587208651865192868801936102628184876106a3565b820192835291819003860190206001908101546001600160a01b039290831661048c57908993929189519561029687610559565b8787526102c589808901963388528d8d81808d019b428d523381528086522091519485938492519283916106a3565b820190815203019020965190815192831161047957506102e587546106eb565b601f8111610431575b5088908c601f84116001146103a45792806002969361038a9b9996937fdb3a8af2f37abe346b31fdd308fc1e8bcdfe1512f0e0a9790d5677cb5e3ba2c69e9d9b999692610399575b5050600019600383901b1c191690821b1786555b85019151166bffffffffffffffffffffffff60a01b8254161790555191015561037d8651946060865260608601906106c6565b91848303908501526106c6565b9242908201528033930390a280f35b015190508f80610336565b9190601f1984168984528b8420935b81811061041c57509360029693869361038a9c9a97937fdb3a8af2f37abe346b31fdd308fc1e8bcdfe1512f0e0a9790d5677cb5e3ba2c69f9e9c9a978411610403575b505050811b01865561034a565b015160001960f88460031b161c191690558f80806103f6565b82840151855593860193928c01928c016103b3565b878d52898d20601f840160051c8101918b851061046f575b601f0160051c019084908e5b838210610464575050506102ee565b81550184908e610455565b9091508190610449565b634e487b7160e01b8d526041905260248cfd5b885162461bcd60e51b8152808601889052601560248201527453757276657920616c72656164792065786973747360581b6044820152606490fd5b606490602086519162461bcd60e51b8352820152601860248201527f49504653204349442063616e6e6f7420626520656d70747900000000000000006044820152fd5b606490602086519162461bcd60e51b8352820152601960248201527f5375727665792049442063616e6e6f7420626520656d707479000000000000006044820152fd5b8580fd5b8480fd5b8280fd5b6060810190811067ffffffffffffffff82111761057557604052565b634e487b7160e01b600052604160045260246000fd5b90601f8019910116810190811067ffffffffffffffff82111761057557604052565b81601f820112156106045780359067ffffffffffffffff821161057557604051926105e2601f8401601f19166020018561058b565b8284526020838301011161060457816000926020809301838601378301015290565b600080fd5b906040600319830112610604576004356001600160a01b038116810361060457916024359067ffffffffffffffff821161060457610649916004016105ad565b90565b3461060457602080600161068d61066236610609565b838060a09693961b0380951660005260008252604060002082604051948386809551938492016106a3565b8201908152030190200154161515604051908152f35b60005b8381106106b65750506000910152565b81810151838201526020016106a6565b906020916106df815180928185528580860191016106a3565b601f01601f1916010190565b90600182811c9216801561071b575b602083101461070557565b634e487b7160e01b600052602260045260246000fd5b91607f16916106fa56fea26469706673582212208222393a1ad7a32df2b3cf7221175b81c7f6fada3b7f95638c2669cf66b5847264736f6c63430008180033",
  "linkReferences": {},
  "deployedLinkReferences": {}
}