{
  "address": "0x6415225aaa1373e8a4294c348ee9a8c90b307edd",
  "abi": [
    {
      "inputs": [],
      "name": "AlreadyParticipant",
      "type": "error"
    },
    {
      "inputs": [],
      "name": "BatchAlreadyRegistered",
      "type": "error"
    },
    {
      "inputs": [],
      "name": "BatchNotFound",
      "type": "error"
    },
    {
      "inputs": [],
      "name": "InvalidBatchId",
      "type": "error"
    },
    {
      "inputs": [],
      "name": "NotSurveyOwner",
      "type": "error"
    },
    {
      "inputs": [],
      "name": "NullifierAlreadyUsed",
      "type": "error"
    },
    {
      "inputs": [],
      "name": "SignerNotBatchWallet",
      "type": "error"
    },
    {
      "inputs": [],
      "name": "SurveyAlreadyExists",
      "type": "error"
    },
    {
      "inputs": [],
      "name": "SurveyNotFound",
      "type": "error"
    },
    {
      "inputs": [
        {
          "internalType": "string",
          "name": "surveyId",
          "type": "string"
        },
        {
          "internalType": "string",
          "name": "ipfsCid",
          "type": "string"
        },
        {
          "internalType": "address[]",
          "name": "batchIds",
          "type": "address[]"
        }
      ],
      "name": "createSurvey",
      "outputs": [],
      "stateMutability": "nonpayable",
      "type": "function"
    },
    {
      "inputs": [
        {
          "internalType": "string",
          "name": "surveyId",
          "type": "string"
        },
        {
          "internalType": "address",
          "name": "batchId",
          "type": "address"
        }
      ],
      "name": "getBatch",
      "outputs": [
        {
          "internalType": "uint256",
          "name": "createdAt",
          "type": "uint256"
        },
        {
          "internalType": "uint256",
          "name": "cardCount",
          "type": "uint256"
        }
      ],
      "stateMutability": "view",
      "type": "function"
    },
    {
      "inputs": [
        {
          "internalType": "string",
          "name": "surveyId",
          "type": "string"
        },
        {
          "internalType": "address",
          "name": "batchId",
          "type": "address"
        }
      ],
      "name": "getBatchCardCount",
      "outputs": [
        {
          "internalType": "uint256",
          "name": "",
          "type": "uint256"
        }
      ],
      "stateMutability": "view",
      "type": "function"
    },
    {
      "inputs": [
        {
          "internalType": "address",
          "name": "owner",
          "type": "address"
        }
      ],
      "name": "getOwnerSurveyCount",
      "outputs": [
        {
          "internalType": "uint256",
          "name": "",
          "type": "uint256"
        }
      ],
      "stateMutability": "view",
      "type": "function"
    },
    {
      "inputs": [
        {
          "internalType": "address",
          "name": "owner",
          "type": "address"
        }
      ],
      "name": "getOwnerSurveys",
      "outputs": [
        {
          "internalType": "string[]",
          "name": "",
          "type": "string[]"
        }
      ],
      "stateMutability": "view",
      "type": "function"
    },
    {
      "inputs": [
        {
          "internalType": "string",
          "name": "surveyId",
          "type": "string"
        }
      ],
      "name": "getSurvey",
      "outputs": [
        {
          "internalType": "string",
          "name": "ipfsCid",
          "type": "string"
        },
        {
          "internalType": "address",
          "name": "owner",
          "type": "address"
        },
        {
          "internalType": "uint256",
          "name": "createdAt",
          "type": "uint256"
        }
      ],
      "stateMutability": "view",
      "type": "function"
    },
    {
      "inputs": [
        {
          "internalType": "string",
          "name": "surveyId",
          "type": "string"
        }
      ],
      "name": "getSurveyBatches",
      "outputs": [
        {
          "internalType": "address[]",
          "name": "",
          "type": "address[]"
        }
      ],
      "stateMutability": "view",
      "type": "function"
    },
    {
      "inputs": [
        {
          "internalType": "string",
          "name": "nullifier",
          "type": "string"
        },
        {
          "internalType": "address",
          "name": "batchId",
          "type": "address"
        }
      ],
      "name": "isNullifierUsed",
      "outputs": [
        {
          "internalType": "bool",
          "name": "",
          "type": "bool"
        }
      ],
      "stateMutability": "view",
      "type": "function"
    },
    {
      "inputs": [
        {
          "internalType": "address",
          "name": "authSigAddress",
          "type": "address"
        },
        {
          "internalType": "string",
          "name": "surveyId",
          "type": "string"
        }
      ],
      "name": "isOwner",
      "outputs": [
        {
          "internalType": "bool",
          "name": "",
          "type": "bool"
        }
      ],
      "stateMutability": "view",
      "type": "function"
    },
    {
      "inputs": [
        {
          "internalType": "string",
          "name": "surveyId",
          "type": "string"
        },
        {
          "internalType": "address",
          "name": "participant",
          "type": "address"
        }
      ],
      "name": "isParticipant",
      "outputs": [
        {
          "internalType": "bool",
          "name": "",
          "type": "bool"
        }
      ],
      "stateMutability": "view",
      "type": "function"
    },
    {
      "inputs": [
        {
          "internalType": "string",
          "name": "surveyId",
          "type": "string"
        },
        {
          "internalType": "address",
          "name": "batchId",
          "type": "address"
        }
      ],
      "name": "registerBatch",
      "outputs": [],
      "stateMutability": "nonpayable",
      "type": "function"
    },
    {
      "inputs": [
        {
          "internalType": "string",
          "name": "surveyId",
          "type": "string"
        }
      ],
      "name": "registerParticipant",
      "outputs": [],
      "stateMutability": "nonpayable",
      "type": "function"
    },
    {
      "inputs": [
        {
          "internalType": "string",
          "name": "surveyId",
          "type": "string"
        }
      ],
      "name": "surveyExists",
      "outputs": [
        {
          "internalType": "bool",
          "name": "",
          "type": "bool"
        }
      ],
      "stateMutability": "view",
      "type": "function"
    },
    {
      "inputs": [
        {
          "internalType": "string",
          "name": "surveyId",
          "type": "string"
        },
        {
          "internalType": "string",
          "name": "newIpfsCid",
          "type": "string"
        }
      ],
      "name": "updateSurvey",
      "outputs": [],
      "stateMutability": "nonpayable",
      "type": "function"
    },
    {
      "inputs": [
        {
          "internalType": "bytes32",
          "name": "",
          "type": "bytes32"
        }
      ],
      "name": "usedNullifiers",
      "outputs": [
        {
          "internalType": "bool",
          "name": "",
          "type": "bool"
        }
      ],
      "stateMutability": "view",
      "type": "function"
    },
    {
      "inputs": [
        {
          "internalType": "string",
          "name": "nullifier",
          "type": "string"
        },
        {
          "internalType": "bytes",
          "name": "signature",
          "type": "bytes"
        },
        {
          "internalType": "address",
          "name": "batchId",
          "type": "address"
        },
        {
          "internalType": "string",
          "name": "surveyId",
          "type": "string"
        }
      ],
      "name": "validateCard",
      "outputs": [
        {
          "internalType": "bool",
          "name": "",
          "type": "bool"
        }
      ],
      "stateMutability": "nonpayable",
      "type": "function"
    }
  ],
  "contractName": "S3ntimentSurveyStore",
  "sourceName": "src/SurveyStore/SurveyStore.sol",
  "bytecode": "0x6080604052348015600e575f5ffd5b50611b4f8061001c5f395ff3fe608060405234801561000f575f5ffd5b50600436106100fb575f3560e01c8063c5b8806611610093578063dea7784d11610063578063dea7784d14610277578063dee800cf1461028a578063e41b36691461029d578063f4060dd1146102b0575f5ffd5b8063c5b88066146101fa578063c6576e471461022f578063cd37996414610251578063ddd1171714610264575f5ffd5b80634756331e116100ce5780634756331e1461018a5780635483b3e11461019d578063ac4da5a7146101c5578063b3fbad50146101e5575f5ffd5b8063174a84a8146100ff578063206137aa146101255780633cfebb6e1461015757806342abbabd14610177575b5f5ffd5b61011261010d3660046113cf565b6102c3565b6040519081526020015b60405180910390f35b61014761013336600461141a565b60046020525f908152604090205460ff1681565b604051901515815260200161011c565b61016a610165366004611431565b610311565b60405161011c9190611496565b610147610185366004611517565b610408565b6101476101983660046113cf565b610460565b6101b06101ab3660046113cf565b6104af565b6040805192835260208301919091520161011c565b6101d86101d3366004611517565b610559565b60405161011c9190611551565b6101f86101f3366004611517565b6105de565b005b610112610208366004611431565b73ffffffffffffffffffffffffffffffffffffffff165f9081526001602052604090205490565b61024261023d366004611517565b610725565b60405161011c939291906115a9565b61014761025f3660046115e3565b61086c565b6101f861027236600461162e565b6108c5565b610147610285366004611733565b610b25565b6101476102983660046113cf565b610de5565b6101f86102ab3660046113cf565b610e47565b6101f86102be3660046117e5565b610edb565b5f6002836040516102d4919061184b565b908152604080516020928190038301902073ffffffffffffffffffffffffffffffffffffffff85165f908152925290206001015490505b92915050565b73ffffffffffffffffffffffffffffffffffffffff81165f908152600160209081526040808320805482518185028101850190935280835260609492939192909184015b828210156103fd578382905f5260205f2001805461037290611856565b80601f016020809104026020016040519081016040528092919081815260200182805461039e90611856565b80156103e95780601f106103c0576101008083540402835291602001916103e9565b820191905f5260205f20905b8154815290600101906020018083116103cc57829003601f168201915b505050505081526020019060010190610355565b505050509050919050565b5f5f73ffffffffffffffffffffffffffffffffffffffff165f8360405161042f919061184b565b9081526040519081900360200190206001015473ffffffffffffffffffffffffffffffffffffffff16141592915050565b5f600583604051610471919061184b565b9081526040805191829003602090810190922073ffffffffffffffffffffffffffffffffffffffff85165f908152925290205460ff16905092915050565b5f5f5f6002856040516104c2919061184b565b908152604080516020928190038301812073ffffffffffffffffffffffffffffffffffffffff88165f90815290845282812082840190935282548083526001909301549382019390935292509003610546576040517f9e15e1bc00000000000000000000000000000000000000000000000000000000815260040160405180910390fd5b8051602090910151909590945092505050565b606060038260405161056b919061184b565b90815260408051918290036020908101832080548083028501830190935282845291908301828280156105d257602002820191905f5260205f20905b815473ffffffffffffffffffffffffffffffffffffffff1681526001909101906020018083116105a7575b50505050509050919050565b5f73ffffffffffffffffffffffffffffffffffffffff165f82604051610604919061184b565b9081526040519081900360200190206001015473ffffffffffffffffffffffffffffffffffffffff1603610664576040517f7e3336d900000000000000000000000000000000000000000000000000000000815260040160405180910390fd5b600581604051610674919061184b565b9081526040805160209281900383019020335f908152925290205460ff16156106c9576040517f89644bf100000000000000000000000000000000000000000000000000000000815260040160405180910390fd5b60016005826040516106db919061184b565b9081526040805160209281900383019020335f9081529252902080547fffffffffffffffffffffffffffffffffffffffffffffffffffffffffffffff001691151591909117905550565b60605f5f5f5f85604051610739919061184b565b90815260200160405180910390206040518060600160405290815f8201805461076190611856565b80601f016020809104026020016040519081016040528092919081815260200182805461078d90611856565b80156107d85780601f106107af576101008083540402835291602001916107d8565b820191905f5260205f20905b8154815290600101906020018083116107bb57829003601f168201915b5050509183525050600182015473ffffffffffffffffffffffffffffffffffffffff9081166020808401919091526002909301546040909201919091529082015191925016610853576040517f7e3336d900000000000000000000000000000000000000000000000000000000815260040160405180910390fd5b8051602082015160409092015190969195509350915050565b5f8273ffffffffffffffffffffffffffffffffffffffff165f83604051610893919061184b565b9081526040519081900360200190206001015473ffffffffffffffffffffffffffffffffffffffff1614905092915050565b5f835111610934576040517f08c379a000000000000000000000000000000000000000000000000000000000815260206004820152601960248201527f5375727665792049442063616e6e6f7420626520656d7074790000000000000060448201526064015b60405180910390fd5b5f82511161099e576040517f08c379a000000000000000000000000000000000000000000000000000000000815260206004820152601860248201527f49504653204349442063616e6e6f7420626520656d7074790000000000000000604482015260640161092b565b5f73ffffffffffffffffffffffffffffffffffffffff165f846040516109c4919061184b565b9081526040519081900360200190206001015473ffffffffffffffffffffffffffffffffffffffff1614610a24576040517f2dbb439c00000000000000000000000000000000000000000000000000000000815260040160405180910390fd5b60408051606081018252838152336020820152428183015290515f90610a4b90869061184b565b90815260405190819003602001902081518190610a6890826118f3565b50602082810151600183810180547fffffffffffffffffffffffff00000000000000000000000000000000000000001673ffffffffffffffffffffffffffffffffffffffff90931692909217909155604093840151600290930192909255335f90815282825292832080549283018155835290912001610ae884826118f3565b505f5b8151811015610b1f57610b1784838381518110610b0a57610b0a611a0a565b6020026020010151610f5b565b600101610aeb565b50505050565b5f5f73ffffffffffffffffffffffffffffffffffffffff165f83604051610b4c919061184b565b9081526040519081900360200190206001015473ffffffffffffffffffffffffffffffffffffffff1603610bac576040517f7e3336d900000000000000000000000000000000000000000000000000000000815260040160405180910390fd5b5f600283604051610bbd919061184b565b908152604080516020928190038301902073ffffffffffffffffffffffffffffffffffffffff87165f9081529252812080549092509003610c2a576040517f9e15e1bc00000000000000000000000000000000000000000000000000000000815260040160405180910390fd5b5f8685604051602001610c3e929190611a37565b60405160208183030381529060405290505f81604051602001610c61919061184b565b6040516020818303038152906040528051906020012090505f81604051602001610cb791907f19457468657265756d205369676e6564204d6573736167653a0a3332000000008152601c810191909152603c0190565b6040516020818303038152906040528051906020012090505f610cda828a6110fd565b90508773ffffffffffffffffffffffffffffffffffffffff168173ffffffffffffffffffffffffffffffffffffffff1614610d41576040517f9980e44800000000000000000000000000000000000000000000000000000000815260040160405180910390fd5b5f8381526004602052604090205460ff1615610d89576040517fcad2ae0200000000000000000000000000000000000000000000000000000000815260040160405180910390fd5b5f83815260046020526040812080547fffffffffffffffffffffffffffffffffffffffffffffffffffffffffffffff001660019081179091558601805491610dd083611ac9565b9091555060019b9a5050505050505050505050565b5f5f8383604051602001610dfa929190611a37565b604080518083037fffffffffffffffffffffffffffffffffffffffffffffffffffffffffffffffe001815291815281516020928301205f908152600490925290205460ff16949350505050565b3373ffffffffffffffffffffffffffffffffffffffff165f83604051610e6d919061184b565b9081526040519081900360200190206001015473ffffffffffffffffffffffffffffffffffffffff1614610ecd576040517fa9e4eb1400000000000000000000000000000000000000000000000000000000815260040160405180910390fd5b610ed78282610f5b565b5050565b5f5f83604051610eeb919061184b565b908152604051908190036020019020600181015490915073ffffffffffffffffffffffffffffffffffffffff163314610f50576040517fa9e4eb1400000000000000000000000000000000000000000000000000000000815260040160405180910390fd5b80610b1f83826118f3565b73ffffffffffffffffffffffffffffffffffffffff8116610fa8576040517f3b98df6500000000000000000000000000000000000000000000000000000000815260040160405180910390fd5b600282604051610fb8919061184b565b908152604080516020928190038301902073ffffffffffffffffffffffffffffffffffffffff84165f908152925290205415611020576040517f7d4c96a800000000000000000000000000000000000000000000000000000000815260040160405180910390fd5b60405180604001604052804281526020015f815250600283604051611045919061184b565b90815260408051918290036020908101832073ffffffffffffffffffffffffffffffffffffffff86165f908152908252919091208351815592015160019092019190915560039061109790849061184b565b9081526040516020918190038201902080546001810182555f9182529190200180547fffffffffffffffffffffffff00000000000000000000000000000000000000001673ffffffffffffffffffffffffffffffffffffffff9290921691909117905550565b5f8151604114611169576040517f08c379a000000000000000000000000000000000000000000000000000000000815260206004820152601860248201527f496e76616c6964207369676e6174757265206c656e6774680000000000000000604482015260640161092b565b6020820151604083015160608401515f1a601b8110156111915761118e601b82611b00565b90505b8060ff16601b14806111a657508060ff16601c145b61120c576040517f08c379a000000000000000000000000000000000000000000000000000000000815260206004820181905260248201527f496e76616c6964207369676e6174757265207265636f766572792076616c7565604482015260640161092b565b604080515f81526020810180835288905260ff831691810191909152606081018490526080810183905260019060a0016020604051602081039080840390855afa15801561125c573d5f5f3e3d5ffd5b50506040517fffffffffffffffffffffffffffffffffffffffffffffffffffffffffffffffe00151979650505050505050565b7f4e487b71000000000000000000000000000000000000000000000000000000005f52604160045260245ffd5b604051601f82017fffffffffffffffffffffffffffffffffffffffffffffffffffffffffffffffe016810167ffffffffffffffff811182821017156113035761130361128f565b604052919050565b5f5f67ffffffffffffffff8411156113255761132561128f565b50601f83017fffffffffffffffffffffffffffffffffffffffffffffffffffffffffffffffe016602001611358816112bc565b91505082815283838301111561136c575f5ffd5b828260208301375f602084830101529392505050565b5f82601f830112611391575f5ffd5b6113a08383356020850161130b565b9392505050565b803573ffffffffffffffffffffffffffffffffffffffff811681146113ca575f5ffd5b919050565b5f5f604083850312156113e0575f5ffd5b823567ffffffffffffffff8111156113f6575f5ffd5b61140285828601611382565b925050611411602084016113a7565b90509250929050565b5f6020828403121561142a575f5ffd5b5035919050565b5f60208284031215611441575f5ffd5b6113a0826113a7565b5f81518084528060208401602086015e5f6020828601015260207fffffffffffffffffffffffffffffffffffffffffffffffffffffffffffffffe0601f83011685010191505092915050565b5f602082016020835280845180835260408501915060408160051b8601019250602086015f5b8281101561150b577fffffffffffffffffffffffffffffffffffffffffffffffffffffffffffffffc08786030184526114f685835161144a565b945060209384019391909101906001016114bc565b50929695505050505050565b5f60208284031215611527575f5ffd5b813567ffffffffffffffff81111561153d575f5ffd5b61154984828501611382565b949350505050565b602080825282518282018190525f918401906040840190835b8181101561159e57835173ffffffffffffffffffffffffffffffffffffffff1683526020938401939092019160010161156a565b509095945050505050565b606081525f6115bb606083018661144a565b73ffffffffffffffffffffffffffffffffffffffff9490941660208301525060400152919050565b5f5f604083850312156115f4575f5ffd5b6115fd836113a7565b9150602083013567ffffffffffffffff811115611618575f5ffd5b61162485828601611382565b9150509250929050565b5f5f5f60608486031215611640575f5ffd5b833567ffffffffffffffff811115611656575f5ffd5b61166286828701611382565b935050602084013567ffffffffffffffff81111561167e575f5ffd5b61168a86828701611382565b925050604084013567ffffffffffffffff8111156116a6575f5ffd5b8401601f810186136116b6575f5ffd5b803567ffffffffffffffff8111156116d0576116d061128f565b8060051b6116e0602082016112bc565b918252602081840181019290810190898411156116fb575f5ffd5b6020850194505b8385101561172457611713856113a7565b825260209485019490910190611702565b80955050505050509250925092565b5f5f5f5f60808587031215611746575f5ffd5b843567ffffffffffffffff81111561175c575f5ffd5b61176887828801611382565b945050602085013567ffffffffffffffff811115611784575f5ffd5b8501601f81018713611794575f5ffd5b6117a38782356020840161130b565b9350506117b2604086016113a7565b9150606085013567ffffffffffffffff8111156117cd575f5ffd5b6117d987828801611382565b91505092959194509250565b5f5f604083850312156117f6575f5ffd5b823567ffffffffffffffff81111561180c575f5ffd5b61181885828601611382565b925050602083013567ffffffffffffffff811115611618575f5ffd5b5f81518060208401855e5f93019283525090919050565b5f6113a08284611834565b600181811c9082168061186a57607f821691505b6020821081036118a1577f4e487b71000000000000000000000000000000000000000000000000000000005f52602260045260245ffd5b50919050565b601f8211156118ee57805f5260205f20601f840160051c810160208510156118cc5750805b601f840160051c820191505b818110156118eb575f81556001016118d8565b50505b505050565b815167ffffffffffffffff81111561190d5761190d61128f565b6119218161191b8454611856565b846118a7565b6020601f821160018114611972575f831561193c5750848201515b7fffffffffffffffffffffffffffffffffffffffffffffffffffffffffffffffff600385901b1c1916600184901b1784556118eb565b5f848152602081207fffffffffffffffffffffffffffffffffffffffffffffffffffffffffffffffe08516915b828110156119bf578785015182556020948501946001909201910161199f565b50848210156119fb57868401517fffffffffffffffffffffffffffffffffffffffffffffffffffffffffffffffff600387901b60f8161c191681555b50505050600190811b01905550565b7f4e487b71000000000000000000000000000000000000000000000000000000005f52603260045260245ffd5b5f611a428285611834565b7f7c00000000000000000000000000000000000000000000000000000000000000815260609390931b7fffffffffffffffffffffffffffffffffffffffff0000000000000000000000001660018401525050601501919050565b7f4e487b71000000000000000000000000000000000000000000000000000000005f52601160045260245ffd5b5f7fffffffffffffffffffffffffffffffffffffffffffffffffffffffffffffffff8203611af957611af9611a9c565b5060010190565b60ff818116838216019081111561030b5761030b611a9c56fea2646970667358221220254f483cb27599e2daa7d7ab47d7cb34760578612b7c272abd1f09c1302e1def64736f6c634300081c0033",
  "linkReferences": {},
  "deployedLinkReferences": {},
  "immutableReferences": {},
  "inputSourceName": "project/src/SurveyStore/SurveyStore.sol",
  "devdoc": {
    "kind": "dev",
    "methods": {
      "createSurvey(string,string,address[])": {
        "details": "Create a new survey with an optional initial set of batch wallets.      Pass an empty array to create the survey without any batches.",
        "params": {
          "batchIds": "Ephemeral batch wallet addresses. Pass [] to skip.",
          "ipfsCid": "IPFS content identifier for survey metadata",
          "surveyId": "Unique identifier, generated client-side"
        }
      },
      "isParticipant(string,address)": {
        "details": "Check if an address is a registered participant for a survey.      Used by Lit Protocol as an access condition.",
        "params": {
          "participant": "Address to check (survey-scoped child wallet)",
          "surveyId": "Survey to check"
        }
      },
      "registerBatch(string,address)": {
        "details": "Register an additional batch for an existing survey.",
        "params": {
          "batchId": "Ephemeral batch wallet address",
          "surveyId": "Survey this batch belongs to"
        }
      },
      "registerParticipant(string)": {
        "details": "Register msg.sender as a participant for a survey.      Called by the survey-scoped child wallet after validateCard().      Lit Protocol reads isParticipant() as an access condition.",
        "params": {
          "surveyId": "Survey to register participation for"
        }
      },
      "updateSurvey(string,string)": {
        "details": "Update survey IPFS CID — survey content is mutable post-creation."
      },
      "validateCard(string,bytes,address,string)": {
        "details": "Validate a card submission.      Called by the user's survey-scoped child wallet.      Call registerParticipant() after this to register the child wallet.",
        "params": {
          "batchId": "Batch wallet address this card belongs to",
          "nullifier": "Unique card identifier from QR code",
          "signature": "Signature produced by the ephemeral batch wallet",
          "surveyId": "Survey this card is for"
        }
      }
    },
    "title": "S3ntimentSurveyStore",
    "version": 1
  },
  "evm": {
    "gasEstimates": {
      "creation": {
        "codeDepositCost": "1398200",
        "executionCost": "1456",
        "totalCost": "1399656"
      },
      "external": {
        "createSurvey(string,string,address[])": "infinite",
        "getBatch(string,address)": "infinite",
        "getBatchCardCount(string,address)": "infinite",
        "getOwnerSurveyCount(address)": "2522",
        "getOwnerSurveys(address)": "infinite",
        "getSurvey(string)": "infinite",
        "getSurveyBatches(string)": "infinite",
        "isNullifierUsed(string,address)": "infinite",
        "isOwner(address,string)": "infinite",
        "isParticipant(string,address)": "infinite",
        "registerBatch(string,address)": "infinite",
        "registerParticipant(string)": "infinite",
        "surveyExists(string)": "infinite",
        "updateSurvey(string,string)": "infinite",
        "usedNullifiers(bytes32)": "2493",
        "validateCard(string,bytes,address,string)": "infinite"
      },
      "internal": {
        "_registerBatch(string memory,address)": "infinite",
        "recoverSigner(bytes32,bytes memory)": "infinite"
      }
    }
  },
  "storageLayout": {
    "storage": [
      {
        "astId": 19,
        "contract": "project/src/SurveyStore/SurveyStore.sol:S3ntimentSurveyStore",
        "label": "surveys",
        "offset": 0,
        "slot": "0",
        "type": "t_mapping(t_string_memory_ptr,t_struct(Survey)9_storage)"
      },
      {
        "astId": 24,
        "contract": "project/src/SurveyStore/SurveyStore.sol:S3ntimentSurveyStore",
        "label": "ownerSurveys",
        "offset": 0,
        "slot": "1",
        "type": "t_mapping(t_address,t_array(t_string_storage)dyn_storage)"
      },
      {
        "astId": 31,
        "contract": "project/src/SurveyStore/SurveyStore.sol:S3ntimentSurveyStore",
        "label": "batches",
        "offset": 0,
        "slot": "2",
        "type": "t_mapping(t_string_memory_ptr,t_mapping(t_address,t_struct(Batch)14_storage))"
      },
      {
        "astId": 36,
        "contract": "project/src/SurveyStore/SurveyStore.sol:S3ntimentSurveyStore",
        "label": "surveyBatchIds",
        "offset": 0,
        "slot": "3",
        "type": "t_mapping(t_string_memory_ptr,t_array(t_address)dyn_storage)"
      },
      {
        "astId": 40,
        "contract": "project/src/SurveyStore/SurveyStore.sol:S3ntimentSurveyStore",
        "label": "usedNullifiers",
        "offset": 0,
        "slot": "4",
        "type": "t_mapping(t_bytes32,t_bool)"
      },
      {
        "astId": 46,
        "contract": "project/src/SurveyStore/SurveyStore.sol:S3ntimentSurveyStore",
        "label": "surveyParticipants",
        "offset": 0,
        "slot": "5",
        "type": "t_mapping(t_string_memory_ptr,t_mapping(t_address,t_bool))"
      }
    ],
    "types": {
      "t_address": {
        "encoding": "inplace",
        "label": "address",
        "numberOfBytes": "20"
      },
      "t_array(t_address)dyn_storage": {
        "base": "t_address",
        "encoding": "dynamic_array",
        "label": "address[]",
        "numberOfBytes": "32"
      },
      "t_array(t_string_storage)dyn_storage": {
        "base": "t_string_storage",
        "encoding": "dynamic_array",
        "label": "string[]",
        "numberOfBytes": "32"
      },
      "t_bool": {
        "encoding": "inplace",
        "label": "bool",
        "numberOfBytes": "1"
      },
      "t_bytes32": {
        "encoding": "inplace",
        "label": "bytes32",
        "numberOfBytes": "32"
      },
      "t_mapping(t_address,t_array(t_string_storage)dyn_storage)": {
        "encoding": "mapping",
        "key": "t_address",
        "label": "mapping(address => string[])",
        "numberOfBytes": "32",
        "value": "t_array(t_string_storage)dyn_storage"
      },
      "t_mapping(t_address,t_bool)": {
        "encoding": "mapping",
        "key": "t_address",
        "label": "mapping(address => bool)",
        "numberOfBytes": "32",
        "value": "t_bool"
      },
      "t_mapping(t_address,t_struct(Batch)14_storage)": {
        "encoding": "mapping",
        "key": "t_address",
        "label": "mapping(address => struct S3ntimentSurveyStore.Batch)",
        "numberOfBytes": "32",
        "value": "t_struct(Batch)14_storage"
      },
      "t_mapping(t_bytes32,t_bool)": {
        "encoding": "mapping",
        "key": "t_bytes32",
        "label": "mapping(bytes32 => bool)",
        "numberOfBytes": "32",
        "value": "t_bool"
      },
      "t_mapping(t_string_memory_ptr,t_array(t_address)dyn_storage)": {
        "encoding": "mapping",
        "key": "t_string_memory_ptr",
        "label": "mapping(string => address[])",
        "numberOfBytes": "32",
        "value": "t_array(t_address)dyn_storage"
      },
      "t_mapping(t_string_memory_ptr,t_mapping(t_address,t_bool))": {
        "encoding": "mapping",
        "key": "t_string_memory_ptr",
        "label": "mapping(string => mapping(address => bool))",
        "numberOfBytes": "32",
        "value": "t_mapping(t_address,t_bool)"
      },
      "t_mapping(t_string_memory_ptr,t_mapping(t_address,t_struct(Batch)14_storage))": {
        "encoding": "mapping",
        "key": "t_string_memory_ptr",
        "label": "mapping(string => mapping(address => struct S3ntimentSurveyStore.Batch))",
        "numberOfBytes": "32",
        "value": "t_mapping(t_address,t_struct(Batch)14_storage)"
      },
      "t_mapping(t_string_memory_ptr,t_struct(Survey)9_storage)": {
        "encoding": "mapping",
        "key": "t_string_memory_ptr",
        "label": "mapping(string => struct S3ntimentSurveyStore.Survey)",
        "numberOfBytes": "32",
        "value": "t_struct(Survey)9_storage"
      },
      "t_string_memory_ptr": {
        "encoding": "bytes",
        "label": "string",
        "numberOfBytes": "32"
      },
      "t_string_storage": {
        "encoding": "bytes",
        "label": "string",
        "numberOfBytes": "32"
      },
      "t_struct(Batch)14_storage": {
        "encoding": "inplace",
        "label": "struct S3ntimentSurveyStore.Batch",
        "members": [
          {
            "astId": 11,
            "contract": "project/src/SurveyStore/SurveyStore.sol:S3ntimentSurveyStore",
            "label": "createdAt",
            "offset": 0,
            "slot": "0",
            "type": "t_uint256"
          },
          {
            "astId": 13,
            "contract": "project/src/SurveyStore/SurveyStore.sol:S3ntimentSurveyStore",
            "label": "cardCount",
            "offset": 0,
            "slot": "1",
            "type": "t_uint256"
          }
        ],
        "numberOfBytes": "64"
      },
      "t_struct(Survey)9_storage": {
        "encoding": "inplace",
        "label": "struct S3ntimentSurveyStore.Survey",
        "members": [
          {
            "astId": 4,
            "contract": "project/src/SurveyStore/SurveyStore.sol:S3ntimentSurveyStore",
            "label": "ipfsCid",
            "offset": 0,
            "slot": "0",
            "type": "t_string_storage"
          },
          {
            "astId": 6,
            "contract": "project/src/SurveyStore/SurveyStore.sol:S3ntimentSurveyStore",
            "label": "owner",
            "offset": 0,
            "slot": "1",
            "type": "t_address"
          },
          {
            "astId": 8,
            "contract": "project/src/SurveyStore/SurveyStore.sol:S3ntimentSurveyStore",
            "label": "createdAt",
            "offset": 0,
            "slot": "2",
            "type": "t_uint256"
          }
        ],
        "numberOfBytes": "96"
      },
      "t_uint256": {
        "encoding": "inplace",
        "label": "uint256",
        "numberOfBytes": "32"
      }
    }
  },
  "userdoc": {
    "kind": "user",
    "methods": {},
    "notice": "Stores surveys and validates anonymous survey card submissions. Card generation flow (off-chain):   1. Survey owner signs a random seed once → derives an ephemeral batch wallet (one popup)   2. Batch wallet address is registered on-chain via createSurvey() or registerBatch()   3. Each card's nullifier is signed locally by the batch wallet (no further popups)   4. Cards are printed as QR codes containing: nullifier, batchId, signature, surveyId Card submission flow (on-chain):   1. validateCard() recovers the signer from the card's signature   2. Verifies signer === registered batch wallet (batchId)   3. Marks nullifier as used to prevent double submission   4. Caller registers as participant via registerParticipant() using their survey-scoped child wallet Child wallet derivation (off-chain):   1. User logs in once via WaaP → app-scoped master account   2. Master account signs surveyId → signature used as vOPRF secret input   3. vOPRF(salt=surveyId, secret=signature) → deterministic child private key   4. Child wallet is unlinkable to master account and to other surveys   5. Child wallet calls validateCard() + registerParticipant()   6. Lit Protocol uses isParticipant() as access condition to gate response decryption Key design decisions:   - batchId === batch wallet address — no separate UUID needed   - Batch signers are immutable once registered — protects printed cards   - Batches are scoped to a survey — a batch wallet cannot be reused across surveys   - createSurvey() accepts an array of batchIds to minimize signatures in new survey flow   - No events are emitted — storage is read directly by Lit and frontend",
    "version": 1
  },
  "argsData": "0x",
  "transaction": {
    "hash": "0x74db7ad794a0103fe1a7bf75ab918fd9cadcf1ab030dd4b5124e8b6f9aa70518",
    "nonce": "0x1a",
    "origin": "0xb6ca51ca72c689b720235aca37e579f821fa05ee"
  }
}