{
  "address": "0x8d37ce53de792961eb7dbc263bd45223520c81f6",
  "abi": [
    {
      "inputs": [],
      "name": "AlreadyParticipant",
      "type": "error"
    },
    {
      "inputs": [],
      "name": "BatchAlreadyRegistered",
      "type": "error"
    },
    {
      "inputs": [],
      "name": "BatchNotFound",
      "type": "error"
    },
    {
      "inputs": [],
      "name": "InvalidBatchId",
      "type": "error"
    },
    {
      "inputs": [],
      "name": "InvalidSignature",
      "type": "error"
    },
    {
      "inputs": [],
      "name": "NotSurveyOwner",
      "type": "error"
    },
    {
      "inputs": [],
      "name": "NullifierAlreadyUsed",
      "type": "error"
    },
    {
      "inputs": [],
      "name": "SignerNotBatchWallet",
      "type": "error"
    },
    {
      "inputs": [],
      "name": "SurveyAlreadyExists",
      "type": "error"
    },
    {
      "inputs": [],
      "name": "SurveyNotFound",
      "type": "error"
    },
    {
      "inputs": [
        {
          "internalType": "string",
          "name": "surveyId",
          "type": "string"
        },
        {
          "internalType": "string",
          "name": "ipfsCid",
          "type": "string"
        },
        {
          "internalType": "address[]",
          "name": "batchIds",
          "type": "address[]"
        }
      ],
      "name": "createSurvey",
      "outputs": [],
      "stateMutability": "nonpayable",
      "type": "function"
    },
    {
      "inputs": [
        {
          "internalType": "string",
          "name": "surveyId",
          "type": "string"
        },
        {
          "internalType": "address",
          "name": "batchId",
          "type": "address"
        }
      ],
      "name": "getBatch",
      "outputs": [
        {
          "internalType": "uint256",
          "name": "createdAt",
          "type": "uint256"
        },
        {
          "internalType": "uint256",
          "name": "cardCount",
          "type": "uint256"
        }
      ],
      "stateMutability": "view",
      "type": "function"
    },
    {
      "inputs": [
        {
          "internalType": "string",
          "name": "surveyId",
          "type": "string"
        },
        {
          "internalType": "address",
          "name": "batchId",
          "type": "address"
        }
      ],
      "name": "getBatchCardCount",
      "outputs": [
        {
          "internalType": "uint256",
          "name": "",
          "type": "uint256"
        }
      ],
      "stateMutability": "view",
      "type": "function"
    },
    {
      "inputs": [
        {
          "internalType": "address",
          "name": "owner",
          "type": "address"
        }
      ],
      "name": "getOwnerSurveyCount",
      "outputs": [
        {
          "internalType": "uint256",
          "name": "",
          "type": "uint256"
        }
      ],
      "stateMutability": "view",
      "type": "function"
    },
    {
      "inputs": [
        {
          "internalType": "address",
          "name": "owner",
          "type": "address"
        }
      ],
      "name": "getOwnerSurveys",
      "outputs": [
        {
          "internalType": "string[]",
          "name": "",
          "type": "string[]"
        }
      ],
      "stateMutability": "view",
      "type": "function"
    },
    {
      "inputs": [
        {
          "internalType": "string",
          "name": "surveyId",
          "type": "string"
        }
      ],
      "name": "getSurvey",
      "outputs": [
        {
          "internalType": "string",
          "name": "ipfsCid",
          "type": "string"
        },
        {
          "internalType": "address",
          "name": "owner",
          "type": "address"
        },
        {
          "internalType": "uint256",
          "name": "createdAt",
          "type": "uint256"
        }
      ],
      "stateMutability": "view",
      "type": "function"
    },
    {
      "inputs": [
        {
          "internalType": "string",
          "name": "surveyId",
          "type": "string"
        }
      ],
      "name": "getSurveyBatches",
      "outputs": [
        {
          "internalType": "address[]",
          "name": "",
          "type": "address[]"
        }
      ],
      "stateMutability": "view",
      "type": "function"
    },
    {
      "inputs": [
        {
          "internalType": "string",
          "name": "nullifier",
          "type": "string"
        },
        {
          "internalType": "address",
          "name": "batchId",
          "type": "address"
        }
      ],
      "name": "isNullifierUsed",
      "outputs": [
        {
          "internalType": "bool",
          "name": "",
          "type": "bool"
        }
      ],
      "stateMutability": "view",
      "type": "function"
    },
    {
      "inputs": [
        {
          "internalType": "address",
          "name": "authSigAddress",
          "type": "address"
        },
        {
          "internalType": "string",
          "name": "surveyId",
          "type": "string"
        }
      ],
      "name": "isOwner",
      "outputs": [
        {
          "internalType": "bool",
          "name": "",
          "type": "bool"
        }
      ],
      "stateMutability": "view",
      "type": "function"
    },
    {
      "inputs": [
        {
          "internalType": "string",
          "name": "surveyId",
          "type": "string"
        },
        {
          "internalType": "address",
          "name": "participant",
          "type": "address"
        }
      ],
      "name": "isParticipant",
      "outputs": [
        {
          "internalType": "bool",
          "name": "",
          "type": "bool"
        }
      ],
      "stateMutability": "view",
      "type": "function"
    },
    {
      "inputs": [
        {
          "internalType": "string",
          "name": "surveyId",
          "type": "string"
        },
        {
          "internalType": "address",
          "name": "batchId",
          "type": "address"
        }
      ],
      "name": "registerBatch",
      "outputs": [],
      "stateMutability": "nonpayable",
      "type": "function"
    },
    {
      "inputs": [
        {
          "internalType": "string",
          "name": "surveyId",
          "type": "string"
        }
      ],
      "name": "surveyExists",
      "outputs": [
        {
          "internalType": "bool",
          "name": "",
          "type": "bool"
        }
      ],
      "stateMutability": "view",
      "type": "function"
    },
    {
      "inputs": [
        {
          "internalType": "string",
          "name": "surveyId",
          "type": "string"
        },
        {
          "internalType": "string",
          "name": "newIpfsCid",
          "type": "string"
        }
      ],
      "name": "updateSurvey",
      "outputs": [],
      "stateMutability": "nonpayable",
      "type": "function"
    },
    {
      "inputs": [
        {
          "internalType": "bytes32",
          "name": "",
          "type": "bytes32"
        }
      ],
      "name": "usedNullifiers",
      "outputs": [
        {
          "internalType": "bool",
          "name": "",
          "type": "bool"
        }
      ],
      "stateMutability": "view",
      "type": "function"
    },
    {
      "inputs": [
        {
          "internalType": "string",
          "name": "surveyId",
          "type": "string"
        },
        {
          "internalType": "string",
          "name": "nullifier",
          "type": "string"
        },
        {
          "internalType": "address",
          "name": "batchId",
          "type": "address"
        },
        {
          "internalType": "bytes",
          "name": "signature",
          "type": "bytes"
        }
      ],
      "name": "validateCard",
      "outputs": [],
      "stateMutability": "nonpayable",
      "type": "function"
    }
  ],
  "contractName": "S3ntimentSurveyStore",
  "sourceName": "src/SurveyStore/SurveyStore.sol",
  "bytecode": "0x6080604052348015600e575f5ffd5b50611a858061001c5f395ff3fe608060405234801561000f575f5ffd5b50600436106100f0575f3560e01c8063c275871111610093578063ddd1171711610063578063ddd1171714610259578063dee800cf1461026c578063e41b36691461027f578063f4060dd114610292575f5ffd5b8063c2758711146101da578063c5b88066146101ef578063c6576e4714610224578063cd37996414610246575f5ffd5b806342abbabd116100ce57806342abbabd1461016c5780634756331e1461017f5780635483b3e114610192578063ac4da5a7146101ba575f5ffd5b8063174a84a8146100f4578063206137aa1461011a5780633cfebb6e1461014c575b5f5ffd5b610107610102366004611305565b6102a5565b6040519081526020015b60405180910390f35b61013c610128366004611350565b60046020525f908152604090205460ff1681565b6040519015158152602001610111565b61015f61015a366004611367565b6102f3565b60405161011191906113cc565b61013c61017a36600461144d565b6103ea565b61013c61018d366004611305565b610442565b6101a56101a0366004611305565b610491565b60408051928352602083019190915201610111565b6101cd6101c836600461144d565b61053b565b6040516101119190611487565b6101ed6101e83660046114df565b6105c0565b005b6101076101fd366004611367565b73ffffffffffffffffffffffffffffffffffffffff165f9081526001602052604090205490565b61023761023236600461144d565b61091b565b60405161011193929190611591565b61013c6102543660046115cb565b610a62565b6101ed610267366004611616565b610abb565b61013c61027a366004611305565b610d1b565b6101ed61028d366004611305565b610d7d565b6101ed6102a036600461171b565b610e11565b5f6002836040516102b69190611781565b908152604080516020928190038301902073ffffffffffffffffffffffffffffffffffffffff85165f908152925290206001015490505b92915050565b73ffffffffffffffffffffffffffffffffffffffff81165f908152600160209081526040808320805482518185028101850190935280835260609492939192909184015b828210156103df578382905f5260205f200180546103549061178c565b80601f01602080910402602001604051908101604052809291908181526020018280546103809061178c565b80156103cb5780601f106103a2576101008083540402835291602001916103cb565b820191905f5260205f20905b8154815290600101906020018083116103ae57829003601f168201915b505050505081526020019060010190610337565b505050509050919050565b5f5f73ffffffffffffffffffffffffffffffffffffffff165f836040516104119190611781565b9081526040519081900360200190206001015473ffffffffffffffffffffffffffffffffffffffff16141592915050565b5f6005836040516104539190611781565b9081526040805191829003602090810190922073ffffffffffffffffffffffffffffffffffffffff85165f908152925290205460ff16905092915050565b5f5f5f6002856040516104a49190611781565b908152604080516020928190038301812073ffffffffffffffffffffffffffffffffffffffff88165f90815290845282812082840190935282548083526001909301549382019390935292509003610528576040517f9e15e1bc00000000000000000000000000000000000000000000000000000000815260040160405180910390fd5b8051602090910151909590945092505050565b606060038260405161054d9190611781565b90815260408051918290036020908101832080548083028501830190935282845291908301828280156105b457602002820191905f5260205f20905b815473ffffffffffffffffffffffffffffffffffffffff168152600190910190602001808311610589575b50505050509050919050565b5f73ffffffffffffffffffffffffffffffffffffffff165f856040516105e69190611781565b9081526040519081900360200190206001015473ffffffffffffffffffffffffffffffffffffffff1603610646576040517f7e3336d900000000000000000000000000000000000000000000000000000000815260040160405180910390fd5b6002846040516106569190611781565b908152604080516020928190038301902073ffffffffffffffffffffffffffffffffffffffff85165f908152925281205490036106bf576040517f9e15e1bc00000000000000000000000000000000000000000000000000000000815260040160405180910390fd5b5f83836040516020016106d39291906117dd565b6040516020818303038152906040528051906020012090505f8160405160200161072991907f19457468657265756d205369676e6564204d6573736167653a0a3332000000008152601c810191909152603c0190565b6040516020818303038152906040528051906020012090505f61074c8285610e91565b90508473ffffffffffffffffffffffffffffffffffffffff168173ffffffffffffffffffffffffffffffffffffffff16146107b3576040517f8baa579f00000000000000000000000000000000000000000000000000000000815260040160405180910390fd5b5f8381526004602052604090205460ff16156107fb576040517fcad2ae0200000000000000000000000000000000000000000000000000000000815260040160405180910390fd5b5f838152600460205260409081902080547fffffffffffffffffffffffffffffffffffffffffffffffffffffffffffffff0016600117905551600290610842908990611781565b908152604080516020928190038301902073ffffffffffffffffffffffffffffffffffffffff88165f908152925281206001018054916108818361186f565b91905055506005876040516108969190611781565b9081526040805160209281900383019020335f908152925290205460ff166109125760016005886040516108ca9190611781565b9081526040805160209281900383019020335f9081529252902080547fffffffffffffffffffffffffffffffffffffffffffffffffffffffffffffff00169115159190911790555b50505050505050565b60605f5f5f5f8560405161092f9190611781565b90815260200160405180910390206040518060600160405290815f820180546109579061178c565b80601f01602080910402602001604051908101604052809291908181526020018280546109839061178c565b80156109ce5780601f106109a5576101008083540402835291602001916109ce565b820191905f5260205f20905b8154815290600101906020018083116109b157829003601f168201915b5050509183525050600182015473ffffffffffffffffffffffffffffffffffffffff9081166020808401919091526002909301546040909201919091529082015191925016610a49576040517f7e3336d900000000000000000000000000000000000000000000000000000000815260040160405180910390fd5b8051602082015160409092015190969195509350915050565b5f8273ffffffffffffffffffffffffffffffffffffffff165f83604051610a899190611781565b9081526040519081900360200190206001015473ffffffffffffffffffffffffffffffffffffffff1614905092915050565b5f835111610b2a576040517f08c379a000000000000000000000000000000000000000000000000000000000815260206004820152601960248201527f5375727665792049442063616e6e6f7420626520656d7074790000000000000060448201526064015b60405180910390fd5b5f825111610b94576040517f08c379a000000000000000000000000000000000000000000000000000000000815260206004820152601860248201527f49504653204349442063616e6e6f7420626520656d70747900000000000000006044820152606401610b21565b5f73ffffffffffffffffffffffffffffffffffffffff165f84604051610bba9190611781565b9081526040519081900360200190206001015473ffffffffffffffffffffffffffffffffffffffff1614610c1a576040517f2dbb439c00000000000000000000000000000000000000000000000000000000815260040160405180910390fd5b60408051606081018252838152336020820152428183015290515f90610c41908690611781565b90815260405190819003602001902081518190610c5e90826118f2565b50602082810151600183810180547fffffffffffffffffffffffff00000000000000000000000000000000000000001673ffffffffffffffffffffffffffffffffffffffff90931692909217909155604093840151600290930192909255335f90815282825292832080549283018155835290912001610cde84826118f2565b505f5b8151811015610d1557610d0d84838381518110610d0057610d00611a09565b6020026020010151611023565b600101610ce1565b50505050565b5f5f8383604051602001610d309291906117dd565b604080518083037fffffffffffffffffffffffffffffffffffffffffffffffffffffffffffffffe001815291815281516020928301205f908152600490925290205460ff16949350505050565b3373ffffffffffffffffffffffffffffffffffffffff165f83604051610da39190611781565b9081526040519081900360200190206001015473ffffffffffffffffffffffffffffffffffffffff1614610e03576040517fa9e4eb1400000000000000000000000000000000000000000000000000000000815260040160405180910390fd5b610e0d8282611023565b5050565b5f5f83604051610e219190611781565b908152604051908190036020019020600181015490915073ffffffffffffffffffffffffffffffffffffffff163314610e86576040517fa9e4eb1400000000000000000000000000000000000000000000000000000000815260040160405180910390fd5b80610d1583826118f2565b5f8151604114610efd576040517f08c379a000000000000000000000000000000000000000000000000000000000815260206004820152601860248201527f496e76616c6964207369676e6174757265206c656e67746800000000000000006044820152606401610b21565b6020820151604083015160608401515f1a601b811015610f2557610f22601b82611a36565b90505b8060ff16601b1480610f3a57508060ff16601c145b610fa0576040517f08c379a000000000000000000000000000000000000000000000000000000000815260206004820181905260248201527f496e76616c6964207369676e6174757265207265636f766572792076616c75656044820152606401610b21565b604080515f81526020810180835288905260ff831691810191909152606081018490526080810183905260019060a0016020604051602081039080840390855afa158015610ff0573d5f5f3e3d5ffd5b50506040517fffffffffffffffffffffffffffffffffffffffffffffffffffffffffffffffe00151979650505050505050565b73ffffffffffffffffffffffffffffffffffffffff8116611070576040517f3b98df6500000000000000000000000000000000000000000000000000000000815260040160405180910390fd5b6002826040516110809190611781565b908152604080516020928190038301902073ffffffffffffffffffffffffffffffffffffffff84165f9081529252902054156110e8576040517f7d4c96a800000000000000000000000000000000000000000000000000000000815260040160405180910390fd5b60405180604001604052804281526020015f81525060028360405161110d9190611781565b90815260408051918290036020908101832073ffffffffffffffffffffffffffffffffffffffff86165f908152908252919091208351815592015160019092019190915560039061115f908490611781565b9081526040516020918190038201902080546001810182555f9182529190200180547fffffffffffffffffffffffff00000000000000000000000000000000000000001673ffffffffffffffffffffffffffffffffffffffff9290921691909117905550565b7f4e487b71000000000000000000000000000000000000000000000000000000005f52604160045260245ffd5b604051601f82017fffffffffffffffffffffffffffffffffffffffffffffffffffffffffffffffe016810167ffffffffffffffff81118282101715611239576112396111c5565b604052919050565b5f5f67ffffffffffffffff84111561125b5761125b6111c5565b50601f83017fffffffffffffffffffffffffffffffffffffffffffffffffffffffffffffffe01660200161128e816111f2565b9150508281528383830111156112a2575f5ffd5b828260208301375f602084830101529392505050565b5f82601f8301126112c7575f5ffd5b6112d683833560208501611241565b9392505050565b803573ffffffffffffffffffffffffffffffffffffffff81168114611300575f5ffd5b919050565b5f5f60408385031215611316575f5ffd5b823567ffffffffffffffff81111561132c575f5ffd5b611338858286016112b8565b925050611347602084016112dd565b90509250929050565b5f60208284031215611360575f5ffd5b5035919050565b5f60208284031215611377575f5ffd5b6112d6826112dd565b5f81518084528060208401602086015e5f6020828601015260207fffffffffffffffffffffffffffffffffffffffffffffffffffffffffffffffe0601f83011685010191505092915050565b5f602082016020835280845180835260408501915060408160051b8601019250602086015f5b82811015611441577fffffffffffffffffffffffffffffffffffffffffffffffffffffffffffffffc087860301845261142c858351611380565b945060209384019391909101906001016113f2565b50929695505050505050565b5f6020828403121561145d575f5ffd5b813567ffffffffffffffff811115611473575f5ffd5b61147f848285016112b8565b949350505050565b602080825282518282018190525f918401906040840190835b818110156114d457835173ffffffffffffffffffffffffffffffffffffffff168352602093840193909201916001016114a0565b509095945050505050565b5f5f5f5f608085870312156114f2575f5ffd5b843567ffffffffffffffff811115611508575f5ffd5b611514878288016112b8565b945050602085013567ffffffffffffffff811115611530575f5ffd5b61153c878288016112b8565b93505061154b604086016112dd565b9150606085013567ffffffffffffffff811115611566575f5ffd5b8501601f81018713611576575f5ffd5b61158587823560208401611241565b91505092959194509250565b606081525f6115a36060830186611380565b73ffffffffffffffffffffffffffffffffffffffff9490941660208301525060400152919050565b5f5f604083850312156115dc575f5ffd5b6115e5836112dd565b9150602083013567ffffffffffffffff811115611600575f5ffd5b61160c858286016112b8565b9150509250929050565b5f5f5f60608486031215611628575f5ffd5b833567ffffffffffffffff81111561163e575f5ffd5b61164a868287016112b8565b935050602084013567ffffffffffffffff811115611666575f5ffd5b611672868287016112b8565b925050604084013567ffffffffffffffff81111561168e575f5ffd5b8401601f8101861361169e575f5ffd5b803567ffffffffffffffff8111156116b8576116b86111c5565b8060051b6116c8602082016111f2565b918252602081840181019290810190898411156116e3575f5ffd5b6020850194505b8385101561170c576116fb856112dd565b8252602094850194909101906116ea565b80955050505050509250925092565b5f5f6040838503121561172c575f5ffd5b823567ffffffffffffffff811115611742575f5ffd5b61174e858286016112b8565b925050602083013567ffffffffffffffff811115611600575f5ffd5b5f81518060208401855e5f93019283525090919050565b5f6112d6828461176a565b600181811c908216806117a057607f821691505b6020821081036117d7577f4e487b71000000000000000000000000000000000000000000000000000000005f52602260045260245ffd5b50919050565b5f6117e8828561176a565b7f7c00000000000000000000000000000000000000000000000000000000000000815260609390931b7fffffffffffffffffffffffffffffffffffffffff0000000000000000000000001660018401525050601501919050565b7f4e487b71000000000000000000000000000000000000000000000000000000005f52601160045260245ffd5b5f7fffffffffffffffffffffffffffffffffffffffffffffffffffffffffffffffff820361189f5761189f611842565b5060010190565b601f8211156118ed57805f5260205f20601f840160051c810160208510156118cb5750805b601f840160051c820191505b818110156118ea575f81556001016118d7565b50505b505050565b815167ffffffffffffffff81111561190c5761190c6111c5565b6119208161191a845461178c565b846118a6565b6020601f821160018114611971575f831561193b5750848201515b7fffffffffffffffffffffffffffffffffffffffffffffffffffffffffffffffff600385901b1c1916600184901b1784556118ea565b5f848152602081207fffffffffffffffffffffffffffffffffffffffffffffffffffffffffffffffe08516915b828110156119be578785015182556020948501946001909201910161199e565b50848210156119fa57868401517fffffffffffffffffffffffffffffffffffffffffffffffffffffffffffffffff600387901b60f8161c191681555b50505050600190811b01905550565b7f4e487b71000000000000000000000000000000000000000000000000000000005f52603260045260245ffd5b60ff81811683821601908111156102ed576102ed61184256fea2646970667358221220f69e3c739514e39d44f6d46178179e97e582847d09a6518ceae1084aa44b037f64736f6c634300081c0033",
  "linkReferences": {},
  "deployedLinkReferences": {},
  "immutableReferences": {},
  "inputSourceName": "project/src/SurveyStore/SurveyStore.sol",
  "devdoc": {
    "kind": "dev",
    "methods": {
      "createSurvey(string,string,address[])": {
        "details": "Create a new survey with an optional initial set of batch wallets.      Pass an empty array to create the survey without any batches.",
        "params": {
          "batchIds": "Ephemeral batch wallet addresses. Pass [] to skip.",
          "ipfsCid": "IPFS content identifier for survey metadata",
          "surveyId": "Unique identifier, generated client-side"
        }
      },
      "isParticipant(string,address)": {
        "details": "Check if an address is a registered participant for a survey.      Used by Lit Protocol as an access condition.",
        "params": {
          "participant": "Address to check (survey-scoped child wallet)",
          "surveyId": "Survey to check"
        }
      },
      "registerBatch(string,address)": {
        "details": "Register an additional batch for an existing survey.",
        "params": {
          "batchId": "Ephemeral batch wallet address",
          "surveyId": "Survey this batch belongs to"
        }
      },
      "updateSurvey(string,string)": {
        "details": "Update survey IPFS CID — survey content is mutable post-creation."
      },
      "validateCard(string,string,address,bytes)": {
        "details": "Validate a card submission.      Called by the user's survey-scoped child wallet.      Call registerParticipant() after this to register the child wallet.",
        "params": {
          "batchId": "Batch wallet address this card belongs to",
          "nullifier": "Unique card identifier from QR code",
          "signature": "Signature produced by the ephemeral batch wallet",
          "surveyId": "Survey this card is for"
        }
      }
    },
    "title": "S3ntimentSurveyStore",
    "version": 1
  },
  "evm": {
    "gasEstimates": {
      "creation": {
        "codeDepositCost": "1357800",
        "executionCost": "1415",
        "totalCost": "1359215"
      },
      "external": {
        "createSurvey(string,string,address[])": "infinite",
        "getBatch(string,address)": "infinite",
        "getBatchCardCount(string,address)": "infinite",
        "getOwnerSurveyCount(address)": "2544",
        "getOwnerSurveys(address)": "infinite",
        "getSurvey(string)": "infinite",
        "getSurveyBatches(string)": "infinite",
        "isNullifierUsed(string,address)": "infinite",
        "isOwner(address,string)": "infinite",
        "isParticipant(string,address)": "infinite",
        "registerBatch(string,address)": "infinite",
        "surveyExists(string)": "infinite",
        "updateSurvey(string,string)": "infinite",
        "usedNullifiers(bytes32)": "2493",
        "validateCard(string,string,address,bytes)": "infinite"
      },
      "internal": {
        "_registerBatch(string memory,address)": "infinite",
        "recoverSigner(bytes32,bytes memory)": "infinite"
      }
    }
  },
  "storageLayout": {
    "storage": [
      {
        "astId": 19,
        "contract": "project/src/SurveyStore/SurveyStore.sol:S3ntimentSurveyStore",
        "label": "surveys",
        "offset": 0,
        "slot": "0",
        "type": "t_mapping(t_string_memory_ptr,t_struct(Survey)9_storage)"
      },
      {
        "astId": 24,
        "contract": "project/src/SurveyStore/SurveyStore.sol:S3ntimentSurveyStore",
        "label": "ownerSurveys",
        "offset": 0,
        "slot": "1",
        "type": "t_mapping(t_address,t_array(t_string_storage)dyn_storage)"
      },
      {
        "astId": 31,
        "contract": "project/src/SurveyStore/SurveyStore.sol:S3ntimentSurveyStore",
        "label": "batches",
        "offset": 0,
        "slot": "2",
        "type": "t_mapping(t_string_memory_ptr,t_mapping(t_address,t_struct(Batch)14_storage))"
      },
      {
        "astId": 36,
        "contract": "project/src/SurveyStore/SurveyStore.sol:S3ntimentSurveyStore",
        "label": "surveyBatchIds",
        "offset": 0,
        "slot": "3",
        "type": "t_mapping(t_string_memory_ptr,t_array(t_address)dyn_storage)"
      },
      {
        "astId": 40,
        "contract": "project/src/SurveyStore/SurveyStore.sol:S3ntimentSurveyStore",
        "label": "usedNullifiers",
        "offset": 0,
        "slot": "4",
        "type": "t_mapping(t_bytes32,t_bool)"
      },
      {
        "astId": 46,
        "contract": "project/src/SurveyStore/SurveyStore.sol:S3ntimentSurveyStore",
        "label": "surveyParticipants",
        "offset": 0,
        "slot": "5",
        "type": "t_mapping(t_string_memory_ptr,t_mapping(t_address,t_bool))"
      }
    ],
    "types": {
      "t_address": {
        "encoding": "inplace",
        "label": "address",
        "numberOfBytes": "20"
      },
      "t_array(t_address)dyn_storage": {
        "base": "t_address",
        "encoding": "dynamic_array",
        "label": "address[]",
        "numberOfBytes": "32"
      },
      "t_array(t_string_storage)dyn_storage": {
        "base": "t_string_storage",
        "encoding": "dynamic_array",
        "label": "string[]",
        "numberOfBytes": "32"
      },
      "t_bool": {
        "encoding": "inplace",
        "label": "bool",
        "numberOfBytes": "1"
      },
      "t_bytes32": {
        "encoding": "inplace",
        "label": "bytes32",
        "numberOfBytes": "32"
      },
      "t_mapping(t_address,t_array(t_string_storage)dyn_storage)": {
        "encoding": "mapping",
        "key": "t_address",
        "label": "mapping(address => string[])",
        "numberOfBytes": "32",
        "value": "t_array(t_string_storage)dyn_storage"
      },
      "t_mapping(t_address,t_bool)": {
        "encoding": "mapping",
        "key": "t_address",
        "label": "mapping(address => bool)",
        "numberOfBytes": "32",
        "value": "t_bool"
      },
      "t_mapping(t_address,t_struct(Batch)14_storage)": {
        "encoding": "mapping",
        "key": "t_address",
        "label": "mapping(address => struct S3ntimentSurveyStore.Batch)",
        "numberOfBytes": "32",
        "value": "t_struct(Batch)14_storage"
      },
      "t_mapping(t_bytes32,t_bool)": {
        "encoding": "mapping",
        "key": "t_bytes32",
        "label": "mapping(bytes32 => bool)",
        "numberOfBytes": "32",
        "value": "t_bool"
      },
      "t_mapping(t_string_memory_ptr,t_array(t_address)dyn_storage)": {
        "encoding": "mapping",
        "key": "t_string_memory_ptr",
        "label": "mapping(string => address[])",
        "numberOfBytes": "32",
        "value": "t_array(t_address)dyn_storage"
      },
      "t_mapping(t_string_memory_ptr,t_mapping(t_address,t_bool))": {
        "encoding": "mapping",
        "key": "t_string_memory_ptr",
        "label": "mapping(string => mapping(address => bool))",
        "numberOfBytes": "32",
        "value": "t_mapping(t_address,t_bool)"
      },
      "t_mapping(t_string_memory_ptr,t_mapping(t_address,t_struct(Batch)14_storage))": {
        "encoding": "mapping",
        "key": "t_string_memory_ptr",
        "label": "mapping(string => mapping(address => struct S3ntimentSurveyStore.Batch))",
        "numberOfBytes": "32",
        "value": "t_mapping(t_address,t_struct(Batch)14_storage)"
      },
      "t_mapping(t_string_memory_ptr,t_struct(Survey)9_storage)": {
        "encoding": "mapping",
        "key": "t_string_memory_ptr",
        "label": "mapping(string => struct S3ntimentSurveyStore.Survey)",
        "numberOfBytes": "32",
        "value": "t_struct(Survey)9_storage"
      },
      "t_string_memory_ptr": {
        "encoding": "bytes",
        "label": "string",
        "numberOfBytes": "32"
      },
      "t_string_storage": {
        "encoding": "bytes",
        "label": "string",
        "numberOfBytes": "32"
      },
      "t_struct(Batch)14_storage": {
        "encoding": "inplace",
        "label": "struct S3ntimentSurveyStore.Batch",
        "members": [
          {
            "astId": 11,
            "contract": "project/src/SurveyStore/SurveyStore.sol:S3ntimentSurveyStore",
            "label": "createdAt",
            "offset": 0,
            "slot": "0",
            "type": "t_uint256"
          },
          {
            "astId": 13,
            "contract": "project/src/SurveyStore/SurveyStore.sol:S3ntimentSurveyStore",
            "label": "cardCount",
            "offset": 0,
            "slot": "1",
            "type": "t_uint256"
          }
        ],
        "numberOfBytes": "64"
      },
      "t_struct(Survey)9_storage": {
        "encoding": "inplace",
        "label": "struct S3ntimentSurveyStore.Survey",
        "members": [
          {
            "astId": 4,
            "contract": "project/src/SurveyStore/SurveyStore.sol:S3ntimentSurveyStore",
            "label": "ipfsCid",
            "offset": 0,
            "slot": "0",
            "type": "t_string_storage"
          },
          {
            "astId": 6,
            "contract": "project/src/SurveyStore/SurveyStore.sol:S3ntimentSurveyStore",
            "label": "owner",
            "offset": 0,
            "slot": "1",
            "type": "t_address"
          },
          {
            "astId": 8,
            "contract": "project/src/SurveyStore/SurveyStore.sol:S3ntimentSurveyStore",
            "label": "createdAt",
            "offset": 0,
            "slot": "2",
            "type": "t_uint256"
          }
        ],
        "numberOfBytes": "96"
      },
      "t_uint256": {
        "encoding": "inplace",
        "label": "uint256",
        "numberOfBytes": "32"
      }
    }
  },
  "userdoc": {
    "kind": "user",
    "methods": {},
    "notice": "Stores surveys and validates anonymous survey card submissions. Card generation flow (off-chain):   1. Survey owner signs a random seed once → derives an ephemeral batch wallet (one popup)   2. Batch wallet address is registered on-chain via createSurvey() or registerBatch()   3. Each card's nullifier is signed locally by the batch wallet (no further popups)   4. Cards are printed as QR codes containing: nullifier, batchId, signature, surveyId Card submission flow (on-chain):   1. validateCard() recovers the signer from the card's signature   2. Verifies signer === registered batch wallet (batchId)   3. Marks nullifier as used to prevent double submission   4. Caller registers as participant via registerParticipant() using their survey-scoped child wallet Child wallet derivation (off-chain):   1. User logs in once via WaaP → app-scoped master account   2. Master account signs surveyId → signature used as vOPRF secret input   3. vOPRF(salt=surveyId, secret=signature) → deterministic child private key   4. Child wallet is unlinkable to master account and to other surveys   5. Child wallet calls validateCard() + registerParticipant()   6. Lit Protocol uses isParticipant() as access condition to gate response decryption Key design decisions:   - batchId === batch wallet address — no separate UUID needed   - Batch signers are immutable once registered — protects printed cards   - Batches are scoped to a survey — a batch wallet cannot be reused across surveys   - createSurvey() accepts an array of batchIds to minimize signatures in new survey flow   - No events are emitted — storage is read directly by Lit and frontend",
    "version": 1
  },
  "argsData": "0x",
  "transaction": {
    "hash": "0x872ba9cd57e392d88d27c591a48d53ca46e3a92262c239d0f8a4e44c9357f5b6",
    "nonce": "0x20",
    "origin": "0xb6ca51ca72c689b720235aca37e579f821fa05ee"
  }
}