{
  "address": "0x11a14527eeccfab475901116cf34221c1eb12354",
  "abi": [
    {
      "inputs": [],
      "name": "AlreadyPoolMember",
      "type": "error"
    },
    {
      "inputs": [],
      "name": "BatchAlreadyRegistered",
      "type": "error"
    },
    {
      "inputs": [],
      "name": "BatchNotFound",
      "type": "error"
    },
    {
      "inputs": [],
      "name": "InvalidBatchId",
      "type": "error"
    },
    {
      "inputs": [],
      "name": "InvalidSignature",
      "type": "error"
    },
    {
      "inputs": [],
      "name": "NotPoolSafe",
      "type": "error"
    },
    {
      "inputs": [],
      "name": "NullifierAlreadyUsed",
      "type": "error"
    },
    {
      "inputs": [],
      "name": "PoolAlreadyExists",
      "type": "error"
    },
    {
      "inputs": [],
      "name": "PoolNotFound",
      "type": "error"
    },
    {
      "inputs": [],
      "name": "SurveyAlreadyExists",
      "type": "error"
    },
    {
      "inputs": [],
      "name": "SurveyNotFound",
      "type": "error"
    },
    {
      "inputs": [
        {
          "internalType": "string",
          "name": "surveyId",
          "type": "string"
        },
        {
          "internalType": "string",
          "name": "poolId",
          "type": "string"
        },
        {
          "internalType": "string",
          "name": "ipfsCid",
          "type": "string"
        },
        {
          "internalType": "address[]",
          "name": "batchIds",
          "type": "address[]"
        }
      ],
      "name": "createSurvey",
      "outputs": [],
      "stateMutability": "nonpayable",
      "type": "function"
    },
    {
      "inputs": [
        {
          "internalType": "string",
          "name": "poolId",
          "type": "string"
        },
        {
          "internalType": "address",
          "name": "batchId",
          "type": "address"
        }
      ],
      "name": "getBatch",
      "outputs": [
        {
          "internalType": "uint256",
          "name": "createdAt",
          "type": "uint256"
        },
        {
          "internalType": "uint256",
          "name": "cardCount",
          "type": "uint256"
        }
      ],
      "stateMutability": "view",
      "type": "function"
    },
    {
      "inputs": [
        {
          "internalType": "string",
          "name": "poolId",
          "type": "string"
        }
      ],
      "name": "getPool",
      "outputs": [
        {
          "internalType": "address",
          "name": "safe",
          "type": "address"
        },
        {
          "internalType": "uint256",
          "name": "createdAt",
          "type": "uint256"
        }
      ],
      "stateMutability": "view",
      "type": "function"
    },
    {
      "inputs": [
        {
          "internalType": "string",
          "name": "poolId",
          "type": "string"
        }
      ],
      "name": "getPoolBatches",
      "outputs": [
        {
          "internalType": "address[]",
          "name": "",
          "type": "address[]"
        }
      ],
      "stateMutability": "view",
      "type": "function"
    },
    {
      "inputs": [
        {
          "internalType": "string",
          "name": "poolId",
          "type": "string"
        }
      ],
      "name": "getPoolSurveys",
      "outputs": [
        {
          "internalType": "string[]",
          "name": "",
          "type": "string[]"
        }
      ],
      "stateMutability": "view",
      "type": "function"
    },
    {
      "inputs": [
        {
          "internalType": "address",
          "name": "safe",
          "type": "address"
        }
      ],
      "name": "getSafePools",
      "outputs": [
        {
          "internalType": "string[]",
          "name": "",
          "type": "string[]"
        }
      ],
      "stateMutability": "view",
      "type": "function"
    },
    {
      "inputs": [
        {
          "internalType": "string",
          "name": "surveyId",
          "type": "string"
        }
      ],
      "name": "getSurvey",
      "outputs": [
        {
          "internalType": "string",
          "name": "ipfsCid",
          "type": "string"
        },
        {
          "internalType": "string",
          "name": "poolId",
          "type": "string"
        },
        {
          "internalType": "uint256",
          "name": "createdAt",
          "type": "uint256"
        }
      ],
      "stateMutability": "view",
      "type": "function"
    },
    {
      "inputs": [
        {
          "internalType": "string",
          "name": "nullifier",
          "type": "string"
        },
        {
          "internalType": "address",
          "name": "batchId",
          "type": "address"
        }
      ],
      "name": "isNullifierUsed",
      "outputs": [
        {
          "internalType": "bool",
          "name": "",
          "type": "bool"
        }
      ],
      "stateMutability": "view",
      "type": "function"
    },
    {
      "inputs": [
        {
          "internalType": "string",
          "name": "poolId",
          "type": "string"
        },
        {
          "internalType": "address",
          "name": "member",
          "type": "address"
        }
      ],
      "name": "isPoolMember",
      "outputs": [
        {
          "internalType": "bool",
          "name": "",
          "type": "bool"
        }
      ],
      "stateMutability": "view",
      "type": "function"
    },
    {
      "inputs": [
        {
          "internalType": "address",
          "name": "addr",
          "type": "address"
        },
        {
          "internalType": "string",
          "name": "poolId",
          "type": "string"
        }
      ],
      "name": "isPoolSafe",
      "outputs": [
        {
          "internalType": "bool",
          "name": "",
          "type": "bool"
        }
      ],
      "stateMutability": "view",
      "type": "function"
    },
    {
      "inputs": [
        {
          "internalType": "string",
          "name": "poolId",
          "type": "string"
        }
      ],
      "name": "poolExists",
      "outputs": [
        {
          "internalType": "bool",
          "name": "",
          "type": "bool"
        }
      ],
      "stateMutability": "view",
      "type": "function"
    },
    {
      "inputs": [
        {
          "internalType": "string",
          "name": "poolId",
          "type": "string"
        },
        {
          "internalType": "address",
          "name": "batchId",
          "type": "address"
        }
      ],
      "name": "registerBatch",
      "outputs": [],
      "stateMutability": "nonpayable",
      "type": "function"
    },
    {
      "inputs": [
        {
          "internalType": "string",
          "name": "poolId",
          "type": "string"
        },
        {
          "internalType": "string",
          "name": "nullifier",
          "type": "string"
        },
        {
          "internalType": "address",
          "name": "batchId",
          "type": "address"
        },
        {
          "internalType": "bytes",
          "name": "signature",
          "type": "bytes"
        }
      ],
      "name": "registerInPool",
      "outputs": [],
      "stateMutability": "nonpayable",
      "type": "function"
    },
    {
      "inputs": [
        {
          "internalType": "string",
          "name": "surveyId",
          "type": "string"
        }
      ],
      "name": "surveyExists",
      "outputs": [
        {
          "internalType": "bool",
          "name": "",
          "type": "bool"
        }
      ],
      "stateMutability": "view",
      "type": "function"
    },
    {
      "inputs": [
        {
          "internalType": "string",
          "name": "surveyId",
          "type": "string"
        },
        {
          "internalType": "string",
          "name": "newIpfsCid",
          "type": "string"
        }
      ],
      "name": "updateSurvey",
      "outputs": [],
      "stateMutability": "nonpayable",
      "type": "function"
    },
    {
      "inputs": [
        {
          "internalType": "bytes32",
          "name": "",
          "type": "bytes32"
        }
      ],
      "name": "usedNullifiers",
      "outputs": [
        {
          "internalType": "bool",
          "name": "",
          "type": "bool"
        }
      ],
      "stateMutability": "view",
      "type": "function"
    }
  ],
  "contractName": "S3ntimentSurveyStore",
  "sourceName": "src/S3ntimentSurveyStore/S3ntimentSurveyStore.sol",
  "bytecode": "0x6080604052348015600e575f5ffd5b506120b58061001c5f395ff3fe608060405234801561000f575f5ffd5b50600436106100fb575f3560e01c80637d728a2d11610093578063dee800cf11610063578063dee800cf14610273578063e41b366914610286578063f4060dd114610299578063f851f98b146102ac575f5ffd5b80637d728a2d1461020b57806384caeed61461021e5780638e9dec5d1461023e578063c6576e4714610251575f5ffd5b806347df9bf1116100ce57806347df9bf1146101a85780634a2ec84b146101bb5780635483b3e1146101d057806376caf859146101f8575f5ffd5b8063206137aa146100ff578063314f424e1461013657806341d7b0261461015657806342abbabd14610195575b5f5ffd5b61012161010d366004611724565b60066020525f908152604090205460ff1681565b60405190151581526020015b60405180910390f35b610149610144366004611853565b6102bf565b60405161012d919061188d565b610169610164366004611853565b610344565b6040805173ffffffffffffffffffffffffffffffffffffffff909316835260208301919091520161012d565b6101216101a3366004611853565b6103de565b6101216101b6366004611853565b61040a565b6101ce6101c9366004611909565b61045f565b005b6101e36101de366004611a3c565b6107c0565b6040805192835260208301919091520161012d565b6101ce610206366004611a8b565b61086a565b610121610219366004611b3f565b610c95565b61023161022c366004611b8c565b610cec565b60405161012d9190611bf3565b61023161024c366004611853565b610de3565b61026461025f366004611853565b610eca565b60405161012d93929190611c74565b610121610281366004611a3c565b611079565b6101ce610294366004611a3c565b6110db565b6101ce6102a7366004611ca9565b6111ef565b6101216102ba366004611a3c565b6112e4565b60606005826040516102d19190611d0f565b908152604080519182900360209081018320805480830285018301909352828452919083018282801561033857602002820191905f5260205f20905b815473ffffffffffffffffffffffffffffffffffffffff16815260019091019060200180831161030d575b50505050509050919050565b5f5f5f5f846040516103569190611d0f565b908152604080519182900360209081018320838301909252815473ffffffffffffffffffffffffffffffffffffffff16808452600190920154908301529091506103cc576040517f76ecffc000000000000000000000000000000000000000000000000000000000815260040160405180910390fd5b80516020909101519094909350915050565b5f6002826040516103ef9190611d0f565b90815260405190819003602001902060020154151592915050565b5f5f73ffffffffffffffffffffffffffffffffffffffff165f836040516104319190611d0f565b9081526040519081900360200190205473ffffffffffffffffffffffffffffffffffffffff16141592915050565b5f8451116104ce576040517f08c379a000000000000000000000000000000000000000000000000000000000815260206004820152601960248201527f5375727665792049442063616e6e6f7420626520656d7074790000000000000060448201526064015b60405180910390fd5b5f835111610538576040517f08c379a000000000000000000000000000000000000000000000000000000000815260206004820152601760248201527f506f6f6c2049442063616e6e6f7420626520656d70747900000000000000000060448201526064016104c5565b5f8251116105a2576040517f08c379a000000000000000000000000000000000000000000000000000000000815260206004820152601860248201527f49504653204349442063616e6e6f7420626520656d707479000000000000000060448201526064016104c5565b6002846040516105b29190611d0f565b9081526020016040518091039020600201545f146105fc576040517f2dbb439c00000000000000000000000000000000000000000000000000000000815260040160405180910390fd5b5f73ffffffffffffffffffffffffffffffffffffffff165f846040516106229190611d0f565b9081526040519081900360200190205473ffffffffffffffffffffffffffffffffffffffff1603610693576106578333611333565b5f5b815181101561068d576106858483838151811061067857610678611d1a565b60200260200101516113f0565b600101610659565b50610716565b3373ffffffffffffffffffffffffffffffffffffffff165f846040516106b99190611d0f565b9081526040519081900360200190205473ffffffffffffffffffffffffffffffffffffffff1614610716576040517ffd9e527900000000000000000000000000000000000000000000000000000000815260040160405180910390fd5b6040518060600160405280838152602001848152602001428152506002856040516107419190611d0f565b9081526040519081900360200190208151819061075e9082611ddc565b50602082015160018201906107739082611ddc565b506040918201516002909101555160039061078f908590611d0f565b9081526040516020918190038201902080546001810182555f918252919020016107b98582611ddc565b5050505050565b5f5f5f6004856040516107d39190611d0f565b908152604080516020928190038301812073ffffffffffffffffffffffffffffffffffffffff88165f90815290845282812082840190935282548083526001909301549382019390935292509003610857576040517f9e15e1bc00000000000000000000000000000000000000000000000000000000815260040160405180910390fd5b8051602090910151909590945092505050565b5f73ffffffffffffffffffffffffffffffffffffffff165f856040516108909190611d0f565b9081526040519081900360200190205473ffffffffffffffffffffffffffffffffffffffff16036108ed576040517f76ecffc000000000000000000000000000000000000000000000000000000000815260040160405180910390fd5b6004846040516108fd9190611d0f565b908152604080516020928190038301902073ffffffffffffffffffffffffffffffffffffffff85165f90815292528120549003610966576040517f9e15e1bc00000000000000000000000000000000000000000000000000000000815260040160405180910390fd5b5f838360405160200161097a929190611ef3565b6040516020818303038152906040528051906020012090505f816040516020016109d091907f19457468657265756d205369676e6564204d6573736167653a0a3332000000008152601c810191909152603c0190565b6040516020818303038152906040528051906020012090505f6109f38285611592565b90508473ffffffffffffffffffffffffffffffffffffffff168173ffffffffffffffffffffffffffffffffffffffff1614610a5a576040517f8baa579f00000000000000000000000000000000000000000000000000000000815260040160405180910390fd5b5f8381526006602052604090205460ff1615610aa2576040517fcad2ae0200000000000000000000000000000000000000000000000000000000815260040160405180910390fd5b5f838152600660205260409081902080547fffffffffffffffffffffffffffffffffffffffffffffffffffffffffffffff0016600117905551600490610ae9908990611d0f565b908152604080516020928190038301902073ffffffffffffffffffffffffffffffffffffffff88165f90815292528120600101805491610b2883611f85565b91905055505f3373ffffffffffffffffffffffffffffffffffffffff16638da5cb5b6040518163ffffffff1660e01b8152600401602060405180830381865afa158015610b77573d5f5f3e3d5ffd5b505050506040513d601f19601f82011682018060405250810190610b9b9190611fbc565b9050600788604051610bad9190611d0f565b908152604080516020928190038301902073ffffffffffffffffffffffffffffffffffffffff84165f908152925290205460ff1615610c18576040517fab347ce700000000000000000000000000000000000000000000000000000000815260040160405180910390fd5b6001600789604051610c2a9190611d0f565b908152604080516020928190038301902073ffffffffffffffffffffffffffffffffffffffff949094165f9081529390915290912080547fffffffffffffffffffffffffffffffffffffffffffffffffffffffffffffff001691151591909117905550505050505050565b5f8273ffffffffffffffffffffffffffffffffffffffff165f83604051610cbc9190611d0f565b9081526040519081900360200190205473ffffffffffffffffffffffffffffffffffffffff161490505b92915050565b73ffffffffffffffffffffffffffffffffffffffff81165f908152600160209081526040808320805482518185028101850190935280835260609492939192909184015b82821015610dd8578382905f5260205f20018054610d4d90611d47565b80601f0160208091040260200160405190810160405280929190818152602001828054610d7990611d47565b8015610dc45780601f10610d9b57610100808354040283529160200191610dc4565b820191905f5260205f20905b815481529060010190602001808311610da757829003601f168201915b505050505081526020019060010190610d30565b505050509050919050565b6060600382604051610df59190611d0f565b9081526020016040518091039020805480602002602001604051908101604052809291908181526020015f905b82821015610dd8578382905f5260205f20018054610e3f90611d47565b80601f0160208091040260200160405190810160405280929190818152602001828054610e6b90611d47565b8015610eb65780601f10610e8d57610100808354040283529160200191610eb6565b820191905f5260205f20905b815481529060010190602001808311610e9957829003601f168201915b505050505081526020019060010190610e22565b6060805f5f600285604051610edf9190611d0f565b90815260200160405180910390206040518060600160405290815f82018054610f0790611d47565b80601f0160208091040260200160405190810160405280929190818152602001828054610f3390611d47565b8015610f7e5780601f10610f5557610100808354040283529160200191610f7e565b820191905f5260205f20905b815481529060010190602001808311610f6157829003601f168201915b50505050508152602001600182018054610f9790611d47565b80601f0160208091040260200160405190810160405280929190818152602001828054610fc390611d47565b801561100e5780601f10610fe55761010080835404028352916020019161100e565b820191905f5260205f20905b815481529060010190602001808311610ff157829003601f168201915b50505050508152602001600282015481525050905080604001515f03611060576040517f7e3336d900000000000000000000000000000000000000000000000000000000815260040160405180910390fd5b8051602082015160409092015190969195509350915050565b5f5f838360405160200161108e929190611ef3565b604080518083037fffffffffffffffffffffffffffffffffffffffffffffffffffffffffffffffe001815291815281516020928301205f908152600690925290205460ff16949350505050565b5f73ffffffffffffffffffffffffffffffffffffffff165f836040516111019190611d0f565b9081526040519081900360200190205473ffffffffffffffffffffffffffffffffffffffff160361115e576040517f76ecffc000000000000000000000000000000000000000000000000000000000815260040160405180910390fd5b3373ffffffffffffffffffffffffffffffffffffffff165f836040516111849190611d0f565b9081526040519081900360200190205473ffffffffffffffffffffffffffffffffffffffff16146111e1576040517ffd9e527900000000000000000000000000000000000000000000000000000000815260040160405180910390fd5b6111eb82826113f0565b5050565b5f6002836040516112009190611d0f565b9081526020016040518091039020905080600201545f0361124d576040517f7e3336d900000000000000000000000000000000000000000000000000000000815260040160405180910390fd5b3373ffffffffffffffffffffffffffffffffffffffff165f826001016040516112769190611fd7565b9081526040519081900360200190205473ffffffffffffffffffffffffffffffffffffffff16146112d3576040517ffd9e527900000000000000000000000000000000000000000000000000000000815260040160405180910390fd5b806112de8382611ddc565b50505050565b5f6007836040516112f59190611d0f565b9081526040805191829003602090810190922073ffffffffffffffffffffffffffffffffffffffff85165f908152925290205460ff16905092915050565b60405180604001604052808273ffffffffffffffffffffffffffffffffffffffff168152602001428152505f8360405161136d9190611d0f565b9081526040805160209281900383019020835181547fffffffffffffffffffffffff00000000000000000000000000000000000000001673ffffffffffffffffffffffffffffffffffffffff918216178255938301516001918201559284165f90815283835290812080549384018155815220016113eb8382611ddc565b505050565b73ffffffffffffffffffffffffffffffffffffffff811661143d576040517f3b98df6500000000000000000000000000000000000000000000000000000000815260040160405180910390fd5b60048260405161144d9190611d0f565b908152604080516020928190038301902073ffffffffffffffffffffffffffffffffffffffff84165f9081529252902054156114b5576040517f7d4c96a800000000000000000000000000000000000000000000000000000000815260040160405180910390fd5b60405180604001604052804281526020015f8152506004836040516114da9190611d0f565b90815260408051918290036020908101832073ffffffffffffffffffffffffffffffffffffffff86165f908152908252919091208351815592015160019092019190915560059061152c908490611d0f565b9081526040516020918190038201902080546001810182555f9182529190200180547fffffffffffffffffffffffff00000000000000000000000000000000000000001673ffffffffffffffffffffffffffffffffffffffff9290921691909117905550565b5f81516041146115fe576040517f08c379a000000000000000000000000000000000000000000000000000000000815260206004820152601860248201527f496e76616c6964207369676e6174757265206c656e677468000000000000000060448201526064016104c5565b6020820151604083015160608401515f1a601b81101561162657611623601b82612066565b90505b8060ff16601b148061163b57508060ff16601c145b6116a1576040517f08c379a000000000000000000000000000000000000000000000000000000000815260206004820181905260248201527f496e76616c6964207369676e6174757265207265636f766572792076616c756560448201526064016104c5565b604080515f81526020810180835288905260ff831691810191909152606081018490526080810183905260019060a0016020604051602081039080840390855afa1580156116f1573d5f5f3e3d5ffd5b50506040517fffffffffffffffffffffffffffffffffffffffffffffffffffffffffffffffe00151979650505050505050565b5f60208284031215611734575f5ffd5b5035919050565b7f4e487b71000000000000000000000000000000000000000000000000000000005f52604160045260245ffd5b604051601f82017fffffffffffffffffffffffffffffffffffffffffffffffffffffffffffffffe016810167ffffffffffffffff811182821017156117af576117af61173b565b604052919050565b5f5f67ffffffffffffffff8411156117d1576117d161173b565b50601f83017fffffffffffffffffffffffffffffffffffffffffffffffffffffffffffffffe01660200161180481611768565b915050828152838383011115611818575f5ffd5b828260208301375f602084830101529392505050565b5f82601f83011261183d575f5ffd5b61184c838335602085016117b7565b9392505050565b5f60208284031215611863575f5ffd5b813567ffffffffffffffff811115611879575f5ffd5b6118858482850161182e565b949350505050565b602080825282518282018190525f918401906040840190835b818110156118da57835173ffffffffffffffffffffffffffffffffffffffff168352602093840193909201916001016118a6565b509095945050505050565b73ffffffffffffffffffffffffffffffffffffffff81168114611906575f5ffd5b50565b5f5f5f5f6080858703121561191c575f5ffd5b843567ffffffffffffffff811115611932575f5ffd5b61193e8782880161182e565b945050602085013567ffffffffffffffff81111561195a575f5ffd5b6119668782880161182e565b935050604085013567ffffffffffffffff811115611982575f5ffd5b61198e8782880161182e565b925050606085013567ffffffffffffffff8111156119aa575f5ffd5b8501601f810187136119ba575f5ffd5b803567ffffffffffffffff8111156119d4576119d461173b565b8060051b6119e460208201611768565b9182526020818401810192908101908a8411156119ff575f5ffd5b6020850194505b83851015611a2d5784359250611a1b836118e5565b82825260209485019490910190611a06565b979a9699509497505050505050565b5f5f60408385031215611a4d575f5ffd5b823567ffffffffffffffff811115611a63575f5ffd5b611a6f8582860161182e565b9250506020830135611a80816118e5565b809150509250929050565b5f5f5f5f60808587031215611a9e575f5ffd5b843567ffffffffffffffff811115611ab4575f5ffd5b611ac08782880161182e565b945050602085013567ffffffffffffffff811115611adc575f5ffd5b611ae88782880161182e565b9350506040850135611af9816118e5565b9150606085013567ffffffffffffffff811115611b14575f5ffd5b8501601f81018713611b24575f5ffd5b611b33878235602084016117b7565b91505092959194509250565b5f5f60408385031215611b50575f5ffd5b8235611b5b816118e5565b9150602083013567ffffffffffffffff811115611b76575f5ffd5b611b828582860161182e565b9150509250929050565b5f60208284031215611b9c575f5ffd5b813561184c816118e5565b5f81518084528060208401602086015e5f6020828601015260207fffffffffffffffffffffffffffffffffffffffffffffffffffffffffffffffe0601f83011685010191505092915050565b5f602082016020835280845180835260408501915060408160051b8601019250602086015f5b82811015611c68577fffffffffffffffffffffffffffffffffffffffffffffffffffffffffffffffc0878603018452611c53858351611ba7565b94506020938401939190910190600101611c19565b50929695505050505050565b606081525f611c866060830186611ba7565b8281036020840152611c988186611ba7565b915050826040830152949350505050565b5f5f60408385031215611cba575f5ffd5b823567ffffffffffffffff811115611cd0575f5ffd5b611cdc8582860161182e565b925050602083013567ffffffffffffffff811115611b76575f5ffd5b5f81518060208401855e5f93019283525090919050565b5f61184c8284611cf8565b7f4e487b71000000000000000000000000000000000000000000000000000000005f52603260045260245ffd5b600181811c90821680611d5b57607f821691505b602082108103611d92577f4e487b71000000000000000000000000000000000000000000000000000000005f52602260045260245ffd5b50919050565b601f8211156113eb57805f5260205f20601f840160051c81016020851015611dbd5750805b601f840160051c820191505b818110156107b9575f8155600101611dc9565b815167ffffffffffffffff811115611df657611df661173b565b611e0a81611e048454611d47565b84611d98565b6020601f821160018114611e5b575f8315611e255750848201515b7fffffffffffffffffffffffffffffffffffffffffffffffffffffffffffffffff600385901b1c1916600184901b1784556107b9565b5f848152602081207fffffffffffffffffffffffffffffffffffffffffffffffffffffffffffffffe08516915b82811015611ea85787850151825560209485019460019092019101611e88565b5084821015611ee457868401517fffffffffffffffffffffffffffffffffffffffffffffffffffffffffffffffff600387901b60f8161c191681555b50505050600190811b01905550565b5f611efe8285611cf8565b7f7c00000000000000000000000000000000000000000000000000000000000000815260609390931b7fffffffffffffffffffffffffffffffffffffffff0000000000000000000000001660018401525050601501919050565b7f4e487b71000000000000000000000000000000000000000000000000000000005f52601160045260245ffd5b5f7fffffffffffffffffffffffffffffffffffffffffffffffffffffffffffffffff8203611fb557611fb5611f58565b5060010190565b5f60208284031215611fcc575f5ffd5b815161184c816118e5565b5f5f8354611fe481611d47565b600182168015611ffb576001811461202e5761205b565b7fffffffffffffffffffffffffffffffffffffffffffffffffffffffffffffff008316865281151582028601935061205b565b865f5260205f205f5b8381101561205357815488820152600190910190602001612037565b505081860193505b509195945050505050565b60ff8181168382160190811115610ce657610ce6611f5856fea2646970667358221220eec6e195346b6d5aadef23de042e63eb957ae85f2de280c26292c934cbdf4c1064736f6c634300081c0033",
  "linkReferences": {},
  "deployedLinkReferences": {},
  "immutableReferences": {},
  "inputSourceName": "project/src/S3ntimentSurveyStore/S3ntimentSurveyStore.sol",
  "devdoc": {
    "kind": "dev",
    "methods": {
      "createSurvey(string,string,string,address[])": {
        "details": "Create a survey. If the pool does not exist yet, it is created      implicitly and msg.sender is recorded as the pool's Safe.      Always Safe-executed (msg.sender = Safe address).      New pool (poolId not yet registered):        - Pool is bootstrapped with msg.sender as the owning Safe        - batchIds are registered for the new pool      Existing pool:        - msg.sender must be the pool's Safe        - batchIds are ignored (use registerBatch() for new print runs)",
        "params": {
          "batchIds": "Batch wallet addresses — only used when bootstrapping a new pool",
          "ipfsCid": "IPFS content identifier for survey metadata",
          "poolId": "Pool this survey belongs to (created if new)",
          "surveyId": "Unique identifier, generated client-side"
        }
      },
      "isPoolMember(string,address)": {
        "details": "Check if an address is a registered member of a pool.      Used by Lit Protocol as an access condition.      :userAddress resolves to the pool wallet EOA."
      },
      "registerBatch(string,address)": {
        "details": "Register an additional batch wallet for an existing pool.      Called by the pool's Safe (governance tx).      For initial batches, pass them in createSurvey() when bootstrapping the pool.",
        "params": {
          "batchId": "Ephemeral batch wallet address",
          "poolId": "Pool this batch belongs to"
        }
      },
      "registerInPool(string,string,address,bytes)": {
        "details": "Validate a card and register the pool wallet EOA as a pool member.      Called by the respondent's SMC (gas abstraction layer).      Identity resolved via ISMC(msg.sender).owner() → pool wallet EOA.",
        "params": {
          "batchId": "Batch wallet address this card belongs to",
          "nullifier": "Unique card identifier from QR code",
          "poolId": "Pool to join",
          "signature": "Signature of (nullifier | batchId) by the batch wallet"
        }
      },
      "updateSurvey(string,string)": {
        "details": "Update survey IPFS CID. Must be Safe-executed by the pool's Safe."
      }
    },
    "version": 1
  },
  "evm": {
    "gasEstimates": {
      "creation": {
        "codeDepositCost": "1674600",
        "executionCost": "1755",
        "totalCost": "1676355"
      },
      "external": {
        "createSurvey(string,string,string,address[])": "infinite",
        "getBatch(string,address)": "infinite",
        "getPool(string)": "infinite",
        "getPoolBatches(string)": "infinite",
        "getPoolSurveys(string)": "infinite",
        "getSafePools(address)": "infinite",
        "getSurvey(string)": "infinite",
        "isNullifierUsed(string,address)": "infinite",
        "isPoolMember(string,address)": "infinite",
        "isPoolSafe(address,string)": "infinite",
        "poolExists(string)": "infinite",
        "registerBatch(string,address)": "infinite",
        "registerInPool(string,string,address,bytes)": "infinite",
        "surveyExists(string)": "infinite",
        "updateSurvey(string,string)": "infinite",
        "usedNullifiers(bytes32)": "2460"
      },
      "internal": {
        "_createPool(string memory,address)": "infinite",
        "_recoverSigner(bytes32,bytes memory)": "infinite",
        "_registerBatch(string memory,address)": "infinite"
      }
    }
  },
  "storageLayout": {
    "storage": [
      {
        "astId": 30,
        "contract": "project/src/S3ntimentSurveyStore/S3ntimentSurveyStore.sol:S3ntimentSurveyStore",
        "label": "pools",
        "offset": 0,
        "slot": "0",
        "type": "t_mapping(t_string_memory_ptr,t_struct(Pool)13_storage)"
      },
      {
        "astId": 35,
        "contract": "project/src/S3ntimentSurveyStore/S3ntimentSurveyStore.sol:S3ntimentSurveyStore",
        "label": "safePools",
        "offset": 0,
        "slot": "1",
        "type": "t_mapping(t_address,t_array(t_string_storage)dyn_storage)"
      },
      {
        "astId": 40,
        "contract": "project/src/S3ntimentSurveyStore/S3ntimentSurveyStore.sol:S3ntimentSurveyStore",
        "label": "surveys",
        "offset": 0,
        "slot": "2",
        "type": "t_mapping(t_string_memory_ptr,t_struct(Survey)20_storage)"
      },
      {
        "astId": 45,
        "contract": "project/src/S3ntimentSurveyStore/S3ntimentSurveyStore.sol:S3ntimentSurveyStore",
        "label": "poolSurveys",
        "offset": 0,
        "slot": "3",
        "type": "t_mapping(t_string_memory_ptr,t_array(t_string_storage)dyn_storage)"
      },
      {
        "astId": 52,
        "contract": "project/src/S3ntimentSurveyStore/S3ntimentSurveyStore.sol:S3ntimentSurveyStore",
        "label": "batches",
        "offset": 0,
        "slot": "4",
        "type": "t_mapping(t_string_memory_ptr,t_mapping(t_address,t_struct(Batch)25_storage))"
      },
      {
        "astId": 57,
        "contract": "project/src/S3ntimentSurveyStore/S3ntimentSurveyStore.sol:S3ntimentSurveyStore",
        "label": "poolBatchIds",
        "offset": 0,
        "slot": "5",
        "type": "t_mapping(t_string_memory_ptr,t_array(t_address)dyn_storage)"
      },
      {
        "astId": 61,
        "contract": "project/src/S3ntimentSurveyStore/S3ntimentSurveyStore.sol:S3ntimentSurveyStore",
        "label": "usedNullifiers",
        "offset": 0,
        "slot": "6",
        "type": "t_mapping(t_bytes32,t_bool)"
      },
      {
        "astId": 67,
        "contract": "project/src/S3ntimentSurveyStore/S3ntimentSurveyStore.sol:S3ntimentSurveyStore",
        "label": "poolMembers",
        "offset": 0,
        "slot": "7",
        "type": "t_mapping(t_string_memory_ptr,t_mapping(t_address,t_bool))"
      }
    ],
    "types": {
      "t_address": {
        "encoding": "inplace",
        "label": "address",
        "numberOfBytes": "20"
      },
      "t_array(t_address)dyn_storage": {
        "base": "t_address",
        "encoding": "dynamic_array",
        "label": "address[]",
        "numberOfBytes": "32"
      },
      "t_array(t_string_storage)dyn_storage": {
        "base": "t_string_storage",
        "encoding": "dynamic_array",
        "label": "string[]",
        "numberOfBytes": "32"
      },
      "t_bool": {
        "encoding": "inplace",
        "label": "bool",
        "numberOfBytes": "1"
      },
      "t_bytes32": {
        "encoding": "inplace",
        "label": "bytes32",
        "numberOfBytes": "32"
      },
      "t_mapping(t_address,t_array(t_string_storage)dyn_storage)": {
        "encoding": "mapping",
        "key": "t_address",
        "label": "mapping(address => string[])",
        "numberOfBytes": "32",
        "value": "t_array(t_string_storage)dyn_storage"
      },
      "t_mapping(t_address,t_bool)": {
        "encoding": "mapping",
        "key": "t_address",
        "label": "mapping(address => bool)",
        "numberOfBytes": "32",
        "value": "t_bool"
      },
      "t_mapping(t_address,t_struct(Batch)25_storage)": {
        "encoding": "mapping",
        "key": "t_address",
        "label": "mapping(address => struct S3ntimentSurveyStore.Batch)",
        "numberOfBytes": "32",
        "value": "t_struct(Batch)25_storage"
      },
      "t_mapping(t_bytes32,t_bool)": {
        "encoding": "mapping",
        "key": "t_bytes32",
        "label": "mapping(bytes32 => bool)",
        "numberOfBytes": "32",
        "value": "t_bool"
      },
      "t_mapping(t_string_memory_ptr,t_array(t_address)dyn_storage)": {
        "encoding": "mapping",
        "key": "t_string_memory_ptr",
        "label": "mapping(string => address[])",
        "numberOfBytes": "32",
        "value": "t_array(t_address)dyn_storage"
      },
      "t_mapping(t_string_memory_ptr,t_array(t_string_storage)dyn_storage)": {
        "encoding": "mapping",
        "key": "t_string_memory_ptr",
        "label": "mapping(string => string[])",
        "numberOfBytes": "32",
        "value": "t_array(t_string_storage)dyn_storage"
      },
      "t_mapping(t_string_memory_ptr,t_mapping(t_address,t_bool))": {
        "encoding": "mapping",
        "key": "t_string_memory_ptr",
        "label": "mapping(string => mapping(address => bool))",
        "numberOfBytes": "32",
        "value": "t_mapping(t_address,t_bool)"
      },
      "t_mapping(t_string_memory_ptr,t_mapping(t_address,t_struct(Batch)25_storage))": {
        "encoding": "mapping",
        "key": "t_string_memory_ptr",
        "label": "mapping(string => mapping(address => struct S3ntimentSurveyStore.Batch))",
        "numberOfBytes": "32",
        "value": "t_mapping(t_address,t_struct(Batch)25_storage)"
      },
      "t_mapping(t_string_memory_ptr,t_struct(Pool)13_storage)": {
        "encoding": "mapping",
        "key": "t_string_memory_ptr",
        "label": "mapping(string => struct S3ntimentSurveyStore.Pool)",
        "numberOfBytes": "32",
        "value": "t_struct(Pool)13_storage"
      },
      "t_mapping(t_string_memory_ptr,t_struct(Survey)20_storage)": {
        "encoding": "mapping",
        "key": "t_string_memory_ptr",
        "label": "mapping(string => struct S3ntimentSurveyStore.Survey)",
        "numberOfBytes": "32",
        "value": "t_struct(Survey)20_storage"
      },
      "t_string_memory_ptr": {
        "encoding": "bytes",
        "label": "string",
        "numberOfBytes": "32"
      },
      "t_string_storage": {
        "encoding": "bytes",
        "label": "string",
        "numberOfBytes": "32"
      },
      "t_struct(Batch)25_storage": {
        "encoding": "inplace",
        "label": "struct S3ntimentSurveyStore.Batch",
        "members": [
          {
            "astId": 22,
            "contract": "project/src/S3ntimentSurveyStore/S3ntimentSurveyStore.sol:S3ntimentSurveyStore",
            "label": "createdAt",
            "offset": 0,
            "slot": "0",
            "type": "t_uint256"
          },
          {
            "astId": 24,
            "contract": "project/src/S3ntimentSurveyStore/S3ntimentSurveyStore.sol:S3ntimentSurveyStore",
            "label": "cardCount",
            "offset": 0,
            "slot": "1",
            "type": "t_uint256"
          }
        ],
        "numberOfBytes": "64"
      },
      "t_struct(Pool)13_storage": {
        "encoding": "inplace",
        "label": "struct S3ntimentSurveyStore.Pool",
        "members": [
          {
            "astId": 10,
            "contract": "project/src/S3ntimentSurveyStore/S3ntimentSurveyStore.sol:S3ntimentSurveyStore",
            "label": "safe",
            "offset": 0,
            "slot": "0",
            "type": "t_address"
          },
          {
            "astId": 12,
            "contract": "project/src/S3ntimentSurveyStore/S3ntimentSurveyStore.sol:S3ntimentSurveyStore",
            "label": "createdAt",
            "offset": 0,
            "slot": "1",
            "type": "t_uint256"
          }
        ],
        "numberOfBytes": "64"
      },
      "t_struct(Survey)20_storage": {
        "encoding": "inplace",
        "label": "struct S3ntimentSurveyStore.Survey",
        "members": [
          {
            "astId": 15,
            "contract": "project/src/S3ntimentSurveyStore/S3ntimentSurveyStore.sol:S3ntimentSurveyStore",
            "label": "ipfsCid",
            "offset": 0,
            "slot": "0",
            "type": "t_string_storage"
          },
          {
            "astId": 17,
            "contract": "project/src/S3ntimentSurveyStore/S3ntimentSurveyStore.sol:S3ntimentSurveyStore",
            "label": "poolId",
            "offset": 0,
            "slot": "1",
            "type": "t_string_storage"
          },
          {
            "astId": 19,
            "contract": "project/src/S3ntimentSurveyStore/S3ntimentSurveyStore.sol:S3ntimentSurveyStore",
            "label": "createdAt",
            "offset": 0,
            "slot": "2",
            "type": "t_uint256"
          }
        ],
        "numberOfBytes": "96"
      },
      "t_uint256": {
        "encoding": "inplace",
        "label": "uint256",
        "numberOfBytes": "32"
      }
    }
  },
  "userdoc": {
    "kind": "user",
    "methods": {},
    "version": 1
  },
  "argsData": "0x",
  "transaction": {
    "hash": "0x94d1f8f0c476ffe8f2e7ac6dca3b5e9c67e920062cfb8949d7edbc2cc36211ca",
    "nonce": "0x23",
    "origin": "0xb6ca51ca72c689b720235aca37e579f821fa05ee"
  }
}