{
  "address": "0x29fc8f8e2efcaafa85c49c9584c05f7e0c3f73bd",
  "abi": [
    {
      "inputs": [],
      "name": "AlreadyParticipant",
      "type": "error"
    },
    {
      "inputs": [],
      "name": "BatchAlreadyRegistered",
      "type": "error"
    },
    {
      "inputs": [],
      "name": "BatchNotFound",
      "type": "error"
    },
    {
      "inputs": [],
      "name": "InvalidBatchId",
      "type": "error"
    },
    {
      "inputs": [],
      "name": "InvalidSignature",
      "type": "error"
    },
    {
      "inputs": [],
      "name": "NotSurveyOwner",
      "type": "error"
    },
    {
      "inputs": [],
      "name": "NullifierAlreadyUsed",
      "type": "error"
    },
    {
      "inputs": [],
      "name": "SignerNotBatchWallet",
      "type": "error"
    },
    {
      "inputs": [],
      "name": "SurveyAlreadyExists",
      "type": "error"
    },
    {
      "inputs": [],
      "name": "SurveyNotFound",
      "type": "error"
    },
    {
      "inputs": [
        {
          "internalType": "string",
          "name": "surveyId",
          "type": "string"
        },
        {
          "internalType": "string",
          "name": "ipfsCid",
          "type": "string"
        },
        {
          "internalType": "address[]",
          "name": "batchIds",
          "type": "address[]"
        }
      ],
      "name": "createSurvey",
      "outputs": [],
      "stateMutability": "nonpayable",
      "type": "function"
    },
    {
      "inputs": [
        {
          "internalType": "string",
          "name": "surveyId",
          "type": "string"
        },
        {
          "internalType": "address",
          "name": "batchId",
          "type": "address"
        }
      ],
      "name": "getBatch",
      "outputs": [
        {
          "internalType": "uint256",
          "name": "createdAt",
          "type": "uint256"
        },
        {
          "internalType": "uint256",
          "name": "cardCount",
          "type": "uint256"
        }
      ],
      "stateMutability": "view",
      "type": "function"
    },
    {
      "inputs": [
        {
          "internalType": "string",
          "name": "surveyId",
          "type": "string"
        },
        {
          "internalType": "address",
          "name": "batchId",
          "type": "address"
        }
      ],
      "name": "getBatchCardCount",
      "outputs": [
        {
          "internalType": "uint256",
          "name": "",
          "type": "uint256"
        }
      ],
      "stateMutability": "view",
      "type": "function"
    },
    {
      "inputs": [
        {
          "internalType": "address",
          "name": "owner",
          "type": "address"
        }
      ],
      "name": "getOwnerSurveyCount",
      "outputs": [
        {
          "internalType": "uint256",
          "name": "",
          "type": "uint256"
        }
      ],
      "stateMutability": "view",
      "type": "function"
    },
    {
      "inputs": [
        {
          "internalType": "address",
          "name": "owner",
          "type": "address"
        }
      ],
      "name": "getOwnerSurveys",
      "outputs": [
        {
          "internalType": "string[]",
          "name": "",
          "type": "string[]"
        }
      ],
      "stateMutability": "view",
      "type": "function"
    },
    {
      "inputs": [
        {
          "internalType": "string",
          "name": "surveyId",
          "type": "string"
        }
      ],
      "name": "getSurvey",
      "outputs": [
        {
          "internalType": "string",
          "name": "ipfsCid",
          "type": "string"
        },
        {
          "internalType": "address",
          "name": "owner",
          "type": "address"
        },
        {
          "internalType": "uint256",
          "name": "createdAt",
          "type": "uint256"
        }
      ],
      "stateMutability": "view",
      "type": "function"
    },
    {
      "inputs": [
        {
          "internalType": "string",
          "name": "surveyId",
          "type": "string"
        }
      ],
      "name": "getSurveyBatches",
      "outputs": [
        {
          "internalType": "address[]",
          "name": "",
          "type": "address[]"
        }
      ],
      "stateMutability": "view",
      "type": "function"
    },
    {
      "inputs": [
        {
          "internalType": "bytes32",
          "name": "nullifier",
          "type": "bytes32"
        }
      ],
      "name": "isNullifierUsed",
      "outputs": [
        {
          "internalType": "bool",
          "name": "",
          "type": "bool"
        }
      ],
      "stateMutability": "view",
      "type": "function"
    },
    {
      "inputs": [
        {
          "internalType": "address",
          "name": "authSigAddress",
          "type": "address"
        },
        {
          "internalType": "string",
          "name": "surveyId",
          "type": "string"
        }
      ],
      "name": "isOwner",
      "outputs": [
        {
          "internalType": "bool",
          "name": "",
          "type": "bool"
        }
      ],
      "stateMutability": "view",
      "type": "function"
    },
    {
      "inputs": [
        {
          "internalType": "string",
          "name": "surveyId",
          "type": "string"
        },
        {
          "internalType": "address",
          "name": "participant",
          "type": "address"
        }
      ],
      "name": "isParticipant",
      "outputs": [
        {
          "internalType": "bool",
          "name": "",
          "type": "bool"
        }
      ],
      "stateMutability": "view",
      "type": "function"
    },
    {
      "inputs": [
        {
          "internalType": "string",
          "name": "surveyId",
          "type": "string"
        },
        {
          "internalType": "address",
          "name": "batchId",
          "type": "address"
        }
      ],
      "name": "registerBatch",
      "outputs": [],
      "stateMutability": "nonpayable",
      "type": "function"
    },
    {
      "inputs": [
        {
          "internalType": "string",
          "name": "surveyId",
          "type": "string"
        }
      ],
      "name": "surveyExists",
      "outputs": [
        {
          "internalType": "bool",
          "name": "",
          "type": "bool"
        }
      ],
      "stateMutability": "view",
      "type": "function"
    },
    {
      "inputs": [
        {
          "internalType": "string",
          "name": "surveyId",
          "type": "string"
        },
        {
          "internalType": "string",
          "name": "newIpfsCid",
          "type": "string"
        }
      ],
      "name": "updateSurvey",
      "outputs": [],
      "stateMutability": "nonpayable",
      "type": "function"
    },
    {
      "inputs": [
        {
          "internalType": "bytes32",
          "name": "",
          "type": "bytes32"
        }
      ],
      "name": "usedNullifiers",
      "outputs": [
        {
          "internalType": "bool",
          "name": "",
          "type": "bool"
        }
      ],
      "stateMutability": "view",
      "type": "function"
    },
    {
      "inputs": [
        {
          "internalType": "string",
          "name": "surveyId",
          "type": "string"
        },
        {
          "internalType": "bytes32",
          "name": "nullifier",
          "type": "bytes32"
        },
        {
          "internalType": "address",
          "name": "batchId",
          "type": "address"
        },
        {
          "internalType": "bytes",
          "name": "signature",
          "type": "bytes"
        }
      ],
      "name": "validateCard",
      "outputs": [],
      "stateMutability": "nonpayable",
      "type": "function"
    }
  ],
  "contractName": "S3ntimentSurveyStore",
  "sourceName": "src/SurveyStore/SurveyStore.sol",
  "bytecode": "0x6080604052348015600e575f5ffd5b5061190d8061001c5f395ff3fe608060405234801561000f575f5ffd5b50600436106100f0575f3560e01c8063ac4da5a711610093578063ddd1171711610063578063ddd1171714610266578063e41b36691461027b578063ed36d37e1461028e578063f4060dd1146102a1575f5ffd5b8063ac4da5a7146101dc578063c5b88066146101fc578063c6576e4714610231578063cd37996414610253575f5ffd5b80633cfebb6e116100ce5780633cfebb6e1461016e57806342abbabd1461018e5780634756331e146101a15780635483b3e1146101b4575f5ffd5b8063174a84a8146100f4578063206137aa1461011a57806322dc7b4c1461014c575b5f5ffd5b61010761010236600461125e565b6102b4565b6040519081526020015b60405180910390f35b61013c6101283660046112a9565b60046020525f908152604090205460ff1681565b6040519015158152602001610111565b61013c61015a3660046112a9565b5f9081526004602052604090205460ff1690565b61018161017c3660046112c0565b610302565b6040516101119190611325565b61013c61019c3660046113a6565b6103f9565b61013c6101af36600461125e565b610451565b6101c76101c236600461125e565b6104a0565b60408051928352602083019190915201610111565b6101ef6101ea3660046113a6565b61054a565b60405161011191906113e0565b61010761020a3660046112c0565b73ffffffffffffffffffffffffffffffffffffffff165f9081526001602052604090205490565b61024461023f3660046113a6565b6105cf565b60405161011193929190611438565b61013c610261366004611472565b610716565b6102796102743660046114bd565b61076f565b005b61027961028936600461125e565b6109cf565b61027961029c3660046115c2565b610a63565b6102796102af366004611653565b610d6a565b5f6002836040516102c591906116a2565b908152604080516020928190038301902073ffffffffffffffffffffffffffffffffffffffff85165f908152925290206001015490505b92915050565b73ffffffffffffffffffffffffffffffffffffffff81165f908152600160209081526040808320805482518185028101850190935280835260609492939192909184015b828210156103ee578382905f5260205f20018054610363906116b8565b80601f016020809104026020016040519081016040528092919081815260200182805461038f906116b8565b80156103da5780601f106103b1576101008083540402835291602001916103da565b820191905f5260205f20905b8154815290600101906020018083116103bd57829003601f168201915b505050505081526020019060010190610346565b505050509050919050565b5f5f73ffffffffffffffffffffffffffffffffffffffff165f8360405161042091906116a2565b9081526040519081900360200190206001015473ffffffffffffffffffffffffffffffffffffffff16141592915050565b5f60058360405161046291906116a2565b9081526040805191829003602090810190922073ffffffffffffffffffffffffffffffffffffffff85165f908152925290205460ff16905092915050565b5f5f5f6002856040516104b391906116a2565b908152604080516020928190038301812073ffffffffffffffffffffffffffffffffffffffff88165f90815290845282812082840190935282548083526001909301549382019390935292509003610537576040517f9e15e1bc00000000000000000000000000000000000000000000000000000000815260040160405180910390fd5b8051602090910151909590945092505050565b606060038260405161055c91906116a2565b90815260408051918290036020908101832080548083028501830190935282845291908301828280156105c357602002820191905f5260205f20905b815473ffffffffffffffffffffffffffffffffffffffff168152600190910190602001808311610598575b50505050509050919050565b60605f5f5f5f856040516105e391906116a2565b90815260200160405180910390206040518060600160405290815f8201805461060b906116b8565b80601f0160208091040260200160405190810160405280929190818152602001828054610637906116b8565b80156106825780601f1061065957610100808354040283529160200191610682565b820191905f5260205f20905b81548152906001019060200180831161066557829003601f168201915b5050509183525050600182015473ffffffffffffffffffffffffffffffffffffffff90811660208084019190915260029093015460409092019190915290820151919250166106fd576040517f7e3336d900000000000000000000000000000000000000000000000000000000815260040160405180910390fd5b8051602082015160409092015190969195509350915050565b5f8273ffffffffffffffffffffffffffffffffffffffff165f8360405161073d91906116a2565b9081526040519081900360200190206001015473ffffffffffffffffffffffffffffffffffffffff1614905092915050565b5f8351116107de576040517f08c379a000000000000000000000000000000000000000000000000000000000815260206004820152601960248201527f5375727665792049442063616e6e6f7420626520656d7074790000000000000060448201526064015b60405180910390fd5b5f825111610848576040517f08c379a000000000000000000000000000000000000000000000000000000000815260206004820152601860248201527f49504653204349442063616e6e6f7420626520656d707479000000000000000060448201526064016107d5565b5f73ffffffffffffffffffffffffffffffffffffffff165f8460405161086e91906116a2565b9081526040519081900360200190206001015473ffffffffffffffffffffffffffffffffffffffff16146108ce576040517f2dbb439c00000000000000000000000000000000000000000000000000000000815260040160405180910390fd5b60408051606081018252838152336020820152428183015290515f906108f59086906116a2565b908152604051908190036020019020815181906109129082611755565b50602082810151600183810180547fffffffffffffffffffffffff00000000000000000000000000000000000000001673ffffffffffffffffffffffffffffffffffffffff90931692909217909155604093840151600290930192909255335f908152828252928320805492830181558352909120016109928482611755565b505f5b81518110156109c9576109c1848383815181106109b4576109b461186c565b6020026020010151610dea565b600101610995565b50505050565b3373ffffffffffffffffffffffffffffffffffffffff165f836040516109f591906116a2565b9081526040519081900360200190206001015473ffffffffffffffffffffffffffffffffffffffff1614610a55576040517fa9e4eb1400000000000000000000000000000000000000000000000000000000815260040160405180910390fd5b610a5f8282610dea565b5050565b5f73ffffffffffffffffffffffffffffffffffffffff165f85604051610a8991906116a2565b9081526040519081900360200190206001015473ffffffffffffffffffffffffffffffffffffffff1603610ae9576040517f7e3336d900000000000000000000000000000000000000000000000000000000815260040160405180910390fd5b5f8381526004602052604090205460ff1615610b31576040517fcad2ae0200000000000000000000000000000000000000000000000000000000815260040160405180910390fd5b600284604051610b4191906116a2565b908152604080516020928190038301902073ffffffffffffffffffffffffffffffffffffffff85165f90815292528120549003610baa576040517f9e15e1bc00000000000000000000000000000000000000000000000000000000815260040160405180910390fd5b5f83604051602001610bbe91815260200190565b6040516020818303038152906040528051906020012090505f81604051602001610c1491907f19457468657265756d205369676e6564204d6573736167653a0a3332000000008152601c810191909152603c0190565b6040516020818303038152906040528051906020012090505f610c378285610f8c565b90508473ffffffffffffffffffffffffffffffffffffffff168173ffffffffffffffffffffffffffffffffffffffff1614610c9e576040517f8baa579f00000000000000000000000000000000000000000000000000000000815260040160405180910390fd5b5f868152600460205260409081902080547fffffffffffffffffffffffffffffffffffffffffffffffffffffffffffffff0016600117905551600590610ce59089906116a2565b9081526040805160209281900383019020335f908152925290205460ff16610d61576001600588604051610d1991906116a2565b9081526040805160209281900383019020335f9081529252902080547fffffffffffffffffffffffffffffffffffffffffffffffffffffffffffffff00169115159190911790555b50505050505050565b5f5f83604051610d7a91906116a2565b908152604051908190036020019020600181015490915073ffffffffffffffffffffffffffffffffffffffff163314610ddf576040517fa9e4eb1400000000000000000000000000000000000000000000000000000000815260040160405180910390fd5b806109c98382611755565b73ffffffffffffffffffffffffffffffffffffffff8116610e37576040517f3b98df6500000000000000000000000000000000000000000000000000000000815260040160405180910390fd5b600282604051610e4791906116a2565b908152604080516020928190038301902073ffffffffffffffffffffffffffffffffffffffff84165f908152925290205415610eaf576040517f7d4c96a800000000000000000000000000000000000000000000000000000000815260040160405180910390fd5b60405180604001604052804281526020015f815250600283604051610ed491906116a2565b90815260408051918290036020908101832073ffffffffffffffffffffffffffffffffffffffff86165f9081529082529190912083518155920151600190920191909155600390610f269084906116a2565b9081526040516020918190038201902080546001810182555f9182529190200180547fffffffffffffffffffffffff00000000000000000000000000000000000000001673ffffffffffffffffffffffffffffffffffffffff9290921691909117905550565b5f8151604114610ff8576040517f08c379a000000000000000000000000000000000000000000000000000000000815260206004820152601860248201527f496e76616c6964207369676e6174757265206c656e677468000000000000000060448201526064016107d5565b6020820151604083015160608401515f1a601b8110156110205761101d601b82611899565b90505b8060ff16601b148061103557508060ff16601c145b61109b576040517f08c379a000000000000000000000000000000000000000000000000000000000815260206004820181905260248201527f496e76616c6964207369676e6174757265207265636f766572792076616c756560448201526064016107d5565b604080515f81526020810180835288905260ff831691810191909152606081018490526080810183905260019060a0016020604051602081039080840390855afa1580156110eb573d5f5f3e3d5ffd5b50506040517fffffffffffffffffffffffffffffffffffffffffffffffffffffffffffffffe00151979650505050505050565b7f4e487b71000000000000000000000000000000000000000000000000000000005f52604160045260245ffd5b604051601f82017fffffffffffffffffffffffffffffffffffffffffffffffffffffffffffffffe016810167ffffffffffffffff811182821017156111925761119261111e565b604052919050565b5f5f67ffffffffffffffff8411156111b4576111b461111e565b50601f83017fffffffffffffffffffffffffffffffffffffffffffffffffffffffffffffffe0166020016111e78161114b565b9150508281528383830111156111fb575f5ffd5b828260208301375f602084830101529392505050565b5f82601f830112611220575f5ffd5b61122f8383356020850161119a565b9392505050565b803573ffffffffffffffffffffffffffffffffffffffff81168114611259575f5ffd5b919050565b5f5f6040838503121561126f575f5ffd5b823567ffffffffffffffff811115611285575f5ffd5b61129185828601611211565b9250506112a060208401611236565b90509250929050565b5f602082840312156112b9575f5ffd5b5035919050565b5f602082840312156112d0575f5ffd5b61122f82611236565b5f81518084528060208401602086015e5f6020828601015260207fffffffffffffffffffffffffffffffffffffffffffffffffffffffffffffffe0601f83011685010191505092915050565b5f602082016020835280845180835260408501915060408160051b8601019250602086015f5b8281101561139a577fffffffffffffffffffffffffffffffffffffffffffffffffffffffffffffffc08786030184526113858583516112d9565b9450602093840193919091019060010161134b565b50929695505050505050565b5f602082840312156113b6575f5ffd5b813567ffffffffffffffff8111156113cc575f5ffd5b6113d884828501611211565b949350505050565b602080825282518282018190525f918401906040840190835b8181101561142d57835173ffffffffffffffffffffffffffffffffffffffff168352602093840193909201916001016113f9565b509095945050505050565b606081525f61144a60608301866112d9565b73ffffffffffffffffffffffffffffffffffffffff9490941660208301525060400152919050565b5f5f60408385031215611483575f5ffd5b61148c83611236565b9150602083013567ffffffffffffffff8111156114a7575f5ffd5b6114b385828601611211565b9150509250929050565b5f5f5f606084860312156114cf575f5ffd5b833567ffffffffffffffff8111156114e5575f5ffd5b6114f186828701611211565b935050602084013567ffffffffffffffff81111561150d575f5ffd5b61151986828701611211565b925050604084013567ffffffffffffffff811115611535575f5ffd5b8401601f81018613611545575f5ffd5b803567ffffffffffffffff81111561155f5761155f61111e565b8060051b61156f6020820161114b565b9182526020818401810192908101908984111561158a575f5ffd5b6020850194505b838510156115b3576115a285611236565b825260209485019490910190611591565b80955050505050509250925092565b5f5f5f5f608085870312156115d5575f5ffd5b843567ffffffffffffffff8111156115eb575f5ffd5b6115f787828801611211565b9450506020850135925061160d60408601611236565b9150606085013567ffffffffffffffff811115611628575f5ffd5b8501601f81018713611638575f5ffd5b6116478782356020840161119a565b91505092959194509250565b5f5f60408385031215611664575f5ffd5b823567ffffffffffffffff81111561167a575f5ffd5b61168685828601611211565b925050602083013567ffffffffffffffff8111156114a7575f5ffd5b5f82518060208501845e5f920191825250919050565b600181811c908216806116cc57607f821691505b602082108103611703577f4e487b71000000000000000000000000000000000000000000000000000000005f52602260045260245ffd5b50919050565b601f82111561175057805f5260205f20601f840160051c8101602085101561172e5750805b601f840160051c820191505b8181101561174d575f815560010161173a565b50505b505050565b815167ffffffffffffffff81111561176f5761176f61111e565b6117838161177d84546116b8565b84611709565b6020601f8211600181146117d4575f831561179e5750848201515b7fffffffffffffffffffffffffffffffffffffffffffffffffffffffffffffffff600385901b1c1916600184901b17845561174d565b5f848152602081207fffffffffffffffffffffffffffffffffffffffffffffffffffffffffffffffe08516915b828110156118215787850151825560209485019460019092019101611801565b508482101561185d57868401517fffffffffffffffffffffffffffffffffffffffffffffffffffffffffffffffff600387901b60f8161c191681555b50505050600190811b01905550565b7f4e487b71000000000000000000000000000000000000000000000000000000005f52603260045260245ffd5b60ff81811683821601908111156102fc577f4e487b71000000000000000000000000000000000000000000000000000000005f52601160045260245ffdfea2646970667358221220ecc5d70c959a97bfd851becbab13eead6fb9e5549b2e395cb197566f8b2c3d8764736f6c634300081c0033",
  "linkReferences": {},
  "deployedLinkReferences": {},
  "immutableReferences": {},
  "inputSourceName": "project/src/SurveyStore/SurveyStore.sol",
  "devdoc": {
    "kind": "dev",
    "methods": {
      "createSurvey(string,string,address[])": {
        "details": "Create a new survey with an optional initial set of batch wallets.      Pass an empty array to create the survey without any batches.",
        "params": {
          "batchIds": "Ephemeral batch wallet addresses. Pass [] to skip.",
          "ipfsCid": "IPFS content identifier for survey metadata",
          "surveyId": "Unique identifier, generated client-side"
        }
      },
      "isParticipant(string,address)": {
        "details": "Check if an address is a registered participant for a survey.      Used by Lit Protocol as an access condition.",
        "params": {
          "participant": "Address to check (survey-scoped child wallet)",
          "surveyId": "Survey to check"
        }
      },
      "registerBatch(string,address)": {
        "details": "Register an additional batch for an existing survey.",
        "params": {
          "batchId": "Ephemeral batch wallet address",
          "surveyId": "Survey this batch belongs to"
        }
      },
      "updateSurvey(string,string)": {
        "details": "Update survey IPFS CID — survey content is mutable post-creation."
      },
      "validateCard(string,bytes32,address,bytes)": {
        "details": "Validate a card submission.      Called by the user's survey-scoped child wallet.      Call registerParticipant() after this to register the child wallet.",
        "params": {
          "batchId": "Batch wallet address this card belongs to",
          "nullifier": "Unique card identifier from QR code",
          "signature": "Signature produced by the ephemeral batch wallet",
          "surveyId": "Survey this card is for"
        }
      }
    },
    "title": "S3ntimentSurveyStore",
    "version": 1
  },
  "evm": {
    "gasEstimates": {
      "creation": {
        "codeDepositCost": "1282600",
        "executionCost": "1333",
        "totalCost": "1283933"
      },
      "external": {
        "createSurvey(string,string,address[])": "infinite",
        "getBatch(string,address)": "infinite",
        "getBatchCardCount(string,address)": "infinite",
        "getOwnerSurveyCount(address)": "2544",
        "getOwnerSurveys(address)": "infinite",
        "getSurvey(string)": "infinite",
        "getSurveyBatches(string)": "infinite",
        "isNullifierUsed(bytes32)": "2515",
        "isOwner(address,string)": "infinite",
        "isParticipant(string,address)": "infinite",
        "registerBatch(string,address)": "infinite",
        "surveyExists(string)": "infinite",
        "updateSurvey(string,string)": "infinite",
        "usedNullifiers(bytes32)": "2493",
        "validateCard(string,bytes32,address,bytes)": "infinite"
      },
      "internal": {
        "_registerBatch(string memory,address)": "infinite",
        "recoverSigner(bytes32,bytes memory)": "infinite"
      }
    }
  },
  "storageLayout": {
    "storage": [
      {
        "astId": 19,
        "contract": "project/src/SurveyStore/SurveyStore.sol:S3ntimentSurveyStore",
        "label": "surveys",
        "offset": 0,
        "slot": "0",
        "type": "t_mapping(t_string_memory_ptr,t_struct(Survey)9_storage)"
      },
      {
        "astId": 24,
        "contract": "project/src/SurveyStore/SurveyStore.sol:S3ntimentSurveyStore",
        "label": "ownerSurveys",
        "offset": 0,
        "slot": "1",
        "type": "t_mapping(t_address,t_array(t_string_storage)dyn_storage)"
      },
      {
        "astId": 31,
        "contract": "project/src/SurveyStore/SurveyStore.sol:S3ntimentSurveyStore",
        "label": "batches",
        "offset": 0,
        "slot": "2",
        "type": "t_mapping(t_string_memory_ptr,t_mapping(t_address,t_struct(Batch)14_storage))"
      },
      {
        "astId": 36,
        "contract": "project/src/SurveyStore/SurveyStore.sol:S3ntimentSurveyStore",
        "label": "surveyBatchIds",
        "offset": 0,
        "slot": "3",
        "type": "t_mapping(t_string_memory_ptr,t_array(t_address)dyn_storage)"
      },
      {
        "astId": 40,
        "contract": "project/src/SurveyStore/SurveyStore.sol:S3ntimentSurveyStore",
        "label": "usedNullifiers",
        "offset": 0,
        "slot": "4",
        "type": "t_mapping(t_bytes32,t_bool)"
      },
      {
        "astId": 46,
        "contract": "project/src/SurveyStore/SurveyStore.sol:S3ntimentSurveyStore",
        "label": "surveyParticipants",
        "offset": 0,
        "slot": "5",
        "type": "t_mapping(t_string_memory_ptr,t_mapping(t_address,t_bool))"
      }
    ],
    "types": {
      "t_address": {
        "encoding": "inplace",
        "label": "address",
        "numberOfBytes": "20"
      },
      "t_array(t_address)dyn_storage": {
        "base": "t_address",
        "encoding": "dynamic_array",
        "label": "address[]",
        "numberOfBytes": "32"
      },
      "t_array(t_string_storage)dyn_storage": {
        "base": "t_string_storage",
        "encoding": "dynamic_array",
        "label": "string[]",
        "numberOfBytes": "32"
      },
      "t_bool": {
        "encoding": "inplace",
        "label": "bool",
        "numberOfBytes": "1"
      },
      "t_bytes32": {
        "encoding": "inplace",
        "label": "bytes32",
        "numberOfBytes": "32"
      },
      "t_mapping(t_address,t_array(t_string_storage)dyn_storage)": {
        "encoding": "mapping",
        "key": "t_address",
        "label": "mapping(address => string[])",
        "numberOfBytes": "32",
        "value": "t_array(t_string_storage)dyn_storage"
      },
      "t_mapping(t_address,t_bool)": {
        "encoding": "mapping",
        "key": "t_address",
        "label": "mapping(address => bool)",
        "numberOfBytes": "32",
        "value": "t_bool"
      },
      "t_mapping(t_address,t_struct(Batch)14_storage)": {
        "encoding": "mapping",
        "key": "t_address",
        "label": "mapping(address => struct S3ntimentSurveyStore.Batch)",
        "numberOfBytes": "32",
        "value": "t_struct(Batch)14_storage"
      },
      "t_mapping(t_bytes32,t_bool)": {
        "encoding": "mapping",
        "key": "t_bytes32",
        "label": "mapping(bytes32 => bool)",
        "numberOfBytes": "32",
        "value": "t_bool"
      },
      "t_mapping(t_string_memory_ptr,t_array(t_address)dyn_storage)": {
        "encoding": "mapping",
        "key": "t_string_memory_ptr",
        "label": "mapping(string => address[])",
        "numberOfBytes": "32",
        "value": "t_array(t_address)dyn_storage"
      },
      "t_mapping(t_string_memory_ptr,t_mapping(t_address,t_bool))": {
        "encoding": "mapping",
        "key": "t_string_memory_ptr",
        "label": "mapping(string => mapping(address => bool))",
        "numberOfBytes": "32",
        "value": "t_mapping(t_address,t_bool)"
      },
      "t_mapping(t_string_memory_ptr,t_mapping(t_address,t_struct(Batch)14_storage))": {
        "encoding": "mapping",
        "key": "t_string_memory_ptr",
        "label": "mapping(string => mapping(address => struct S3ntimentSurveyStore.Batch))",
        "numberOfBytes": "32",
        "value": "t_mapping(t_address,t_struct(Batch)14_storage)"
      },
      "t_mapping(t_string_memory_ptr,t_struct(Survey)9_storage)": {
        "encoding": "mapping",
        "key": "t_string_memory_ptr",
        "label": "mapping(string => struct S3ntimentSurveyStore.Survey)",
        "numberOfBytes": "32",
        "value": "t_struct(Survey)9_storage"
      },
      "t_string_memory_ptr": {
        "encoding": "bytes",
        "label": "string",
        "numberOfBytes": "32"
      },
      "t_string_storage": {
        "encoding": "bytes",
        "label": "string",
        "numberOfBytes": "32"
      },
      "t_struct(Batch)14_storage": {
        "encoding": "inplace",
        "label": "struct S3ntimentSurveyStore.Batch",
        "members": [
          {
            "astId": 11,
            "contract": "project/src/SurveyStore/SurveyStore.sol:S3ntimentSurveyStore",
            "label": "createdAt",
            "offset": 0,
            "slot": "0",
            "type": "t_uint256"
          },
          {
            "astId": 13,
            "contract": "project/src/SurveyStore/SurveyStore.sol:S3ntimentSurveyStore",
            "label": "cardCount",
            "offset": 0,
            "slot": "1",
            "type": "t_uint256"
          }
        ],
        "numberOfBytes": "64"
      },
      "t_struct(Survey)9_storage": {
        "encoding": "inplace",
        "label": "struct S3ntimentSurveyStore.Survey",
        "members": [
          {
            "astId": 4,
            "contract": "project/src/SurveyStore/SurveyStore.sol:S3ntimentSurveyStore",
            "label": "ipfsCid",
            "offset": 0,
            "slot": "0",
            "type": "t_string_storage"
          },
          {
            "astId": 6,
            "contract": "project/src/SurveyStore/SurveyStore.sol:S3ntimentSurveyStore",
            "label": "owner",
            "offset": 0,
            "slot": "1",
            "type": "t_address"
          },
          {
            "astId": 8,
            "contract": "project/src/SurveyStore/SurveyStore.sol:S3ntimentSurveyStore",
            "label": "createdAt",
            "offset": 0,
            "slot": "2",
            "type": "t_uint256"
          }
        ],
        "numberOfBytes": "96"
      },
      "t_uint256": {
        "encoding": "inplace",
        "label": "uint256",
        "numberOfBytes": "32"
      }
    }
  },
  "userdoc": {
    "kind": "user",
    "methods": {},
    "notice": "Stores surveys and validates anonymous survey card submissions. Card generation flow (off-chain):   1. Survey owner signs a random seed once → derives an ephemeral batch wallet (one popup)   2. Batch wallet address is registered on-chain via createSurvey() or registerBatch()   3. Each card's nullifier is signed locally by the batch wallet (no further popups)   4. Cards are printed as QR codes containing: nullifier, batchId, signature, surveyId Card submission flow (on-chain):   1. validateCard() recovers the signer from the card's signature   2. Verifies signer === registered batch wallet (batchId)   3. Marks nullifier as used to prevent double submission   4. Caller registers as participant via registerParticipant() using their survey-scoped child wallet Child wallet derivation (off-chain):   1. User logs in once via WaaP → app-scoped master account   2. Master account signs surveyId → signature used as vOPRF secret input   3. vOPRF(salt=surveyId, secret=signature) → deterministic child private key   4. Child wallet is unlinkable to master account and to other surveys   5. Child wallet calls validateCard() + registerParticipant()   6. Lit Protocol uses isParticipant() as access condition to gate response decryption Key design decisions:   - batchId === batch wallet address — no separate UUID needed   - Batch signers are immutable once registered — protects printed cards   - Batches are scoped to a survey — a batch wallet cannot be reused across surveys   - createSurvey() accepts an array of batchIds to minimize signatures in new survey flow   - No events are emitted — storage is read directly by Lit and frontend",
    "version": 1
  },
  "argsData": "0x",
  "transaction": {
    "hash": "0x8a9c8a22042ac2acce311f79e9b22437d871e794caff87b10fc308f045d44f72",
    "nonce": "0x1c",
    "origin": "0xb6ca51ca72c689b720235aca37e579f821fa05ee"
  }
}