{
  "address": "0xf42cc0b6261e7b58f42eabb765ab438b2b9f2598",
  "abi": [
    {
      "inputs": [],
      "name": "BatchAlreadyRegistered",
      "type": "error"
    },
    {
      "inputs": [],
      "name": "BatchNotFound",
      "type": "error"
    },
    {
      "inputs": [],
      "name": "InvalidBatchId",
      "type": "error"
    },
    {
      "inputs": [],
      "name": "NotSurveyOwner",
      "type": "error"
    },
    {
      "inputs": [],
      "name": "NullifierAlreadyUsed",
      "type": "error"
    },
    {
      "inputs": [],
      "name": "SignerNotBatchWallet",
      "type": "error"
    },
    {
      "inputs": [],
      "name": "SurveyAlreadyExists",
      "type": "error"
    },
    {
      "inputs": [],
      "name": "SurveyNotFound",
      "type": "error"
    },
    {
      "anonymous": false,
      "inputs": [
        {
          "indexed": true,
          "internalType": "string",
          "name": "surveyId",
          "type": "string"
        },
        {
          "indexed": true,
          "internalType": "address",
          "name": "batchId",
          "type": "address"
        },
        {
          "indexed": false,
          "internalType": "uint256",
          "name": "timestamp",
          "type": "uint256"
        }
      ],
      "name": "BatchRegistered",
      "type": "event"
    },
    {
      "anonymous": false,
      "inputs": [
        {
          "indexed": true,
          "internalType": "string",
          "name": "surveyId",
          "type": "string"
        },
        {
          "indexed": true,
          "internalType": "address",
          "name": "batchId",
          "type": "address"
        },
        {
          "indexed": false,
          "internalType": "string",
          "name": "nullifier",
          "type": "string"
        },
        {
          "indexed": false,
          "internalType": "uint256",
          "name": "newCount",
          "type": "uint256"
        }
      ],
      "name": "CardValidated",
      "type": "event"
    },
    {
      "anonymous": false,
      "inputs": [
        {
          "indexed": true,
          "internalType": "address",
          "name": "owner",
          "type": "address"
        },
        {
          "indexed": false,
          "internalType": "string",
          "name": "surveyId",
          "type": "string"
        },
        {
          "indexed": false,
          "internalType": "string",
          "name": "ipfsCid",
          "type": "string"
        },
        {
          "indexed": false,
          "internalType": "uint256",
          "name": "timestamp",
          "type": "uint256"
        }
      ],
      "name": "SurveyCreated",
      "type": "event"
    },
    {
      "anonymous": false,
      "inputs": [
        {
          "indexed": false,
          "internalType": "string",
          "name": "surveyId",
          "type": "string"
        },
        {
          "indexed": false,
          "internalType": "string",
          "name": "newIpfsCid",
          "type": "string"
        }
      ],
      "name": "SurveyUpdated",
      "type": "event"
    },
    {
      "inputs": [
        {
          "internalType": "string",
          "name": "surveyId",
          "type": "string"
        },
        {
          "internalType": "string",
          "name": "ipfsCid",
          "type": "string"
        }
      ],
      "name": "createSurvey",
      "outputs": [],
      "stateMutability": "nonpayable",
      "type": "function"
    },
    {
      "inputs": [
        {
          "internalType": "string",
          "name": "surveyId",
          "type": "string"
        },
        {
          "internalType": "address",
          "name": "batchId",
          "type": "address"
        }
      ],
      "name": "getBatch",
      "outputs": [
        {
          "internalType": "uint256",
          "name": "createdAt",
          "type": "uint256"
        },
        {
          "internalType": "uint256",
          "name": "cardCount",
          "type": "uint256"
        }
      ],
      "stateMutability": "view",
      "type": "function"
    },
    {
      "inputs": [
        {
          "internalType": "string",
          "name": "surveyId",
          "type": "string"
        },
        {
          "internalType": "address",
          "name": "batchId",
          "type": "address"
        }
      ],
      "name": "getBatchCardCount",
      "outputs": [
        {
          "internalType": "uint256",
          "name": "",
          "type": "uint256"
        }
      ],
      "stateMutability": "view",
      "type": "function"
    },
    {
      "inputs": [
        {
          "internalType": "address",
          "name": "owner",
          "type": "address"
        }
      ],
      "name": "getOwnerSurveyCount",
      "outputs": [
        {
          "internalType": "uint256",
          "name": "",
          "type": "uint256"
        }
      ],
      "stateMutability": "view",
      "type": "function"
    },
    {
      "inputs": [
        {
          "internalType": "address",
          "name": "owner",
          "type": "address"
        }
      ],
      "name": "getOwnerSurveys",
      "outputs": [
        {
          "internalType": "string[]",
          "name": "",
          "type": "string[]"
        }
      ],
      "stateMutability": "view",
      "type": "function"
    },
    {
      "inputs": [
        {
          "internalType": "string",
          "name": "surveyId",
          "type": "string"
        }
      ],
      "name": "getSurvey",
      "outputs": [
        {
          "internalType": "string",
          "name": "ipfsCid",
          "type": "string"
        },
        {
          "internalType": "address",
          "name": "owner",
          "type": "address"
        },
        {
          "internalType": "uint256",
          "name": "createdAt",
          "type": "uint256"
        }
      ],
      "stateMutability": "view",
      "type": "function"
    },
    {
      "inputs": [
        {
          "internalType": "string",
          "name": "surveyId",
          "type": "string"
        }
      ],
      "name": "getSurveyBatches",
      "outputs": [
        {
          "internalType": "address[]",
          "name": "",
          "type": "address[]"
        }
      ],
      "stateMutability": "view",
      "type": "function"
    },
    {
      "inputs": [
        {
          "internalType": "string",
          "name": "nullifier",
          "type": "string"
        },
        {
          "internalType": "address",
          "name": "batchId",
          "type": "address"
        }
      ],
      "name": "isNullifierUsed",
      "outputs": [
        {
          "internalType": "bool",
          "name": "",
          "type": "bool"
        }
      ],
      "stateMutability": "view",
      "type": "function"
    },
    {
      "inputs": [
        {
          "internalType": "address",
          "name": "authSigAddress",
          "type": "address"
        },
        {
          "internalType": "string",
          "name": "surveyId",
          "type": "string"
        }
      ],
      "name": "isOwner",
      "outputs": [
        {
          "internalType": "bool",
          "name": "",
          "type": "bool"
        }
      ],
      "stateMutability": "view",
      "type": "function"
    },
    {
      "inputs": [
        {
          "internalType": "string",
          "name": "surveyId",
          "type": "string"
        },
        {
          "internalType": "address",
          "name": "batchId",
          "type": "address"
        }
      ],
      "name": "registerBatch",
      "outputs": [],
      "stateMutability": "nonpayable",
      "type": "function"
    },
    {
      "inputs": [
        {
          "internalType": "string",
          "name": "surveyId",
          "type": "string"
        }
      ],
      "name": "surveyExists",
      "outputs": [
        {
          "internalType": "bool",
          "name": "",
          "type": "bool"
        }
      ],
      "stateMutability": "view",
      "type": "function"
    },
    {
      "inputs": [
        {
          "internalType": "string",
          "name": "surveyId",
          "type": "string"
        },
        {
          "internalType": "string",
          "name": "newIpfsCid",
          "type": "string"
        }
      ],
      "name": "updateSurvey",
      "outputs": [],
      "stateMutability": "nonpayable",
      "type": "function"
    },
    {
      "inputs": [
        {
          "internalType": "bytes32",
          "name": "",
          "type": "bytes32"
        }
      ],
      "name": "usedNullifiers",
      "outputs": [
        {
          "internalType": "bool",
          "name": "",
          "type": "bool"
        }
      ],
      "stateMutability": "view",
      "type": "function"
    },
    {
      "inputs": [
        {
          "internalType": "string",
          "name": "nullifier",
          "type": "string"
        },
        {
          "internalType": "bytes",
          "name": "signature",
          "type": "bytes"
        },
        {
          "internalType": "address",
          "name": "batchId",
          "type": "address"
        },
        {
          "internalType": "string",
          "name": "surveyId",
          "type": "string"
        }
      ],
      "name": "validateCard",
      "outputs": [
        {
          "internalType": "bool",
          "name": "",
          "type": "bool"
        }
      ],
      "stateMutability": "nonpayable",
      "type": "function"
    }
  ],
  "contractName": "S3ntimentSurveyStore",
  "sourceName": "src/SurveyStore/SurveyStore.sol",
  "bytecode": "0x6080604052348015600e575f5ffd5b506119998061001c5f395ff3fe608060405234801561000f575f5ffd5b50600436106100e5575f3560e01c8063c5b8806611610088578063dea7784d11610063578063dea7784d1461023b578063dee800cf1461024e578063e41b366914610261578063f4060dd114610274575f5ffd5b8063c5b88066146101d1578063c6576e4714610206578063cd37996414610228575f5ffd5b806342abbabd116100c357806342abbabd146101615780635483b3e114610174578063ac4da5a71461019c578063be7d3568146101bc575f5ffd5b8063174a84a8146100e9578063206137aa1461010f5780633cfebb6e14610141575b5f5ffd5b6100fc6100f73660046112c8565b610287565b6040519081526020015b60405180910390f35b61013161011d366004611313565b60046020525f908152604090205460ff1681565b6040519015158152602001610106565b61015461014f36600461132a565b6102d5565b604051610106919061138f565b61013161016f366004611410565b6103cc565b6101876101823660046112c8565b610424565b60408051928352602083019190915201610106565b6101af6101aa366004611410565b6104ce565b604051610106919061144a565b6101cf6101ca3660046114a2565b610553565b005b6100fc6101df36600461132a565b73ffffffffffffffffffffffffffffffffffffffff165f9081526001602052604090205490565b610219610214366004611410565b6107cd565b60405161010693929190611507565b610131610236366004611541565b610914565b610131610249366004611576565b61096d565b61013161025c3660046112c8565b610c97565b6101cf61026f3660046112c8565b610cf9565b6101cf6102823660046114a2565b610f68565b5f600283604051610298919061163f565b908152604080516020928190038301902073ffffffffffffffffffffffffffffffffffffffff85165f908152925290206001015490505b92915050565b73ffffffffffffffffffffffffffffffffffffffff81165f908152600160209081526040808320805482518185028101850190935280835260609492939192909184015b828210156103c1578382905f5260205f200180546103369061164a565b80601f01602080910402602001604051908101604052809291908181526020018280546103629061164a565b80156103ad5780601f10610384576101008083540402835291602001916103ad565b820191905f5260205f20905b81548152906001019060200180831161039057829003601f168201915b505050505081526020019060010190610319565b505050509050919050565b5f5f73ffffffffffffffffffffffffffffffffffffffff165f836040516103f3919061163f565b9081526040519081900360200190206001015473ffffffffffffffffffffffffffffffffffffffff16141592915050565b5f5f5f600285604051610437919061163f565b908152604080516020928190038301812073ffffffffffffffffffffffffffffffffffffffff88165f908152908452828120828401909352825480835260019093015493820193909352925090036104bb576040517f9e15e1bc00000000000000000000000000000000000000000000000000000000815260040160405180910390fd5b8051602090910151909590945092505050565b60606003826040516104e0919061163f565b908152604080519182900360209081018320805480830285018301909352828452919083018282801561054757602002820191905f5260205f20905b815473ffffffffffffffffffffffffffffffffffffffff16815260019091019060200180831161051c575b50505050509050919050565b5f8251116105c2576040517f08c379a000000000000000000000000000000000000000000000000000000000815260206004820152601960248201527f5375727665792049442063616e6e6f7420626520656d7074790000000000000060448201526064015b60405180910390fd5b5f81511161062c576040517f08c379a000000000000000000000000000000000000000000000000000000000815260206004820152601860248201527f49504653204349442063616e6e6f7420626520656d707479000000000000000060448201526064016105b9565b5f73ffffffffffffffffffffffffffffffffffffffff165f83604051610652919061163f565b9081526040519081900360200190206001015473ffffffffffffffffffffffffffffffffffffffff16146106b2576040517f2dbb439c00000000000000000000000000000000000000000000000000000000815260040160405180910390fd5b60408051606081018252828152336020820152428183015290515f906106d990859061163f565b908152604051908190036020019020815181906106f690826116e7565b50602082810151600183810180547fffffffffffffffffffffffff00000000000000000000000000000000000000001673ffffffffffffffffffffffffffffffffffffffff90931692909217909155604093840151600290930192909255335f9081528282529283208054928301815583529091200161077683826116e7565b503373ffffffffffffffffffffffffffffffffffffffff167fdb3a8af2f37abe346b31fdd308fc1e8bcdfe1512f0e0a9790d5677cb5e3ba2c68383426040516107c1939291906117fe565b60405180910390a25050565b60605f5f5f5f856040516107e1919061163f565b90815260200160405180910390206040518060600160405290815f820180546108099061164a565b80601f01602080910402602001604051908101604052809291908181526020018280546108359061164a565b80156108805780601f1061085757610100808354040283529160200191610880565b820191905f5260205f20905b81548152906001019060200180831161086357829003601f168201915b5050509183525050600182015473ffffffffffffffffffffffffffffffffffffffff90811660208084019190915260029093015460409092019190915290820151919250166108fb576040517f7e3336d900000000000000000000000000000000000000000000000000000000815260040160405180910390fd5b8051602082015160409092015190969195509350915050565b5f8273ffffffffffffffffffffffffffffffffffffffff165f8360405161093b919061163f565b9081526040519081900360200190206001015473ffffffffffffffffffffffffffffffffffffffff1614905092915050565b5f5f73ffffffffffffffffffffffffffffffffffffffff165f83604051610994919061163f565b9081526040519081900360200190206001015473ffffffffffffffffffffffffffffffffffffffff16036109f4576040517f7e3336d900000000000000000000000000000000000000000000000000000000815260040160405180910390fd5b5f600283604051610a05919061163f565b908152604080516020928190038301902073ffffffffffffffffffffffffffffffffffffffff87165f9081529252812080549092509003610a72576040517f9e15e1bc00000000000000000000000000000000000000000000000000000000815260040160405180910390fd5b5f8685604051602001610a86929190611833565b60405160208183030381529060405290505f81604051602001610aa9919061163f565b6040516020818303038152906040528051906020012090505f81604051602001610aff91907f19457468657265756d205369676e6564204d6573736167653a0a3332000000008152601c810191909152603c0190565b6040516020818303038152906040528051906020012090505f610b22828a611027565b90508773ffffffffffffffffffffffffffffffffffffffff168173ffffffffffffffffffffffffffffffffffffffff1614610b89576040517f9980e44800000000000000000000000000000000000000000000000000000000815260040160405180910390fd5b5f8381526004602052604090205460ff1615610bd1576040517fcad2ae0200000000000000000000000000000000000000000000000000000000815260040160405180910390fd5b5f83815260046020526040812080547fffffffffffffffffffffffffffffffffffffffffffffffffffffffffffffff001660019081179091558601805491610c18836118c5565b91905055508773ffffffffffffffffffffffffffffffffffffffff1687604051610c42919061163f565b60405180910390207f7f05ca6efc515d1fdf5da6712e38ce1906914884749b1f6760e524a60fc108cc8c8860010154604051610c7f9291906118fc565b60405180910390a35060019998505050505050505050565b5f5f8383604051602001610cac929190611833565b604080518083037fffffffffffffffffffffffffffffffffffffffffffffffffffffffffffffffe001815291815281516020928301205f908152600490925290205460ff16949350505050565b3373ffffffffffffffffffffffffffffffffffffffff165f83604051610d1f919061163f565b9081526040519081900360200190206001015473ffffffffffffffffffffffffffffffffffffffff1614610d7f576040517fa9e4eb1400000000000000000000000000000000000000000000000000000000815260040160405180910390fd5b73ffffffffffffffffffffffffffffffffffffffff8116610dcc576040517f3b98df6500000000000000000000000000000000000000000000000000000000815260040160405180910390fd5b600282604051610ddc919061163f565b908152604080516020928190038301902073ffffffffffffffffffffffffffffffffffffffff84165f908152925290205415610e44576040517f7d4c96a800000000000000000000000000000000000000000000000000000000815260040160405180910390fd5b60405180604001604052804281526020015f815250600283604051610e69919061163f565b90815260408051918290036020908101832073ffffffffffffffffffffffffffffffffffffffff86165f9081529082529190912083518155920151600190920191909155600390610ebb90849061163f565b908152604051908190036020908101822080546001810182555f91825291902001805473ffffffffffffffffffffffffffffffffffffffff84167fffffffffffffffffffffffff0000000000000000000000000000000000000000909116811790915590610f2a90849061163f565b604051908190038120428252907f596909e876e32edb0c6f53eafd21a29b46d021a679fa51151ed317272b00976f9060200160405180910390a35050565b5f5f83604051610f78919061163f565b908152604051908190036020019020600181015490915073ffffffffffffffffffffffffffffffffffffffff163314610fdd576040517fa9e4eb1400000000000000000000000000000000000000000000000000000000815260040160405180910390fd5b80610fe883826116e7565b507f09e712397bdfeb330419324b95d1d1e2a91a8b47587998d6d408c6958740e56d838360405161101a92919061191d565b60405180910390a1505050565b5f8151604114611093576040517f08c379a000000000000000000000000000000000000000000000000000000000815260206004820152601860248201527f496e76616c6964207369676e6174757265206c656e677468000000000000000060448201526064016105b9565b6020820151604083015160608401515f1a601b8110156110bb576110b8601b8261194a565b90505b8060ff16601b14806110d057508060ff16601c145b611136576040517f08c379a000000000000000000000000000000000000000000000000000000000815260206004820181905260248201527f496e76616c6964207369676e6174757265207265636f766572792076616c756560448201526064016105b9565b604080515f81526020810180835288905260ff831691810191909152606081018490526080810183905260019060a0016020604051602081039080840390855afa158015611186573d5f5f3e3d5ffd5b50506040517fffffffffffffffffffffffffffffffffffffffffffffffffffffffffffffffe00151979650505050505050565b7f4e487b71000000000000000000000000000000000000000000000000000000005f52604160045260245ffd5b5f5f67ffffffffffffffff841115611200576112006111b9565b506040517fffffffffffffffffffffffffffffffffffffffffffffffffffffffffffffffe0601f85018116603f0116810181811067ffffffffffffffff8211171561124d5761124d6111b9565b604052838152905080828401851015611264575f5ffd5b838360208301375f60208583010152509392505050565b5f82601f83011261128a575f5ffd5b611299838335602085016111e6565b9392505050565b803573ffffffffffffffffffffffffffffffffffffffff811681146112c3575f5ffd5b919050565b5f5f604083850312156112d9575f5ffd5b823567ffffffffffffffff8111156112ef575f5ffd5b6112fb8582860161127b565b92505061130a602084016112a0565b90509250929050565b5f60208284031215611323575f5ffd5b5035919050565b5f6020828403121561133a575f5ffd5b611299826112a0565b5f81518084528060208401602086015e5f6020828601015260207fffffffffffffffffffffffffffffffffffffffffffffffffffffffffffffffe0601f83011685010191505092915050565b5f602082016020835280845180835260408501915060408160051b8601019250602086015f5b82811015611404577fffffffffffffffffffffffffffffffffffffffffffffffffffffffffffffffc08786030184526113ef858351611343565b945060209384019391909101906001016113b5565b50929695505050505050565b5f60208284031215611420575f5ffd5b813567ffffffffffffffff811115611436575f5ffd5b6114428482850161127b565b949350505050565b602080825282518282018190525f918401906040840190835b8181101561149757835173ffffffffffffffffffffffffffffffffffffffff16835260209384019390920191600101611463565b509095945050505050565b5f5f604083850312156114b3575f5ffd5b823567ffffffffffffffff8111156114c9575f5ffd5b6114d58582860161127b565b925050602083013567ffffffffffffffff8111156114f1575f5ffd5b6114fd8582860161127b565b9150509250929050565b606081525f6115196060830186611343565b73ffffffffffffffffffffffffffffffffffffffff9490941660208301525060400152919050565b5f5f60408385031215611552575f5ffd5b61155b836112a0565b9150602083013567ffffffffffffffff8111156114f1575f5ffd5b5f5f5f5f60808587031215611589575f5ffd5b843567ffffffffffffffff81111561159f575f5ffd5b6115ab8782880161127b565b945050602085013567ffffffffffffffff8111156115c7575f5ffd5b8501601f810187136115d7575f5ffd5b6115e6878235602084016111e6565b9350506115f5604086016112a0565b9150606085013567ffffffffffffffff811115611610575f5ffd5b61161c8782880161127b565b91505092959194509250565b5f81518060208401855e5f93019283525090919050565b5f6112998284611628565b600181811c9082168061165e57607f821691505b602082108103611695577f4e487b71000000000000000000000000000000000000000000000000000000005f52602260045260245ffd5b50919050565b601f8211156116e257805f5260205f20601f840160051c810160208510156116c05750805b601f840160051c820191505b818110156116df575f81556001016116cc565b50505b505050565b815167ffffffffffffffff811115611701576117016111b9565b6117158161170f845461164a565b8461169b565b6020601f821160018114611766575f83156117305750848201515b7fffffffffffffffffffffffffffffffffffffffffffffffffffffffffffffffff600385901b1c1916600184901b1784556116df565b5f848152602081207fffffffffffffffffffffffffffffffffffffffffffffffffffffffffffffffe08516915b828110156117b35787850151825560209485019460019092019101611793565b50848210156117ef57868401517fffffffffffffffffffffffffffffffffffffffffffffffffffffffffffffffff600387901b60f8161c191681555b50505050600190811b01905550565b606081525f6118106060830186611343565b82810360208401526118228186611343565b915050826040830152949350505050565b5f61183e8285611628565b7f7c00000000000000000000000000000000000000000000000000000000000000815260609390931b7fffffffffffffffffffffffffffffffffffffffff0000000000000000000000001660018401525050601501919050565b7f4e487b71000000000000000000000000000000000000000000000000000000005f52601160045260245ffd5b5f7fffffffffffffffffffffffffffffffffffffffffffffffffffffffffffffffff82036118f5576118f5611898565b5060010190565b604081525f61190e6040830185611343565b90508260208301529392505050565b604081525f61192f6040830185611343565b82810360208401526119418185611343565b95945050505050565b60ff81811683821601908111156102cf576102cf61189856fea2646970667358221220c1ddcbbdc2adce4f6202f352fe8234705be980959c7b7c582dda12dfdd5863ab64736f6c634300081c0033",
  "linkReferences": {},
  "deployedLinkReferences": {},
  "immutableReferences": {},
  "inputSourceName": "project/src/SurveyStore/SurveyStore.sol",
  "devdoc": {
    "kind": "dev",
    "methods": {
      "createSurvey(string,string)": {
        "details": "Create a new survey with a globally unique ID (generated client-side)",
        "params": {
          "ipfsCid": "IPFS content identifier for survey metadata",
          "surveyId": "Unique identifier (UUID or composite)"
        }
      },
      "isNullifierUsed(string,address)": {
        "details": "Check if a specific nullifier has already been used"
      },
      "registerBatch(string,address)": {
        "details": "Register a new card batch for a survey.      The batchId is the address of an ephemeral wallet derived off-chain      from a single owner signature. This allows all cards in the batch to      be signed locally without per-card wallet popups, while keeping      on-chain verification trustless.      Batches are immutable once registered — this protects already-printed      cards from being invalidated by the survey owner.",
        "params": {
          "batchId": "Ephemeral batch wallet address (also serves as the batch identifier)",
          "surveyId": "Survey this batch belongs to"
        }
      },
      "updateSurvey(string,string)": {
        "details": "Update survey IPFS CID — survey content is mutable post-creation"
      },
      "validateCard(string,bytes,address,string)": {
        "details": "Validate a card and record the submission.      Verifies that the nullifier was signed by the registered batch wallet,      ensuring only legitimately printed cards can be submitted.      Each card can only be submitted once.",
        "params": {
          "batchId": "Batch wallet address this card belongs to",
          "nullifier": "Unique card identifier from QR code",
          "signature": "Signature produced by the ephemeral batch wallet",
          "surveyId": "Survey this card is for"
        }
      }
    },
    "title": "S3ntimentSurveyStore",
    "version": 1
  },
  "evm": {
    "gasEstimates": {
      "creation": {
        "codeDepositCost": "1310600",
        "executionCost": "1361",
        "totalCost": "1311961"
      },
      "external": {
        "createSurvey(string,string)": "infinite",
        "getBatch(string,address)": "infinite",
        "getBatchCardCount(string,address)": "infinite",
        "getOwnerSurveyCount(address)": "2522",
        "getOwnerSurveys(address)": "infinite",
        "getSurvey(string)": "infinite",
        "getSurveyBatches(string)": "infinite",
        "isNullifierUsed(string,address)": "infinite",
        "isOwner(address,string)": "infinite",
        "registerBatch(string,address)": "infinite",
        "surveyExists(string)": "infinite",
        "updateSurvey(string,string)": "infinite",
        "usedNullifiers(bytes32)": "2493",
        "validateCard(string,bytes,address,string)": "infinite"
      },
      "internal": {
        "recoverSigner(bytes32,bytes memory)": "infinite"
      }
    }
  },
  "storageLayout": {
    "storage": [
      {
        "astId": 19,
        "contract": "project/src/SurveyStore/SurveyStore.sol:S3ntimentSurveyStore",
        "label": "surveys",
        "offset": 0,
        "slot": "0",
        "type": "t_mapping(t_string_memory_ptr,t_struct(Survey)9_storage)"
      },
      {
        "astId": 24,
        "contract": "project/src/SurveyStore/SurveyStore.sol:S3ntimentSurveyStore",
        "label": "ownerSurveys",
        "offset": 0,
        "slot": "1",
        "type": "t_mapping(t_address,t_array(t_string_storage)dyn_storage)"
      },
      {
        "astId": 31,
        "contract": "project/src/SurveyStore/SurveyStore.sol:S3ntimentSurveyStore",
        "label": "batches",
        "offset": 0,
        "slot": "2",
        "type": "t_mapping(t_string_memory_ptr,t_mapping(t_address,t_struct(Batch)14_storage))"
      },
      {
        "astId": 36,
        "contract": "project/src/SurveyStore/SurveyStore.sol:S3ntimentSurveyStore",
        "label": "surveyBatchIds",
        "offset": 0,
        "slot": "3",
        "type": "t_mapping(t_string_memory_ptr,t_array(t_address)dyn_storage)"
      },
      {
        "astId": 40,
        "contract": "project/src/SurveyStore/SurveyStore.sol:S3ntimentSurveyStore",
        "label": "usedNullifiers",
        "offset": 0,
        "slot": "4",
        "type": "t_mapping(t_bytes32,t_bool)"
      }
    ],
    "types": {
      "t_address": {
        "encoding": "inplace",
        "label": "address",
        "numberOfBytes": "20"
      },
      "t_array(t_address)dyn_storage": {
        "base": "t_address",
        "encoding": "dynamic_array",
        "label": "address[]",
        "numberOfBytes": "32"
      },
      "t_array(t_string_storage)dyn_storage": {
        "base": "t_string_storage",
        "encoding": "dynamic_array",
        "label": "string[]",
        "numberOfBytes": "32"
      },
      "t_bool": {
        "encoding": "inplace",
        "label": "bool",
        "numberOfBytes": "1"
      },
      "t_bytes32": {
        "encoding": "inplace",
        "label": "bytes32",
        "numberOfBytes": "32"
      },
      "t_mapping(t_address,t_array(t_string_storage)dyn_storage)": {
        "encoding": "mapping",
        "key": "t_address",
        "label": "mapping(address => string[])",
        "numberOfBytes": "32",
        "value": "t_array(t_string_storage)dyn_storage"
      },
      "t_mapping(t_address,t_struct(Batch)14_storage)": {
        "encoding": "mapping",
        "key": "t_address",
        "label": "mapping(address => struct S3ntimentSurveyStore.Batch)",
        "numberOfBytes": "32",
        "value": "t_struct(Batch)14_storage"
      },
      "t_mapping(t_bytes32,t_bool)": {
        "encoding": "mapping",
        "key": "t_bytes32",
        "label": "mapping(bytes32 => bool)",
        "numberOfBytes": "32",
        "value": "t_bool"
      },
      "t_mapping(t_string_memory_ptr,t_array(t_address)dyn_storage)": {
        "encoding": "mapping",
        "key": "t_string_memory_ptr",
        "label": "mapping(string => address[])",
        "numberOfBytes": "32",
        "value": "t_array(t_address)dyn_storage"
      },
      "t_mapping(t_string_memory_ptr,t_mapping(t_address,t_struct(Batch)14_storage))": {
        "encoding": "mapping",
        "key": "t_string_memory_ptr",
        "label": "mapping(string => mapping(address => struct S3ntimentSurveyStore.Batch))",
        "numberOfBytes": "32",
        "value": "t_mapping(t_address,t_struct(Batch)14_storage)"
      },
      "t_mapping(t_string_memory_ptr,t_struct(Survey)9_storage)": {
        "encoding": "mapping",
        "key": "t_string_memory_ptr",
        "label": "mapping(string => struct S3ntimentSurveyStore.Survey)",
        "numberOfBytes": "32",
        "value": "t_struct(Survey)9_storage"
      },
      "t_string_memory_ptr": {
        "encoding": "bytes",
        "label": "string",
        "numberOfBytes": "32"
      },
      "t_string_storage": {
        "encoding": "bytes",
        "label": "string",
        "numberOfBytes": "32"
      },
      "t_struct(Batch)14_storage": {
        "encoding": "inplace",
        "label": "struct S3ntimentSurveyStore.Batch",
        "members": [
          {
            "astId": 11,
            "contract": "project/src/SurveyStore/SurveyStore.sol:S3ntimentSurveyStore",
            "label": "createdAt",
            "offset": 0,
            "slot": "0",
            "type": "t_uint256"
          },
          {
            "astId": 13,
            "contract": "project/src/SurveyStore/SurveyStore.sol:S3ntimentSurveyStore",
            "label": "cardCount",
            "offset": 0,
            "slot": "1",
            "type": "t_uint256"
          }
        ],
        "numberOfBytes": "64"
      },
      "t_struct(Survey)9_storage": {
        "encoding": "inplace",
        "label": "struct S3ntimentSurveyStore.Survey",
        "members": [
          {
            "astId": 4,
            "contract": "project/src/SurveyStore/SurveyStore.sol:S3ntimentSurveyStore",
            "label": "ipfsCid",
            "offset": 0,
            "slot": "0",
            "type": "t_string_storage"
          },
          {
            "astId": 6,
            "contract": "project/src/SurveyStore/SurveyStore.sol:S3ntimentSurveyStore",
            "label": "owner",
            "offset": 0,
            "slot": "1",
            "type": "t_address"
          },
          {
            "astId": 8,
            "contract": "project/src/SurveyStore/SurveyStore.sol:S3ntimentSurveyStore",
            "label": "createdAt",
            "offset": 0,
            "slot": "2",
            "type": "t_uint256"
          }
        ],
        "numberOfBytes": "96"
      },
      "t_uint256": {
        "encoding": "inplace",
        "label": "uint256",
        "numberOfBytes": "32"
      }
    }
  },
  "userdoc": {
    "kind": "user",
    "methods": {},
    "notice": "Stores surveys and validates anonymous survey card submissions. Card generation flow (off-chain):   1. Survey owner signs a random seed once → derives an ephemeral batch wallet (one popup)   2. Batch wallet address is registered on-chain as the batchId via registerBatch()   3. Each card's nullifier is signed locally by the batch wallet (no further popups)   4. Cards are printed as QR codes containing: nullifier, batchId, signature, surveyId Card submission flow (on-chain):   1. validateCard() recovers the signer from the card's signature   2. Verifies signer === registered batch wallet (batchId)   3. Marks nullifier as used to prevent double submission Key design decisions:   - batchId === batch wallet address — no separate UUID needed   - Batch signers are immutable once registered — protects printed cards   - Batches are scoped to a survey — a batch wallet cannot be reused across surveys",
    "version": 1
  },
  "argsData": "0x",
  "transaction": {
    "hash": "0x3b10bd20afe6c71796c1d674d4fee32de91b14ce231032129c5ac12ce308c959",
    "nonce": "0x18",
    "origin": "0xb6ca51ca72c689b720235aca37e579f821fa05ee"
  }
}